{
  "contractName": "DataStorage",
  "abi": [
    {
      "inputs": [],
      "stateMutability": "nonpayable",
      "type": "constructor"
    },
    {
      "inputs": [],
      "name": "gridHeight",
      "outputs": [
        {
          "internalType": "uint256",
          "name": "",
          "type": "uint256"
        }
      ],
      "stateMutability": "view",
      "type": "function"
    },
    {
      "inputs": [],
      "name": "gridWidth",
      "outputs": [
        {
          "internalType": "uint256",
          "name": "",
          "type": "uint256"
        }
      ],
      "stateMutability": "view",
      "type": "function"
    },
    {
      "inputs": [
        {
          "internalType": "uint256",
          "name": "",
          "type": "uint256"
        },
        {
          "internalType": "uint256",
          "name": "",
          "type": "uint256"
        }
      ],
      "name": "initialValues",
      "outputs": [
        {
          "internalType": "uint256",
          "name": "",
          "type": "uint256"
        }
      ],
      "stateMutability": "view",
      "type": "function"
    }
  ],
  "bytecode": "0x60806040523480156200001157600080fd5b50604051806104200160405280600360ff168152602001600660ff168152602001600960ff168152602001600c60ff168152602001600f60ff168152602001601260ff168152602001601560ff168152602001601860ff168152602001601b60ff168152602001601e60ff168152602001602160ff168152602001602460ff168152602001602760ff168152602001602a60ff168152602001602d60ff168152602001603060ff168152602001603360ff168152602001603660ff168152602001603960ff168152602001603c60ff168152602001603f60ff168152602001604260ff168152602001604560ff168152602001604860ff168152602001604b60ff168152602001604e60ff168152602001605160ff168152602001605460ff168152602001605760ff168152602001605a60ff168152602001605d60ff168152602001606060ff168152602001606360ff16815250600080601a81106200017d576200017c62002d7d565b5b602102019060216200019192919062002cc9565b50604051806104200160405280600660ff168152602001600c60ff168152602001601260ff168152602001601860ff168152602001601e60ff168152602001602460ff168152602001602a60ff168152602001603060ff168152602001603660ff168152602001603c60ff168152602001604260ff168152602001604860ff168152602001604e60ff168152602001605460ff168152602001605a60ff168152602001606060ff168152602001606460ff168152602001606e60ff168152602001606e60ff168152602001607860ff168152602001608260ff168152602001608260ff168152602001608c60ff168152602001608c60ff168152602001609660ff16815260200160a060ff16815260200160a060ff16815260200160aa60ff16815260200160aa60ff16815260200160b460ff16815260200160be60ff16815260200160be60ff16815260200160c860ff1681525060006001601a8110620002fe57620002fd62002d7d565b5b602102019060216200031292919062002cc9565b50604051806104200160405280600961ffff168152602001601261ffff168152602001601b61ffff168152602001602461ffff168152602001602d61ffff16815260200161021c61ffff16815260200161028061ffff1681526020016102e461ffff16815260200161035261ffff1681526020016103c061ffff16815260200161044c61ffff168152602001606e61ffff168152602001607861ffff168152602001608261ffff168152602001608c61ffff168152602001608c61ffff168152602001609661ffff16815260200160a061ffff16815260200160aa61ffff16815260200160b461ffff16815260200160be61ffff16815260200160c861ffff16815260200160d261ffff16815260200160dc61ffff16815260200160dc61ffff16815260200160e661ffff16815260200160f061ffff16815260200160fa61ffff16815260200161010461ffff16815260200161010e61ffff16815260200161011861ffff16815260200161012261ffff16815260200161012c61ffff1681525060006002601a8110620004ab57620004aa62002d7d565b5b60210201906021620004bf92919062002d13565b50604051806104200160405280600c61ffff168152602001601861ffff168152602001602461ffff168152602001603061ffff168152602001603c61ffff1681526020016102d061ffff168152602001605461ffff168152602001606061ffff16815260200161044c61ffff168152602001607861ffff168152602001608261ffff16815260200161064061ffff16815260200160a061ffff16815260200160aa61ffff16815260200160b461ffff1681526020016108fc61ffff1681526020016109c461ffff168152602001610a8c61ffff168152602001610b5461ffff168152602001610c8061ffff16815260200160fa61ffff16815260200161010461ffff168152602001610f3c61ffff16815260200161106861ffff16815260200161113061ffff16815260200161125c61ffff16815260200161014061ffff16815260200161015461ffff16815260200161015e61ffff16815260200161016861ffff16815260200161017261ffff16815260200161017c61ffff16815260200161019061ffff1681525060006003601a811062000661576200066062002d7d565b5b602102019060216200067592919062002d13565b50604051806104200160405280600f61ffff168152602001601e61ffff168152602001602d61ffff168152602001603c61ffff168152602001604b61ffff16815260200161038e61ffff168152602001606e61ffff16815260200161051461ffff168152602001608c61ffff168152602001609661ffff16815260200160aa61ffff16815260200160b461ffff16815260200161089861ffff16815260200160d261ffff168152602001610a8c61ffff16815260200160f061ffff168152602001610c8061ffff16815260200161010e61ffff16815260200161012261ffff16815260200161012c61ffff1681526020016110cc61ffff1681526020016111f861ffff16815260200161015e61ffff1681526020016114b461ffff16815260200161017c61ffff16815260200161177061ffff16815260200161019a61ffff1681526020016101a461ffff1681526020016101ae61ffff1681526020016101c261ffff1681526020016101cc61ffff1681526020016101e061ffff1681526020016101f461ffff1681525060006004601a811062000818576200081762002d7d565b5b602102019060216200082c92919062002d13565b50604051806104200160405280601261ffff168152602001602461ffff168152602001603661ffff168152602001604861ffff168152602001605a61ffff16815260200161044c61ffff168152602001608261ffff1681526020016105dc61ffff16815260200160a061ffff16815260200160b461ffff16815260200161089861ffff1681526020016109c461ffff16815260200160e661ffff168152602001610bb861ffff16815260200161010e61ffff168152602001610e1061ffff16815260200161013661ffff16815260200161106861ffff16815260200161119461ffff16815260200161016861ffff1681526020016114b461ffff1681526020016115e061ffff16815260200161019a61ffff16815260200161190061ffff1681526020016101c261ffff168152602001611ce861ffff1681526020016101ea61ffff1681526020016101f461ffff16815260200161020861ffff16815260200161021c61ffff16815260200161023061ffff16815260200161024461ffff16815260200161024e61ffff1681525060006005601a8110620009d257620009d162002d7d565b5b60210201906021620009e692919062002d13565b50604051806104200160405280601561ffff168152602001602a61ffff168152602001603f61ffff168152602001605461ffff168152602001606e61ffff16815260200161051461ffff168152602001609661ffff16815260200161070861ffff16815260200160be61ffff16815260200160d261ffff168152602001610a2861ffff168152602001610b5461ffff16815260200161010e61ffff168152602001610e1061ffff16815260200161014061ffff16815260200161106861ffff16815260200161016861ffff16815260200161138861ffff16815260200161019061ffff1681526020016116a861ffff1681526020016101b861ffff168152602001611a2c61ffff1681526020016101e061ffff168152602001611e1461ffff16815260200161021261ffff16815260200161226061ffff16815260200161023a61ffff16815260200161024e61ffff16815260200161026261ffff16815260200161027661ffff16815260200161028a61ffff16815260200161029e61ffff1681526020016102b261ffff1681525060006006601a811062000b8d5762000b8c62002d7d565b5b6021020190602162000ba192919062002d13565b50604051806104200160405280601861ffff168152602001603061ffff168152602001604861ffff168152602001606061ffff168152602001607861ffff1681526020016105dc61ffff16815260200160aa61ffff16815260200161083461ffff16815260200160dc61ffff16815260200160f061ffff168152602001610bb861ffff16815260200161012261ffff168152602001610e7461ffff16815260200161100461ffff16815260200161016861ffff16815260200161132461ffff16815260200161019a61ffff1681526020016116a861ffff1681526020016101cc61ffff168152602001611a2c61ffff1681526020016101f461ffff168152602001611e7861ffff16815260200161022661ffff1681526020016122c461ffff16815260200161025861ffff16815260200161271061ffff168152602001612af861ffff168152602001612ee061ffff1681526020016102bc61ffff1681526020016102d061ffff1681526020016102e461ffff16815260200161030261ffff16815260200161031661ffff1681525060006007601a811062000d485762000d4762002d7d565b5b6021020190602162000d5c92919062002d13565b50604051806104200160405280601b61ffff168152602001603661ffff168152602001605161ffff168152602001606e61ffff168152602001608c61ffff1681526020016106a461ffff16815260200160be61ffff16815260200161096061ffff16815260200160f061ffff168152602001610c1c61ffff16815260200161012c61ffff16815260200161014061ffff1681526020016110cc61ffff16815260200161125c61ffff16815260200161019a61ffff1681526020016115e061ffff1681526020016101cc61ffff1681526020016119c861ffff1681526020016101fe61ffff168152602001611e1461ffff16815260200161023a61ffff1681526020016122c461ffff16815260200161026c61ffff16815260200161271061ffff1681526020016102a861ffff168152602001612ee061ffff168152602001612ee061ffff1681526020016132c861ffff16815260200161030c61ffff16815260200161032a61ffff16815260200161034861ffff16815260200161035c61ffff16815260200161037a61ffff1681525060006008601a811062000f045762000f0362002d7d565b5b6021020190602162000f1892919062002d13565b50604051806104200160405280601e61ffff168152602001603c61ffff168152602001605a61ffff168152602001607861ffff168152602001609661ffff16815260200161076c61ffff16815260200160d261ffff168152602001610a8c61ffff16815260200161010e61ffff168152602001610dac61ffff168152602001610f3c61ffff1681526020016110cc61ffff1681526020016112c061ffff1681526020016114b461ffff1681526020016101c261ffff16815260200161189c61ffff1681526020016101fe61ffff168152602001611d4c61ffff168152602001611f4061ffff1681526020016121fc61ffff16815260200161027661ffff16815260200161271061ffff1681526020016102b261ffff168152602001612ee061ffff1681526020016102ee61ffff16815260200161030c61ffff16815260200161032a61ffff168152602001613a9861ffff16815260200161036661ffff16815260200161038461ffff1681526020016103a261ffff1681526020016103c061ffff1681526020016103de61ffff1681525060006009601a8110620010c157620010c062002d7d565b5b60210201906021620010d592919062002d13565b50604051806104200160405280602161ffff168152602001604261ffff168152602001606361ffff168152602001608261ffff16815260200160a061ffff16815260200161089861ffff16815260200160e661ffff168152602001610bb861ffff16815260200161012c61ffff168152602001610f3c61ffff16815260200161016861ffff16815260200161019061ffff1681526020016101ae61ffff16815260200161170c61ffff1681526020016101ea61ffff168152602001611b5861ffff16815260200161023061ffff16815260200161024e61ffff16815260200161027661ffff16815260200161029461ffff1681526020016102b261ffff168152602001612af861ffff168152602001612ee061ffff16815260200161031661ffff1681526020016136b061ffff16815260200161035c61ffff16815260200161037a61ffff16815260200161426861ffff1681526020016103c061ffff1681526020016103de61ffff1681526020016103e861ffff16815260200161044c61ffff16815260200161044c61ffff168152506000600a601a81106200127e576200127d62002d7d565b5b602102019060216200129292919062002d13565b50604051806104200160405280602461ffff168152602001604861ffff168152602001606e61ffff168152602001608c61ffff16815260200160b461ffff16815260200161096061ffff16815260200160fa61ffff168152602001610ce461ffff16815260200161014061ffff1681526020016110cc61ffff16815260200161019061ffff1681526020016101ae61ffff1681526020016101d661ffff1681526020016101f461ffff168152602001611c2061ffff16815260200161024461ffff16815260200161213461ffff16815260200161028a61ffff1681526020016102a861ffff1681526020016102d061ffff168152602001612ee061ffff16815260200161031661ffff1681526020016132c861ffff1681526020016136b061ffff168152602001613a9861ffff16815260200161426861ffff16815260200161465061ffff1681526020016103e861ffff1681526020016103e861ffff16815260200161044c61ffff16815260200161044c61ffff1681526020016104b061ffff1681526020016104b061ffff168152506000600b601a81106200143b576200143a62002d7d565b5b602102019060216200144f92919062002d13565b50604051806104200160405280602761ffff168152602001604e61ffff168152602001607861ffff16815260200160a061ffff16815260200160c861ffff168152602001610a2861ffff16815260200161010e61ffff168152602001610e1061ffff16815260200161015e61ffff16815260200161125c61ffff1681526020016101ae61ffff1681526020016101d661ffff1681526020016101fe61ffff16815260200161022661ffff16815260200161024e61ffff16815260200161219861ffff1681526020016124b861ffff16815260200161271061ffff168152602001612af861ffff168152602001612ee061ffff16815260200161033461ffff16815260200161035c61ffff16815260200161038461ffff1681526020016103ac61ffff1681526020016103d461ffff1681526020016103e861ffff16815260200161044c61ffff16815260200161044c61ffff16815260200161044c61ffff1681526020016104b061ffff1681526020016104b061ffff1681526020016104b061ffff16815260200161051461ffff168152506000600c601a8110620015f957620015f862002d7d565b5b602102019060216200160d92919062002d13565b50604051806104200160405280602a61ffff168152602001605461ffff168152602001608261ffff16815260200160aa61ffff16815260200160d261ffff168152602001610b5461ffff168152602001610d4861ffff168152602001610fa061ffff16815260200161119461ffff16815260200161145061ffff1681526020016101cc61ffff1681526020016101f461ffff16815260200161022661ffff16815260200161024e61ffff16815260200161027661ffff16815260200161029e61ffff1681526020016102c661ffff1681526020016102f861ffff16815260200161032061ffff16815260200161034861ffff16815260200161037061ffff16815260200161039861ffff1681526020016103ca61ffff1681526020016103e861ffff16815260200161044c61ffff16815260200161044c61ffff16815260200161044c61ffff1681526020016104b061ffff1681526020016104b061ffff16815260200161051461ffff16815260200161051461ffff16815260200161051461ffff16815260200161057861ffff168152506000600d601a8110620017b757620017b662002d7d565b5b60210201906021620017cb92919062002d13565b50604051806104200160405280602d61ffff168152602001605a61ffff168152602001608c61ffff16815260200160b461ffff16815260200160dc61ffff16815260200161010e61ffff168152602001610e7461ffff1681526020016110cc61ffff16815260200161132461ffff1681526020016115e061ffff1681526020016101ea61ffff16815260200161021c61ffff16815260200161024e61ffff16815260200161027661ffff16815260200161029e61ffff1681526020016102d061ffff16815260200161030261ffff16815260200161032a61ffff16815260200161035c61ffff16815260200161038461ffff1681526020016103b661ffff1681526020016103de61ffff1681526020016103e861ffff16815260200161044c61ffff16815260200161044c61ffff1681526020016104b061ffff1681526020016104b061ffff16815260200161051461ffff16815260200161051461ffff16815260200161051461ffff16815260200161057861ffff16815260200161057861ffff1681526020016105dc61ffff168152506000600e601a811062001975576200197462002d7d565b5b602102019060216200198992919062002d13565b50604051806104200160405280603061ffff168152602001606061ffff168152602001608c61ffff16815260200160be61ffff16815260200160f061ffff16815260200161012261ffff16815260200161015461ffff16815260200161017c61ffff1681526020016101ae61ffff1681526020016101e061ffff16815260200161021261ffff16815260200161024461ffff16815260200161026c61ffff16815260200161029e61ffff1681526020016102d061ffff16815260200161030261ffff16815260200161033461ffff16815260200161035c61ffff16815260200161038e61ffff1681526020016103c061ffff1681526020016103e861ffff16815260200161044c61ffff16815260200161044c61ffff1681526020016104b061ffff1681526020016104b061ffff1681526020016104b061ffff16815260200161051461ffff16815260200161051461ffff16815260200161057861ffff16815260200161057861ffff1681526020016105dc61ffff1681526020016105dc61ffff16815260200161064061ffff168152506000600f601a811062001b335762001b3262002d7d565b5b6021020190602162001b4792919062002d13565b50604051806104200160405280603361ffff168152602001606461ffff168152602001609661ffff16815260200160c861ffff16815260200161010461ffff16815260200161013661ffff16815260200161016861ffff16815260200161019a61ffff1681526020016101cc61ffff1681526020016101fe61ffff16815260200161023061ffff16815260200161026261ffff16815260200161029461ffff1681526020016102c661ffff16815260200161030261ffff16815260200161033461ffff16815260200161036661ffff1681526020016136b061ffff168152602001613a9861ffff1681526020016103e861ffff16815260200161044c61ffff16815260200161044c61ffff1681526020016104b061ffff1681526020016104b061ffff16815260200161051461ffff16815260200161051461ffff16815260200161057861ffff16815260200161057861ffff1681526020016105dc61ffff1681526020016105dc61ffff16815260200161064061ffff16815260200161064061ffff1681526020016106a461ffff1681525060006010601a811062001cf25762001cf162002d7d565b5b6021020190602162001d0692919062002d13565b50604051806104200160405280603661ffff168152602001606e61ffff16815260200160a061ffff16815260200160dc61ffff16815260200161010e61ffff16815260200161014061ffff16815260200161017c61ffff1681526020016101ae61ffff1681526020016101ea61ffff16815260200161021c61ffff16815260200161024e61ffff16815260200161028a61ffff1681526020016102bc61ffff1681526020016102f861ffff16815260200161032a61ffff16815260200161035c61ffff1681526020016136b061ffff168152602001613a9861ffff16815260200161426861ffff16815260200161044c61ffff16815260200161044c61ffff1681526020016104b061ffff1681526020016104b061ffff16815260200161051461ffff16815260200161057861ffff16815260200161057861ffff1681526020016105dc61ffff1681526020016105dc61ffff16815260200161064061ffff16815260200161064061ffff1681526020016106a461ffff1681526020016106a461ffff16815260200161070861ffff1681525060006011601a811062001eb15762001eb062002d7d565b5b6021020190602162001ec592919062002d13565b50604051806104200160405280603961ffff168152602001606e61ffff16815260200160aa61ffff16815260200160e661ffff16815260200161012261ffff16815260200161015461ffff16815260200161019061ffff1681526020016101cc61ffff1681526020016101fe61ffff16815260200161023a61ffff16815260200161027661ffff16815260200161251c61ffff16815260200161271061ffff168152602001612ee061ffff1681526020016132c861ffff16815260200161038e61ffff168152602001613a9861ffff1681526020016103e861ffff16815260200161465061ffff16815260200161044c61ffff1681526020016104b061ffff16815260200161051461ffff16815260200161051461ffff16815260200161057861ffff16815260200161057861ffff1681526020016105dc61ffff1681526020016105dc61ffff16815260200161064061ffff1681526020016106a461ffff1681526020016106a461ffff16815260200161070861ffff16815260200161070861ffff16815260200161076c61ffff1681525060006012601a811062002070576200206f62002d7d565b5b602102019060216200208492919062002d13565b50604051806104200160405280603c61ffff168152602001607861ffff16815260200160b461ffff16815260200160f061ffff16815260200161012c61ffff16815260200161016861ffff1681526020016101a461ffff1681526020016101e061ffff16815260200161021c61ffff16815260200161025861ffff16815260200161238c61ffff16815260200161271061ffff168152602001612af861ffff168152602001612ee061ffff16815260200161038461ffff168152602001613a9861ffff168152602001613e8061ffff16815260200161044c61ffff168152602001614a3861ffff1681526020016104b061ffff16815260200161051461ffff16815260200161051461ffff16815260200161057861ffff16815260200161057861ffff1681526020016105dc61ffff16815260200161064061ffff16815260200161064061ffff1681526020016106a461ffff1681526020016106a461ffff16815260200161070861ffff16815260200161076c61ffff16815260200161076c61ffff1681526020016107d061ffff1681525060006013601a81106200222f576200222e62002d7d565b5b602102019060216200224392919062002d13565b50604051806104200160405280603f61ffff168152602001608261ffff16815260200160be61ffff16815260200160fa61ffff16815260200161014061ffff16815260200161017c61ffff1681526020016101b861ffff1681526020016101f461ffff16815260200161023a61ffff16815260200161027661ffff16815260200161258061ffff168152602001612af861ffff16815260200161033461ffff1681526020016132c861ffff1681526020016103b661ffff1681526020016103e861ffff16815260200161426861ffff16815260200161044c61ffff16815260200161520861ffff16815260200161051461ffff16815260200161051461ffff16815260200161057861ffff16815260200161057861ffff1681526020016105dc61ffff16815260200161064061ffff16815260200161064061ffff1681526020016106a461ffff16815260200161070861ffff16815260200161070861ffff16815260200161076c61ffff1681526020016107d061ffff1681526020016107d061ffff16815260200161083461ffff1681525060006014601a8110620023ee57620023ed62002d7d565b5b602102019060216200240292919062002d13565b50604051806104200160405280604261ffff168152602001608261ffff16815260200160c861ffff16815260200161010461ffff16815260200161014a61ffff16815260200161019061ffff1681526020016101cc61ffff16815260200161021261ffff16815260200161024e61ffff16815260200161029461ffff1681526020016102da61ffff168152602001612ee061ffff16815260200161035c61ffff1681526020016136b061ffff1681526020016103de61ffff16815260200161044c61ffff168152602001614a3861ffff1681526020016104b061ffff1681526020016155f061ffff16815260200161051461ffff16815260200161057861ffff1681526020016105dc61ffff1681526020016105dc61ffff16815260200161064061ffff1681526020016106a461ffff1681526020016106a461ffff16815260200161070861ffff16815260200161070861ffff16815260200161076c61ffff1681526020016107d061ffff1681526020016107d061ffff16815260200161083461ffff16815260200161089861ffff1681525060006015601a8110620025ae57620025ad62002d7d565b5b60210201906021620025c292919062002d13565b50604051806104200160405280604561ffff168152602001608c61ffff16815260200160d261ffff16815260200161011861ffff16815260200161015e61ffff16815260200161019a61ffff1681526020016101e061ffff16815260200161022661ffff16815260200161026c61ffff1681526020016102b261ffff1681526020016102f861ffff16815260200161033e61ffff1681526020016136b061ffff1681526020016103ca61ffff168152602001613e8061ffff16815260200161044c61ffff1681526020016104b061ffff1681526020016104b061ffff1681526020016159d861ffff16815260200161057861ffff16815260200161057861ffff1681526020016105dc61ffff16815260200161064061ffff1681526020016106a461ffff1681526020016106a461ffff16815260200161070861ffff16815260200161076c61ffff16815260200161076c61ffff1681526020016107d061ffff16815260200161083461ffff16815260200161083461ffff16815260200161089861ffff1681526020016108fc61ffff1681525060006016601a81106200276e576200276d62002d7d565b5b602102019060216200278292919062002d13565b50604051806104200160405280604861ffff168152602001608c61ffff16815260200160dc61ffff16815260200161012261ffff16815260200161016861ffff1681526020016101ae61ffff1681526020016101f461ffff16815260200161024461ffff16815260200161028a61ffff1681526020016102d061ffff16815260200161031661ffff16815260200161035c61ffff1681526020016103ac61ffff168152602001613e8061ffff16815260200161044c61ffff168152602001614a3861ffff1681526020016104b061ffff16815260200161051461ffff1681526020016161a861ffff16815260200161057861ffff1681526020016105dc61ffff16815260200161064061ffff1681526020016106a461ffff1681526020016106a461ffff16815260200161070861ffff16815260200161076c61ffff16815260200161076c61ffff1681526020016107d061ffff16815260200161083461ffff16815260200161089861ffff16815260200161089861ffff1681526020016108fc61ffff16815260200161096061ffff1681525060006017601a81106200292e576200292d62002d7d565b5b602102019060216200294292919062002d13565b50604051806104200160405280604b61ffff168152602001609661ffff16815260200160e661ffff16815260200161012c61ffff16815260200161017c61ffff1681526020016101c261ffff16815260200161021261ffff16815260200161025861ffff1681526020016102a861ffff1681526020016102ee61ffff168152602001612ee061ffff1681526020016136b061ffff168152602001613a9861ffff16815260200161426861ffff168152602001614a3861ffff1681526020016104b061ffff1681526020016155f061ffff16815260200161057861ffff16815260200161659061ffff16815260200161714861ffff16815260200161791861ffff1681526020016184d061ffff1681526020016106a461ffff16815260200161070861ffff16815260200161076c61ffff1681526020016107d061ffff1681526020016107d061ffff16815260200161083461ffff16815260200161089861ffff1681526020016108fc61ffff1681526020016108fc61ffff16815260200161096061ffff1681526020016109c461ffff1681525060006018601a811062002aee5762002aed62002d7d565b5b6021020190602162002b0292919062002d13565b50604051806104200160405280604e61ffff16815260200160a061ffff16815260200160e661ffff16815260200161013661ffff16815260200161018661ffff1681526020016101d661ffff16815260200161022661ffff16815260200161026c61ffff1681526020016102bc61ffff168152602001612af861ffff1681526020016132c861ffff168152602001613a9861ffff168152602001613e8061ffff16815260200161465061ffff168152602001614e2061ffff1681526020016155f061ffff168152602001615dc061ffff16815260200161659061ffff168152602001616d6061ffff16815260200161791861ffff1681526020016180e861ffff168152602001618ca061ffff16815260200161985861ffff16815260200161a41061ffff1681526020016107d061ffff1681526020016107d061ffff16815260200161083461ffff16815260200161089861ffff1681526020016108fc61ffff1681526020016108fc61ffff16815260200161096061ffff1681526020016109c461ffff168152602001610a2861ffff1681525060006019601a811062002cae5762002cad62002d7d565b5b6021020190602162002cc292919062002d13565b5062002dac565b826021810192821562002d00579160200282015b8281111562002cff578251829060ff1690559160200191906001019062002cdd565b5b50905062002d0f919062002d5e565b5090565b826021810192821562002d4b579160200282015b8281111562002d4a578251829061ffff1690559160200191906001019062002d27565b5b50905062002d5a919062002d5e565b5090565b5b8082111562002d7957600081600090555060010162002d5f565b5090565b7f4e487b7100000000000000000000000000000000000000000000000000000000600052603260045260246000fd5b6101c58062002dbc6000396000f3fe608060405234801561001057600080fd5b50600436106100415760003560e01c8063108c5e141461004657806338b145df14610064578063b0e987db14610082575b600080fd5b61004e6100b2565b60405161005b9190610103565b60405180910390f35b61006c6100b7565b6040516100799190610103565b60405180910390f35b61009c6004803603810190610097919061014f565b6100bc565b6040516100a99190610103565b60405180910390f35b601a81565b602181565b600082601a81106100cc57600080fd5b6021020181602181106100de57600080fd5b01600091509150505481565b6000819050919050565b6100fd816100ea565b82525050565b600060208201905061011860008301846100f4565b92915050565b600080fd5b61012c816100ea565b811461013757600080fd5b50565b60008135905061014981610123565b92915050565b600080604083850312156101665761016561011e565b5b60006101748582860161013a565b92505060206101858582860161013a565b915050925092905056fea26469706673582212203f7d2c6aa3363fe6cf2df2679aa0db29a909581784efede41b56eba3a31afa7e64736f6c634300080d0033",
  "immutableReferences": {},
  "source": "// SPDX-License-Identifier: MIT\npragma solidity >=0.4.22 <0.9.0;\n\ncontract DataStorage {\n    uint256 public constant gridWidth = 33;\n    uint256 public constant gridHeight = 26;\n\n    uint256[gridWidth][gridHeight] public initialValues;\n    constructor() {\n      initialValues[0] = [3,6,9,12,15,18,21,24,27,30,33,36,39,42,45,48,51,54,57,60,63,66,69,72,75,78,81,84,87,90,93,96,99];\n      initialValues[1] = [6,12,18,24,30,36,42,48,54,60,66,72,78,84,90,96,100,110,110,120,130,130,140,140,150,160,160,170,170,180,190,190,200];\n      initialValues[2] = [9,18,27,36,45,540,640,740,850,960,1100,110,120,130,140,140,150,160,170,180,190,200,210,220,220,230,240,250,260,270,280,290,300];\n      initialValues[3] = [12,24,36,48,60,720,84,96,1100,120,130,1600,160,170,180,2300,2500,2700,2900,3200,250,260,3900,4200,4400,4700,320,340,350,360,370,380,400];\n      initialValues[4] = [15,30,45,60,75,910,110,1300,140,150,170,180,2200,210,2700,240,3200,270,290,300,4300,4600,350,5300,380,6000,410,420,430,450,460,480,500];\n      initialValues[5] = [18,36,54,72,90,1100,130,1500,160,180,2200,2500,230,3000,270,3600,310,4200,4500,360,5300,5600,410,6400,450,7400,490,500,520,540,560,580,590];\n      initialValues[6] = [21,42,63,84,110,1300,150,1800,190,210,2600,2900,270,3600,320,4200,360,5000,400,5800,440,6700,480,7700,530,8800,570,590,610,630,650,670,690];\n      initialValues[7] = [24,48,72,96,120,1500,170,2100,220,240,3000,290,3700,4100,360,4900,410,5800,460,6700,500,7800,550,8900,600,10000,11000,12000,700,720,740,770,790];\n      initialValues[8] = [27,54,81,110,140,1700,190,2400,240,3100,300,320,4300,4700,410,5600,460,6600,510,7700,570,8900,620,10000,680,12000,12000,13000,780,810,840,860,890];\n      initialValues[9] = [30,60,90,120,150,1900,210,2700,270,3500,3900,4300,4800,5300,450,6300,510,7500,8000,8700,630,10000,690,12000,750,780,810,15000,870,900,930,960,990];\n      initialValues[10] = [33,66,99,130,160,2200,230,3000,300,3900,360,400,430,5900,490,7000,560,590,630,660,690,11000,12000,790,14000,860,890,17000,960,990,1000,1100,1100];\n      initialValues[11] = [36,72,110,140,180,2400,250,3300,320,4300,400,430,470,500,7200,580,8500,650,680,720,12000,790,13000,14000,15000,17000,18000,1000,1000,1100,1100,1200,1200];\n      initialValues[12] = [39,78,120,160,200,2600,270,3600,350,4700,430,470,510,550,590,8600,9400,10000,11000,12000,820,860,900,940,980,1000,1100,1100,1100,1200,1200,1200,1300];\n      initialValues[13] = [42,84,130,170,210,2900,3400,4000,4500,5200,460,500,550,590,630,670,710,760,800,840,880,920,970,1000,1100,1100,1100,1200,1200,1300,1300,1300,1400];\n      initialValues[14] = [45,90,140,180,220,270,3700,4300,4900,5600,490,540,590,630,670,720,770,810,860,900,950,990,1000,1100,1100,1200,1200,1300,1300,1300,1400,1400,1500];\n      initialValues[15] = [48,96,140,190,240,290,340,380,430,480,530,580,620,670,720,770,820,860,910,960,1000,1100,1100,1200,1200,1200,1300,1300,1400,1400,1500,1500,1600];\n      initialValues[16] = [51,100,150,200,260,310,360,410,460,510,560,610,660,710,770,820,870,14000,15000,1000,1100,1100,1200,1200,1300,1300,1400,1400,1500,1500,1600,1600,1700];\n      initialValues[17] = [54,110,160,220,270,320,380,430,490,540,590,650,700,760,810,860,14000,15000,17000,1100,1100,1200,1200,1300,1400,1400,1500,1500,1600,1600,1700,1700,1800];\n      initialValues[18] = [57,110,170,230,290,340,400,460,510,570,630,9500,10000,12000,13000,910,15000,1000,18000,1100,1200,1300,1300,1400,1400,1500,1500,1600,1700,1700,1800,1800,1900];\n      initialValues[19] = [60,120,180,240,300,360,420,480,540,600,9100,10000,11000,12000,900,15000,16000,1100,19000,1200,1300,1300,1400,1400,1500,1600,1600,1700,1700,1800,1900,1900,2000];\n      initialValues[20] = [63,130,190,250,320,380,440,500,570,630,9600,11000,820,13000,950,1000,17000,1100,21000,1300,1300,1400,1400,1500,1600,1600,1700,1800,1800,1900,2000,2000,2100];\n      initialValues[21] = [66,130,200,260,330,400,460,530,590,660,730,12000,860,14000,990,1100,19000,1200,22000,1300,1400,1500,1500,1600,1700,1700,1800,1800,1900,2000,2000,2100,2200];\n      initialValues[22] = [69,140,210,280,350,410,480,550,620,690,760,830,14000,970,16000,1100,1200,1200,23000,1400,1400,1500,1600,1700,1700,1800,1900,1900,2000,2100,2100,2200,2300];\n      initialValues[23] = [72,140,220,290,360,430,500,580,650,720,790,860,940,16000,1100,19000,1200,1300,25000,1400,1500,1600,1700,1700,1800,1900,1900,2000,2100,2200,2200,2300,2400];\n      initialValues[24] = [75,150,230,300,380,450,530,600,680,750,12000,14000,15000,17000,19000,1200,22000,1400,26000,29000,31000,34000,1700,1800,1900,2000,2000,2100,2200,2300,2300,2400,2500];\n      initialValues[25] = [78,160,230,310,390,470,550,620,700,11000,13000,15000,16000,18000,20000,22000,24000,26000,28000,31000,33000,36000,39000,42000,2000,2000,2100,2200,2300,2300,2400,2500,2600];\n      /*initialValues[26] = [81,160,240,320,410,490,570,650,11000,12000,890,970,1100,1100,1200,23000,25000,27000,1500,1600,1700,1800,1900,45000,49000,2100,2200,2300,2300,2400,2500,2600,2700];\n      initialValues[27] = [84,170,250,340,420,500,590,9800,11000,840,920,1000,1100,1200,1300,1300,27000,1500,1600,1700,1800,1800,1900,2000,52000,56000,2300,2400,2400,2500,2600,2700,2800];\n      initialValues[28] = [87,170,260,350,440,520,610,10000,12000,870,960,1000,1100,1200,1300,1400,28000,1600,1700,1700,1800,1900,2000,2100,55000,60000,2300,2400,2500,2600,2700,2800,2900];\n      initialValues[29] = [90,180,270,360,450,540,630,720,12000,14000,990,1100,1200,1300,1300,27000,30000,33000,1700,1800,1900,2000,2100,54000,59000,2300,2400,2500,2600,2700,2800,2900,3000];\n      initialValues[30] = [93,190,280,370,460,560,650,740,840,15000,17000,19000,21000,24000,26000,29000,1600,34000,38000,41000,45000,49000,53000,58000,2300,2400,2500,2600,2700,2800,2900,3000,3100];\n      initialValues[31] = [96,190,290,380,480,580,670,770,860,960,18000,20000,22000,25000,27000,1500,1600,1700,40000,44000,47000,52000,56000,2300,2400,2500,2600,2700,2800,2900,3000,3100,3200];\n      initialValues[32] = [99,200,300,400,500,590,690,790,890,990,1100,1200,1300,1400,1500,1600,1700,1800,1900,2000,2100,2200,2300,2400,2500,2600,2700,2800,2900,3000,3100,3200,3300];\n      initialValues[33] = [100,200,310,410,510,610,710,820,920,1000,1100,1200,1300,1400,1500,1600,1700,1800,1900,2000,2100,2200,2300,2400,2600,2700,2800,2900,3000,120000,130000,3300,3400];\n      initialValues[34] = [110,210,320,420,530,630,740,840,950,1100,1200,1300,1400,1500,1600,35000,39000,43000,47000,51000,2200,2300,2400,2500,2600,2700,2800,2900,120000,130000,150000,3400,3500];\n      initialValues[35] = [110,220,320,430,540,10000,12000,14000,17000,1100,1200,1300,1400,1500,34000,1700,41000,1900,2100,2200,60000,2400,2500,2600,86000,95000,100000,3000,130000,3200,160000,3500,3600];\n      initialValues[36] = [110,220,330,440,8700,11000,13000,15000,18000,20000,1200,1300,1400,32000,1700,39000,1900,48000,53000,2200,2300,69000,76000,84000,92000,100000,110000,3100,140000,3300,170000,3600,3700];\n      initialValues[37] = [110,230,5200,7100,9100,680,800,910,1000,1100,24000,1400,30000,1600,37000,1800,46000,2100,2200,61000,2400,74000,81000,2700,99000,3000,120000,3200,150000,3400,190000,3600,3800];\n      initialValues[38] = [120,230,5400,470,9500,700,14000,17000,19000,22000,1300,1400,32000,1600,39000,1900,48000,2100,2200,65000,2500,79000,2700,95000,2900,3000,130000,3300,160000,3500,200000,3700,3900];\n      initialValues[39] = [120,240,5700,480,9900,720,15000,960,1100,23000,26000,1400,33000,1700,41000,1900,51000,2200,2300,68000,2500,83000,2800,100000,3000,130000,3200,150000,170000,3600,220000,3800,4000];\n      initialValues[40] = [120,250,5900,490,10000,740,15000,18000,21000,1200,27000,31000,35000,1700,44000,2000,53000,2200,2300,72000,2600,89000,2800,110000,3100,130000,150000,3400,3600,3700,240000,3900,4100];\n      initialValues[41] = [130,250,6200,500,11000,760,16000,1000,22000,25000,1400,33000,37000,1800,46000,2000,2100,63000,70000,2500,2600,94000,2900,120000,3200,140000,3400,180000,3700,3800,270000,4000,4200];\n      initialValues[42] = [130,260,6400,520,11000,770,17000,1000,23000,1300,1400,34000,1700,43000,1900,54000,2200,2300,2500,2600,2700,100000,3000,120000,3200,150000,3500,200000,3700,260000,310000,4100,4300];\n      initialValues[43] = [130,260,6700,530,12000,790,18000,21000,1200,1300,32000,36000,1700,1800,50000,2100,63000,2400,2500,87000,96000,110000,3000,130000,3300,170000,3600,220000,250000,280000,340000,4200,4400];\n      initialValues[44] = [140,270,7000,540,12000,810,950,1100,1200,29000,1500,1600,1800,1900,2000,60000,67000,74000,83000,91000,2800,110000,3100,140000,3400,180000,3600,3800,3900,4100,4200,4300,4500];\n      initialValues[45] = [140,280,7300,550,13000,830,19000,23000,27000,1400,1500,1700,1800,1900,2100,2200,2300,2500,2600,2800,2900,120000,3200,150000,3400,200000,3700,3900,4000,4100,4300,4400,4600];\n      initialValues[46] = [140,280,420,10000,13000,17000,20000,24000,1300,1400,1600,1700,1800,2000,2100,2300,2400,2500,2700,2800,3000,130000,150000,170000,190000,220000,3800,3900,4100,4200,4400,4500,4700];\n      initialValues[47] = [140,290,430,580,720,860,1000,1200,1300,1400,1600,1700,1900,2000,2200,2300,2400,2600,2700,2900,3000,3200,3300,3500,3600,3700,3900,4000,4200,4300,4500,4600,4800];\n      initialValues[48] = [150,290,440,590,740,880,1000,1200,1300,1500,1600,1800,1900,2100,2200,2400,2500,2600,2800,2900,3100,3200,3400,3500,3700,3800,4000,4100,4300,4400,4600,4700,4900];*/\n    }\n}\n",
  "sourcePath": "/home/wao/Meteor/Workspace/Sao/PixelFlux/contracts/DataStorage.sol",
  "compiler": {
    "name": "solc",
    "version": "0.8.13+commit.abaa5c0e.Emscripten.clang"
  },
  "schemaVersion": "3.4.16",
  "updatedAt": "2023-09-23T06:55:13.602Z",
  "devdoc": {
    "kind": "dev",
    "methods": {},
    "version": 1
  },
  "userdoc": {
    "kind": "user",
    "methods": {},
    "version": 1
  }
}