{
  "contractName": "DataStorage1",
  "abi": [
    {
      "inputs": [],
      "stateMutability": "nonpayable",
      "type": "constructor"
    },
    {
      "inputs": [
        {
          "internalType": "uint256",
          "name": "",
          "type": "uint256"
        },
        {
          "internalType": "uint256",
          "name": "",
          "type": "uint256"
        }
      ],
      "name": "colorValues",
      "outputs": [
        {
          "internalType": "string",
          "name": "",
          "type": "string"
        }
      ],
      "stateMutability": "view",
      "type": "function"
    },
    {
      "inputs": [],
      "name": "gridHeight",
      "outputs": [
        {
          "internalType": "uint256",
          "name": "",
          "type": "uint256"
        }
      ],
      "stateMutability": "view",
      "type": "function"
    },
    {
      "inputs": [],
      "name": "gridWidth",
      "outputs": [
        {
          "internalType": "uint256",
          "name": "",
          "type": "uint256"
        }
      ],
      "stateMutability": "view",
      "type": "function"
    },
    {
      "inputs": [
        {
          "internalType": "uint256",
          "name": "",
          "type": "uint256"
        },
        {
          "internalType": "uint256",
          "name": "",
          "type": "uint256"
        }
      ],
      "name": "initialValues",
      "outputs": [
        {
          "internalType": "uint256",
          "name": "",
          "type": "uint256"
        }
      ],
      "stateMutability": "view",
      "type": "function"
    }
  ],
  "bytecode": "0x60806040526040518061020001604052806040518061042001604052806040518060200160405280600081525081526020016040518060200160405280600081525081526020016040518060200160405280600081525081526020016040518060200160405280600081525081526020016040518060200160405280600081525081526020016040518060200160405280600081525081526020016040518060200160405280600081525081526020016040518060200160405280600081525081526020016040518060200160405280600081525081526020016040518060200160405280600081525081526020016040518060200160405280600081525081526020016040518060200160405280600081525081526020016040518060200160405280600081525081526020016040518060200160405280600081525081526020016040518060200160405280600081525081526020016040518060200160405280600081525081526020016040518060200160405280600081525081526020016040518060200160405280600081525081526020016040518060200160405280600081525081526020016040518060200160405280600081525081526020016040518060200160405280600081525081526020016040518060200160405280600081525081526020016040518060200160405280600081525081526020016040518060200160405280600081525081526020016040518060200160405280600081525081526020016040518060200160405280600081525081526020016040518060200160405280600081525081526020016040518060200160405280600081525081526020016040518060200160405280600081525081526020016040518060200160405280600081525081526020016040518060200160405280600081525081526020016040518060200160405280600081525081526020016040518060200160405280600081525081525081526020016040518061042001604052806040518060200160405280600081525081526020016040518060200160405280600081525081526020016040518060200160405280600081525081526020016040518060200160405280600081525081526020016040518060200160405280600081525081526020016040518060200160405280600081525081526020016040518060200160405280600081525081526020016040518060200160405280600081525081526020016040518060200160405280600081525081526020016040518060200160405280600081525081526020016040518060200160405280600081525081526020016040518060200160405280600081525081526020016040518060200160405280600081525081526020016040518060200160405280600081525081526020016040518060200160405280600081525081526020016040518060200160405280600081525081526020016040518060200160405280600081525081526020016040518060200160405280600081525081526020016040518060200160405280600081525081526020016040518060200160405280600081525081526020016040518060200160405280600081525081526020016040518060200160405280600081525081526020016040518060200160405280600081525081526020016040518060200160405280600081525081526020016040518060200160405280600081525081526020016040518060200160405280600081525081526020016040518060200160405280600081525081526020016040518060200160405280600081525081526020016040518060200160405280600081525081526020016040518060200160405280600081525081526020016040518060200160405280600081525081526020016040518060200160405280600081525081526020016040518060200160405280600081525081525081526020016040518061042001604052806040518060200160405280600081525081526020016040518060200160405280600081525081526020016040518060200160405280600081525081526020016040518060200160405280600081525081526020016040518060200160405280600081525081526020016040518060400160405280600781526020017f236632656266620000000000000000000000000000000000000000000000000081525081526020016040518060400160405280600781526020017f236630653866620000000000000000000000000000000000000000000000000081525081526020016040518060400160405280600781526020017f236565653566610000000000000000000000000000000000000000000000000081525081526020016040518060400160405280600781526020017f236564653366610000000000000000000000000000000000000000000000000081525081526020016040518060400160405280600781526020017f236562653066390000000000000000000000000000000000000000000000000081525081526020016040518060400160405280600781526020017f236539646466390000000000000000000000000000000000000000000000000081525081526020016040518060200160405280600081525081526020016040518060200160405280600081525081526020016040518060200160405280600081525081526020016040518060200160405280600081525081526020016040518060200160405280600081525081526020016040518060200160405280600081525081526020016040518060200160405280600081525081526020016040518060200160405280600081525081526020016040518060200160405280600081525081526020016040518060200160405280600081525081526020016040518060200160405280600081525081526020016040518060200160405280600081525081526020016040518060200160405280600081525081526020016040518060200160405280600081525081526020016040518060200160405280600081525081526020016040518060200160405280600081525081526020016040518060200160405280600081525081526020016040518060200160405280600081525081526020016040518060200160405280600081525081526020016040518060200160405280600081525081526020016040518060200160405280600081525081526020016040518060200160405280600081525081525081526020016040518061042001604052806040518060200160405280600081525081526020016040518060200160405280600081525081526020016040518060200160405280600081525081526020016040518060200160405280600081525081526020016040518060200160405280600081525081526020016040518060400160405280600781526020017f236631656166620000000000000000000000000000000000000000000000000081525081526020016040518060200160405280600081525081526020016040518060200160405280600081525081526020016040518060400160405280600781526020017f236562653166610000000000000000000000000000000000000000000000000081525081526020016040518060200160405280600081525081526020016040518060200160405280600081525081526020016040518060400160405280600781526020017f236536643866380000000000000000000000000000000000000000000000000081525081526020016040518060200160405280600081525081526020016040518060200160405280600081525081526020016040518060200160405280600081525081526020016040518060400160405280600781526020017f236465636366360000000000000000000000000000000000000000000000000081525081526020016040518060400160405280600781526020017f236463633966360000000000000000000000000000000000000000000000000081525081526020016040518060400160405280600781526020017f236461633666350000000000000000000000000000000000000000000000000081525081526020016040518060400160405280600781526020017f236438633366350000000000000000000000000000000000000000000000000081525081526020016040518060400160405280600781526020017f236436633066340000000000000000000000000000000000000000000000000081525081526020016040518060200160405280600081525081526020016040518060200160405280600081525081526020016040518060400160405280600781526020017f236430623766330000000000000000000000000000000000000000000000000081525081526020016040518060400160405280600781526020017f236365623466320000000000000000000000000000000000000000000000000081525081526020016040518060400160405280600781526020017f236363623166320000000000000000000000000000000000000000000000000081525081526020016040518060400160405280600781526020017f236361616566310000000000000000000000000000000000000000000000000081525081526020016040518060200160405280600081525081526020016040518060200160405280600081525081526020016040518060200160405280600081525081526020016040518060200160405280600081525081526020016040518060200160405280600081525081526020016040518060200160405280600081525081526020016040518060200160405280600081525081525081526020016040518061042001604052806040518060200160405280600081525081526020016040518060200160405280600081525081526020016040518060200160405280600081525081526020016040518060200160405280600081525081526020016040518060200160405280600081525081526020016040518060400160405280600781526020017f236630653766620000000000000000000000000000000000000000000000000081525081526020016040518060200160405280600081525081526020016040518060400160405280600781526020017f236563653166610000000000000000000000000000000000000000000000000081525081526020016040518060200160405280600081525081526020016040518060200160405280600081525081526020016040518060200160405280600081525081526020016040518060200160405280600081525081526020016040518060400160405280600781526020017f236532643366370000000000000000000000000000000000000000000000000081525081526020016040518060200160405280600081525081526020016040518060400160405280600781526020017f236465636466360000000000000000000000000000000000000000000000000081525081526020016040518060200160405280600081525081526020016040518060400160405280600781526020017f236462633766350000000000000000000000000000000000000000000000000081525081526020016040518060200160405280600081525081526020016040518060200160405280600081525081526020016040518060200160405280600081525081526020016040518060400160405280600781526020017f236433626266330000000000000000000000000000000000000000000000000081525081526020016040518060400160405280600781526020017f236431623866330000000000000000000000000000000000000000000000000081525081526020016040518060200160405280600081525081526020016040518060400160405280600781526020017f236364623266320000000000000000000000000000000000000000000000000081525081526020016040518060200160405280600081525081526020016040518060400160405280600781526020017f236339616366310000000000000000000000000000000000000000000000000081525081526020016040518060200160405280600081525081526020016040518060200160405280600081525081526020016040518060200160405280600081525081526020016040518060200160405280600081525081526020016040518060200160405280600081525081526020016040518060200160405280600081525081526020016040518060200160405280600081525081525081526020016040518061042001604052806040518060200160405280600081525081526020016040518060200160405280600081525081526020016040518060200160405280600081525081526020016040518060200160405280600081525081526020016040518060200160405280600081525081526020016040518060400160405280600781526020017f236566653666610000000000000000000000000000000000000000000000000081525081526020016040518060200160405280600081525081526020016040518060400160405280600781526020017f236562653066390000000000000000000000000000000000000000000000000081525081526020016040518060200160405280600081525081526020016040518060200160405280600081525081526020016040518060400160405280600781526020017f236535643766380000000000000000000000000000000000000000000000000081525081526020016040518060400160405280600781526020017f236533643466380000000000000000000000000000000000000000000000000081525081526020016040518060200160405280600081525081526020016040518060400160405280600781526020017f236466636566370000000000000000000000000000000000000000000000000081525081526020016040518060200160405280600081525081526020016040518060400160405280600781526020017f236462633866360000000000000000000000000000000000000000000000000081525081526020016040518060200160405280600081525081526020016040518060400160405280600781526020017f236437633266350000000000000000000000000000000000000000000000000081525081526020016040518060400160405280600781526020017f236435626666340000000000000000000000000000000000000000000000000081525081526020016040518060200160405280600081525081526020016040518060400160405280600781526020017f236432623966330000000000000000000000000000000000000000000000000081525081526020016040518060400160405280600781526020017f236430623666330000000000000000000000000000000000000000000000000081525081526020016040518060200160405280600081525081526020016040518060400160405280600781526020017f236363623066320000000000000000000000000000000000000000000000000081525081526020016040518060200160405280600081525081526020016040518060400160405280600781526020017f236338616166310000000000000000000000000000000000000000000000000081525081526020016040518060200160405280600081525081526020016040518060200160405280600081525081526020016040518060200160405280600081525081526020016040518060200160405280600081525081526020016040518060200160405280600081525081526020016040518060200160405280600081525081526020016040518060200160405280600081525081525081526020016040518061042001604052806040518060200160405280600081525081526020016040518060200160405280600081525081526020016040518060200160405280600081525081526020016040518060200160405280600081525081526020016040518060200160405280600081525081526020016040518060400160405280600781526020017f236564653466610000000000000000000000000000000000000000000000000081525081526020016040518060200160405280600081525081526020016040518060400160405280600781526020017f236539646466390000000000000000000000000000000000000000000000000081525081526020016040518060200160405280600081525081526020016040518060200160405280600081525081526020016040518060400160405280600781526020017f236534643566380000000000000000000000000000000000000000000000000081525081526020016040518060400160405280600781526020017f236532643266370000000000000000000000000000000000000000000000000081525081526020016040518060200160405280600081525081526020016040518060400160405280600781526020017f236465636366360000000000000000000000000000000000000000000000000081525081526020016040518060200160405280600081525081526020016040518060400160405280600781526020017f236461633666350000000000000000000000000000000000000000000000000081525081526020016040518060200160405280600081525081526020016040518060400160405280600781526020017f236436633066340000000000000000000000000000000000000000000000000081525081526020016040518060200160405280600081525081526020016040518060400160405280600781526020017f236432626166330000000000000000000000000000000000000000000000000081525081526020016040518060200160405280600081525081526020016040518060400160405280600781526020017f236365623466320000000000000000000000000000000000000000000000000081525081526020016040518060200160405280600081525081526020016040518060400160405280600781526020017f236362616666310000000000000000000000000000000000000000000000000081525081526020016040518060200160405280600081525081526020016040518060400160405280600781526020017f236337613866300000000000000000000000000000000000000000000000000081525081526020016040518060200160405280600081525081526020016040518060200160405280600081525081526020016040518060200160405280600081525081526020016040518060200160405280600081525081526020016040518060200160405280600081525081526020016040518060200160405280600081525081526020016040518060200160405280600081525081525081526020016040518061042001604052806040518060200160405280600081525081526020016040518060200160405280600081525081526020016040518060200160405280600081525081526020016040518060200160405280600081525081526020016040518060200160405280600081525081526020016040518060400160405280600781526020017f236563653266610000000000000000000000000000000000000000000000000081525081526020016040518060200160405280600081525081526020016040518060400160405280600781526020017f236538646366390000000000000000000000000000000000000000000000000081525081526020016040518060200160405280600081525081526020016040518060200160405280600081525081526020016040518060400160405280600781526020017f236532643366370000000000000000000000000000000000000000000000000081525081526020016040518060200160405280600081525081526020016040518060400160405280600781526020017f236466636466360000000000000000000000000000000000000000000000000081525081526020016040518060400160405280600781526020017f236464636166360000000000000000000000000000000000000000000000000081525081526020016040518060200160405280600081525081526020016040518060400160405280600781526020017f236439633466350000000000000000000000000000000000000000000000000081525081526020016040518060200160405280600081525081526020016040518060400160405280600781526020017f236435626566340000000000000000000000000000000000000000000000000081525081526020016040518060200160405280600081525081526020016040518060400160405280600781526020017f236431623966330000000000000000000000000000000000000000000000000081525081526020016040518060200160405280600081525081526020016040518060400160405280600781526020017f236364623266320000000000000000000000000000000000000000000000000081525081526020016040518060200160405280600081525081526020016040518060400160405280600781526020017f236339616366310000000000000000000000000000000000000000000000000081525081526020016040518060200160405280600081525081526020016040518060400160405280600781526020017f236335613666300000000000000000000000000000000000000000000000000081525081526020016040518060400160405280600781526020017f236334613466300000000000000000000000000000000000000000000000000081525081526020016040518060400160405280600781526020017f236332613165660000000000000000000000000000000000000000000000000081525081526020016040518060200160405280600081525081526020016040518060200160405280600081525081526020016040518060200160405280600081525081526020016040518060200160405280600081525081526020016040518060200160405280600081525081525081526020016040518061042001604052806040518060200160405280600081525081526020016040518060200160405280600081525081526020016040518060200160405280600081525081526020016040518060200160405280600081525081526020016040518060200160405280600081525081526020016040518060400160405280600781526020017f236562653066390000000000000000000000000000000000000000000000000081525081526020016040518060200160405280600081525081526020016040518060400160405280600781526020017f236537646166380000000000000000000000000000000000000000000000000081525081526020016040518060200160405280600081525081526020016040518060400160405280600781526020017f236533643466380000000000000000000000000000000000000000000000000081525081526020016040518060200160405280600081525081526020016040518060200160405280600081525081526020016040518060400160405280600781526020017f236464636266360000000000000000000000000000000000000000000000000081525081526020016040518060400160405280600781526020017f236462633866360000000000000000000000000000000000000000000000000081525081526020016040518060200160405280600081525081526020016040518060400160405280600781526020017f236438633366350000000000000000000000000000000000000000000000000081525081526020016040518060200160405280600081525081526020016040518060400160405280600781526020017f236434626366340000000000000000000000000000000000000000000000000081525081526020016040518060200160405280600081525081526020016040518060400160405280600781526020017f236430623666330000000000000000000000000000000000000000000000000081525081526020016040518060200160405280600081525081526020016040518060400160405280600781526020017f236363623066320000000000000000000000000000000000000000000000000081525081526020016040518060200160405280600081525081526020016040518060400160405280600781526020017f236338616266310000000000000000000000000000000000000000000000000081525081526020016040518060200160405280600081525081526020016040518060400160405280600781526020017f236334613566300000000000000000000000000000000000000000000000000081525081526020016040518060400160405280600781526020017f236332613165660000000000000000000000000000000000000000000000000081525081526020016040518060400160405280600781526020017f236330396565660000000000000000000000000000000000000000000000000081525081526020016040518060200160405280600081525081526020016040518060200160405280600081525081526020016040518060200160405280600081525081526020016040518060200160405280600081525081526020016040518060200160405280600081525081525081526020016040518061042001604052806040518060200160405280600081525081526020016040518060200160405280600081525081526020016040518060200160405280600081525081526020016040518060200160405280600081525081526020016040518060200160405280600081525081526020016040518060400160405280600781526020017f236561646566390000000000000000000000000000000000000000000000000081525081526020016040518060200160405280600081525081526020016040518060400160405280600781526020017f236536643866380000000000000000000000000000000000000000000000000081525081526020016040518060200160405280600081525081526020016040518060400160405280600781526020017f236532643266370000000000000000000000000000000000000000000000000081525081526020016040518060400160405280600781526020017f236530636666370000000000000000000000000000000000000000000000000081525081526020016040518060400160405280600781526020017f236465636466360000000000000000000000000000000000000000000000000081525081526020016040518060400160405280600781526020017f236463633966360000000000000000000000000000000000000000000000000081525081526020016040518060400160405280600781526020017f236461633666350000000000000000000000000000000000000000000000000081525081526020016040518060200160405280600081525081526020016040518060400160405280600781526020017f236436633066340000000000000000000000000000000000000000000000000081525081526020016040518060200160405280600081525081526020016040518060400160405280600781526020017f236432626166330000000000000000000000000000000000000000000000000081525081526020016040518060400160405280600781526020017f236430623766330000000000000000000000000000000000000000000000000081525081526020016040518060400160405280600781526020017f236366623566320000000000000000000000000000000000000000000000000081525081526020016040518060200160405280600081525081526020016040518060400160405280600781526020017f236362616666310000000000000000000000000000000000000000000000000081525081526020016040518060200160405280600081525081526020016040518060400160405280600781526020017f236337613866300000000000000000000000000000000000000000000000000081525081526020016040518060200160405280600081525081526020016040518060200160405280600081525081526020016040518060200160405280600081525081526020016040518060400160405280600781526020017f236266396465660000000000000000000000000000000000000000000000000081525081526020016040518060200160405280600081525081526020016040518060200160405280600081525081526020016040518060200160405280600081525081526020016040518060200160405280600081525081526020016040518060200160405280600081525081525081526020016040518061042001604052806040518060200160405280600081525081526020016040518060200160405280600081525081526020016040518060200160405280600081525081526020016040518060200160405280600081525081526020016040518060200160405280600081525081526020016040518060400160405280600781526020017f236538646366390000000000000000000000000000000000000000000000000081525081526020016040518060200160405280600081525081526020016040518060400160405280600781526020017f236534643666380000000000000000000000000000000000000000000000000081525081526020016040518060200160405280600081525081526020016040518060400160405280600781526020017f236531643066370000000000000000000000000000000000000000000000000081525081526020016040518060200160405280600081525081526020016040518060200160405280600081525081526020016040518060200160405280600081525081526020016040518060400160405280600781526020017f236439633466350000000000000000000000000000000000000000000000000081525081526020016040518060200160405280600081525081526020016040518060400160405280600781526020017f236435626666340000000000000000000000000000000000000000000000000081525081526020016040518060200160405280600081525081526020016040518060200160405280600081525081526020016040518060200160405280600081525081526020016040518060200160405280600081525081526020016040518060200160405280600081525081526020016040518060400160405280600781526020017f236339616366310000000000000000000000000000000000000000000000000081525081526020016040518060400160405280600781526020017f236338616166310000000000000000000000000000000000000000000000000081525081526020016040518060200160405280600081525081526020016040518060400160405280600781526020017f236334613466300000000000000000000000000000000000000000000000000081525081526020016040518060200160405280600081525081526020016040518060200160405280600081525081526020016040518060400160405280600781526020017f236265396265650000000000000000000000000000000000000000000000000081525081526020016040518060200160405280600081525081526020016040518060200160405280600081525081526020016040518060200160405280600081525081526020016040518060200160405280600081525081526020016040518060200160405280600081525081525081526020016040518061042001604052806040518060200160405280600081525081526020016040518060200160405280600081525081526020016040518060200160405280600081525081526020016040518060200160405280600081525081526020016040518060200160405280600081525081526020016040518060400160405280600781526020017f236537646166390000000000000000000000000000000000000000000000000081525081526020016040518060200160405280600081525081526020016040518060400160405280600781526020017f236533643466380000000000000000000000000000000000000000000000000081525081526020016040518060200160405280600081525081526020016040518060400160405280600781526020017f236466636566370000000000000000000000000000000000000000000000000081525081526020016040518060200160405280600081525081526020016040518060200160405280600081525081526020016040518060200160405280600081525081526020016040518060200160405280600081525081526020016040518060400160405280600781526020017f236436626666340000000000000000000000000000000000000000000000000081525081526020016040518060200160405280600081525081526020016040518060400160405280600781526020017f236432623966330000000000000000000000000000000000000000000000000081525081526020016040518060200160405280600081525081526020016040518060200160405280600081525081526020016040518060200160405280600081525081526020016040518060400160405280600781526020017f236361616566310000000000000000000000000000000000000000000000000081525081526020016040518060200160405280600081525081526020016040518060400160405280600781526020017f236336613866300000000000000000000000000000000000000000000000000081525081526020016040518060400160405280600781526020017f236334613566300000000000000000000000000000000000000000000000000081525081526020016040518060400160405280600781526020017f236332613165660000000000000000000000000000000000000000000000000081525081526020016040518060400160405280600781526020017f236330396565660000000000000000000000000000000000000000000000000081525081526020016040518060400160405280600781526020017f236266396365650000000000000000000000000000000000000000000000000081525081526020016040518060200160405280600081525081526020016040518060200160405280600081525081526020016040518060200160405280600081525081526020016040518060200160405280600081525081526020016040518060200160405280600081525081526020016040518060200160405280600081525081525081526020016040518061042001604052806040518060200160405280600081525081526020016040518060200160405280600081525081526020016040518060200160405280600081525081526020016040518060200160405280600081525081526020016040518060200160405280600081525081526020016040518060400160405280600781526020017f236536643866380000000000000000000000000000000000000000000000000081525081526020016040518060200160405280600081525081526020016040518060400160405280600781526020017f236532643266370000000000000000000000000000000000000000000000000081525081526020016040518060200160405280600081525081526020016040518060400160405280600781526020017f236465636466360000000000000000000000000000000000000000000000000081525081526020016040518060200160405280600081525081526020016040518060200160405280600081525081526020016040518060200160405280600081525081526020016040518060200160405280600081525081526020016040518060200160405280600081525081526020016040518060400160405280600781526020017f236433626266330000000000000000000000000000000000000000000000000081525081526020016040518060400160405280600781526020017f236431623866330000000000000000000000000000000000000000000000000081525081526020016040518060400160405280600781526020017f236366623566320000000000000000000000000000000000000000000000000081525081526020016040518060400160405280600781526020017f236364623266320000000000000000000000000000000000000000000000000081525081526020016040518060400160405280600781526020017f236362616666310000000000000000000000000000000000000000000000000081525081526020016040518060200160405280600081525081526020016040518060200160405280600081525081526020016040518060200160405280600081525081526020016040518060200160405280600081525081526020016040518060200160405280600081525081526020016040518060200160405280600081525081526020016040518060200160405280600081525081526020016040518060200160405280600081525081526020016040518060200160405280600081525081526020016040518060200160405280600081525081526020016040518060200160405280600081525081526020016040518060200160405280600081525081526020016040518060200160405280600081525081525081526020016040518061042001604052806040518060200160405280600081525081526020016040518060200160405280600081525081526020016040518060200160405280600081525081526020016040518060200160405280600081525081526020016040518060200160405280600081525081526020016040518060400160405280600781526020017f236535643766380000000000000000000000000000000000000000000000000081525081526020016040518060400160405280600781526020017f236533643366370000000000000000000000000000000000000000000000000081525081526020016040518060400160405280600781526020017f236531643066370000000000000000000000000000000000000000000000000081525081526020016040518060400160405280600781526020017f236466636466360000000000000000000000000000000000000000000000000081525081526020016040518060400160405280600781526020017f236464636166360000000000000000000000000000000000000000000000000081525081526020016040518060200160405280600081525081526020016040518060200160405280600081525081526020016040518060200160405280600081525081526020016040518060200160405280600081525081526020016040518060200160405280600081525081526020016040518060200160405280600081525081526020016040518060200160405280600081525081526020016040518060200160405280600081525081526020016040518060200160405280600081525081526020016040518060200160405280600081525081526020016040518060200160405280600081525081526020016040518060200160405280600081525081526020016040518060200160405280600081525081526020016040518060200160405280600081525081526020016040518060200160405280600081525081526020016040518060200160405280600081525081526020016040518060200160405280600081525081526020016040518060200160405280600081525081526020016040518060200160405280600081525081526020016040518060200160405280600081525081526020016040518060200160405280600081525081526020016040518060200160405280600081525081526020016040518060200160405280600081525081525081526020016040518061042001604052806040518060200160405280600081525081526020016040518060200160405280600081525081526020016040518060200160405280600081525081526020016040518060200160405280600081525081526020016040518060200160405280600081525081526020016040518060200160405280600081525081526020016040518060400160405280600781526020017f236531643166370000000000000000000000000000000000000000000000000081525081526020016040518060400160405280600781526020017f236466636566370000000000000000000000000000000000000000000000000081525081526020016040518060400160405280600781526020017f236465636366360000000000000000000000000000000000000000000000000081525081526020016040518060400160405280600781526020017f236463633966360000000000000000000000000000000000000000000000000081525081526020016040518060200160405280600081525081526020016040518060200160405280600081525081526020016040518060200160405280600081525081526020016040518060200160405280600081525081526020016040518060200160405280600081525081526020016040518060200160405280600081525081526020016040518060200160405280600081525081526020016040518060200160405280600081525081526020016040518060200160405280600081525081526020016040518060200160405280600081525081526020016040518060200160405280600081525081526020016040518060200160405280600081525081526020016040518060200160405280600081525081526020016040518060200160405280600081525081526020016040518060200160405280600081525081526020016040518060200160405280600081525081526020016040518060200160405280600081525081526020016040518060200160405280600081525081526020016040518060200160405280600081525081526020016040518060200160405280600081525081526020016040518060200160405280600081525081526020016040518060200160405280600081525081526020016040518060200160405280600081525081525081526020016040518061042001604052806040518060200160405280600081525081526020016040518060200160405280600081525081526020016040518060200160405280600081525081526020016040518060200160405280600081525081526020016040518060200160405280600081525081526020016040518060200160405280600081525081526020016040518060200160405280600081525081526020016040518060200160405280600081525081526020016040518060200160405280600081525081526020016040518060200160405280600081525081526020016040518060200160405280600081525081526020016040518060200160405280600081525081526020016040518060200160405280600081525081526020016040518060200160405280600081525081526020016040518060200160405280600081525081526020016040518060200160405280600081525081526020016040518060200160405280600081525081526020016040518060200160405280600081525081526020016040518060200160405280600081525081526020016040518060200160405280600081525081526020016040518060200160405280600081525081526020016040518060200160405280600081525081526020016040518060200160405280600081525081526020016040518060200160405280600081525081526020016040518060200160405280600081525081526020016040518060200160405280600081525081526020016040518060200160405280600081525081526020016040518060200160405280600081525081526020016040518060200160405280600081525081526020016040518060200160405280600081525081526020016040518060200160405280600081525081526020016040518060200160405280600081525081526020016040518060200160405280600081525081525081525061044190601062003f3b92919062005a86565b5034801562003f4957600080fd5b50604051806104200160405280600360ff168152602001600660ff168152602001600960ff168152602001600c60ff168152602001600f60ff168152602001601260ff168152602001601560ff168152602001601860ff168152602001601b60ff168152602001601e60ff168152602001602160ff168152602001602460ff168152602001602760ff168152602001602a60ff168152602001602d60ff168152602001603060ff168152602001603360ff168152602001603660ff168152602001603960ff168152602001603c60ff168152602001603f60ff168152602001604260ff168152602001604560ff168152602001604860ff168152602001604b60ff168152602001604e60ff168152602001605160ff168152602001605460ff168152602001605760ff168152602001605a60ff168152602001605d60ff168152602001606060ff168152602001606360ff1681525060008060218110620040b557620040b462005d27565b5b60210201906021620040c992919062005add565b50604051806104200160405280600660ff168152602001600c60ff168152602001601260ff168152602001601860ff168152602001601e60ff168152602001602460ff168152602001602a60ff168152602001603060ff168152602001603660ff168152602001603c60ff168152602001604260ff168152602001604860ff168152602001604e60ff168152602001605460ff168152602001605a60ff168152602001606060ff168152602001606460ff168152602001606e60ff168152602001606e60ff168152602001607860ff168152602001608260ff168152602001608260ff168152602001608c60ff168152602001608c60ff168152602001609660ff16815260200160a060ff16815260200160a060ff16815260200160aa60ff16815260200160aa60ff16815260200160b460ff16815260200160be60ff16815260200160be60ff16815260200160c860ff16815250600060016021811062004236576200423562005d27565b5b602102019060216200424a92919062005add565b50604051806104200160405280600961ffff168152602001601261ffff168152602001601b61ffff168152602001602461ffff168152602001602d61ffff16815260200161021c61ffff16815260200161028061ffff1681526020016102e461ffff16815260200161034861ffff1681526020016103c061ffff16815260200161044c61ffff168152602001606e61ffff168152602001607861ffff168152602001608261ffff168152602001608c61ffff168152602001608c61ffff168152602001609661ffff16815260200160a061ffff16815260200160aa61ffff16815260200160b461ffff16815260200160be61ffff16815260200160c861ffff16815260200160d261ffff16815260200160dc61ffff16815260200160dc61ffff16815260200160e661ffff16815260200160f061ffff16815260200160fa61ffff16815260200161010461ffff16815260200161010e61ffff16815260200161011861ffff16815260200161012261ffff16815260200161012c61ffff168152506000600260218110620043e357620043e262005d27565b5b60210201906021620043f792919062005b27565b50604051806104200160405280600c61ffff168152602001601861ffff168152602001602461ffff168152602001603061ffff168152602001603c61ffff1681526020016102d061ffff168152602001605461ffff168152602001606061ffff16815260200161044c61ffff168152602001607861ffff168152602001608261ffff16815260200161064061ffff16815260200160a061ffff16815260200160aa61ffff16815260200160b461ffff1681526020016108fc61ffff1681526020016109c461ffff168152602001610a8c61ffff168152602001610b5461ffff168152602001610c1c61ffff16815260200160fa61ffff16815260200161010461ffff168152602001610f3c61ffff16815260200161106861ffff16815260200161113061ffff16815260200161125c61ffff16815260200161014061ffff16815260200161015461ffff16815260200161015e61ffff16815260200161016861ffff16815260200161017261ffff16815260200161017c61ffff16815260200161019061ffff16815250600060036021811062004599576200459862005d27565b5b60210201906021620045ad92919062005b27565b50604051806104200160405280600f61ffff168152602001601e61ffff168152602001602d61ffff168152602001603c61ffff168152602001604b61ffff16815260200161038e61ffff168152602001606e61ffff16815260200161051461ffff168152602001608c61ffff168152602001609661ffff16815260200160aa61ffff16815260200160b461ffff16815260200161089861ffff16815260200160d261ffff168152602001610a8c61ffff16815260200160f061ffff168152602001610c8061ffff16815260200161010e61ffff16815260200161012261ffff16815260200161012c61ffff1681526020016110cc61ffff1681526020016111f861ffff16815260200161015e61ffff1681526020016114b461ffff16815260200161017c61ffff16815260200161177061ffff16815260200161019a61ffff1681526020016101a461ffff1681526020016101ae61ffff1681526020016101c261ffff1681526020016101cc61ffff1681526020016101e061ffff1681526020016101f461ffff16815250600060046021811062004750576200474f62005d27565b5b602102019060216200476492919062005b27565b50604051806104200160405280601261ffff168152602001602461ffff168152602001603661ffff168152602001604861ffff168152602001605a61ffff16815260200161044c61ffff168152602001608261ffff1681526020016105dc61ffff16815260200160a061ffff16815260200160b461ffff16815260200161089861ffff1681526020016109c461ffff16815260200160e661ffff168152602001610bb861ffff16815260200161010e61ffff168152602001610e1061ffff16815260200161013661ffff16815260200161106861ffff16815260200161119461ffff16815260200161016861ffff16815260200161145061ffff1681526020016115e061ffff16815260200161019a61ffff16815260200161190061ffff1681526020016101c261ffff168152602001611ce861ffff1681526020016101ea61ffff1681526020016101f461ffff16815260200161020861ffff16815260200161021c61ffff16815260200161023061ffff16815260200161024461ffff16815260200161024e61ffff1681525060006005602181106200490a576200490962005d27565b5b602102019060216200491e92919062005b27565b50604051806104200160405280601561ffff168152602001602a61ffff168152602001603f61ffff168152602001605461ffff168152602001606e61ffff16815260200161051461ffff168152602001609661ffff16815260200161070861ffff16815260200160be61ffff16815260200160d261ffff168152602001610a2861ffff168152602001610b5461ffff16815260200161010e61ffff168152602001610e1061ffff16815260200161014061ffff16815260200161106861ffff16815260200161016861ffff16815260200161138861ffff16815260200161019061ffff1681526020016116a861ffff1681526020016101b861ffff168152602001611a2c61ffff1681526020016101e061ffff168152602001611db061ffff16815260200161021261ffff1681526020016121fc61ffff16815260200161023a61ffff16815260200161024e61ffff16815260200161026261ffff16815260200161027661ffff16815260200161028a61ffff16815260200161029e61ffff1681526020016102b261ffff16815250600060066021811062004ac55762004ac462005d27565b5b6021020190602162004ad992919062005b27565b50604051806104200160405280601861ffff168152602001603061ffff168152602001604861ffff168152602001606061ffff168152602001607861ffff1681526020016105dc61ffff16815260200160aa61ffff16815260200161083461ffff16815260200160dc61ffff16815260200160f061ffff168152602001610bb861ffff16815260200161012261ffff168152602001610e7461ffff16815260200161100461ffff16815260200161016861ffff16815260200161132461ffff16815260200161019a61ffff1681526020016116a861ffff1681526020016101cc61ffff168152602001611a2c61ffff1681526020016101f461ffff168152602001611e1461ffff16815260200161022661ffff1681526020016122c461ffff16815260200161025861ffff16815260200161271061ffff168152602001612af861ffff168152602001612ee061ffff1681526020016102bc61ffff1681526020016102d061ffff1681526020016102e461ffff16815260200161030261ffff16815260200161031661ffff16815250600060076021811062004c805762004c7f62005d27565b5b6021020190602162004c9492919062005b27565b50604051806104200160405280601b61ffff168152602001603661ffff168152602001605161ffff168152602001606e61ffff168152602001608c61ffff1681526020016106a461ffff16815260200160be61ffff16815260200161096061ffff16815260200160f061ffff168152602001610c1c61ffff16815260200161012c61ffff16815260200161014061ffff1681526020016110cc61ffff16815260200161125c61ffff16815260200161019a61ffff1681526020016115e061ffff1681526020016101cc61ffff1681526020016119c861ffff1681526020016101fe61ffff168152602001611e1461ffff16815260200161023a61ffff1681526020016122c461ffff16815260200161026c61ffff16815260200161271061ffff1681526020016102a861ffff168152602001612ee061ffff168152602001612ee061ffff1681526020016132c861ffff16815260200161030c61ffff16815260200161032a61ffff16815260200161034861ffff16815260200161035c61ffff16815260200161037a61ffff16815250600060086021811062004e3c5762004e3b62005d27565b5b6021020190602162004e5092919062005b27565b50604051806104200160405280601e61ffff168152602001603c61ffff168152602001605a61ffff168152602001607861ffff168152602001609661ffff16815260200161076c61ffff16815260200160d261ffff168152602001610a8c61ffff16815260200161010e61ffff168152602001610dac61ffff168152602001610f3c61ffff1681526020016110cc61ffff1681526020016112c061ffff1681526020016114b461ffff1681526020016101c261ffff16815260200161189c61ffff1681526020016101fe61ffff168152602001611ce861ffff168152602001611f4061ffff16815260200161219861ffff16815260200161027661ffff16815260200161271061ffff1681526020016102b261ffff168152602001612af861ffff1681526020016102ee61ffff16815260200161030c61ffff16815260200161032a61ffff168152602001613a9861ffff16815260200161036661ffff16815260200161038461ffff1681526020016103a261ffff1681526020016103c061ffff1681526020016103de61ffff16815250600060096021811062004ff95762004ff862005d27565b5b602102019060216200500d92919062005b27565b50604051806104200160405280602161ffff168152602001604261ffff168152602001606361ffff168152602001608261ffff16815260200160a061ffff16815260200161089861ffff16815260200160e661ffff168152602001610bb861ffff16815260200161012c61ffff168152602001610f3c61ffff16815260200161016861ffff16815260200161019061ffff1681526020016101ae61ffff16815260200161170c61ffff1681526020016101ea61ffff168152602001611b5861ffff16815260200161023061ffff16815260200161024e61ffff16815260200161027661ffff16815260200161029461ffff1681526020016102b261ffff168152602001612af861ffff168152602001612ee061ffff16815260200161031661ffff1681526020016136b061ffff16815260200161035c61ffff16815260200161037a61ffff16815260200161426861ffff1681526020016103c061ffff1681526020016103de61ffff1681526020016103e861ffff16815260200161044c61ffff16815260200161044c61ffff168152506000600a60218110620051b657620051b562005d27565b5b60210201906021620051ca92919062005b27565b50604051806104200160405280602461ffff168152602001604861ffff168152602001606e61ffff168152602001608c61ffff16815260200160b461ffff16815260200161096061ffff16815260200160fa61ffff168152602001610ce461ffff16815260200161014061ffff1681526020016110cc61ffff16815260200161019061ffff1681526020016101ae61ffff1681526020016101d661ffff1681526020016101f461ffff168152602001611bbc61ffff16815260200161024461ffff16815260200161213461ffff16815260200161028a61ffff1681526020016102a861ffff1681526020016102d061ffff168152602001612af861ffff16815260200161031661ffff1681526020016132c861ffff1681526020016136b061ffff168152602001613a9861ffff168152602001613e8061ffff16815260200161426861ffff1681526020016103e861ffff1681526020016103e861ffff16815260200161044c61ffff16815260200161044c61ffff1681526020016104b061ffff1681526020016104b061ffff168152506000600b6021811062005373576200537262005d27565b5b602102019060216200538792919062005b27565b50604051806104200160405280602761ffff168152602001604e61ffff168152602001607861ffff16815260200160a061ffff16815260200160c861ffff168152602001610a2861ffff16815260200161010e61ffff168152602001610e1061ffff16815260200161015e61ffff16815260200161125c61ffff1681526020016101ae61ffff1681526020016101d661ffff1681526020016101fe61ffff16815260200161022661ffff16815260200161024e61ffff16815260200161213461ffff16815260200161245461ffff16815260200161271061ffff168152602001612af861ffff168152602001612ee061ffff16815260200161033461ffff16815260200161035c61ffff16815260200161038461ffff1681526020016103ac61ffff1681526020016103d461ffff1681526020016103e861ffff16815260200161044c61ffff16815260200161044c61ffff16815260200161044c61ffff1681526020016104b061ffff1681526020016104b061ffff1681526020016104b061ffff16815260200161051461ffff168152506000600c6021811062005531576200553062005d27565b5b602102019060216200554592919062005b27565b50604051806104200160405280602a61ffff168152602001605461ffff168152602001608261ffff16815260200160aa61ffff16815260200160d261ffff168152602001610af061ffff168152602001610d4861ffff168152602001610f3c61ffff16815260200161119461ffff1681526020016113ec61ffff1681526020016101cc61ffff1681526020016101f461ffff16815260200161022661ffff16815260200161024e61ffff16815260200161027661ffff16815260200161029e61ffff1681526020016102c661ffff1681526020016102f861ffff16815260200161032061ffff16815260200161034861ffff16815260200161037061ffff16815260200161039861ffff1681526020016103ca61ffff1681526020016103e861ffff16815260200161044c61ffff16815260200161044c61ffff16815260200161044c61ffff1681526020016104b061ffff1681526020016104b061ffff16815260200161051461ffff16815260200161051461ffff16815260200161051461ffff16815260200161057861ffff168152506000600d60218110620056ef57620056ee62005d27565b5b602102019060216200570392919062005b27565b50604051806104200160405280602d61ffff168152602001605a61ffff168152602001608c61ffff16815260200160b461ffff16815260200160dc61ffff16815260200161010e61ffff168152602001610e7461ffff1681526020016110cc61ffff16815260200161132461ffff1681526020016115e061ffff1681526020016101ea61ffff16815260200161021c61ffff16815260200161024e61ffff16815260200161027661ffff16815260200161029e61ffff1681526020016102d061ffff16815260200161030261ffff16815260200161032a61ffff16815260200161035c61ffff16815260200161038461ffff1681526020016103b661ffff1681526020016103de61ffff1681526020016103e861ffff16815260200161044c61ffff16815260200161044c61ffff1681526020016104b061ffff1681526020016104b061ffff16815260200161051461ffff16815260200161051461ffff16815260200161051461ffff16815260200161057861ffff16815260200161057861ffff1681526020016105dc61ffff168152506000600e60218110620058ad57620058ac62005d27565b5b60210201906021620058c192919062005b27565b50604051806104200160405280603061ffff168152602001606061ffff168152602001608c61ffff16815260200160be61ffff16815260200160f061ffff16815260200161012261ffff16815260200161015461ffff16815260200161017c61ffff1681526020016101ae61ffff1681526020016101e061ffff16815260200161021261ffff16815260200161024461ffff16815260200161026c61ffff16815260200161029e61ffff1681526020016102d061ffff16815260200161030261ffff16815260200161033461ffff16815260200161035c61ffff16815260200161038e61ffff1681526020016103c061ffff1681526020016103e861ffff16815260200161044c61ffff16815260200161044c61ffff1681526020016104b061ffff1681526020016104b061ffff1681526020016104b061ffff16815260200161051461ffff16815260200161051461ffff16815260200161057861ffff16815260200161057861ffff1681526020016105dc61ffff1681526020016105dc61ffff16815260200161064061ffff168152506000600f6021811062005a6b5762005a6a62005d27565b5b6021020190602162005a7f92919062005b27565b5062005dba565b8260218002810192821562005aca579160200282015b8281111562005ac95782518290602162005ab892919062005b72565b509160200191906021019062005a9c565b5b50905062005ad9919062005bcc565b5090565b826021810192821562005b14579160200282015b8281111562005b13578251829060ff1690559160200191906001019062005af1565b5b50905062005b23919062005bf4565b5090565b826021810192821562005b5f579160200282015b8281111562005b5e578251829061ffff1690559160200191906001019062005b3b565b5b50905062005b6e919062005bf4565b5090565b826021810192821562005bb9579160200282015b8281111562005bb857825182908051906020019062005ba792919062005c13565b509160200191906001019062005b86565b5b50905062005bc8919062005ca4565b5090565b5b8082111562005bf0576000818162005be6919062005ccc565b5060210162005bcd565b5090565b5b8082111562005c0f57600081600090555060010162005bf5565b5090565b82805462005c219062005d85565b90600052602060002090601f01602090048101928262005c45576000855562005c91565b82601f1062005c6057805160ff191683800117855562005c91565b8280016001018555821562005c91579182015b8281111562005c9057825182559160200191906001019062005c73565b5b50905062005ca0919062005bf4565b5090565b5b8082111562005cc8576000818162005cbe919062005ce1565b5060010162005ca5565b5090565b50806021019062005cde919062005ca4565b50565b50805462005cef9062005d85565b6000825580601f1062005d03575062005d24565b601f01602090049060005260206000209081019062005d23919062005bf4565b5b50565b7f4e487b7100000000000000000000000000000000000000000000000000000000600052603260045260246000fd5b7f4e487b7100000000000000000000000000000000000000000000000000000000600052602260045260246000fd5b6000600282049050600182168062005d9e57607f821691505b60208210810362005db45762005db362005d56565b5b50919050565b6103d28062005dca6000396000f3fe608060405234801561001057600080fd5b506004361061004c5760003560e01c8063108c5e141461005157806338b145df1461006f578063b0e987db1461008d578063f9cebc26146100bd575b600080fd5b6100596100ed565b60405161006691906101f5565b60405180910390f35b6100776100f2565b60405161008491906101f5565b60405180910390f35b6100a760048036038101906100a29190610241565b6100f7565b6040516100b491906101f5565b60405180910390f35b6100d760048036038101906100d29190610241565b610125565b6040516100e4919061031a565b60405180910390f35b601081565b602181565b6000826021811061010757600080fd5b60210201816021811061011957600080fd5b01600091509150505481565b610441826021811061013657600080fd5b60210201816021811061014857600080fd5b0160009150915050805461015b9061036b565b80601f01602080910402602001604051908101604052809291908181526020018280546101879061036b565b80156101d45780601f106101a9576101008083540402835291602001916101d4565b820191906000526020600020905b8154815290600101906020018083116101b757829003601f168201915b505050505081565b6000819050919050565b6101ef816101dc565b82525050565b600060208201905061020a60008301846101e6565b92915050565b600080fd5b61021e816101dc565b811461022957600080fd5b50565b60008135905061023b81610215565b92915050565b6000806040838503121561025857610257610210565b5b60006102668582860161022c565b92505060206102778582860161022c565b9150509250929050565b600081519050919050565b600082825260208201905092915050565b60005b838110156102bb5780820151818401526020810190506102a0565b838111156102ca576000848401525b50505050565b6000601f19601f8301169050919050565b60006102ec82610281565b6102f6818561028c565b935061030681856020860161029d565b61030f816102d0565b840191505092915050565b6000602082019050818103600083015261033481846102e1565b905092915050565b7f4e487b7100000000000000000000000000000000000000000000000000000000600052602260045260246000fd5b6000600282049050600182168061038357607f821691505b6020821081036103965761039561033c565b5b5091905056fea264697066735822122000e7620a498df5d3fe625ee5e57100f52c720c4a141d8cb05b28c6765083797464736f6c634300080d0033",
  "immutableReferences": {},
  "source": "// SPDX-License-Identifier: MIT\npragma solidity >=0.4.22 <0.9.0;\n\ncontract DataStorage1 {\n    uint256 public constant gridWidth = 33;\n    uint256 public constant gridHeight = 16;\n\n    uint256[gridWidth][gridWidth] public initialValues;\n    constructor() {\n      initialValues[0] = [3,6,9,12,15,18,21,24,27,30,33,36,39,42,45,48,51,54,57,60,63,66,69,72,75,78,81,84,87,90,93,96,99];\n      initialValues[1] = [6,12,18,24,30,36,42,48,54,60,66,72,78,84,90,96,100,110,110,120,130,130,140,140,150,160,160,170,170,180,190,190,200];\n      initialValues[2] = [9,18,27,36,45,540,640,740,840,960,1100,110,120,130,140,140,150,160,170,180,190,200,210,220,220,230,240,250,260,270,280,290,300];\n      initialValues[3] = [12,24,36,48,60,720,84,96,1100,120,130,1600,160,170,180,2300,2500,2700,2900,3100,250,260,3900,4200,4400,4700,320,340,350,360,370,380,400];\n      initialValues[4] = [15,30,45,60,75,910,110,1300,140,150,170,180,2200,210,2700,240,3200,270,290,300,4300,4600,350,5300,380,6000,410,420,430,450,460,480,500];\n      initialValues[5] = [18,36,54,72,90,1100,130,1500,160,180,2200,2500,230,3000,270,3600,310,4200,4500,360,5200,5600,410,6400,450,7400,490,500,520,540,560,580,590];\n      initialValues[6] = [21,42,63,84,110,1300,150,1800,190,210,2600,2900,270,3600,320,4200,360,5000,400,5800,440,6700,480,7600,530,8700,570,590,610,630,650,670,690];\n      initialValues[7] = [24,48,72,96,120,1500,170,2100,220,240,3000,290,3700,4100,360,4900,410,5800,460,6700,500,7700,550,8900,600,10000,11000,12000,700,720,740,770,790];\n      initialValues[8] = [27,54,81,110,140,1700,190,2400,240,3100,300,320,4300,4700,410,5600,460,6600,510,7700,570,8900,620,10000,680,12000,12000,13000,780,810,840,860,890];\n      initialValues[9] = [30,60,90,120,150,1900,210,2700,270,3500,3900,4300,4800,5300,450,6300,510,7400,8000,8600,630,10000,690,11000,750,780,810,15000,870,900,930,960,990];\n      initialValues[10] = [33,66,99,130,160,2200,230,3000,300,3900,360,400,430,5900,490,7000,560,590,630,660,690,11000,12000,790,14000,860,890,17000,960,990,1000,1100,1100];\n      initialValues[11] = [36,72,110,140,180,2400,250,3300,320,4300,400,430,470,500,7100,580,8500,650,680,720,11000,790,13000,14000,15000,16000,17000,1000,1000,1100,1100,1200,1200];\n      initialValues[12] = [39,78,120,160,200,2600,270,3600,350,4700,430,470,510,550,590,8500,9300,10000,11000,12000,820,860,900,940,980,1000,1100,1100,1100,1200,1200,1200,1300];\n      initialValues[13] = [42,84,130,170,210,2800,3400,3900,4500,5100,460,500,550,590,630,670,710,760,800,840,880,920,970,1000,1100,1100,1100,1200,1200,1300,1300,1300,1400];\n      initialValues[14] = [45,90,140,180,220,270,3700,4300,4900,5600,490,540,590,630,670,720,770,810,860,900,950,990,1000,1100,1100,1200,1200,1300,1300,1300,1400,1400,1500];\n      initialValues[15] = [48,96,140,190,240,290,340,380,430,480,530,580,620,670,720,770,820,860,910,960,1000,1100,1100,1200,1200,1200,1300,1300,1400,1400,1500,1500,1600];\n    }\n\n    string[gridWidth][gridWidth] public colorValues = [\n      [\"\",\"\",\"\",\"\",\"\",\"\",\"\",\"\",\"\",\"\",\"\",\"\",\"\",\"\",\"\",\"\",\"\",\"\",\"\",\"\",\"\",\"\",\"\",\"\",\"\",\"\",\"\",\"\",\"\",\"\",\"\",\"\",\"\"],\n      [\"\",\"\",\"\",\"\",\"\",\"\",\"\",\"\",\"\",\"\",\"\",\"\",\"\",\"\",\"\",\"\",\"\",\"\",\"\",\"\",\"\",\"\",\"\",\"\",\"\",\"\",\"\",\"\",\"\",\"\",\"\",\"\",\"\"],\n      [\"\",\"\",\"\",\"\",\"\",\"#f2ebfb\",\"#f0e8fb\",\"#eee5fa\",\"#ede3fa\",\"#ebe0f9\",\"#e9ddf9\",\"\",\"\",\"\",\"\",\"\",\"\",\"\",\"\",\"\",\"\",\"\",\"\",\"\",\"\",\"\",\"\",\"\",\"\",\"\",\"\",\"\",\"\"],\n      [\"\",\"\",\"\",\"\",\"\",\"#f1eafb\",\"\",\"\",\"#ebe1fa\",\"\",\"\",\"#e6d8f8\",\"\",\"\",\"\",\"#deccf6\",\"#dcc9f6\",\"#dac6f5\",\"#d8c3f5\",\"#d6c0f4\",\"\",\"\",\"#d0b7f3\",\"#ceb4f2\",\"#ccb1f2\",\"#caaef1\",\"\",\"\",\"\",\"\",\"\",\"\",\"\"],\n      [\"\",\"\",\"\",\"\",\"\",\"#f0e7fb\",\"\",\"#ece1fa\",\"\",\"\",\"\",\"\",\"#e2d3f7\",\"\",\"#decdf6\",\"\",\"#dbc7f5\",\"\",\"\",\"\",\"#d3bbf3\",\"#d1b8f3\",\"\",\"#cdb2f2\",\"\",\"#c9acf1\",\"\",\"\",\"\",\"\",\"\",\"\",\"\"],\n      [\"\",\"\",\"\",\"\",\"\",\"#efe6fa\",\"\",\"#ebe0f9\",\"\",\"\",\"#e5d7f8\",\"#e3d4f8\",\"\",\"#dfcef7\",\"\",\"#dbc8f6\",\"\",\"#d7c2f5\",\"#d5bff4\",\"\",\"#d2b9f3\",\"#d0b6f3\",\"\",\"#ccb0f2\",\"\",\"#c8aaf1\",\"\",\"\",\"\",\"\",\"\",\"\",\"\"],\n      [\"\",\"\",\"\",\"\",\"\",\"#ede4fa\",\"\",\"#e9ddf9\",\"\",\"\",\"#e4d5f8\",\"#e2d2f7\",\"\",\"#deccf6\",\"\",\"#dac6f5\",\"\",\"#d6c0f4\",\"\",\"#d2baf3\",\"\",\"#ceb4f2\",\"\",\"#cbaff1\",\"\",\"#c7a8f0\",\"\",\"\",\"\",\"\",\"\",\"\",\"\"],\n      [\"\",\"\",\"\",\"\",\"\",\"#ece2fa\",\"\",\"#e8dcf9\",\"\",\"\",\"#e2d3f7\",\"\",\"#dfcdf6\",\"#ddcaf6\",\"\",\"#d9c4f5\",\"\",\"#d5bef4\",\"\",\"#d1b9f3\",\"\",\"#cdb2f2\",\"\",\"#c9acf1\",\"\",\"#c5a6f0\",\"#c4a4f0\",\"#c2a1ef\",\"\",\"\",\"\",\"\",\"\"],\n      [\"\",\"\",\"\",\"\",\"\",\"#ebe0f9\",\"\",\"#e7daf8\",\"\",\"#e3d4f8\",\"\",\"\",\"#ddcbf6\",\"#dbc8f6\",\"\",\"#d8c3f5\",\"\",\"#d4bcf4\",\"\",\"#d0b6f3\",\"\",\"#ccb0f2\",\"\",\"#c8abf1\",\"\",\"#c4a5f0\",\"#c2a1ef\",\"#c09eef\",\"\",\"\",\"\",\"\",\"\"],\n      [\"\",\"\",\"\",\"\",\"\",\"#eadef9\",\"\",\"#e6d8f8\",\"\",\"#e2d2f7\",\"#e0cff7\",\"#decdf6\",\"#dcc9f6\",\"#dac6f5\",\"\",\"#d6c0f4\",\"\",\"#d2baf3\",\"#d0b7f3\",\"#cfb5f2\",\"\",\"#cbaff1\",\"\",\"#c7a8f0\",\"\",\"\",\"\",\"#bf9def\",\"\",\"\",\"\",\"\",\"\"],\n      [\"\",\"\",\"\",\"\",\"\",\"#e8dcf9\",\"\",\"#e4d6f8\",\"\",\"#e1d0f7\",\"\",\"\",\"\",\"#d9c4f5\",\"\",\"#d5bff4\",\"\",\"\",\"\",\"\",\"\",\"#c9acf1\",\"#c8aaf1\",\"\",\"#c4a4f0\",\"\",\"\",\"#be9bee\",\"\",\"\",\"\",\"\",\"\"],\n      [\"\",\"\",\"\",\"\",\"\",\"#e7daf9\",\"\",\"#e3d4f8\",\"\",\"#dfcef7\",\"\",\"\",\"\",\"\",\"#d6bff4\",\"\",\"#d2b9f3\",\"\",\"\",\"\",\"#caaef1\",\"\",\"#c6a8f0\",\"#c4a5f0\",\"#c2a1ef\",\"#c09eef\",\"#bf9cee\",\"\",\"\",\"\",\"\",\"\",\"\"],\n      [\"\",\"\",\"\",\"\",\"\",\"#e6d8f8\",\"\",\"#e2d2f7\",\"\",\"#decdf6\",\"\",\"\",\"\",\"\",\"\",\"#d3bbf3\",\"#d1b8f3\",\"#cfb5f2\",\"#cdb2f2\",\"#cbaff1\",\"\",\"\",\"\",\"\",\"\",\"\",\"\",\"\",\"\",\"\",\"\",\"\",\"\"],\n      [\"\",\"\",\"\",\"\",\"\",\"#e5d7f8\",\"#e3d3f7\",\"#e1d0f7\",\"#dfcdf6\",\"#ddcaf6\",\"\",\"\",\"\",\"\",\"\",\"\",\"\",\"\",\"\",\"\",\"\",\"\",\"\",\"\",\"\",\"\",\"\",\"\",\"\",\"\",\"\",\"\",\"\"],\n      [\"\",\"\",\"\",\"\",\"\",\"\",\"#e1d1f7\",\"#dfcef7\",\"#deccf6\",\"#dcc9f6\",\"\",\"\",\"\",\"\",\"\",\"\",\"\",\"\",\"\",\"\",\"\",\"\",\"\",\"\",\"\",\"\",\"\",\"\",\"\",\"\",\"\",\"\",\"\"],\n      [\"\",\"\",\"\",\"\",\"\",\"\",\"\",\"\",\"\",\"\",\"\",\"\",\"\",\"\",\"\",\"\",\"\",\"\",\"\",\"\",\"\",\"\",\"\",\"\",\"\",\"\",\"\",\"\",\"\",\"\",\"\",\"\",\"\"]\n    ];\n}\n",
  "sourcePath": "/home/wao/Meteor/Workspace/Sao/pixelflux/contracts/DataStorage1.sol",
  "compiler": {
    "name": "solc",
    "version": "0.8.13+commit.abaa5c0e.Emscripten.clang"
  },
  "schemaVersion": "3.4.13",
  "updatedAt": "2024-02-04T08:19:10.353Z",
  "devdoc": {
    "kind": "dev",
    "methods": {},
    "version": 1
  },
  "userdoc": {
    "kind": "user",
    "methods": {},
    "version": 1
  }
}