{
  "contractName": "DataStorage3",
  "abi": [
    {
      "inputs": [],
      "stateMutability": "nonpayable",
      "type": "constructor"
    },
    {
      "inputs": [
        {
          "internalType": "uint256",
          "name": "",
          "type": "uint256"
        },
        {
          "internalType": "uint256",
          "name": "",
          "type": "uint256"
        }
      ],
      "name": "colorValues",
      "outputs": [
        {
          "internalType": "string",
          "name": "",
          "type": "string"
        }
      ],
      "stateMutability": "view",
      "type": "function"
    },
    {
      "inputs": [],
      "name": "gridHeight",
      "outputs": [
        {
          "internalType": "uint256",
          "name": "",
          "type": "uint256"
        }
      ],
      "stateMutability": "view",
      "type": "function"
    },
    {
      "inputs": [],
      "name": "gridWidth",
      "outputs": [
        {
          "internalType": "uint256",
          "name": "",
          "type": "uint256"
        }
      ],
      "stateMutability": "view",
      "type": "function"
    },
    {
      "inputs": [
        {
          "internalType": "uint256",
          "name": "",
          "type": "uint256"
        },
        {
          "internalType": "uint256",
          "name": "",
          "type": "uint256"
        }
      ],
      "name": "initialValues",
      "outputs": [
        {
          "internalType": "uint256",
          "name": "",
          "type": "uint256"
        }
      ],
      "stateMutability": "view",
      "type": "function"
    }
  ],
  "bytecode": "0x60806040526040518061022001604052806040518061042001604052806040518060200160405280600081525081526020016040518060200160405280600081525081526020016040518060200160405280600081525081526020016040518060200160405280600081525081526020016040518060200160405280600081525081526020016040518060200160405280600081525081526020016040518060200160405280600081525081526020016040518060200160405280600081525081526020016040518060200160405280600081525081526020016040518060200160405280600081525081526020016040518060200160405280600081525081526020016040518060200160405280600081525081526020016040518060200160405280600081525081526020016040518060200160405280600081525081526020016040518060200160405280600081525081526020016040518060200160405280600081525081526020016040518060200160405280600081525081526020016040518060200160405280600081525081526020016040518060200160405280600081525081526020016040518060200160405280600081525081526020016040518060200160405280600081525081526020016040518060200160405280600081525081526020016040518060200160405280600081525081526020016040518060200160405280600081525081526020016040518060200160405280600081525081526020016040518060200160405280600081525081526020016040518060200160405280600081525081526020016040518060200160405280600081525081526020016040518060200160405280600081525081526020016040518060200160405280600081525081526020016040518060200160405280600081525081526020016040518060200160405280600081525081526020016040518060200160405280600081525081525081526020016040518061042001604052806040518060200160405280600081525081526020016040518060200160405280600081525081526020016040518060200160405280600081525081526020016040518060200160405280600081525081526020016040518060200160405280600081525081526020016040518060200160405280600081525081526020016040518060200160405280600081525081526020016040518060200160405280600081525081526020016040518060200160405280600081525081526020016040518060200160405280600081525081526020016040518060200160405280600081525081526020016040518060200160405280600081525081526020016040518060200160405280600081525081526020016040518060200160405280600081525081526020016040518060200160405280600081525081526020016040518060200160405280600081525081526020016040518060200160405280600081525081526020016040518060200160405280600081525081526020016040518060200160405280600081525081526020016040518060200160405280600081525081526020016040518060200160405280600081525081526020016040518060200160405280600081525081526020016040518060200160405280600081525081526020016040518060200160405280600081525081526020016040518060200160405280600081525081526020016040518060200160405280600081525081526020016040518060200160405280600081525081526020016040518060200160405280600081525081526020016040518060200160405280600081525081526020016040518060400160405280600781526020017f233962363565350000000000000000000000000000000000000000000000000081525081526020016040518060400160405280600781526020017f233939363265350000000000000000000000000000000000000000000000000081525081526020016040518060200160405280600081525081526020016040518060200160405280600081525081525081526020016040518061042001604052806040518060200160405280600081525081526020016040518060200160405280600081525081526020016040518060200160405280600081525081526020016040518060200160405280600081525081526020016040518060200160405280600081525081526020016040518060200160405280600081525081526020016040518060200160405280600081525081526020016040518060200160405280600081525081526020016040518060200160405280600081525081526020016040518060200160405280600081525081526020016040518060200160405280600081525081526020016040518060200160405280600081525081526020016040518060200160405280600081525081526020016040518060200160405280600081525081526020016040518060200160405280600081525081526020016040518060400160405280600781526020017f236235386465630000000000000000000000000000000000000000000000000081525081526020016040518060400160405280600781526020017f236233386165620000000000000000000000000000000000000000000000000081525081526020016040518060400160405280600781526020017f236231383765620000000000000000000000000000000000000000000000000081525081526020016040518060400160405280600781526020017f236166383465610000000000000000000000000000000000000000000000000081525081526020016040518060400160405280600781526020017f236164383065610000000000000000000000000000000000000000000000000081525081526020016040518060200160405280600081525081526020016040518060200160405280600081525081526020016040518060200160405280600081525081526020016040518060200160405280600081525081526020016040518060200160405280600081525081526020016040518060200160405280600081525081526020016040518060200160405280600081525081526020016040518060200160405280600081525081526020016040518060400160405280600781526020017f233962363665360000000000000000000000000000000000000000000000000081525081526020016040518060400160405280600781526020017f233939363265350000000000000000000000000000000000000000000000000081525081526020016040518060400160405280600781526020017f233938363065350000000000000000000000000000000000000000000000000081525081526020016040518060200160405280600081525081526020016040518060200160405280600081525081525081526020016040518061042001604052806040518060200160405280600081525081526020016040518060200160405280600081525081526020016040518060200160405280600081525081526020016040518060200160405280600081525081526020016040518060200160405280600081525081526020016040518060400160405280600781526020017f236337613866300000000000000000000000000000000000000000000000000081525081526020016040518060400160405280600781526020017f236335613566300000000000000000000000000000000000000000000000000081525081526020016040518060400160405280600781526020017f236333613265660000000000000000000000000000000000000000000000000081525081526020016040518060400160405280600781526020017f236331396665660000000000000000000000000000000000000000000000000081525081526020016040518060200160405280600081525081526020016040518060200160405280600081525081526020016040518060200160405280600081525081526020016040518060200160405280600081525081526020016040518060200160405280600081525081526020016040518060400160405280600781526020017f236235386565630000000000000000000000000000000000000000000000000081525081526020016040518060200160405280600081525081526020016040518060400160405280600781526020017f236231383765620000000000000000000000000000000000000000000000000081525081526020016040518060200160405280600081525081526020016040518060200160405280600081525081526020016040518060200160405280600081525081526020016040518060400160405280600781526020017f236161376365390000000000000000000000000000000000000000000000000081525081526020016040518060200160405280600081525081526020016040518060200160405280600081525081526020016040518060200160405280600081525081526020016040518060400160405280600781526020017f236132373065370000000000000000000000000000000000000000000000000081525081526020016040518060400160405280600781526020017f236130366365370000000000000000000000000000000000000000000000000081525081526020016040518060400160405280600781526020017f233965366165360000000000000000000000000000000000000000000000000081525081526020016040518060200160405280600081525081526020016040518060400160405280600781526020017f233961363465350000000000000000000000000000000000000000000000000081525081526020016040518060200160405280600081525081526020016040518060400160405280600781526020017f233936356565340000000000000000000000000000000000000000000000000081525081526020016040518060200160405280600081525081526020016040518060200160405280600081525081525081526020016040518061042001604052806040518060200160405280600081525081526020016040518060200160405280600081525081526020016040518060200160405280600081525081526020016040518060200160405280600081525081526020016040518060400160405280600781526020017f236337613966310000000000000000000000000000000000000000000000000081525081526020016040518060400160405280600781526020017f236335613666300000000000000000000000000000000000000000000000000081525081526020016040518060400160405280600781526020017f236333613366300000000000000000000000000000000000000000000000000081525081526020016040518060400160405280600781526020017f236331613065660000000000000000000000000000000000000000000000000081525081526020016040518060400160405280600781526020017f236330396565660000000000000000000000000000000000000000000000000081525081526020016040518060400160405280600781526020017f236265396265650000000000000000000000000000000000000000000000000081525081526020016040518060200160405280600081525081526020016040518060200160405280600081525081526020016040518060200160405280600081525081526020016040518060400160405280600781526020017f236236386565630000000000000000000000000000000000000000000000000081525081526020016040518060200160405280600081525081526020016040518060400160405280600781526020017f236232383965620000000000000000000000000000000000000000000000000081525081526020016040518060200160405280600081525081526020016040518060400160405280600781526020017f236165383365610000000000000000000000000000000000000000000000000081525081526020016040518060400160405280600781526020017f236163383065610000000000000000000000000000000000000000000000000081525081526020016040518060200160405280600081525081526020016040518060200160405280600081525081526020016040518060400160405280600781526020017f236136373665380000000000000000000000000000000000000000000000000081525081526020016040518060400160405280600781526020017f236135373465380000000000000000000000000000000000000000000000000081525081526020016040518060400160405280600781526020017f236133373165370000000000000000000000000000000000000000000000000081525081526020016040518060400160405280600781526020017f236131366565370000000000000000000000000000000000000000000000000081525081526020016040518060400160405280600781526020017f233966366265360000000000000000000000000000000000000000000000000081525081526020016040518060400160405280600781526020017f233964363865360000000000000000000000000000000000000000000000000081525081526020016040518060200160405280600081525081526020016040518060400160405280600781526020017f233939363265350000000000000000000000000000000000000000000000000081525081526020016040518060200160405280600081525081526020016040518060400160405280600781526020017f233935356365340000000000000000000000000000000000000000000000000081525081526020016040518060200160405280600081525081526020016040518060200160405280600081525081525081526020016040518061042001604052806040518060200160405280600081525081526020016040518060200160405280600081525081526020016040518060400160405280600781526020017f236361616466310000000000000000000000000000000000000000000000000081525081526020016040518060400160405280600781526020017f236338616166310000000000000000000000000000000000000000000000000081525081526020016040518060400160405280600781526020017f236336613866300000000000000000000000000000000000000000000000000081525081526020016040518060200160405280600081525081526020016040518060200160405280600081525081526020016040518060200160405280600081525081526020016040518060200160405280600081525081526020016040518060200160405280600081525081526020016040518060400160405280600781526020017f236261393565640000000000000000000000000000000000000000000000000081525081526020016040518060200160405280600081525081526020016040518060400160405280600781526020017f236237393065630000000000000000000000000000000000000000000000000081525081526020016040518060200160405280600081525081526020016040518060400160405280600781526020017f236233386165620000000000000000000000000000000000000000000000000081525081526020016040518060200160405280600081525081526020016040518060400160405280600781526020017f236166383465610000000000000000000000000000000000000000000000000081525081526020016040518060200160405280600081525081526020016040518060200160405280600081525081526020016040518060400160405280600781526020017f236139376265390000000000000000000000000000000000000000000000000081525081526020016040518060200160405280600081525081526020016040518060400160405280600781526020017f236135373565380000000000000000000000000000000000000000000000000081525081526020016040518060400160405280600781526020017f236133373265380000000000000000000000000000000000000000000000000081525081526020016040518060200160405280600081525081526020016040518060400160405280600781526020017f233966366365370000000000000000000000000000000000000000000000000081525081526020016040518060200160405280600081525081526020016040518060400160405280600781526020017f233963363665360000000000000000000000000000000000000000000000000081525081526020016040518060200160405280600081525081526020016040518060400160405280600781526020017f233938363065350000000000000000000000000000000000000000000000000081525081526020016040518060200160405280600081525081526020016040518060400160405280600781526020017f233934356165340000000000000000000000000000000000000000000000000081525081526020016040518060200160405280600081525081526020016040518060200160405280600081525081525081526020016040518061042001604052806040518060200160405280600081525081526020016040518060200160405280600081525081526020016040518060400160405280600781526020017f236339616266310000000000000000000000000000000000000000000000000081525081526020016040518060200160405280600081525081526020016040518060400160405280600781526020017f236335613566300000000000000000000000000000000000000000000000000081525081526020016040518060200160405280600081525081526020016040518060400160405280600781526020017f236331396665660000000000000000000000000000000000000000000000000081525081526020016040518060400160405280600781526020017f236266396365650000000000000000000000000000000000000000000000000081525081526020016040518060400160405280600781526020017f236264396165650000000000000000000000000000000000000000000000000081525081526020016040518060400160405280600781526020017f236262393765650000000000000000000000000000000000000000000000000081525081526020016040518060200160405280600081525081526020016040518060200160405280600081525081526020016040518060400160405280600781526020017f236235386565630000000000000000000000000000000000000000000000000081525081526020016040518060200160405280600081525081526020016040518060400160405280600781526020017f236231383765620000000000000000000000000000000000000000000000000081525081526020016040518060200160405280600081525081526020016040518060400160405280600781526020017f236165383265610000000000000000000000000000000000000000000000000081525081526020016040518060200160405280600081525081526020016040518060200160405280600081525081526020016040518060400160405280600781526020017f236138373965390000000000000000000000000000000000000000000000000081525081526020016040518060200160405280600081525081526020016040518060400160405280600781526020017f236134373365380000000000000000000000000000000000000000000000000081525081526020016040518060200160405280600081525081526020016040518060400160405280600781526020017f236130366465370000000000000000000000000000000000000000000000000081525081526020016040518060200160405280600081525081526020016040518060200160405280600081525081526020016040518060400160405280600781526020017f233961363465350000000000000000000000000000000000000000000000000081525081526020016040518060200160405280600081525081526020016040518060400160405280600781526020017f233936356565340000000000000000000000000000000000000000000000000081525081526020016040518060200160405280600081525081526020016040518060400160405280600781526020017f233933353865330000000000000000000000000000000000000000000000000081525081526020016040518060200160405280600081525081526020016040518060200160405280600081525081525081526020016040518061042001604052806040518060200160405280600081525081526020016040518060200160405280600081525081526020016040518060400160405280600781526020017f236337613966310000000000000000000000000000000000000000000000000081525081526020016040518060200160405280600081525081526020016040518060400160405280600781526020017f236334613466300000000000000000000000000000000000000000000000000081525081526020016040518060200160405280600081525081526020016040518060400160405280600781526020017f236330396565660000000000000000000000000000000000000000000000000081525081526020016040518060200160405280600081525081526020016040518060200160405280600081525081526020016040518060400160405280600781526020017f236261393465640000000000000000000000000000000000000000000000000081525081526020016040518060400160405280600781526020017f236238393165640000000000000000000000000000000000000000000000000081525081526020016040518060200160405280600081525081526020016040518060400160405280600781526020017f236234386365630000000000000000000000000000000000000000000000000081525081526020016040518060200160405280600081525081526020016040518060400160405280600781526020017f236230383665620000000000000000000000000000000000000000000000000081525081526020016040518060200160405280600081525081526020016040518060400160405280600781526020017f236163383065610000000000000000000000000000000000000000000000000081525081526020016040518060200160405280600081525081526020016040518060200160405280600081525081526020016040518060400160405280600781526020017f236137373765380000000000000000000000000000000000000000000000000081525081526020016040518060200160405280600081525081526020016040518060400160405280600781526020017f236133373165370000000000000000000000000000000000000000000000000081525081526020016040518060200160405280600081525081526020016040518060400160405280600781526020017f233966366265360000000000000000000000000000000000000000000000000081525081526020016040518060200160405280600081525081526020016040518060400160405280600781526020017f233962363565350000000000000000000000000000000000000000000000000081525081526020016040518060200160405280600081525081526020016040518060400160405280600781526020017f233937356665350000000000000000000000000000000000000000000000000081525081526020016040518060400160405280600781526020017f233935356365340000000000000000000000000000000000000000000000000081525081526020016040518060200160405280600081525081526020016040518060400160405280600781526020017f233931353665330000000000000000000000000000000000000000000000000081525081526020016040518060200160405280600081525081526020016040518060200160405280600081525081525081526020016040518061042001604052806040518060200160405280600081525081526020016040518060200160405280600081525081526020016040518060400160405280600781526020017f236336613866300000000000000000000000000000000000000000000000000081525081526020016040518060200160405280600081525081526020016040518060400160405280600781526020017f236332613165660000000000000000000000000000000000000000000000000081525081526020016040518060200160405280600081525081526020016040518060400160405280600781526020017f236265396265650000000000000000000000000000000000000000000000000081525081526020016040518060400160405280600781526020017f236263393865650000000000000000000000000000000000000000000000000081525081526020016040518060400160405280600781526020017f236262393665640000000000000000000000000000000000000000000000000081525081526020016040518060200160405280600081525081526020016040518060400160405280600781526020017f236237393065630000000000000000000000000000000000000000000000000081525081526020016040518060400160405280600781526020017f236235386465630000000000000000000000000000000000000000000000000081525081526020016040518060400160405280600781526020017f236233386165620000000000000000000000000000000000000000000000000081525081526020016040518060200160405280600081525081526020016040518060400160405280600781526020017f236166383465610000000000000000000000000000000000000000000000000081525081526020016040518060200160405280600081525081526020016040518060400160405280600781526020017f236162376565610000000000000000000000000000000000000000000000000081525081526020016040518060200160405280600081525081526020016040518060200160405280600081525081526020016040518060400160405280600781526020017f236135373565380000000000000000000000000000000000000000000000000081525081526020016040518060200160405280600081525081526020016040518060400160405280600781526020017f236131366665370000000000000000000000000000000000000000000000000081525081526020016040518060200160405280600081525081526020016040518060400160405280600781526020017f233965363965360000000000000000000000000000000000000000000000000081525081526020016040518060200160405280600081525081526020016040518060400160405280600781526020017f233961363365350000000000000000000000000000000000000000000000000081525081526020016040518060400160405280600781526020017f233938363065350000000000000000000000000000000000000000000000000081525081526020016040518060200160405280600081525081526020016040518060200160405280600081525081526020016040518060200160405280600081525081526020016040518060400160405280600781526020017f233930353565330000000000000000000000000000000000000000000000000081525081526020016040518060200160405280600081525081526020016040518060200160405280600081525081525081526020016040518061042001604052806040518060200160405280600081525081526020016040518060200160405280600081525081526020016040518060400160405280600781526020017f236335613566300000000000000000000000000000000000000000000000000081525081526020016040518060200160405280600081525081526020016040518060400160405280600781526020017f236331613065660000000000000000000000000000000000000000000000000081525081526020016040518060200160405280600081525081526020016040518060400160405280600781526020017f236264396165650000000000000000000000000000000000000000000000000081525081526020016040518060200160405280600081525081526020016040518060400160405280600781526020017f236239393465640000000000000000000000000000000000000000000000000081525081526020016040518060400160405280600781526020017f236237393165640000000000000000000000000000000000000000000000000081525081526020016040518060200160405280600081525081526020016040518060400160405280600781526020017f236234386265630000000000000000000000000000000000000000000000000081525081526020016040518060400160405280600781526020017f236232383865620000000000000000000000000000000000000000000000000081525081526020016040518060200160405280600081525081526020016040518060400160405280600781526020017f236165383265610000000000000000000000000000000000000000000000000081525081526020016040518060200160405280600081525081526020016040518060200160405280600081525081526020016040518060400160405280600781526020017f236138373965390000000000000000000000000000000000000000000000000081525081526020016040518060400160405280600781526020017f236136373665380000000000000000000000000000000000000000000000000081525081526020016040518060200160405280600081525081526020016040518060200160405280600081525081526020016040518060400160405280600781526020017f236130366465370000000000000000000000000000000000000000000000000081525081526020016040518060200160405280600081525081526020016040518060400160405280600781526020017f233963363765360000000000000000000000000000000000000000000000000081525081526020016040518060200160405280600081525081526020016040518060400160405280600781526020017f233938363165350000000000000000000000000000000000000000000000000081525081526020016040518060200160405280600081525081526020016040518060400160405280600781526020017f233935356365340000000000000000000000000000000000000000000000000081525081526020016040518060200160405280600081525081526020016040518060200160405280600081525081526020016040518060400160405280600781526020017f233866353265320000000000000000000000000000000000000000000000000081525081526020016040518060200160405280600081525081526020016040518060200160405280600081525081525081526020016040518061042001604052806040518060200160405280600081525081526020016040518060200160405280600081525081526020016040518060400160405280600781526020017f236334613466300000000000000000000000000000000000000000000000000081525081526020016040518060200160405280600081525081526020016040518060400160405280600781526020017f236330396565660000000000000000000000000000000000000000000000000081525081526020016040518060200160405280600081525081526020016040518060400160405280600781526020017f236263393865650000000000000000000000000000000000000000000000000081525081526020016040518060200160405280600081525081526020016040518060400160405280600781526020017f236238393265640000000000000000000000000000000000000000000000000081525081526020016040518060200160405280600081525081526020016040518060200160405280600081525081526020016040518060400160405280600781526020017f236232383965620000000000000000000000000000000000000000000000000081525081526020016040518060200160405280600081525081526020016040518060400160405280600781526020017f236165383365610000000000000000000000000000000000000000000000000081525081526020016040518060200160405280600081525081526020016040518060400160405280600781526020017f236162376465390000000000000000000000000000000000000000000000000081525081526020016040518060200160405280600081525081526020016040518060200160405280600081525081526020016040518060200160405280600081525081526020016040518060200160405280600081525081526020016040518060200160405280600081525081526020016040518060400160405280600781526020017f233966366265360000000000000000000000000000000000000000000000000081525081526020016040518060200160405280600081525081526020016040518060400160405280600781526020017f233962363665360000000000000000000000000000000000000000000000000081525081526020016040518060200160405280600081525081526020016040518060400160405280600781526020017f233937356665350000000000000000000000000000000000000000000000000081525081526020016040518060200160405280600081525081526020016040518060400160405280600781526020017f233933353965340000000000000000000000000000000000000000000000000081525081526020016040518060200160405280600081525081526020016040518060400160405280600781526020017f233866353365330000000000000000000000000000000000000000000000000081525081526020016040518060400160405280600781526020017f233865353165320000000000000000000000000000000000000000000000000081525081526020016040518060200160405280600081525081526020016040518060200160405280600081525081525081526020016040518061042001604052806040518060200160405280600081525081526020016040518060200160405280600081525081526020016040518060400160405280600781526020017f236332613165660000000000000000000000000000000000000000000000000081525081526020016040518060200160405280600081525081526020016040518060400160405280600781526020017f236266396365650000000000000000000000000000000000000000000000000081525081526020016040518060200160405280600081525081526020016040518060400160405280600781526020017f236262393665640000000000000000000000000000000000000000000000000081525081526020016040518060400160405280600781526020017f236239393365640000000000000000000000000000000000000000000000000081525081526020016040518060200160405280600081525081526020016040518060200160405280600081525081526020016040518060400160405280600781526020017f236233386165620000000000000000000000000000000000000000000000000081525081526020016040518060400160405280600781526020017f236231383765620000000000000000000000000000000000000000000000000081525081526020016040518060200160405280600081525081526020016040518060200160405280600081525081526020016040518060400160405280600781526020017f236162376565610000000000000000000000000000000000000000000000000081525081526020016040518060200160405280600081525081526020016040518060400160405280600781526020017f236137373865390000000000000000000000000000000000000000000000000081525081526020016040518060200160405280600081525081526020016040518060200160405280600081525081526020016040518060400160405280600781526020017f236132373065370000000000000000000000000000000000000000000000000081525081526020016040518060400160405280600781526020017f236130366365370000000000000000000000000000000000000000000000000081525081526020016040518060400160405280600781526020017f233965363965360000000000000000000000000000000000000000000000000081525081526020016040518060200160405280600081525081526020016040518060400160405280600781526020017f233961363365350000000000000000000000000000000000000000000000000081525081526020016040518060200160405280600081525081526020016040518060400160405280600781526020017f233936356465340000000000000000000000000000000000000000000000000081525081526020016040518060200160405280600081525081526020016040518060400160405280600781526020017f233932353865330000000000000000000000000000000000000000000000000081525081526020016040518060400160405280600781526020017f233930353565330000000000000000000000000000000000000000000000000081525081526020016040518060400160405280600781526020017f233865353265320000000000000000000000000000000000000000000000000081525081526020016040518060400160405280600781526020017f233863346565320000000000000000000000000000000000000000000000000081525081526020016040518060200160405280600081525081526020016040518060200160405280600081525081525081526020016040518061042001604052806040518060200160405280600081525081526020016040518060200160405280600081525081526020016040518060400160405280600781526020017f236331613065660000000000000000000000000000000000000000000000000081525081526020016040518060200160405280600081525081526020016040518060400160405280600781526020017f236264396165650000000000000000000000000000000000000000000000000081525081526020016040518060200160405280600081525081526020016040518060200160405280600081525081526020016040518060200160405280600081525081526020016040518060200160405280600081525081526020016040518060400160405280600781526020017f236234386265630000000000000000000000000000000000000000000000000081525081526020016040518060200160405280600081525081526020016040518060200160405280600081525081526020016040518060200160405280600081525081526020016040518060200160405280600081525081526020016040518060200160405280600081525081526020016040518060400160405280600781526020017f236138376165390000000000000000000000000000000000000000000000000081525081526020016040518060400160405280600781526020017f236136373665380000000000000000000000000000000000000000000000000081525081526020016040518060400160405280600781526020017f236134373365380000000000000000000000000000000000000000000000000081525081526020016040518060400160405280600781526020017f236132373065370000000000000000000000000000000000000000000000000081525081526020016040518060400160405280600781526020017f236130366465370000000000000000000000000000000000000000000000000081525081526020016040518060200160405280600081525081526020016040518060400160405280600781526020017f233963363765360000000000000000000000000000000000000000000000000081525081526020016040518060200160405280600081525081526020016040518060400160405280600781526020017f233939363265350000000000000000000000000000000000000000000000000081525081526020016040518060200160405280600081525081526020016040518060400160405280600781526020017f233935356365340000000000000000000000000000000000000000000000000081525081526020016040518060200160405280600081525081526020016040518060200160405280600081525081526020016040518060200160405280600081525081526020016040518060200160405280600081525081526020016040518060200160405280600081525081526020016040518060200160405280600081525081526020016040518060200160405280600081525081525081526020016040518061042001604052806040518060200160405280600081525081526020016040518060200160405280600081525081526020016040518060400160405280600781526020017f236330396565660000000000000000000000000000000000000000000000000081525081526020016040518060200160405280600081525081526020016040518060400160405280600781526020017f236263393865650000000000000000000000000000000000000000000000000081525081526020016040518060200160405280600081525081526020016040518060400160405280600781526020017f236238393265640000000000000000000000000000000000000000000000000081525081526020016040518060400160405280600781526020017f236236386665630000000000000000000000000000000000000000000000000081525081526020016040518060400160405280600781526020017f236234386365630000000000000000000000000000000000000000000000000081525081526020016040518060200160405280600081525081526020016040518060200160405280600081525081526020016040518060200160405280600081525081526020016040518060200160405280600081525081526020016040518060200160405280600081525081526020016040518060200160405280600081525081526020016040518060200160405280600081525081526020016040518060200160405280600081525081526020016040518060200160405280600081525081526020016040518060200160405280600081525081526020016040518060200160405280600081525081526020016040518060200160405280600081525081526020016040518060400160405280600781526020017f233962363665360000000000000000000000000000000000000000000000000081525081526020016040518060200160405280600081525081526020016040518060400160405280600781526020017f233937356665350000000000000000000000000000000000000000000000000081525081526020016040518060200160405280600081525081526020016040518060400160405280600781526020017f233933353965340000000000000000000000000000000000000000000000000081525081526020016040518060200160405280600081525081526020016040518060200160405280600081525081526020016040518060200160405280600081525081526020016040518060200160405280600081525081526020016040518060200160405280600081525081526020016040518060200160405280600081525081526020016040518060200160405280600081525081525081526020016040518061042001604052806040518060200160405280600081525081526020016040518060200160405280600081525081526020016040518060200160405280600081525081526020016040518060400160405280600781526020017f236264393965650000000000000000000000000000000000000000000000000081525081526020016040518060400160405280600781526020017f236262393665640000000000000000000000000000000000000000000000000081525081526020016040518060400160405280600781526020017f236239393365640000000000000000000000000000000000000000000000000081525081526020016040518060400160405280600781526020017f236237393065630000000000000000000000000000000000000000000000000081525081526020016040518060400160405280600781526020017f236235386465630000000000000000000000000000000000000000000000000081525081526020016040518060200160405280600081525081526020016040518060200160405280600081525081526020016040518060200160405280600081525081526020016040518060200160405280600081525081526020016040518060200160405280600081525081526020016040518060200160405280600081525081526020016040518060200160405280600081525081526020016040518060200160405280600081525081526020016040518060200160405280600081525081526020016040518060200160405280600081525081526020016040518060200160405280600081525081526020016040518060200160405280600081525081526020016040518060200160405280600081525081526020016040518060400160405280600781526020017f233961363365350000000000000000000000000000000000000000000000000081525081526020016040518060400160405280600781526020017f233938363065350000000000000000000000000000000000000000000000000081525081526020016040518060400160405280600781526020017f233936356565340000000000000000000000000000000000000000000000000081525081526020016040518060400160405280600781526020017f233934356265340000000000000000000000000000000000000000000000000081525081526020016040518060400160405280600781526020017f2339323538653300000000000000000000000000000000000000000000000000815250815260200160405180602001604052806000815250815260200160405180602001604052806000815250815260200160405180602001604052806000815250815260200160405180602001604052806000815250815260200160405180602001604052806000815250815260200160405180602001604052806000815250815260200160405180602001604052806000815250815250815260200160405180610420016040528060405180602001604052806000815250815260200160405180602001604052806000815250815260200160405180602001604052806000815250815260200160405180602001604052806000815250815260200160405180602001604052806000815250815260200160405180602001604052806000815250815260200160405180602001604052806000815250815260200160405180602001604052806000815250815260200160405180602001604052806000815250815260200160405180602001604052806000815250815260200160405180602001604052806000815250815260200160405180602001604052806000815250815260200160405180602001604052806000815250815260200160405180602001604052806000815250815260200160405180602001604052806000815250815260200160405180602001604052806000815250815260200160405180602001604052806000815250815260200160405180602001604052806000815250815260200160405180602001604052806000815250815260200160405180602001604052806000815250815260200160405180602001604052806000815250815260200160405180602001604052806000815250815260200160405180602001604052806000815250815260200160405180602001604052806000815250815260200160405180602001604052806000815250815260200160405180602001604052806000815250815260200160405180602001604052806000815250815260200160405180602001604052806000815250815260200160405180602001604052806000815250815260200160405180602001604052806000815250815260200160405180602001604052806000815250815260200160405180602001604052806000815250815260200160405180602001604052806000815250815250815260200160405180610420016040528060405180602001604052806000815250815260200160405180602001604052806000815250815260200160405180602001604052806000815250815260200160405180602001604052806000815250815260200160405180602001604052806000815250815260200160405180602001604052806000815250815260200160405180602001604052806000815250815260200160405180602001604052806000815250815260200160405180602001604052806000815250815260200160405180602001604052806000815250815260200160405180602001604052806000815250815260200160405180602001604052806000815250815260200160405180602001604052806000815250815260200160405180602001604052806000815250815260200160405180602001604052806000815250815260200160405180602001604052806000815250815260200160405180602001604052806000815250815260200160405180602001604052806000815250815260200160405180602001604052806000815250815260200160405180602001604052806000815250815260200160405180602001604052806000815250815260200160405180602001604052806000815250815260200160405180602001604052806000815250815260200160405180602001604052806000815250815260200160405180602001604052806000815250815260200160405180602001604052806000815250815260200160405180602001604052806000815250815260200160405180602001604052806000815250815260200160405180602001604052806000815250815260200160405180602001604052806000815250815260200160405180602001604052806000815250815260200160405180602001604052806000815250815260200160405180602001604052806000815250815250815250610441906011620048f992919062006906565b503480156200490757600080fd5b50604051806104200160405280606e61ffff16815260200160d261ffff16815260200161014061ffff1681526020016101a461ffff16815260200161021261ffff16815260200161027661ffff1681526020016102e461ffff16815260200161034861ffff1681526020016103b661ffff16815260200161044c61ffff1681526020016104b061ffff16815260200161051461ffff16815260200161057861ffff1681526020016105dc61ffff16815260200161064061ffff1681526020016106a461ffff16815260200161070861ffff16815260200161076c61ffff1681526020016107d061ffff16815260200161083461ffff16815260200161089861ffff1681526020016108fc61ffff16815260200161096061ffff1681526020016109c461ffff168152602001610a2861ffff168152602001610a8c61ffff168152602001610af061ffff168152602001610b5461ffff168152602001610bb861ffff168152602001610c8061ffff168152602001610ce461ffff168152602001610d4861ffff168152602001610dac61ffff168152506000806021811062004ab35762004ab262006ba9565b5b6021020190602162004ac79291906200695d565b50604051806104200160405280606e62ffffff16815260200160dc62ffffff16815260200161014062ffffff1681526020016101ae62ffffff16815260200161021c62ffffff16815260200161028a62ffffff1681526020016102f862ffffff16815260200161035c62ffffff1681526020016103ca62ffffff16815260200161044c62ffffff1681526020016104b062ffffff16815260200161051462ffffff16815260200161057862ffffff1681526020016105dc62ffffff16815260200161064062ffffff1681526020016106a462ffffff16815260200161070862ffffff16815260200161076c62ffffff16815260200161083462ffffff16815260200161089862ffffff1681526020016108fc62ffffff16815260200161096062ffffff1681526020016109c462ffffff168152602001610a2862ffffff168152602001610a8c62ffffff168152602001610af062ffffff168152602001610b5462ffffff168152602001610bb862ffffff168152602001610c1c62ffffff1681526020016201fbd062ffffff168152602001620249f062ffffff168152602001610dac62ffffff168152602001610e1062ffffff16815250600060016021811062004c975762004c9662006ba9565b5b6021020190602162004cab929190620069a8565b50604051806104200160405280606e62ffffff16815260200160dc62ffffff16815260200161014a62ffffff1681526020016101b862ffffff16815260200161022662ffffff16815260200161029e62ffffff16815260200161030c62ffffff16815260200161037a62ffffff1681526020016103e862ffffff16815260200161044c62ffffff1681526020016104b062ffffff16815260200161051462ffffff16815260200161057862ffffff16815260200161064062ffffff1681526020016106a462ffffff16815260200161947062ffffff16815260200161a41062ffffff16815260200161b3b062ffffff16815260200161c35062ffffff16815260200161d6d862ffffff1681526020016108fc62ffffff16815260200161096062ffffff168152602001610a2862ffffff168152602001610a8c62ffffff168152602001610af062ffffff168152602001610b5462ffffff168152602001610bb862ffffff168152602001610c1c62ffffff1681526020016201fbd062ffffff168152602001620222e062ffffff1681526020016202710062ffffff168152602001610e1062ffffff168152602001610e7462ffffff16815250600060026021811062004e7c5762004e7b62006ba9565b5b6021020190602162004e90929190620069a8565b50604051806104200160405280606e62ffffff16815260200160e662ffffff16815260200161015462ffffff1681526020016101cc62ffffff16815260200161023a62ffffff168152602001612af862ffffff1681526020016132c862ffffff168152602001613a9862ffffff16815260200161465062ffffff16815260200161044c62ffffff16815260200161051462ffffff16815260200161057862ffffff1681526020016105dc62ffffff16815260200161064062ffffff168152602001618ca062ffffff16815260200161070862ffffff16815260200161abe062ffffff16815260200161083462ffffff16815260200161089862ffffff1681526020016108fc62ffffff16815260200161fa0062ffffff1681526020016109c462ffffff168152602001610a2862ffffff168152602001610a8c62ffffff16815260200162016b4862ffffff168152602001620186a062ffffff1681526020016201adb062ffffff168152602001610c8062ffffff168152602001620222e062ffffff168152602001610d4862ffffff1681526020016202981062ffffff168152602001610e1062ffffff168152602001610ed862ffffff16815250600060036021811062005063576200506262006ba9565b5b6021020190602162005077929190620069a8565b50604051806104200160405280607862ffffff16815260200160e662ffffff16815260200161015e62ffffff1681526020016101d662ffffff16815260200161245462ffffff168152602001612af862ffffff1681526020016136b062ffffff168152602001613e8062ffffff168152602001614a3862ffffff16815260200161520862ffffff16815260200161051462ffffff16815260200161057862ffffff1681526020016105dc62ffffff1681526020016184d062ffffff16815260200161070862ffffff16815260200161a41062ffffff1681526020016107d062ffffff16815260200161c73862ffffff16815260200161dac062ffffff1681526020016108fc62ffffff1681526020016109c462ffffff168152602001620124f862ffffff16815260200162013c6862ffffff16815260200162015f9062ffffff168152602001620182b862ffffff1681526020016201adb062ffffff1681526020016201d4c062ffffff168152602001610ce462ffffff168152602001620249f062ffffff168152602001610dac62ffffff1681526020016202bf2062ffffff168152602001610e7462ffffff168152602001610f3c62ffffff1681525060006004602181106200524d576200524c62006ba9565b5b6021020190602162005261929190620069a8565b50604051806104200160405280607862ffffff16815260200160f062ffffff16815260200161157c62ffffff168152602001611d4c62ffffff16815260200161258062ffffff1681526020016102d062ffffff16815260200161034862ffffff1681526020016103c062ffffff16815260200161044c62ffffff1681526020016104b062ffffff1681526020016161a862ffffff16815260200161057862ffffff168152602001617d0062ffffff1681526020016106a462ffffff168152602001619c4062ffffff16815260200161076c62ffffff16815260200161bf6862ffffff16815260200161089862ffffff1681526020016108fc62ffffff16815260200161fde862ffffff1681526020016109c462ffffff1681526020016201349862ffffff168152602001620153d862ffffff168152602001610b5462ffffff1681526020016201adb062ffffff168152602001610c1c62ffffff1681526020016201fbd062ffffff168152602001610d4862ffffff1681526020016202710062ffffff168152602001610e1062ffffff16815260200162030d4062ffffff168152602001610ed862ffffff168152602001610fa062ffffff16815250600060056021811062005435576200543462006ba9565b5b6021020190602162005449929190620069a8565b50604051806104200160405280607862ffffff16815260200160fa62ffffff16815260200161164462ffffff1681526020016101ea62ffffff16815260200161271062ffffff1681526020016102e462ffffff168152602001613a9862ffffff16815260200161465062ffffff168152602001614e2062ffffff1681526020016159d862ffffff16815260200161057862ffffff1681526020016105dc62ffffff1681526020016184d062ffffff1681526020016106a462ffffff16815260200161a41062ffffff1681526020016107d062ffffff16815260200161c73862ffffff16815260200161089862ffffff1681526020016108fc62ffffff16815260200162010d8862ffffff168152602001610a2862ffffff1681526020016201482062ffffff168152602001610af062ffffff168152602001620186a062ffffff168152602001610c1c62ffffff168152602001610c8062ffffff168152602001620222e062ffffff168152602001610d4862ffffff1681526020016202981062ffffff168152602001610e7462ffffff16815260200162035b6062ffffff168152602001610f3c62ffffff16815260200161100462ffffff1681525060006006602181106200561d576200561c62006ba9565b5b6021020190602162005631929190620069a8565b50604051806104200160405280608262ffffff16815260200160fa62ffffff16815260200161177062ffffff1681526020016101f462ffffff16815260200161271062ffffff1681526020016102f862ffffff168152602001613e8062ffffff1681526020016103e862ffffff16815260200161044c62ffffff1681526020016161a862ffffff168152602001616d6062ffffff1681526020016105dc62ffffff1681526020016188b862ffffff16815260200161070862ffffff16815260200161abe062ffffff1681526020016107d062ffffff16815260200161d2f062ffffff1681526020016108fc62ffffff16815260200161096062ffffff1681526020016201194062ffffff168152602001610a2862ffffff168152602001620157c062ffffff168152602001610b5462ffffff1681526020016201adb062ffffff168152602001610c8062ffffff1681526020016201fbd062ffffff168152602001610d4862ffffff1681526020016202981062ffffff1681526020016202e63062ffffff168152602001610ed862ffffff1681526020016203a98062ffffff168152602001610fa062ffffff16815260200161106862ffffff16815250600060076021811062005806576200580562006ba9565b5b602102019060216200581a929190620069a8565b50604051806104200160405280608262ffffff16815260200161010462ffffff16815260200161183862ffffff16815260200161020862ffffff168152602001612af862ffffff16815260200161030262ffffff168152602001613e8062ffffff168152602001614a3862ffffff1681526020016155f062ffffff16815260200161051462ffffff16815260200161714862ffffff1681526020016180e862ffffff16815260200161908862ffffff16815260200161070862ffffff16815260200161b3b062ffffff16815260200161083462ffffff16815260200161dea862ffffff1681526020016108fc62ffffff1681526020016109c462ffffff16815260200162012cc862ffffff168152602001610a8c62ffffff16815260200162016f3062ffffff168152602001610bb862ffffff1681526020016201adb062ffffff168152602001610c8062ffffff168152602001620222e062ffffff1681526020016202710062ffffff168152602001610e1062ffffff168152602001610e7462ffffff168152602001610f3c62ffffff1681526020016203f7a062ffffff16815260200161100462ffffff1681526020016110cc62ffffff168152506000600860218110620059ef57620059ee62006ba9565b5b6021020190602162005a03929190620069a8565b50604051806104200160405280608262ffffff16815260200161010462ffffff16815260200161196462ffffff16815260200161021262ffffff168152602001612af862ffffff16815260200161031662ffffff16815260200161426862ffffff16815260200161044c62ffffff1681526020016159d862ffffff16815260200161697862ffffff1681526020016105dc62ffffff1681526020016184d062ffffff16815260200161985862ffffff16815260200161070862ffffff16815260200161bb8062ffffff16815260200161083462ffffff16815260200161089862ffffff168152602001620101d062ffffff1681526020016201211062ffffff168152602001610a2862ffffff168152602001610af062ffffff168152602001620182b862ffffff168152602001610bb862ffffff1681526020016201d4c062ffffff168152602001610ce462ffffff168152602001620249f062ffffff168152602001610e1062ffffff1681526020016202e63062ffffff168152602001610ed862ffffff168152602001610fa062ffffff16815260200162046cd062ffffff16815260200161106862ffffff16815260200161113062ffffff16815250600060096021811062005bd95762005bd862006ba9565b5b6021020190602162005bed929190620069a8565b50604051806104200160405280608c62ffffff16815260200161010e62ffffff168152602001611a2c62ffffff16815260200161021c62ffffff168152602001612ee062ffffff16815260200161032a62ffffff16815260200161465062ffffff16815260200161044c62ffffff168152602001615dc062ffffff16815260200161051462ffffff1681526020016105dc62ffffff168152602001618ca062ffffff16815260200161070862ffffff16815260200161b3b062ffffff1681526020016107d062ffffff16815260200161dac062ffffff1681526020016108fc62ffffff16815260200161096062ffffff168152602001610a2862ffffff168152602001610a8c62ffffff168152602001610af062ffffff1681526020016201adb062ffffff168152602001610c1c62ffffff1681526020016201fbd062ffffff168152602001610d4862ffffff1681526020016202710062ffffff168152602001610e1062ffffff1681526020016203345062ffffff168152602001610f3c62ffffff168152602001620445c062ffffff1681526020016204e20062ffffff1681526020016110cc62ffffff16815260200161119462ffffff168152506000600a6021811062005dc25762005dc162006ba9565b5b6021020190602162005dd6929190620069a8565b50604051806104200160405280608c62ffffff16815260200161011862ffffff168152602001611b5862ffffff16815260200161022662ffffff168152602001612ee062ffffff16815260200161033e62ffffff16815260200161465062ffffff1681526020016155f062ffffff1681526020016104b062ffffff16815260200161057862ffffff1681526020016180e862ffffff16815260200161947062ffffff16815260200161070862ffffff16815260200161076c62ffffff16815260200161cf0862ffffff16815260200161089862ffffff168152602001620101d062ffffff1681526020016109c462ffffff168152602001610a2862ffffff16815260200162015f9062ffffff168152602001620186a062ffffff1681526020016201adb062ffffff168152602001610c8062ffffff168152602001620222e062ffffff168152602001610d4862ffffff1681526020016202bf2062ffffff168152602001610e7462ffffff1681526020016203827062ffffff1681526020016203f7a062ffffff1681526020016204baf062ffffff16815260200162057e4062ffffff16815260200161113062ffffff1681526020016111f862ffffff168152506000600b6021811062005faf5762005fae62006ba9565b5b6021020190602162005fc3929190620069a8565b50604051806104200160405280608c62ffffff16815260200161011862ffffff168152602001611c8462ffffff16815260200161023062ffffff1681526020016132c862ffffff16815260200161035262ffffff1681526020016103de62ffffff16815260200161044c62ffffff16815260200161051462ffffff16815260200161791862ffffff16815260200161064062ffffff1681526020016106a462ffffff16815260200161070862ffffff1681526020016107d062ffffff16815260200161083462ffffff16815260200161f23062ffffff1681526020016201117062ffffff168152602001620130b062ffffff168152602001620153d862ffffff16815260200162017ae862ffffff168152602001610bb862ffffff1681526020016201d4c062ffffff168152602001610c8062ffffff168152602001620249f062ffffff168152602001610dac62ffffff1681526020016202e63062ffffff168152602001610ed862ffffff168152602001610f3c62ffffff16815260200161100462ffffff16815260200161106862ffffff16815260200161113062ffffff16815260200161119462ffffff16815260200161125c62ffffff168152506000600c6021811062006199576200619862006ba9565b5b60210201906021620061ad929190620069a8565b50604051806104200160405280608c62ffffff16815260200161012262ffffff168152602001611db062ffffff16815260200161024462ffffff1681526020016132c862ffffff16815260200161035c62ffffff168152602001614e2062ffffff168152602001615dc062ffffff168152602001616d6062ffffff16815260200161057862ffffff16815260200161064062ffffff1681526020016106a462ffffff16815260200161076c62ffffff1681526020016107d062ffffff16815260200161089862ffffff1681526020016108fc62ffffff16815260200161096062ffffff168152602001610a2862ffffff168152602001610a8c62ffffff168152602001610b5462ffffff168152602001610bb862ffffff1681526020016201fbd062ffffff168152602001610ce462ffffff1681526020016202710062ffffff168152602001610e1062ffffff1681526020016203345062ffffff168152602001610f3c62ffffff168152602001610fa062ffffff16815260200161106862ffffff1681526020016110cc62ffffff16815260200161119462ffffff1681526020016111f862ffffff1681526020016112c062ffffff168152506000600d602181106200637f576200637e62006ba9565b5b6021020190602162006393929190620069a8565b50604051806104200160405280609662ffffff16815260200161012262ffffff1681526020016101b862ffffff168152602001612af862ffffff1681526020016136b062ffffff16815260200161426862ffffff16815260200161520862ffffff1681526020016161a862ffffff16815260200161051462ffffff1681526020016105dc62ffffff16815260200161064062ffffff16815260200161070862ffffff16815260200161076c62ffffff16815260200161083462ffffff16815260200161089862ffffff16815260200161096062ffffff1681526020016109c462ffffff168152602001610a2862ffffff168152602001610af062ffffff168152602001610b5462ffffff168152602001610c1c62ffffff168152602001620222e062ffffff1681526020016202710062ffffff1681526020016202981062ffffff16815260200162030d4062ffffff16815260200162035b6062ffffff168152602001610fa062ffffff16815260200161100462ffffff1681526020016110cc62ffffff16815260200161113062ffffff1681526020016111f862ffffff16815260200161125c62ffffff16815260200161132462ffffff168152506000600e6021811062006567576200656662006ba9565b5b602102019060216200657b929190620069a8565b50604051806104200160405280609661ffff16815260200161012c61ffff1681526020016101c261ffff16815260200161025861ffff1681526020016102ee61ffff16815260200161038461ffff16815260200161044c61ffff1681526020016104b061ffff16815260200161057861ffff1681526020016105dc61ffff1681526020016106a461ffff16815260200161070861ffff1681526020016107d061ffff16815260200161083461ffff1681526020016108fc61ffff16815260200161096061ffff168152602001610a2861ffff168152602001610a8c61ffff168152602001610b5461ffff168152602001610bb861ffff168152602001610c8061ffff168152602001610ce461ffff168152602001610dac61ffff168152602001610e1061ffff168152602001610ed861ffff168152602001610f3c61ffff16815260200161100461ffff16815260200161106861ffff16815260200161113061ffff16815260200161119461ffff16815260200161125c61ffff1681526020016112c061ffff16815260200161138861ffff168152506000600f6021811062006729576200672862006ba9565b5b602102019060216200673d9291906200695d565b50604051806104200160405280609661ffff16815260200161013661ffff1681526020016101cc61ffff16815260200161026261ffff16815260200161030261ffff16815260200161039861ffff16815260200161044c61ffff1681526020016104b061ffff16815260200161057861ffff1681526020016105dc61ffff1681526020016106a461ffff16815260200161070861ffff1681526020016107d061ffff16815260200161083461ffff1681526020016108fc61ffff16815260200161096061ffff168152602001610a2861ffff168152602001610af061ffff168152602001610b5461ffff168152602001610c1c61ffff168152602001610c8061ffff168152602001610d4861ffff168152602001610dac61ffff168152602001610e7461ffff168152602001610ed861ffff168152602001610fa061ffff16815260200161100461ffff1681526020016110cc61ffff16815260200161113061ffff1681526020016111f861ffff16815260200161125c61ffff16815260200161132461ffff16815260200161138861ffff168152506000601060218110620068eb57620068ea62006ba9565b5b60210201906021620068ff9291906200695d565b5062006c3c565b826021800281019282156200694a579160200282015b82811115620069495782518290602162006938929190620069f4565b50916020019190602101906200691c565b5b50905062006959919062006a4e565b5090565b826021810192821562006995579160200282015b8281111562006994578251829061ffff1690559160200191906001019062006971565b5b509050620069a4919062006a76565b5090565b8260218101928215620069e1579160200282015b82811115620069e0578251829062ffffff16905591602001919060010190620069bc565b5b509050620069f0919062006a76565b5090565b826021810192821562006a3b579160200282015b8281111562006a3a57825182908051906020019062006a2992919062006a95565b509160200191906001019062006a08565b5b50905062006a4a919062006b26565b5090565b5b8082111562006a72576000818162006a68919062006b4e565b5060210162006a4f565b5090565b5b8082111562006a9157600081600090555060010162006a77565b5090565b82805462006aa39062006c07565b90600052602060002090601f01602090048101928262006ac7576000855562006b13565b82601f1062006ae257805160ff191683800117855562006b13565b8280016001018555821562006b13579182015b8281111562006b1257825182559160200191906001019062006af5565b5b50905062006b22919062006a76565b5090565b5b8082111562006b4a576000818162006b40919062006b63565b5060010162006b27565b5090565b50806021019062006b60919062006b26565b50565b50805462006b719062006c07565b6000825580601f1062006b85575062006ba6565b601f01602090049060005260206000209081019062006ba5919062006a76565b5b50565b7f4e487b7100000000000000000000000000000000000000000000000000000000600052603260045260246000fd5b7f4e487b7100000000000000000000000000000000000000000000000000000000600052602260045260246000fd5b6000600282049050600182168062006c2057607f821691505b60208210810362006c365762006c3562006bd8565b5b50919050565b6103d28062006c4c6000396000f3fe608060405234801561001057600080fd5b506004361061004c5760003560e01c8063108c5e141461005157806338b145df1461006f578063b0e987db1461008d578063f9cebc26146100bd575b600080fd5b6100596100ed565b60405161006691906101f5565b60405180910390f35b6100776100f2565b60405161008491906101f5565b60405180910390f35b6100a760048036038101906100a29190610241565b6100f7565b6040516100b491906101f5565b60405180910390f35b6100d760048036038101906100d29190610241565b610125565b6040516100e4919061031a565b60405180910390f35b601181565b602181565b6000826021811061010757600080fd5b60210201816021811061011957600080fd5b01600091509150505481565b610441826021811061013657600080fd5b60210201816021811061014857600080fd5b0160009150915050805461015b9061036b565b80601f01602080910402602001604051908101604052809291908181526020018280546101879061036b565b80156101d45780601f106101a9576101008083540402835291602001916101d4565b820191906000526020600020905b8154815290600101906020018083116101b757829003601f168201915b505050505081565b6000819050919050565b6101ef816101dc565b82525050565b600060208201905061020a60008301846101e6565b92915050565b600080fd5b61021e816101dc565b811461022957600080fd5b50565b60008135905061023b81610215565b92915050565b6000806040838503121561025857610257610210565b5b60006102668582860161022c565b92505060206102778582860161022c565b9150509250929050565b600081519050919050565b600082825260208201905092915050565b60005b838110156102bb5780820151818401526020810190506102a0565b838111156102ca576000848401525b50505050565b6000601f19601f8301169050919050565b60006102ec82610281565b6102f6818561028c565b935061030681856020860161029d565b61030f816102d0565b840191505092915050565b6000602082019050818103600083015261033481846102e1565b905092915050565b7f4e487b7100000000000000000000000000000000000000000000000000000000600052602260045260246000fd5b6000600282049050600182168061038357607f821691505b6020821081036103965761039561033c565b5b5091905056fea2646970667358221220c36876d73e4459e7fb0908c6d40c8c562ee4c6d50134b5ac9aea5ca7d41b406064736f6c634300080d0033",
  "immutableReferences": {},
  "source": "// SPDX-License-Identifier: MIT\npragma solidity >=0.4.22 <0.9.0;\n\ncontract DataStorage3 {\n    uint256 public constant gridWidth = 33;\n    uint256 public constant gridHeight = 17;\n\n    uint256[gridWidth][gridWidth] public initialValues;\n    constructor() {\n      initialValues[0] = [110,210,320,420,530,630,740,840,950,1100,1200,1300,1400,1500,1600,1700,1800,1900,2000,2100,2200,2300,2400,2500,2600,2700,2800,2900,3000,3200,3300,3400,3500];\n      initialValues[1] = [110,220,320,430,540,650,760,860,970,1100,1200,1300,1400,1500,1600,1700,1800,1900,2100,2200,2300,2400,2500,2600,2700,2800,2900,3000,3100,130000,150000,3500,3600];\n      initialValues[2] = [110,220,330,440,550,670,780,890,1000,1100,1200,1300,1400,1600,1700,38000,42000,46000,50000,55000,2300,2400,2600,2700,2800,2900,3000,3100,130000,140000,160000,3600,3700];\n      initialValues[3] = [110,230,340,460,570,11000,13000,15000,18000,1100,1300,1400,1500,1600,36000,1800,44000,2100,2200,2300,64000,2500,2600,2700,93000,100000,110000,3200,140000,3400,170000,3600,3800];\n      initialValues[4] = [120,230,350,470,9300,11000,14000,16000,19000,21000,1300,1400,1500,34000,1800,42000,2000,51000,56000,2300,2500,75000,81000,90000,99000,110000,120000,3300,150000,3500,180000,3700,3900];\n      initialValues[5] = [120,240,5500,7500,9600,720,840,960,1100,1200,25000,1400,32000,1700,40000,1900,49000,2200,2300,65000,2500,79000,87000,2900,110000,3100,130000,3400,160000,3600,200000,3800,4000];\n      initialValues[6] = [120,250,5700,490,10000,740,15000,18000,20000,23000,1400,1500,34000,1700,42000,2000,51000,2200,2300,69000,2600,84000,2800,100000,3100,3200,140000,3400,170000,3700,220000,3900,4100];\n      initialValues[7] = [130,250,6000,500,10000,760,16000,1000,1100,25000,28000,1500,35000,1800,44000,2000,54000,2300,2400,72000,2600,88000,2900,110000,3200,130000,3400,170000,190000,3800,240000,4000,4200];\n      initialValues[8] = [130,260,6200,520,11000,770,16000,19000,22000,1300,29000,33000,37000,1800,46000,2100,57000,2300,2500,77000,2700,94000,3000,110000,3200,140000,160000,3600,3700,3900,260000,4100,4300];\n      initialValues[9] = [130,260,6500,530,11000,790,17000,1100,23000,27000,1500,34000,39000,1800,48000,2100,2200,66000,74000,2600,2800,99000,3000,120000,3300,150000,3600,190000,3800,4000,290000,4200,4400];\n      initialValues[10] = [140,270,6700,540,12000,810,18000,1100,24000,1300,1500,36000,1800,46000,2000,56000,2300,2400,2600,2700,2800,110000,3100,130000,3400,160000,3600,210000,3900,280000,320000,4300,4500];\n      initialValues[11] = [140,280,7000,550,12000,830,18000,22000,1200,1400,33000,38000,1800,1900,53000,2200,66000,2500,2600,90000,100000,110000,3200,140000,3400,180000,3700,230000,260000,310000,360000,4400,4600];\n      initialValues[12] = [140,280,7300,560,13000,850,990,1100,1300,31000,1600,1700,1800,2000,2100,62000,70000,78000,87000,97000,3000,120000,3200,150000,3500,190000,3800,3900,4100,4200,4400,4500,4700];\n      initialValues[13] = [140,290,7600,580,13000,860,20000,24000,28000,1400,1600,1700,1900,2000,2200,2300,2400,2600,2700,2900,3000,130000,3300,160000,3600,210000,3900,4000,4200,4300,4500,4600,4800];\n      initialValues[14] = [150,290,440,11000,14000,17000,21000,25000,1300,1500,1600,1800,1900,2100,2200,2400,2500,2600,2800,2900,3100,140000,160000,170000,200000,220000,4000,4100,4300,4400,4600,4700,4900];\n      initialValues[15] = [150,300,450,600,750,900,1100,1200,1400,1500,1700,1800,2000,2100,2300,2400,2600,2700,2900,3000,3200,3300,3500,3600,3800,3900,4100,4200,4400,4500,4700,4800,5000];\n      initialValues[16] = [150,310,460,610,770,920,1100,1200,1400,1500,1700,1800,2000,2100,2300,2400,2600,2800,2900,3100,3200,3400,3500,3700,3800,4000,4100,4300,4400,4600,4700,4900,5000];\n  }\n\n  string[gridWidth][gridWidth] public colorValues = [\n    [\"\",\"\",\"\",\"\",\"\",\"\",\"\",\"\",\"\",\"\",\"\",\"\",\"\",\"\",\"\",\"\",\"\",\"\",\"\",\"\",\"\",\"\",\"\",\"\",\"\",\"\",\"\",\"\",\"\",\"\",\"\",\"\",\"\"],\n    [\"\",\"\",\"\",\"\",\"\",\"\",\"\",\"\",\"\",\"\",\"\",\"\",\"\",\"\",\"\",\"\",\"\",\"\",\"\",\"\",\"\",\"\",\"\",\"\",\"\",\"\",\"\",\"\",\"\",\"#9b65e5\",\"#9962e5\",\"\",\"\"],\n    [\"\",\"\",\"\",\"\",\"\",\"\",\"\",\"\",\"\",\"\",\"\",\"\",\"\",\"\",\"\",\"#b58dec\",\"#b38aeb\",\"#b187eb\",\"#af84ea\",\"#ad80ea\",\"\",\"\",\"\",\"\",\"\",\"\",\"\",\"\",\"#9b66e6\",\"#9962e5\",\"#9860e5\",\"\",\"\"],\n    [\"\",\"\",\"\",\"\",\"\",\"#c7a8f0\",\"#c5a5f0\",\"#c3a2ef\",\"#c19fef\",\"\",\"\",\"\",\"\",\"\",\"#b58eec\",\"\",\"#b187eb\",\"\",\"\",\"\",\"#aa7ce9\",\"\",\"\",\"\",\"#a270e7\",\"#a06ce7\",\"#9e6ae6\",\"\",\"#9a64e5\",\"\",\"#965ee4\",\"\",\"\"],\n    [\"\",\"\",\"\",\"\",\"#c7a9f1\",\"#c5a6f0\",\"#c3a3f0\",\"#c1a0ef\",\"#c09eef\",\"#be9bee\",\"\",\"\",\"\",\"#b68eec\",\"\",\"#b289eb\",\"\",\"#ae83ea\",\"#ac80ea\",\"\",\"\",\"#a676e8\",\"#a574e8\",\"#a371e7\",\"#a16ee7\",\"#9f6be6\",\"#9d68e6\",\"\",\"#9962e5\",\"\",\"#955ce4\",\"\",\"\"],\n    [\"\",\"\",\"#caadf1\",\"#c8aaf1\",\"#c6a8f0\",\"\",\"\",\"\",\"\",\"\",\"#ba95ed\",\"\",\"#b790ec\",\"\",\"#b38aeb\",\"\",\"#af84ea\",\"\",\"\",\"#a97be9\",\"\",\"#a575e8\",\"#a372e8\",\"\",\"#9f6ce7\",\"\",\"#9c66e6\",\"\",\"#9860e5\",\"\",\"#945ae4\",\"\",\"\"],\n    [\"\",\"\",\"#c9abf1\",\"\",\"#c5a5f0\",\"\",\"#c19fef\",\"#bf9cee\",\"#bd9aee\",\"#bb97ee\",\"\",\"\",\"#b58eec\",\"\",\"#b187eb\",\"\",\"#ae82ea\",\"\",\"\",\"#a879e9\",\"\",\"#a473e8\",\"\",\"#a06de7\",\"\",\"\",\"#9a64e5\",\"\",\"#965ee4\",\"\",\"#9358e3\",\"\",\"\"],\n    [\"\",\"\",\"#c7a9f1\",\"\",\"#c4a4f0\",\"\",\"#c09eef\",\"\",\"\",\"#ba94ed\",\"#b891ed\",\"\",\"#b48cec\",\"\",\"#b086eb\",\"\",\"#ac80ea\",\"\",\"\",\"#a777e8\",\"\",\"#a371e7\",\"\",\"#9f6be6\",\"\",\"#9b65e5\",\"\",\"#975fe5\",\"#955ce4\",\"\",\"#9156e3\",\"\",\"\"],\n    [\"\",\"\",\"#c6a8f0\",\"\",\"#c2a1ef\",\"\",\"#be9bee\",\"#bc98ee\",\"#bb96ed\",\"\",\"#b790ec\",\"#b58dec\",\"#b38aeb\",\"\",\"#af84ea\",\"\",\"#ab7eea\",\"\",\"\",\"#a575e8\",\"\",\"#a16fe7\",\"\",\"#9e69e6\",\"\",\"#9a63e5\",\"#9860e5\",\"\",\"\",\"\",\"#9055e3\",\"\",\"\"],\n    [\"\",\"\",\"#c5a5f0\",\"\",\"#c1a0ef\",\"\",\"#bd9aee\",\"\",\"#b994ed\",\"#b791ed\",\"\",\"#b48bec\",\"#b288eb\",\"\",\"#ae82ea\",\"\",\"\",\"#a879e9\",\"#a676e8\",\"\",\"\",\"#a06de7\",\"\",\"#9c67e6\",\"\",\"#9861e5\",\"\",\"#955ce4\",\"\",\"\",\"#8f52e2\",\"\",\"\"],\n    [\"\",\"\",\"#c4a4f0\",\"\",\"#c09eef\",\"\",\"#bc98ee\",\"\",\"#b892ed\",\"\",\"\",\"#b289eb\",\"\",\"#ae83ea\",\"\",\"#ab7de9\",\"\",\"\",\"\",\"\",\"\",\"#9f6be6\",\"\",\"#9b66e6\",\"\",\"#975fe5\",\"\",\"#9359e4\",\"\",\"#8f53e3\",\"#8e51e2\",\"\",\"\"],\n    [\"\",\"\",\"#c2a1ef\",\"\",\"#bf9cee\",\"\",\"#bb96ed\",\"#b993ed\",\"\",\"\",\"#b38aeb\",\"#b187eb\",\"\",\"\",\"#ab7eea\",\"\",\"#a778e9\",\"\",\"\",\"#a270e7\",\"#a06ce7\",\"#9e69e6\",\"\",\"#9a63e5\",\"\",\"#965de4\",\"\",\"#9258e3\",\"#9055e3\",\"#8e52e2\",\"#8c4ee2\",\"\",\"\"],\n    [\"\",\"\",\"#c1a0ef\",\"\",\"#bd9aee\",\"\",\"\",\"\",\"\",\"#b48bec\",\"\",\"\",\"\",\"\",\"\",\"#a87ae9\",\"#a676e8\",\"#a473e8\",\"#a270e7\",\"#a06de7\",\"\",\"#9c67e6\",\"\",\"#9962e5\",\"\",\"#955ce4\",\"\",\"\",\"\",\"\",\"\",\"\",\"\"],\n    [\"\",\"\",\"#c09eef\",\"\",\"#bc98ee\",\"\",\"#b892ed\",\"#b68fec\",\"#b48cec\",\"\",\"\",\"\",\"\",\"\",\"\",\"\",\"\",\"\",\"\",\"\",\"\",\"#9b66e6\",\"\",\"#975fe5\",\"\",\"#9359e4\",\"\",\"\",\"\",\"\",\"\",\"\",\"\"],\n    [\"\",\"\",\"\",\"#bd99ee\",\"#bb96ed\",\"#b993ed\",\"#b790ec\",\"#b58dec\",\"\",\"\",\"\",\"\",\"\",\"\",\"\",\"\",\"\",\"\",\"\",\"\",\"\",\"#9a63e5\",\"#9860e5\",\"#965ee4\",\"#945be4\",\"#9258e3\",\"\",\"\",\"\",\"\",\"\",\"\",\"\"],\n    [\"\",\"\",\"\",\"\",\"\",\"\",\"\",\"\",\"\",\"\",\"\",\"\",\"\",\"\",\"\",\"\",\"\",\"\",\"\",\"\",\"\",\"\",\"\",\"\",\"\",\"\",\"\",\"\",\"\",\"\",\"\",\"\",\"\"],\n    [\"\",\"\",\"\",\"\",\"\",\"\",\"\",\"\",\"\",\"\",\"\",\"\",\"\",\"\",\"\",\"\",\"\",\"\",\"\",\"\",\"\",\"\",\"\",\"\",\"\",\"\",\"\",\"\",\"\",\"\",\"\",\"\",\"\"]\n  ];\n}\n",
  "sourcePath": "/home/wao/Meteor/Workspace/Sao/pixelflux/contracts/DataStorage3.sol",
  "compiler": {
    "name": "solc",
    "version": "0.8.13+commit.abaa5c0e.Emscripten.clang"
  },
  "schemaVersion": "3.4.13",
  "updatedAt": "2024-02-04T08:19:10.410Z",
  "devdoc": {
    "kind": "dev",
    "methods": {},
    "version": 1
  },
  "userdoc": {
    "kind": "user",
    "methods": {},
    "version": 1
  }
}