{
  "contractName": "Pixelflux2",
  "abi": [
    {
      "inputs": [
        {
          "internalType": "address",
          "name": "_baseContractAddress",
          "type": "address"
        }
      ],
      "stateMutability": "nonpayable",
      "type": "constructor"
    },
    {
      "anonymous": false,
      "inputs": [],
      "name": "ContractEnabled",
      "type": "event"
    },
    {
      "anonymous": false,
      "inputs": [
        {
          "indexed": true,
          "internalType": "address",
          "name": "buyer",
          "type": "address"
        },
        {
          "indexed": false,
          "internalType": "uint256",
          "name": "x",
          "type": "uint256"
        },
        {
          "indexed": false,
          "internalType": "uint256",
          "name": "y",
          "type": "uint256"
        },
        {
          "indexed": false,
          "internalType": "uint256",
          "name": "numLayers",
          "type": "uint256"
        },
        {
          "indexed": false,
          "internalType": "string",
          "name": "color",
          "type": "string"
        }
      ],
      "name": "LayerPurchased",
      "type": "event"
    },
    {
      "inputs": [],
      "name": "baseContract",
      "outputs": [
        {
          "internalType": "contract BaseContract",
          "name": "",
          "type": "address"
        }
      ],
      "stateMutability": "view",
      "type": "function",
      "constant": true
    },
    {
      "inputs": [
        {
          "internalType": "uint256",
          "name": "x",
          "type": "uint256"
        },
        {
          "internalType": "uint256",
          "name": "y",
          "type": "uint256"
        },
        {
          "internalType": "string",
          "name": "color",
          "type": "string"
        }
      ],
      "name": "buyLayer",
      "outputs": [],
      "stateMutability": "payable",
      "type": "function",
      "payable": true
    },
    {
      "inputs": [
        {
          "internalType": "uint256",
          "name": "x",
          "type": "uint256"
        },
        {
          "internalType": "uint256",
          "name": "y",
          "type": "uint256"
        },
        {
          "internalType": "uint256",
          "name": "numLayersToAdd",
          "type": "uint256"
        },
        {
          "internalType": "string",
          "name": "color",
          "type": "string"
        }
      ],
      "name": "buyMultipleLayers",
      "outputs": [],
      "stateMutability": "payable",
      "type": "function",
      "payable": true
    },
    {
      "inputs": [],
      "name": "calculateTotalValue",
      "outputs": [
        {
          "internalType": "uint256",
          "name": "",
          "type": "uint256"
        }
      ],
      "stateMutability": "view",
      "type": "function",
      "constant": true
    },
    {
      "inputs": [
        {
          "internalType": "uint256",
          "name": "",
          "type": "uint256"
        },
        {
          "internalType": "uint256",
          "name": "",
          "type": "uint256"
        }
      ],
      "name": "colorValues",
      "outputs": [
        {
          "internalType": "string",
          "name": "",
          "type": "string"
        }
      ],
      "stateMutability": "view",
      "type": "function",
      "constant": true
    },
    {
      "inputs": [],
      "name": "getAllCellStates",
      "outputs": [
        {
          "components": [
            {
              "internalType": "uint256",
              "name": "baseValue",
              "type": "uint256"
            },
            {
              "components": [
                {
                  "internalType": "address payable",
                  "name": "owner",
                  "type": "address"
                },
                {
                  "internalType": "string",
                  "name": "color",
                  "type": "string"
                }
              ],
              "internalType": "struct BaseContract.Layer[]",
              "name": "layers",
              "type": "tuple[]"
            }
          ],
          "internalType": "struct BaseContract.Cell[][]",
          "name": "",
          "type": "tuple[][]"
        }
      ],
      "stateMutability": "view",
      "type": "function",
      "constant": true
    },
    {
      "inputs": [],
      "name": "getAllTopLayers",
      "outputs": [
        {
          "internalType": "address payable[][]",
          "name": "",
          "type": "address[][]"
        },
        {
          "internalType": "string[][]",
          "name": "",
          "type": "string[][]"
        }
      ],
      "stateMutability": "view",
      "type": "function",
      "constant": true
    },
    {
      "inputs": [
        {
          "internalType": "uint256",
          "name": "x",
          "type": "uint256"
        },
        {
          "internalType": "uint256",
          "name": "y",
          "type": "uint256"
        }
      ],
      "name": "getCellState",
      "outputs": [
        {
          "internalType": "uint256",
          "name": "",
          "type": "uint256"
        },
        {
          "internalType": "string",
          "name": "",
          "type": "string"
        },
        {
          "internalType": "uint256",
          "name": "",
          "type": "uint256"
        }
      ],
      "stateMutability": "view",
      "type": "function",
      "constant": true
    },
    {
      "inputs": [
        {
          "internalType": "uint256",
          "name": "x",
          "type": "uint256"
        },
        {
          "internalType": "uint256",
          "name": "y",
          "type": "uint256"
        }
      ],
      "name": "getTopLayerOfCell",
      "outputs": [
        {
          "internalType": "address payable",
          "name": "",
          "type": "address"
        },
        {
          "internalType": "string",
          "name": "",
          "type": "string"
        }
      ],
      "stateMutability": "view",
      "type": "function",
      "constant": true
    },
    {
      "inputs": [
        {
          "internalType": "uint256",
          "name": "",
          "type": "uint256"
        },
        {
          "internalType": "uint256",
          "name": "",
          "type": "uint256"
        }
      ],
      "name": "grid",
      "outputs": [
        {
          "internalType": "uint256",
          "name": "baseValue",
          "type": "uint256"
        }
      ],
      "stateMutability": "view",
      "type": "function",
      "constant": true
    },
    {
      "inputs": [],
      "name": "gridHeight",
      "outputs": [
        {
          "internalType": "uint256",
          "name": "",
          "type": "uint256"
        }
      ],
      "stateMutability": "view",
      "type": "function",
      "constant": true
    },
    {
      "inputs": [],
      "name": "gridWidth",
      "outputs": [
        {
          "internalType": "uint256",
          "name": "",
          "type": "uint256"
        }
      ],
      "stateMutability": "view",
      "type": "function",
      "constant": true
    },
    {
      "inputs": [
        {
          "internalType": "uint256",
          "name": "",
          "type": "uint256"
        },
        {
          "internalType": "uint256",
          "name": "",
          "type": "uint256"
        }
      ],
      "name": "initialValues",
      "outputs": [
        {
          "internalType": "uint256",
          "name": "",
          "type": "uint256"
        }
      ],
      "stateMutability": "view",
      "type": "function",
      "constant": true
    },
    {
      "inputs": [],
      "name": "isEnabled",
      "outputs": [
        {
          "internalType": "bool",
          "name": "",
          "type": "bool"
        }
      ],
      "stateMutability": "view",
      "type": "function",
      "constant": true
    },
    {
      "inputs": [],
      "name": "owner",
      "outputs": [
        {
          "internalType": "address",
          "name": "",
          "type": "address"
        }
      ],
      "stateMutability": "view",
      "type": "function",
      "constant": true
    },
    {
      "inputs": [
        {
          "internalType": "uint256",
          "name": "x",
          "type": "uint256"
        },
        {
          "internalType": "uint256",
          "name": "y",
          "type": "uint256"
        },
        {
          "internalType": "uint256",
          "name": "layerIndex",
          "type": "uint256"
        },
        {
          "internalType": "string",
          "name": "newColor",
          "type": "string"
        }
      ],
      "name": "setLayerColor",
      "outputs": [],
      "stateMutability": "nonpayable",
      "type": "function"
    },
    {
      "inputs": [],
      "name": "isContractEnabled",
      "outputs": [
        {
          "internalType": "bool",
          "name": "",
          "type": "bool"
        }
      ],
      "stateMutability": "view",
      "type": "function",
      "constant": true
    },
    {
      "inputs": [],
      "name": "enableContract",
      "outputs": [],
      "stateMutability": "nonpayable",
      "type": "function"
    }
  ],
  "bytecode": "0x60806040526040518061024001604052806040518061042001604052806040518060200160405280600081525081526020016040518060200160405280600081525081526020016040518060200160405280600081525081526020016040518060200160405280600081525081526020016040518060200160405280600081525081526020016040518060200160405280600081525081526020016040518060200160405280600081525081526020016040518060200160405280600081525081526020016040518060200160405280600081525081526020016040518060200160405280600081525081526020016040518060200160405280600081525081526020016040518060200160405280600081525081526020016040518060200160405280600081525081526020016040518060200160405280600081525081526020016040518060200160405280600081525081526020016040518060200160405280600081525081526020016040518060200160405280600081525081526020016040518060200160405280600081525081526020016040518060200160405280600081525081526020016040518060200160405280600081525081526020016040518060200160405280600081525081526020016040518060200160405280600081525081526020016040518060200160405280600081525081526020016040518060200160405280600081525081526020016040518060200160405280600081525081526020016040518060200160405280600081525081526020016040518060200160405280600081525081526020016040518060200160405280600081525081526020016040518060200160405280600081525081526020016040518060200160405280600081525081526020016040518060200160405280600081525081526020016040518060200160405280600081525081526020016040518060200160405280600081525081525081526020016040518061042001604052806040518060200160405280600081525081526020016040518060200160405280600081525081526020016040518060200160405280600081525081526020016040518060200160405280600081525081526020016040518060200160405280600081525081526020016040518060200160405280600081525081526020016040518060200160405280600081525081526020016040518060200160405280600081525081526020016040518060200160405280600081525081526020016040518060200160405280600081525081526020016040518060200160405280600081525081526020016040518060200160405280600081525081526020016040518060200160405280600081525081526020016040518060200160405280600081525081526020016040518060200160405280600081525081526020016040518060200160405280600081525081526020016040518060200160405280600081525081526020016040518060400160405280600781526020017f236338616266310000000000000000000000000000000000000000000000000081525081526020016040518060400160405280600781526020017f236336613866300000000000000000000000000000000000000000000000000081525081526020016040518060200160405280600081525081526020016040518060200160405280600081525081526020016040518060200160405280600081525081526020016040518060200160405280600081525081526020016040518060200160405280600081525081526020016040518060200160405280600081525081526020016040518060200160405280600081525081526020016040518060200160405280600081525081526020016040518060200160405280600081525081526020016040518060200160405280600081525081526020016040518060200160405280600081525081526020016040518060200160405280600081525081526020016040518060200160405280600081525081526020016040518060200160405280600081525081525081526020016040518061042001604052806040518060200160405280600081525081526020016040518060200160405280600081525081526020016040518060200160405280600081525081526020016040518060200160405280600081525081526020016040518060200160405280600081525081526020016040518060200160405280600081525081526020016040518060200160405280600081525081526020016040518060200160405280600081525081526020016040518060200160405280600081525081526020016040518060200160405280600081525081526020016040518060200160405280600081525081526020016040518060200160405280600081525081526020016040518060200160405280600081525081526020016040518060200160405280600081525081526020016040518060200160405280600081525081526020016040518060200160405280600081525081526020016040518060400160405280600781526020017f236339616366310000000000000000000000000000000000000000000000000081525081526020016040518060400160405280600781526020017f236337613966310000000000000000000000000000000000000000000000000081525081526020016040518060400160405280600781526020017f236335613666300000000000000000000000000000000000000000000000000081525081526020016040518060200160405280600081525081526020016040518060200160405280600081525081526020016040518060200160405280600081525081526020016040518060200160405280600081525081526020016040518060200160405280600081525081526020016040518060200160405280600081525081526020016040518060200160405280600081525081526020016040518060200160405280600081525081526020016040518060200160405280600081525081526020016040518060200160405280600081525081526020016040518060200160405280600081525081526020016040518060200160405280600081525081526020016040518060200160405280600081525081526020016040518060200160405280600081525081525081526020016040518061042001604052806040518060200160405280600081525081526020016040518060200160405280600081525081526020016040518060200160405280600081525081526020016040518060200160405280600081525081526020016040518060200160405280600081525081526020016040518060200160405280600081525081526020016040518060200160405280600081525081526020016040518060200160405280600081525081526020016040518060200160405280600081525081526020016040518060200160405280600081525081526020016040518060200160405280600081525081526020016040518060400160405280600781526020017f236432623966330000000000000000000000000000000000000000000000000081525081526020016040518060400160405280600781526020017f236430623666330000000000000000000000000000000000000000000000000081525081526020016040518060400160405280600781526020017f236365623366320000000000000000000000000000000000000000000000000081525081526020016040518060400160405280600781526020017f236363623066320000000000000000000000000000000000000000000000000081525081526020016040518060200160405280600081525081526020016040518060400160405280600781526020017f236338616166310000000000000000000000000000000000000000000000000081525081526020016040518060200160405280600081525081526020016040518060400160405280600781526020017f236334613466300000000000000000000000000000000000000000000000000081525081526020016040518060200160405280600081525081526020016040518060200160405280600081525081526020016040518060200160405280600081525081526020016040518060200160405280600081525081526020016040518060200160405280600081525081526020016040518060200160405280600081525081526020016040518060200160405280600081525081526020016040518060200160405280600081525081526020016040518060200160405280600081525081526020016040518060200160405280600081525081526020016040518060200160405280600081525081526020016040518060200160405280600081525081526020016040518060200160405280600081525081526020016040518060200160405280600081525081525081526020016040518061042001604052806040518060200160405280600081525081526020016040518060200160405280600081525081526020016040518060200160405280600081525081526020016040518060200160405280600081525081526020016040518060200160405280600081525081526020016040518060200160405280600081525081526020016040518060200160405280600081525081526020016040518060200160405280600081525081526020016040518060200160405280600081525081526020016040518060200160405280600081525081526020016040518060400160405280600781526020017f236432626166330000000000000000000000000000000000000000000000000081525081526020016040518060400160405280600781526020017f236430623766330000000000000000000000000000000000000000000000000081525081526020016040518060400160405280600781526020017f236365623466320000000000000000000000000000000000000000000000000081525081526020016040518060400160405280600781526020017f236363623166320000000000000000000000000000000000000000000000000081525081526020016040518060200160405280600081525081526020016040518060400160405280600781526020017f236339616266310000000000000000000000000000000000000000000000000081525081526020016040518060400160405280600781526020017f236337613866300000000000000000000000000000000000000000000000000081525081526020016040518060200160405280600081525081526020016040518060400160405280600781526020017f236333613265660000000000000000000000000000000000000000000000000081525081526020016040518060200160405280600081525081526020016040518060200160405280600081525081526020016040518060200160405280600081525081526020016040518060200160405280600081525081526020016040518060200160405280600081525081526020016040518060200160405280600081525081526020016040518060200160405280600081525081526020016040518060200160405280600081525081526020016040518060200160405280600081525081526020016040518060200160405280600081525081526020016040518060200160405280600081525081526020016040518060200160405280600081525081526020016040518060200160405280600081525081526020016040518060200160405280600081525081525081526020016040518061042001604052806040518060200160405280600081525081526020016040518060200160405280600081525081526020016040518060200160405280600081525081526020016040518060200160405280600081525081526020016040518060200160405280600081525081526020016040518060200160405280600081525081526020016040518060200160405280600081525081526020016040518060200160405280600081525081526020016040518060200160405280600081525081526020016040518060200160405280600081525081526020016040518060400160405280600781526020017f236431623866330000000000000000000000000000000000000000000000000081525081526020016040518060400160405280600781526020017f236366623566330000000000000000000000000000000000000000000000000081525081526020016040518060200160405280600081525081526020016040518060400160405280600781526020017f236362616666320000000000000000000000000000000000000000000000000081525081526020016040518060200160405280600081525081526020016040518060200160405280600081525081526020016040518060400160405280600781526020017f236335613666300000000000000000000000000000000000000000000000000081525081526020016040518060200160405280600081525081526020016040518060400160405280600781526020017f236331613065660000000000000000000000000000000000000000000000000081525081526020016040518060200160405280600081525081526020016040518060200160405280600081525081526020016040518060200160405280600081525081526020016040518060200160405280600081525081526020016040518060200160405280600081525081526020016040518060200160405280600081525081526020016040518060200160405280600081525081526020016040518060200160405280600081525081526020016040518060200160405280600081525081526020016040518060200160405280600081525081526020016040518060200160405280600081525081526020016040518060200160405280600081525081526020016040518060200160405280600081525081526020016040518060200160405280600081525081525081526020016040518061042001604052806040518060200160405280600081525081526020016040518060200160405280600081525081526020016040518060200160405280600081525081526020016040518060200160405280600081525081526020016040518060200160405280600081525081526020016040518060200160405280600081525081526020016040518060200160405280600081525081526020016040518060200160405280600081525081526020016040518060200160405280600081525081526020016040518060200160405280600081525081526020016040518060200160405280600081525081526020016040518060400160405280600781526020017f236365623366320000000000000000000000000000000000000000000000000081525081526020016040518060200160405280600081525081526020016040518060400160405280600781526020017f236361616466310000000000000000000000000000000000000000000000000081525081526020016040518060200160405280600081525081526020016040518060200160405280600081525081526020016040518060400160405280600781526020017f236334613566300000000000000000000000000000000000000000000000000081525081526020016040518060200160405280600081525081526020016040518060400160405280600781526020017f236330396565660000000000000000000000000000000000000000000000000081525081526020016040518060200160405280600081525081526020016040518060200160405280600081525081526020016040518060200160405280600081525081526020016040518060200160405280600081525081526020016040518060200160405280600081525081526020016040518060200160405280600081525081526020016040518060200160405280600081525081526020016040518060200160405280600081525081526020016040518060200160405280600081525081526020016040518060200160405280600081525081526020016040518060200160405280600081525081526020016040518060200160405280600081525081526020016040518060200160405280600081525081526020016040518060200160405280600081525081525081526020016040518061042001604052806040518060200160405280600081525081526020016040518060200160405280600081525081526020016040518060200160405280600081525081526020016040518060200160405280600081525081526020016040518060200160405280600081525081526020016040518060200160405280600081525081526020016040518060200160405280600081525081526020016040518060200160405280600081525081526020016040518060200160405280600081525081526020016040518060200160405280600081525081526020016040518060200160405280600081525081526020016040518060200160405280600081525081526020016040518060400160405280600781526020017f236362616666310000000000000000000000000000000000000000000000000081525081526020016040518060200160405280600081525081526020016040518060400160405280600781526020017f236337613866300000000000000000000000000000000000000000000000000081525081526020016040518060200160405280600081525081526020016040518060200160405280600081525081526020016040518060200160405280600081525081526020016040518060400160405280600781526020017f236266396365650000000000000000000000000000000000000000000000000081525081526020016040518060200160405280600081525081526020016040518060200160405280600081525081526020016040518060200160405280600081525081526020016040518060200160405280600081525081526020016040518060200160405280600081525081526020016040518060200160405280600081525081526020016040518060200160405280600081525081526020016040518060200160405280600081525081526020016040518060200160405280600081525081526020016040518060200160405280600081525081526020016040518060200160405280600081525081526020016040518060200160405280600081525081526020016040518060200160405280600081525081526020016040518060200160405280600081525081525081526020016040518061042001604052806040518060200160405280600081525081526020016040518060200160405280600081525081526020016040518060200160405280600081525081526020016040518060200160405280600081525081526020016040518060200160405280600081525081526020016040518060200160405280600081525081526020016040518060200160405280600081525081526020016040518060200160405280600081525081526020016040518060200160405280600081525081526020016040518060200160405280600081525081526020016040518060200160405280600081525081526020016040518060200160405280600081525081526020016040518060200160405280600081525081526020016040518060400160405280600781526020017f236337613966310000000000000000000000000000000000000000000000000081525081526020016040518060200160405280600081525081526020016040518060400160405280600781526020017f236334613466300000000000000000000000000000000000000000000000000081525081526020016040518060200160405280600081525081526020016040518060200160405280600081525081526020016040518060400160405280600781526020017f236265396265650000000000000000000000000000000000000000000000000081525081526020016040518060200160405280600081525081526020016040518060200160405280600081525081526020016040518060200160405280600081525081526020016040518060200160405280600081525081526020016040518060200160405280600081525081526020016040518060200160405280600081525081526020016040518060200160405280600081525081526020016040518060200160405280600081525081526020016040518060200160405280600081525081526020016040518060200160405280600081525081526020016040518060200160405280600081525081526020016040518060200160405280600081525081526020016040518060200160405280600081525081526020016040518060200160405280600081525081525081526020016040518061042001604052806040518060200160405280600081525081526020016040518060200160405280600081525081526020016040518060200160405280600081525081526020016040518060200160405280600081525081526020016040518060200160405280600081525081526020016040518060200160405280600081525081526020016040518060200160405280600081525081526020016040518060200160405280600081525081526020016040518060200160405280600081525081526020016040518060200160405280600081525081526020016040518060400160405280600781526020017f236363623066320000000000000000000000000000000000000000000000000081525081526020016040518060400160405280600781526020017f236361616566310000000000000000000000000000000000000000000000000081525081526020016040518060400160405280600781526020017f236338616266310000000000000000000000000000000000000000000000000081525081526020016040518060400160405280600781526020017f236336613866300000000000000000000000000000000000000000000000000081525081526020016040518060400160405280600781526020017f236334613566300000000000000000000000000000000000000000000000000081525081526020016040518060200160405280600081525081526020016040518060400160405280600781526020017f236330396565660000000000000000000000000000000000000000000000000081525081526020016040518060200160405280600081525081526020016040518060400160405280600781526020017f236263393865650000000000000000000000000000000000000000000000000081525081526020016040518060400160405280600781526020017f236262393665640000000000000000000000000000000000000000000000000081525081526020016040518060400160405280600781526020017f236239393365640000000000000000000000000000000000000000000000000081525081526020016040518060400160405280600781526020017f236237393065630000000000000000000000000000000000000000000000000081525081526020016040518060200160405280600081525081526020016040518060200160405280600081525081526020016040518060200160405280600081525081526020016040518060200160405280600081525081526020016040518060200160405280600081525081526020016040518060200160405280600081525081526020016040518060200160405280600081525081526020016040518060200160405280600081525081526020016040518060200160405280600081525081526020016040518060200160405280600081525081526020016040518060200160405280600081525081525081526020016040518061042001604052806040518060200160405280600081525081526020016040518060200160405280600081525081526020016040518060200160405280600081525081526020016040518060200160405280600081525081526020016040518060200160405280600081525081526020016040518060200160405280600081525081526020016040518060200160405280600081525081526020016040518060200160405280600081525081526020016040518060200160405280600081525081526020016040518060400160405280600781526020017f236364623266320000000000000000000000000000000000000000000000000081525081526020016040518060400160405280600781526020017f236362616666310000000000000000000000000000000000000000000000000081525081526020016040518060400160405280600781526020017f236339616266310000000000000000000000000000000000000000000000000081525081526020016040518060400160405280600781526020017f236337613866300000000000000000000000000000000000000000000000000081525081526020016040518060400160405280600781526020017f236335613566300000000000000000000000000000000000000000000000000081525081526020016040518060400160405280600781526020017f236333613265660000000000000000000000000000000000000000000000000081525081526020016040518060400160405280600781526020017f236331613065660000000000000000000000000000000000000000000000000081525081526020016040518060400160405280600781526020017f236266396465660000000000000000000000000000000000000000000000000081525081526020016040518060400160405280600781526020017f236264396165650000000000000000000000000000000000000000000000000081525081526020016040518060400160405280600781526020017f236262393765650000000000000000000000000000000000000000000000000081525081526020016040518060400160405280600781526020017f236239393465640000000000000000000000000000000000000000000000000081525081526020016040518060400160405280600781526020017f236237393165640000000000000000000000000000000000000000000000000081525081526020016040518060400160405280600781526020017f236235386565630000000000000000000000000000000000000000000000000081525081526020016040518060400160405280600781526020017f236234386265630000000000000000000000000000000000000000000000000081525081526020016040518060400160405280600781526020017f236232383865620000000000000000000000000000000000000000000000000081525081526020016040518060200160405280600081525081526020016040518060200160405280600081525081526020016040518060200160405280600081525081526020016040518060200160405280600081525081526020016040518060200160405280600081525081526020016040518060200160405280600081525081526020016040518060200160405280600081525081526020016040518060200160405280600081525081526020016040518060200160405280600081525081525081526020016040518061042001604052806040518060200160405280600081525081526020016040518060200160405280600081525081526020016040518060200160405280600081525081526020016040518060200160405280600081525081526020016040518060200160405280600081525081526020016040518060200160405280600081525081526020016040518060200160405280600081525081526020016040518060200160405280600081525081526020016040518060400160405280600781526020017f236364623266320000000000000000000000000000000000000000000000000081525081526020016040518060400160405280600781526020017f236362616666320000000000000000000000000000000000000000000000000081525081526020016040518060200160405280600081525081526020016040518060200160405280600081525081526020016040518060200160405280600081525081526020016040518060200160405280600081525081526020016040518060200160405280600081525081526020016040518060400160405280600781526020017f236330396565660000000000000000000000000000000000000000000000000081525081526020016040518060400160405280600781526020017f236265396265650000000000000000000000000000000000000000000000000081525081526020016040518060400160405280600781526020017f236263393865650000000000000000000000000000000000000000000000000081525081526020016040518060200160405280600081525081526020016040518060200160405280600081525081526020016040518060200160405280600081525081526020016040518060200160405280600081525081526020016040518060200160405280600081525081526020016040518060400160405280600781526020017f236230383665620000000000000000000000000000000000000000000000000081525081526020016040518060400160405280600781526020017f236165383365610000000000000000000000000000000000000000000000000081525081526020016040518060200160405280600081525081526020016040518060200160405280600081525081526020016040518060200160405280600081525081526020016040518060200160405280600081525081526020016040518060200160405280600081525081526020016040518060200160405280600081525081526020016040518060200160405280600081525081526020016040518060200160405280600081525081525081526020016040518061042001604052806040518060200160405280600081525081526020016040518060200160405280600081525081526020016040518060200160405280600081525081526020016040518060200160405280600081525081526020016040518060200160405280600081525081526020016040518060200160405280600081525081526020016040518060200160405280600081525081526020016040518060400160405280600781526020017f236365623366320000000000000000000000000000000000000000000000000081525081526020016040518060400160405280600781526020017f236363623166320000000000000000000000000000000000000000000000000081525081526020016040518060200160405280600081525081526020016040518060200160405280600081525081526020016040518060200160405280600081525081526020016040518060200160405280600081525081526020016040518060200160405280600081525081526020016040518060200160405280600081525081526020016040518060200160405280600081525081526020016040518060400160405280600781526020017f236264393965650000000000000000000000000000000000000000000000000081525081526020016040518060200160405280600081525081526020016040518060200160405280600081525081526020016040518060200160405280600081525081526020016040518060200160405280600081525081526020016040518060200160405280600081525081526020016040518060200160405280600081525081526020016040518060200160405280600081525081526020016040518060400160405280600781526020017f236164383165610000000000000000000000000000000000000000000000000081525081526020016040518060400160405280600781526020017f236162376565610000000000000000000000000000000000000000000000000081525081526020016040518060200160405280600081525081526020016040518060200160405280600081525081526020016040518060200160405280600081525081526020016040518060200160405280600081525081526020016040518060200160405280600081525081526020016040518060200160405280600081525081526020016040518060200160405280600081525081525081526020016040518061042001604052806040518060200160405280600081525081526020016040518060200160405280600081525081526020016040518060200160405280600081525081526020016040518060200160405280600081525081526020016040518060200160405280600081525081526020016040518060200160405280600081525081526020016040518060200160405280600081525081526020016040518060400160405280600781526020017f236364623266320000000000000000000000000000000000000000000000000081525081526020016040518060400160405280600781526020017f236362616666310000000000000000000000000000000000000000000000000081525081526020016040518060200160405280600081525081526020016040518060200160405280600081525081526020016040518060200160405280600081525081526020016040518060200160405280600081525081526020016040518060200160405280600081525081526020016040518060200160405280600081525081526020016040518060200160405280600081525081526020016040518060400160405280600781526020017f236262393765650000000000000000000000000000000000000000000000000081525081526020016040518060200160405280600081525081526020016040518060200160405280600081525081526020016040518060200160405280600081525081526020016040518060200160405280600081525081526020016040518060200160405280600081525081526020016040518060200160405280600081525081526020016040518060200160405280600081525081526020016040518060400160405280600781526020017f236163376665610000000000000000000000000000000000000000000000000081525081526020016040518060400160405280600781526020017f236161376365390000000000000000000000000000000000000000000000000081525081526020016040518060200160405280600081525081526020016040518060200160405280600081525081526020016040518060200160405280600081525081526020016040518060200160405280600081525081526020016040518060200160405280600081525081526020016040518060200160405280600081525081526020016040518060200160405280600081525081525081526020016040518061042001604052806040518060200160405280600081525081526020016040518060200160405280600081525081526020016040518060200160405280600081525081526020016040518060200160405280600081525081526020016040518060200160405280600081525081526020016040518060200160405280600081525081526020016040518060200160405280600081525081526020016040518060200160405280600081525081526020016040518060400160405280600781526020017f236361616466310000000000000000000000000000000000000000000000000081525081526020016040518060400160405280600781526020017f236338616166310000000000000000000000000000000000000000000000000081525081526020016040518060200160405280600081525081526020016040518060200160405280600081525081526020016040518060200160405280600081525081526020016040518060200160405280600081525081526020016040518060200160405280600081525081526020016040518060400160405280600781526020017f236263393865650000000000000000000000000000000000000000000000000081525081526020016040518060400160405280600781526020017f236261393565640000000000000000000000000000000000000000000000000081525081526020016040518060400160405280600781526020017f236238393265640000000000000000000000000000000000000000000000000081525081526020016040518060200160405280600081525081526020016040518060200160405280600081525081526020016040518060200160405280600081525081526020016040518060200160405280600081525081526020016040518060200160405280600081525081526020016040518060400160405280600781526020017f236164383065610000000000000000000000000000000000000000000000000081525081526020016040518060400160405280600781526020017f236162376465390000000000000000000000000000000000000000000000000081525081526020016040518060200160405280600081525081526020016040518060200160405280600081525081526020016040518060200160405280600081525081526020016040518060200160405280600081525081526020016040518060200160405280600081525081526020016040518060200160405280600081525081526020016040518060200160405280600081525081526020016040518060200160405280600081525081525081526020016040518061042001604052806040518060200160405280600081525081526020016040518060200160405280600081525081526020016040518060200160405280600081525081526020016040518060200160405280600081525081526020016040518060200160405280600081525081526020016040518060200160405280600081525081526020016040518060200160405280600081525081526020016040518060200160405280600081525081526020016040518060200160405280600081525081526020016040518060400160405280600781526020017f236336613866300000000000000000000000000000000000000000000000000081525081526020016040518060400160405280600781526020017f236334613566300000000000000000000000000000000000000000000000000081525081526020016040518060400160405280600781526020017f236333613265660000000000000000000000000000000000000000000000000081525081526020016040518060400160405280600781526020017f236331396665660000000000000000000000000000000000000000000000000081525081526020016040518060400160405280600781526020017f236266396365650000000000000000000000000000000000000000000000000081525081526020016040518060400160405280600781526020017f236264393965650000000000000000000000000000000000000000000000000081525081526020016040518060400160405280600781526020017f236262393665640000000000000000000000000000000000000000000000000081525081526020016040518060200160405280600081525081526020016040518060400160405280600781526020017f236237393065630000000000000000000000000000000000000000000000000081525081526020016040518060400160405280600781526020017f236235386465630000000000000000000000000000000000000000000000000081525081526020016040518060400160405280600781526020017f236233386165630000000000000000000000000000000000000000000000000081525081526020016040518060400160405280600781526020017f236231383765620000000000000000000000000000000000000000000000000081525081526020016040518060400160405280600781526020017f236166383465620000000000000000000000000000000000000000000000000081525081526020016040518060400160405280600781526020017f236164383165610000000000000000000000000000000000000000000000000081525081526020016040518060400160405280600781526020017f236162376565610000000000000000000000000000000000000000000000000081525081526020016040518060200160405280600081525081526020016040518060200160405280600081525081526020016040518060200160405280600081525081526020016040518060200160405280600081525081526020016040518060200160405280600081525081526020016040518060200160405280600081525081526020016040518060200160405280600081525081526020016040518060200160405280600081525081526020016040518060200160405280600081525081525081526020016040518061042001604052806040518060200160405280600081525081526020016040518060200160405280600081525081526020016040518060200160405280600081525081526020016040518060200160405280600081525081526020016040518060200160405280600081525081526020016040518060200160405280600081525081526020016040518060200160405280600081525081526020016040518060200160405280600081525081526020016040518060200160405280600081525081526020016040518060200160405280600081525081526020016040518060400160405280600781526020017f236333613366300000000000000000000000000000000000000000000000000081525081526020016040518060400160405280600781526020017f236331613065660000000000000000000000000000000000000000000000000081525081526020016040518060400160405280600781526020017f236266396465660000000000000000000000000000000000000000000000000081525081526020016040518060400160405280600781526020017f236264396165650000000000000000000000000000000000000000000000000081525081526020016040518060400160405280600781526020017f236262393765650000000000000000000000000000000000000000000000000081525081526020016040518060200160405280600081525081526020016040518060200160405280600081525081526020016040518060200160405280600081525081526020016040518060400160405280600781526020017f236234386265630000000000000000000000000000000000000000000000000081525081526020016040518060400160405280600781526020017f236232383865620000000000000000000000000000000000000000000000000081525081526020016040518060400160405280600781526020017f236230383565620000000000000000000000000000000000000000000000000081525081526020016040518060400160405280600781526020017f236165383265610000000000000000000000000000000000000000000000000081525081526020016040518060400160405280600781526020017f2361633830656100000000000000000000000000000000000000000000000000815250815260200160405180602001604052806000815250815260200160405180602001604052806000815250815260200160405180602001604052806000815250815260200160405180602001604052806000815250815260200160405180602001604052806000815250815260200160405180602001604052806000815250815260200160405180602001604052806000815250815260200160405180602001604052806000815250815260200160405180602001604052806000815250815260200160405180602001604052806000815250815250815260200160405180610420016040528060405180602001604052806000815250815260200160405180602001604052806000815250815260200160405180602001604052806000815250815260200160405180602001604052806000815250815260200160405180602001604052806000815250815260200160405180602001604052806000815250815260200160405180602001604052806000815250815260200160405180602001604052806000815250815260200160405180602001604052806000815250815260200160405180602001604052806000815250815260200160405180602001604052806000815250815260200160405180602001604052806000815250815260200160405180602001604052806000815250815260200160405180602001604052806000815250815260200160405180602001604052806000815250815260200160405180602001604052806000815250815260200160405180602001604052806000815250815260200160405180602001604052806000815250815260200160405180602001604052806000815250815260200160405180602001604052806000815250815260200160405180602001604052806000815250815260200160405180602001604052806000815250815260200160405180602001604052806000815250815260200160405180602001604052806000815250815260200160405180602001604052806000815250815260200160405180602001604052806000815250815260200160405180602001604052806000815250815260200160405180602001604052806000815250815260200160405180602001604052806000815250815260200160405180602001604052806000815250815260200160405180602001604052806000815250815260200160405180602001604052806000815250815260200160405180602001604052806000815250815250815250610444906012620041a5929190620061fe565b50600061088560006101000a81548160ff021916908315150217905550348015620041cf57600080fd5b5060405162009ce438038062009ce48339818101604052810190620041f59190620064bf565b336000806101000a81548173ffffffffffffffffffffffffffffffffffffffff021916908373ffffffffffffffffffffffffffffffffffffffff160217905550604051806104200160405280603361ffff168152602001606461ffff168152602001609661ffff16815260200160c861ffff16815260200161010461ffff16815260200161013661ffff16815260200161016861ffff16815260200161019a61ffff1681526020016101cc61ffff1681526020016101fe61ffff16815260200161023061ffff16815260200161026261ffff16815260200161029461ffff1681526020016102c661ffff16815260200161030261ffff16815260200161033461ffff16815260200161036661ffff16815260200161039861ffff1681526020016103ca61ffff1681526020016103e861ffff16815260200161044c61ffff16815260200161044c61ffff1681526020016104b061ffff1681526020016104b061ffff16815260200161051461ffff16815260200161051461ffff16815260200161057861ffff16815260200161057861ffff1681526020016105dc61ffff1681526020016105dc61ffff16815260200161064061ffff16815260200161064061ffff1681526020016106a461ffff168152506003600060218110620043df57620043de620064f1565b5b60210201906021620043f392919062006255565b50604051806104200160405280603661ffff168152602001606e61ffff16815260200160a061ffff16815260200160dc61ffff16815260200161010e61ffff16815260200161014061ffff16815260200161017c61ffff1681526020016101ae61ffff1681526020016101ea61ffff16815260200161021c61ffff16815260200161024e61ffff16815260200161028a61ffff1681526020016102bc61ffff1681526020016102f861ffff16815260200161032a61ffff16815260200161035c61ffff16815260200161039861ffff168152602001613a9861ffff168152602001613e8061ffff16815260200161044c61ffff16815260200161044c61ffff1681526020016104b061ffff1681526020016104b061ffff16815260200161051461ffff16815260200161057861ffff16815260200161057861ffff1681526020016105dc61ffff1681526020016105dc61ffff16815260200161064061ffff16815260200161064061ffff1681526020016106a461ffff1681526020016106a461ffff16815260200161070861ffff1681525060036001602181106200459e576200459d620064f1565b5b60210201906021620045b292919062006255565b50604051806104200160405280603961ffff168152602001606e61ffff16815260200160aa61ffff16815260200160e661ffff16815260200161012261ffff16815260200161015461ffff16815260200161019061ffff1681526020016101cc61ffff1681526020016101fe61ffff16815260200161023a61ffff16815260200161027661ffff1681526020016102a861ffff1681526020016102e461ffff16815260200161032061ffff16815260200161035c61ffff16815260200161038e61ffff168152602001613a9861ffff168152602001613e8061ffff16815260200161465061ffff16815260200161044c61ffff1681526020016104b061ffff16815260200161051461ffff16815260200161051461ffff16815260200161057861ffff16815260200161057861ffff1681526020016105dc61ffff1681526020016105dc61ffff16815260200161064061ffff1681526020016106a461ffff1681526020016106a461ffff16815260200161070861ffff16815260200161070861ffff16815260200161076c61ffff1681525060036002602181106200475d576200475c620064f1565b5b602102019060216200477192919062006255565b50604051806104200160405280603c61ffff168152602001607861ffff16815260200160b461ffff16815260200160f061ffff16815260200161012c61ffff16815260200161016861ffff1681526020016101a461ffff1681526020016101e061ffff16815260200161021c61ffff16815260200161025861ffff16815260200161029461ffff16815260200161271061ffff168152602001612af861ffff168152602001612ee061ffff1681526020016132c861ffff1681526020016103c061ffff168152602001613e8061ffff16815260200161044c61ffff168152602001614a3861ffff1681526020016104b061ffff16815260200161051461ffff16815260200161051461ffff16815260200161057861ffff16815260200161057861ffff1681526020016105dc61ffff16815260200161064061ffff16815260200161064061ffff1681526020016106a461ffff1681526020016106a461ffff16815260200161070861ffff16815260200161076c61ffff16815260200161076c61ffff1681526020016107d061ffff16815250600380602181106200491b576200491a620064f1565b5b602102019060216200492f92919062006255565b50604051806104200160405280603f61ffff168152602001608261ffff16815260200160be61ffff16815260200160fa61ffff16815260200161014061ffff16815260200161017c61ffff1681526020016101b861ffff1681526020016101f461ffff16815260200161023a61ffff16815260200161027661ffff16815260200161251c61ffff168152602001612af861ffff168152602001612ee061ffff1681526020016132c861ffff1681526020016103b661ffff168152602001613e8061ffff16815260200161426861ffff16815260200161044c61ffff168152602001614e2061ffff16815260200161051461ffff16815260200161051461ffff16815260200161057861ffff16815260200161057861ffff1681526020016105dc61ffff16815260200161064061ffff16815260200161064061ffff1681526020016106a461ffff16815260200161070861ffff16815260200161070861ffff16815260200161076c61ffff1681526020016107d061ffff1681526020016107d061ffff16815260200161083461ffff16815250600360046021811062004ada5762004ad9620064f1565b5b6021020190602162004aee92919062006255565b50604051806104200160405280604261ffff168152602001608261ffff16815260200160c861ffff16815260200161010461ffff16815260200161014a61ffff16815260200161019061ffff1681526020016101cc61ffff16815260200161021261ffff16815260200161024e61ffff16815260200161029461ffff16815260200161271061ffff168152602001612af861ffff16815260200161035c61ffff1681526020016136b061ffff1681526020016103de61ffff16815260200161044c61ffff16815260200161465061ffff1681526020016104b061ffff1681526020016155f061ffff16815260200161051461ffff16815260200161057861ffff1681526020016105dc61ffff1681526020016105dc61ffff16815260200161064061ffff1681526020016106a461ffff1681526020016106a461ffff16815260200161070861ffff16815260200161070861ffff16815260200161076c61ffff1681526020016107d061ffff1681526020016107d061ffff16815260200161083461ffff16815260200161089861ffff16815250600360056021811062004c9a5762004c99620064f1565b5b6021020190602162004cae92919062006255565b50604051806104200160405280604561ffff168152602001608c61ffff16815260200160d261ffff16815260200161011861ffff16815260200161015e61ffff16815260200161019a61ffff1681526020016101e061ffff16815260200161022661ffff16815260200161026c61ffff1681526020016102b261ffff1681526020016102f861ffff168152602001612ee061ffff16815260200161038461ffff168152602001613a9861ffff1681526020016103e861ffff16815260200161044c61ffff168152602001614a3861ffff1681526020016104b061ffff1681526020016159d861ffff16815260200161057861ffff16815260200161057861ffff1681526020016105dc61ffff16815260200161064061ffff1681526020016106a461ffff1681526020016106a461ffff16815260200161070861ffff16815260200161076c61ffff16815260200161076c61ffff1681526020016107d061ffff16815260200161083461ffff16815260200161083461ffff16815260200161089861ffff1681526020016108fc61ffff16815250600360066021811062004e5a5762004e59620064f1565b5b6021020190602162004e6e92919062006255565b50604051806104200160405280604861ffff168152602001608c61ffff16815260200160dc61ffff16815260200161012261ffff16815260200161016861ffff1681526020016101ae61ffff1681526020016101f461ffff16815260200161024461ffff16815260200161028a61ffff1681526020016102d061ffff16815260200161031661ffff16815260200161035c61ffff1681526020016136b061ffff1681526020016103e861ffff16815260200161426861ffff1681526020016104b061ffff1681526020016104b061ffff16815260200161051461ffff1681526020016161a861ffff16815260200161057861ffff1681526020016105dc61ffff16815260200161064061ffff1681526020016106a461ffff1681526020016106a461ffff16815260200161070861ffff16815260200161076c61ffff16815260200161076c61ffff1681526020016107d061ffff16815260200161083461ffff16815260200161089861ffff16815260200161089861ffff1681526020016108fc61ffff16815260200161096061ffff1681525060036007602181106200501a5762005019620064f1565b5b602102019060216200502e92919062006255565b50604051806104200160405280604b61ffff168152602001609661ffff16815260200160e661ffff16815260200161012c61ffff16815260200161017c61ffff1681526020016101c261ffff16815260200161021261ffff16815260200161025861ffff1681526020016102a861ffff1681526020016102ee61ffff16815260200161033e61ffff16815260200161038461ffff1681526020016103d461ffff16815260200161426861ffff16815260200161044c61ffff168152602001614e2061ffff16815260200161051461ffff16815260200161057861ffff16815260200161659061ffff1681526020016105dc61ffff16815260200161064061ffff1681526020016106a461ffff1681526020016106a461ffff16815260200161070861ffff16815260200161076c61ffff1681526020016107d061ffff1681526020016107d061ffff16815260200161083461ffff16815260200161089861ffff1681526020016108fc61ffff1681526020016108fc61ffff16815260200161096061ffff1681526020016109c461ffff168152506003600860218110620051da57620051d9620064f1565b5b60210201906021620051ee92919062006255565b50604051806104200160405280604e61ffff16815260200160a061ffff16815260200160e661ffff16815260200161013661ffff16815260200161018661ffff1681526020016101d661ffff16815260200161022661ffff16815260200161026c61ffff1681526020016102bc61ffff16815260200161030c61ffff1681526020016132c861ffff1681526020016136b061ffff168152602001613e8061ffff16815260200161465061ffff168152602001614a3861ffff1681526020016104b061ffff1681526020016159d861ffff16815260200161057861ffff168152602001616d6061ffff16815260200161753061ffff168152602001617d0061ffff1681526020016188b861ffff16815260200161070861ffff16815260200161076c61ffff1681526020016107d061ffff1681526020016107d061ffff16815260200161083461ffff16815260200161089861ffff1681526020016108fc61ffff1681526020016108fc61ffff16815260200161096061ffff1681526020016109c461ffff168152602001610a2861ffff1681525060036009602181106200539a5762005399620064f1565b5b60210201906021620053ae92919062006255565b50604051806104200160405280605161ffff16815260200160a061ffff16815260200160f061ffff16815260200161014061ffff16815260200161019a61ffff1681526020016101ea61ffff16815260200161023a61ffff16815260200161028a61ffff1681526020016102da61ffff168152602001612ee061ffff1681526020016132c861ffff168152602001613a9861ffff16815260200161426861ffff168152602001614a3861ffff16815260200161520861ffff1681526020016155f061ffff168152602001615dc061ffff16815260200161697861ffff16815260200161714861ffff168152602001617d0061ffff1681526020016188b861ffff16815260200161947061ffff168152602001619c4061ffff16815260200161abe061ffff1681526020016107d061ffff16815260200161083461ffff16815260200161089861ffff1681526020016108fc61ffff1681526020016108fc61ffff16815260200161096061ffff1681526020016109c461ffff168152602001610a2861ffff168152602001610a8c61ffff168152506003600a602181106200555a5762005559620064f1565b5b602102019060216200556e92919062006255565b50604051806104200160405280605461ffff16815260200160aa61ffff16815260200160fa61ffff16815260200161015461ffff1681526020016101a461ffff1681526020016101f461ffff16815260200161024e61ffff16815260200161029e61ffff168152602001612af861ffff1681526020016132c861ffff16815260200161039861ffff1681526020016103e861ffff16815260200161044c61ffff1681526020016104b061ffff16815260200161051461ffff168152602001615dc061ffff16815260200161659061ffff168152602001616d6061ffff16815260200161064061ffff1681526020016106a461ffff16815260200161070861ffff16815260200161070861ffff16815260200161076c61ffff16815260200161b79861ffff16815260200161c73861ffff16815260200161089861ffff1681526020016108fc61ffff16815260200161096061ffff16815260200161096061ffff1681526020016109c461ffff168152602001610a2861ffff168152602001610a8c61ffff168152602001610af061ffff168152506003600b602181106200571a5762005719620064f1565b5b602102019060216200572e92919062006255565b50604051806104200160405280605761ffff16815260200160aa61ffff16815260200161010461ffff16815260200161015e61ffff1681526020016101b861ffff16815260200161020861ffff16815260200161026261ffff16815260200161271061ffff168152602001612ee061ffff16815260200161036661ffff1681526020016103c061ffff1681526020016103e861ffff16815260200161044c61ffff1681526020016104b061ffff16815260200161051461ffff16815260200161057861ffff16815260200161697861ffff16815260200161064061ffff1681526020016106a461ffff1681526020016106a461ffff16815260200161070861ffff16815260200161076c61ffff1681526020016107d061ffff16815260200161083461ffff16815260200161d2f061ffff16815260200161e29061ffff1681526020016108fc61ffff16815260200161096061ffff1681526020016109c461ffff168152602001610a2861ffff168152602001610a8c61ffff168152602001610af061ffff168152602001610b5461ffff168152506003600c60218110620058db57620058da620064f1565b5b60210201906021620058ef92919062006255565b50604051806104200160405280605a61ffff16815260200160b461ffff16815260200161010e61ffff16815260200161016861ffff1681526020016101c261ffff16815260200161021c61ffff16815260200161027661ffff168152602001612af861ffff168152602001612ee061ffff16815260200161038461ffff1681526020016103de61ffff16815260200161044c61ffff1681526020016104b061ffff16815260200161051461ffff16815260200161051461ffff16815260200161057861ffff16815260200161714861ffff16815260200161064061ffff1681526020016106a461ffff16815260200161070861ffff16815260200161076c61ffff1681526020016107d061ffff16815260200161083461ffff16815260200161089861ffff16815260200161dea861ffff16815260200161f23061ffff16815260200161096061ffff1681526020016109c461ffff168152602001610a2861ffff168152602001610a8c61ffff168152602001610af061ffff168152602001610b5461ffff168152602001610bb861ffff168152506003600d6021811062005a9c5762005a9b620064f1565b5b6021020190602162005ab092919062006255565b50604051806104200160405280605d61ffff16815260200160be61ffff16815260200161011861ffff16815260200161017261ffff1681526020016101cc61ffff16815260200161023061ffff16815260200161028a61ffff1681526020016102e461ffff1681526020016132c861ffff168152602001613a9861ffff1681526020016103e861ffff16815260200161044c61ffff1681526020016104b061ffff16815260200161051461ffff16815260200161057861ffff168152602001616d6061ffff16815260200161753061ffff1681526020016180e861ffff16815260200161070861ffff16815260200161076c61ffff1681526020016107d061ffff1681526020016107d061ffff16815260200161083461ffff16815260200161dac061ffff16815260200161ee4861ffff16815260200161096061ffff1681526020016109c461ffff168152602001610a2861ffff168152602001610a8c61ffff168152602001610af061ffff168152602001610b5461ffff168152602001610bb861ffff168152602001610c1c61ffff168152506003600e6021811062005c5d5762005c5c620064f1565b5b6021020190602162005c7192919062006255565b50604051806104200160405280606061ffff16815260200160be61ffff16815260200161012261ffff16815260200161017c61ffff1681526020016101e061ffff16815260200161024461ffff16815260200161029e61ffff16815260200161030261ffff16815260200161035c61ffff168152602001613a9861ffff16815260200161426861ffff168152602001614a3861ffff1681526020016155f061ffff168152602001615dc061ffff16815260200161697861ffff16815260200161714861ffff16815260200161064061ffff1681526020016188b861ffff16815260200161985861ffff16815260200161a41061ffff16815260200161b3b061ffff16815260200161c35061ffff16815260200161d2f061ffff16815260200161e67861ffff16815260200161096061ffff1681526020016109c461ffff168152602001610a2861ffff168152602001610a8c61ffff168152602001610af061ffff168152602001610b5461ffff168152602001610bb861ffff168152602001610c1c61ffff168152602001610c8061ffff168152506003600f6021811062005e1e5762005e1d620064f1565b5b6021020190602162005e3292919062006255565b50604051806104200160405280606361ffff16815260200160c861ffff16815260200161012c61ffff16815260200161019061ffff1681526020016101f461ffff16815260200161024e61ffff1681526020016102b261ffff16815260200161031661ffff16815260200161037a61ffff1681526020016103de61ffff16815260200161465061ffff168152602001614e2061ffff1681526020016159d861ffff1681526020016161a861ffff168152602001616d6061ffff16815260200161064061ffff1681526020016106a461ffff16815260200161070861ffff16815260200161a02861ffff16815260200161afc861ffff16815260200161bf6861ffff16815260200161cf0861ffff16815260200161dea861ffff16815260200161096061ffff1681526020016109c461ffff168152602001610a2861ffff168152602001610a8c61ffff168152602001610af061ffff168152602001610b5461ffff168152602001610bb861ffff168152602001610c1c61ffff168152602001610c8061ffff168152602001610ce461ffff16815250600360106021811062005fdf5762005fde620064f1565b5b6021020190602162005ff392919062006255565b50604051806104200160405280606461ffff16815260200160c861ffff16815260200161013661ffff16815260200161019a61ffff1681526020016101fe61ffff16815260200161026261ffff1681526020016102c661ffff16815260200161033461ffff16815260200161039861ffff1681526020016103e861ffff16815260200161044c61ffff1681526020016104b061ffff16815260200161051461ffff16815260200161057861ffff1681526020016105dc61ffff16815260200161064061ffff1681526020016106a461ffff16815260200161070861ffff16815260200161076c61ffff1681526020016107d061ffff16815260200161083461ffff16815260200161089861ffff1681526020016108fc61ffff16815260200161096061ffff168152602001610a2861ffff168152602001610a8c61ffff168152602001610af061ffff168152602001610b5461ffff168152602001610bb861ffff168152602001610c1c61ffff168152602001610c8061ffff168152602001610ce461ffff168152602001610d4861ffff168152506003601160218110620061a0576200619f620064f1565b5b60210201906021620061b492919062006255565b508061088560016101000a81548173ffffffffffffffffffffffffffffffffffffffff021916908373ffffffffffffffffffffffffffffffffffffffff1602179055505062006584565b8260218002810192821562006242579160200282015b82811115620062415782518290602162006230929190620062a0565b509160200191906021019062006214565b5b509050620062519190620062fa565b5090565b82602181019282156200628d579160200282015b828111156200628c578251829061ffff1690559160200191906001019062006269565b5b5090506200629c919062006322565b5090565b8260218101928215620062e7579160200282015b82811115620062e6578251829080519060200190620062d592919062006341565b5091602001919060010190620062b4565b5b509050620062f69190620063d2565b5090565b5b808211156200631e5760008181620063149190620063fa565b50602101620062fb565b5090565b5b808211156200633d57600081600090555060010162006323565b5090565b8280546200634f906200654f565b90600052602060002090601f016020900481019282620063735760008555620063bf565b82601f106200638e57805160ff1916838001178555620063bf565b82800160010185558215620063bf579182015b82811115620063be578251825591602001919060010190620063a1565b5b509050620063ce919062006322565b5090565b5b80821115620063f65760008181620063ec91906200640f565b50600101620063d3565b5090565b5080602101906200640c9190620063d2565b50565b5080546200641d906200654f565b6000825580601f1062006431575062006452565b601f01602090049060005260206000209081019062006451919062006322565b5b50565b600080fd5b600073ffffffffffffffffffffffffffffffffffffffff82169050919050565b600062006487826200645a565b9050919050565b62006499816200647a565b8114620064a557600080fd5b50565b600081519050620064b9816200648e565b92915050565b600060208284031215620064d857620064d762006455565b5b6000620064e884828501620064a8565b91505092915050565b7f4e487b7100000000000000000000000000000000000000000000000000000000600052603260045260246000fd5b7f4e487b7100000000000000000000000000000000000000000000000000000000600052602260045260246000fd5b600060028204905060018216806200656857607f821691505b6020821081036200657e576200657d62006520565b5b50919050565b61375080620065946000396000f3fe6080604052600436106101095760003560e01c80636aa633b611610095578063a06101d011610064578063a06101d01461033e578063ad9591e714610369578063b0e987db146103a8578063eca83a69146103e5578063f9cebc261461040157610109565b80636aa633b61461027f578063819aca1d146102aa5780638da5cb5b146102e85780639d602d2d1461031357610109565b806317ba786f116100dc57806317ba786f146101be578063367545e2146101e7578063367edd321461021257806338b145df146102295780635b32619c1461025457610109565b80630c0815001461010e5780630ce9befa1461013a578063108c5e1414610156578063146008e314610181575b600080fd5b34801561011a57600080fd5b5061012361043e565b6040516101319291906127c0565b60405180910390f35b610154600480360381019061014f9190612976565b6106e2565b005b34801561016257600080fd5b5061016b6107d1565b60405161017891906129f4565b60405180910390f35b34801561018d57600080fd5b506101a860048036038101906101a39190612a0f565b6107d6565b6040516101b591906129f4565b60405180910390f35b3480156101ca57600080fd5b506101e560048036038101906101e09190612a4f565b610801565b005b3480156101f357600080fd5b506101fc610a21565b6040516102099190612da1565b60405180910390f35b34801561021e57600080fd5b50610227610e63565b005b34801561023557600080fd5b5061023e61101b565b60405161024b91906129f4565b60405180910390f35b34801561026057600080fd5b50610269611020565b6040516102769190612e22565b60405180910390f35b34801561028b57600080fd5b50610294611047565b6040516102a19190612e58565b60405180910390f35b3480156102b657600080fd5b506102d160048036038101906102cc9190612a0f565b61105b565b6040516102df929190612ecc565b60405180910390f35b3480156102f457600080fd5b506102fd611355565b60405161030a9190612f1d565b60405180910390f35b34801561031f57600080fd5b50610328611379565b6040516103359190612e58565b60405180910390f35b34801561034a57600080fd5b50610353611391565b60405161036091906129f4565b60405180910390f35b34801561037557600080fd5b50610390600480360381019061038b9190612a0f565b6115a4565b60405161039f93929190612f38565b60405180910390f35b3480156103b457600080fd5b506103cf60048036038101906103ca9190612a0f565b611897565b6040516103dc91906129f4565b60405180910390f35b6103ff60048036038101906103fa9190612a4f565b6118c5565b005b34801561040d57600080fd5b5061042860048036038101906104239190612a0f565b611d38565b6040516104359190612f76565b60405180910390f35b606080610449611379565b610488576040517f08c379a000000000000000000000000000000000000000000000000000000000815260040161047f90612fe4565b60405180910390fd5b6000610492611def565b9050600061049e611df8565b905060008167ffffffffffffffff8111156104bc576104bb61284b565b5b6040519080825280602002602001820160405280156104ef57816020015b60608152602001906001900390816104da5790505b50905060008267ffffffffffffffff81111561050e5761050d61284b565b5b60405190808252806020026020018201604052801561054157816020015b606081526020019060019003908161052c5790505b50905060005b838110156106d35760008567ffffffffffffffff81111561056b5761056a61284b565b5b6040519080825280602002602001820160405280156105995781602001602082028036833780820191505090505b50905060008667ffffffffffffffff8111156105b8576105b761284b565b5b6040519080825280602002602001820160405280156105eb57816020015b60608152602001906001900390816105d65790505b50905060005b8781101561067f57610603818561105b565b84838151811061061657610615613004565b5b602002602001018484815181106106305761062f613004565b5b602002602001018290528273ffffffffffffffffffffffffffffffffffffffff1673ffffffffffffffffffffffffffffffffffffffff168152505050808061067790613062565b9150506105f1565b508185848151811061069457610693613004565b5b6020026020010181905250808484815181106106b3576106b2613004565b5b6020026020010181905250505080806106cb90613062565b915050610547565b50818195509550505050509091565b6106ea611379565b610729576040517f08c379a000000000000000000000000000000000000000000000000000000000815260040161072090612fe4565b60405180910390fd5b8282610733611def565b8210610774576040517f08c379a000000000000000000000000000000000000000000000000000000000815260040161076b906130f6565b60405180910390fd5b61077c611df8565b81106107bd576040517f08c379a00000000000000000000000000000000000000000000000000000000081526004016107b490613162565b60405180910390fd5b6107ca85856001866118c5565b5050505050565b601281565b6001602052816000526040600020602052806000526040600020600091509150508060000154905081565b610809611379565b610848576040517f08c379a000000000000000000000000000000000000000000000000000000000815260040161083f90612fe4565b60405180910390fd5b8383610852611def565b8210610893576040517f08c379a000000000000000000000000000000000000000000000000000000000815260040161088a906130f6565b60405180910390fd5b61089b611df8565b81106108dc576040517f08c379a00000000000000000000000000000000000000000000000000000000081526004016108d390613162565b60405180910390fd5b8585853373ffffffffffffffffffffffffffffffffffffffff16600160008481526020019081526020016000206000858152602001908152602001600020600101828154811061092f5761092e613004565b5b906000526020600020906002020160000160009054906101000a900473ffffffffffffffffffffffffffffffffffffffff1673ffffffffffffffffffffffffffffffffffffffff16146109b7576040517f08c379a00000000000000000000000000000000000000000000000000000000081526004016109ae906131ce565b60405180910390fd5b85600160008a815260200190815260200160002060008b815260200190815260200160002060010188815481106109f1576109f0613004565b5b90600052602060002090600202016001019080519060200190610a15929190612304565b50505050505050505050565b6060610a2b611379565b610a6a576040517f08c379a0000000000000000000000000000000000000000000000000000000008152600401610a6190612fe4565b60405180910390fd5b6000610a74611def565b90506000610a80611df8565b905060008167ffffffffffffffff811115610a9e57610a9d61284b565b5b604051908082528060200260200182016040528015610ad157816020015b6060815260200190600190039081610abc5790505b50905060005b82811015610e595760008467ffffffffffffffff811115610afb57610afa61284b565b5b604051908082528060200260200182016040528015610b3457816020015b610b2161238a565b815260200190600190039081610b195790505b50905060005b85811015610e25576000806000610b5184876115a4565b92509250925082858581518110610b6b57610b6a613004565b5b6020026020010151600001818152505060008103610c8757600167ffffffffffffffff811115610b9e57610b9d61284b565b5b604051908082528060200260200182016040528015610bd757816020015b610bc46123a4565b815260200190600190039081610bbc5790505b50858581518110610beb57610bea613004565b5b602002602001015160200181905250604051806040016040528060008054906101000a900473ffffffffffffffffffffffffffffffffffffffff1673ffffffffffffffffffffffffffffffffffffffff16815260200183815250858581518110610c5857610c57613004565b5b602002602001015160200151600081518110610c7757610c76613004565b5b6020026020010181905250610e0f565b600160008781526020019081526020016000206000858152602001908152602001600020600101805480602002602001604051908101604052809291908181526020016000905b82821015610de857838290600052602060002090600202016040518060400160405290816000820160009054906101000a900473ffffffffffffffffffffffffffffffffffffffff1673ffffffffffffffffffffffffffffffffffffffff1673ffffffffffffffffffffffffffffffffffffffff168152602001600182018054610d579061321d565b80601f0160208091040260200160405190810160405280929190818152602001828054610d839061321d565b8015610dd05780601f10610da557610100808354040283529160200191610dd0565b820191906000526020600020905b815481529060010190602001808311610db357829003601f168201915b50505050508152505081526020019060010190610cce565b50505050858581518110610dff57610dfe613004565b5b6020026020010151602001819052505b5050508080610e1d90613062565b915050610b3a565b5080838381518110610e3a57610e39613004565b5b6020026020010181905250508080610e5190613062565b915050610ad7565b5080935050505090565b60008054906101000a900473ffffffffffffffffffffffffffffffffffffffff1673ffffffffffffffffffffffffffffffffffffffff163373ffffffffffffffffffffffffffffffffffffffff1614610ef1576040517f08c379a0000000000000000000000000000000000000000000000000000000008152600401610ee8906132c0565b60405180910390fd5b600061088560019054906101000a900473ffffffffffffffffffffffffffffffffffffffff1673ffffffffffffffffffffffffffffffffffffffff1663a06101d06040518163ffffffff1660e01b8152600401602060405180830381865afa158015610f61573d6000803e3d6000fd5b505050506040513d601f19601f82011682018060405250810190610f8591906132f5565b90506502e90edd0000811015610fd0576040517f08c379a0000000000000000000000000000000000000000000000000000000008152600401610fc790613394565b60405180910390fd5b600161088560006101000a81548160ff0219169083151502179055507f961479333f7baab3eea2ead54f4113612e06058e0f3cdd932672aa14bcd831c260405160405180910390a150565b602181565b61088560019054906101000a900473ffffffffffffffffffffffffffffffffffffffff1681565b61088560009054906101000a900460ff1681565b60006060611067611379565b6110a6576040517f08c379a000000000000000000000000000000000000000000000000000000000815260040161109d90612fe4565b60405180910390fd5b83836110b0611def565b82106110f1576040517f08c379a00000000000000000000000000000000000000000000000000000000081526004016110e8906130f6565b60405180910390fd5b6110f9611df8565b811061113a576040517f08c379a000000000000000000000000000000000000000000000000000000000815260040161113190613162565b60405180910390fd5b60006001600087815260200190815260200160002060008881526020019081526020016000206040518060400160405290816000820154815260200160018201805480602002602001604051908101604052809291908181526020016000905b828210156112b457838290600052602060002090600202016040518060400160405290816000820160009054906101000a900473ffffffffffffffffffffffffffffffffffffffff1673ffffffffffffffffffffffffffffffffffffffff1673ffffffffffffffffffffffffffffffffffffffff1681526020016001820180546112239061321d565b80601f016020809104026020016040519081016040528092919081815260200182805461124f9061321d565b801561129c5780601f106112715761010080835404028352916020019161129c565b820191906000526020600020905b81548152906001019060200180831161127f57829003601f168201915b5050505050815250508152602001906001019061119a565b505050508152505090506000816020015151036113075760006112d78888611e01565b91505060008054906101000a900473ffffffffffffffffffffffffffffffffffffffff168195509550505061134c565b60008160200151600183602001515161132091906133b4565b8151811061133157611330613004565b5b60200260200101519050806000015181602001519550955050505b50509250929050565b60008054906101000a900473ffffffffffffffffffffffffffffffffffffffff1681565b600061088560009054906101000a900460ff16905090565b6000806000905060006113a2611def565b905060006113ae611df8565b905060005b8181101561159a5760005b838110156115865760006001600084815260200190815260200160002060008381526020019081526020016000206040518060400160405290816000820154815260200160018201805480602002602001604051908101604052809291908181526020016000905b8282101561154057838290600052602060002090600202016040518060400160405290816000820160009054906101000a900473ffffffffffffffffffffffffffffffffffffffff1673ffffffffffffffffffffffffffffffffffffffff1673ffffffffffffffffffffffffffffffffffffffff1681526020016001820180546114af9061321d565b80601f01602080910402602001604051908101604052809291908181526020018280546114db9061321d565b80156115285780601f106114fd57610100808354040283529160200191611528565b820191906000526020600020905b81548152906001019060200180831161150b57829003601f168201915b50505050508152505081526020019060010190611426565b505050508152505090506000816020015151826000015161156191906133e8565b9050808761156f9190613442565b96505050808061157e90613062565b9150506113be565b50808061159290613062565b9150506113b3565b5082935050505090565b6000606060006115b2611379565b6115f1576040517f08c379a00000000000000000000000000000000000000000000000000000000081526004016115e890612fe4565b60405180910390fd5b84846115fb611def565b821061163c576040517f08c379a0000000000000000000000000000000000000000000000000000000008152600401611633906130f6565b60405180910390fd5b611644611df8565b8110611685576040517f08c379a000000000000000000000000000000000000000000000000000000000815260040161167c90613162565b60405180910390fd5b60006001600088815260200190815260200160002060008981526020019081526020016000206040518060400160405290816000820154815260200160018201805480602002602001604051908101604052809291908181526020016000905b828210156117ff57838290600052602060002090600202016040518060400160405290816000820160009054906101000a900473ffffffffffffffffffffffffffffffffffffffff1673ffffffffffffffffffffffffffffffffffffffff1673ffffffffffffffffffffffffffffffffffffffff16815260200160018201805461176e9061321d565b80601f016020809104026020016040519081016040528092919081815260200182805461179a9061321d565b80156117e75780601f106117bc576101008083540402835291602001916117e7565b820191906000526020600020905b8154815290600101906020018083116117ca57829003601f168201915b505050505081525050815260200190600101906116e5565b50505050815250509050600081602001515103611847576000806118238a8a611e01565b91509150620f42408261183691906133e8565b81600097509750975050505061188e565b80600001518160200151600183602001515161186391906133b4565b8151811061187457611873613004565b5b602002602001015160200151826020015151955095509550505b50509250925092565b600382602181106118a757600080fd5b6021020181602181106118b957600080fd5b01600091509150505481565b6118cd611379565b61190c576040517f08c379a000000000000000000000000000000000000000000000000000000000815260040161190390612fe4565b60405180910390fd5b8383611916611def565b8210611957576040517f08c379a000000000000000000000000000000000000000000000000000000000815260040161194e906130f6565b60405180910390fd5b61195f611df8565b81106119a0576040517f08c379a000000000000000000000000000000000000000000000000000000000815260040161199790613162565b60405180910390fd5b600a8411156119e4576040517f08c379a00000000000000000000000000000000000000000000000000000000081526004016119db9061350a565b60405180910390fd5b6119ee8686611f7a565b6000633b9aca0060016000888152602001908152602001600020600089815260200190815260200160002060000154611a2791906133e8565b9050600060016000888152602001908152602001600020600089815260200190815260200160002060010180549050905060006002600188846002611a6c91906133e8565b611a769190613442565b611a8091906133b4565b88611a8b91906133e8565b611a959190613559565b905060008184611aa591906133e8565b9050803414611ae9576040517f08c379a0000000000000000000000000000000000000000000000000000000008152600401611ae0906135d6565b60405180910390fd5b60005b83811015611bcd576000600160008c815260200190815260200160002060008d81526020019081526020016000206001018281548110611b2f57611b2e613004565b5b906000526020600020906002020160000160009054906101000a900473ffffffffffffffffffffffffffffffffffffffff16905085600260008373ffffffffffffffffffffffffffffffffffffffff1673ffffffffffffffffffffffffffffffffffffffff1681526020019081526020016000206000828254611bb29190613442565b92505081905550508080611bc590613062565b915050611aec565b50611bd88a8a612133565b60005b88811015611cd757600160008b815260200190815260200160002060008c815260200190815260200160002060010160405180604001604052803373ffffffffffffffffffffffffffffffffffffffff1681526020018a815250908060018154018082558091505060019003906000526020600020906002020160009091909190915060008201518160000160006101000a81548173ffffffffffffffffffffffffffffffffffffffff021916908373ffffffffffffffffffffffffffffffffffffffff1602179055506020820151816001019080519060200190611cc1929190612304565b5050508080611ccf90613062565b915050611bdb565b503373ffffffffffffffffffffffffffffffffffffffff167fe658510eab96e65991bb68ee771137bf387eaa3dc4a16189ea0f525766e76b2a8b8b8b8b604051611d2494939291906135f6565b60405180910390a250505050505050505050565b6104448260218110611d4957600080fd5b602102018160218110611d5b57600080fd5b01600091509150508054611d6e9061321d565b80601f0160208091040260200160405190810160405280929190818152602001828054611d9a9061321d565b8015611de75780601f10611dbc57610100808354040283529160200191611de7565b820191906000526020600020905b815481529060010190602001808311611dca57829003601f168201915b505050505081565b60006021905090565b60006012905090565b6000606060218410611e48576040517f08c379a0000000000000000000000000000000000000000000000000000000008152600401611e3f9061368e565b60405180910390fd5b60128310611e8b576040517f08c379a0000000000000000000000000000000000000000000000000000000008152600401611e82906136fa565b60405180910390fd5b60038360218110611e9f57611e9e613004565b5b602102018460218110611eb557611eb4613004565b5b01546104448460218110611ecc57611ecb613004565b5b602102018560218110611ee257611ee1613004565b5b01808054611eef9061321d565b80601f0160208091040260200160405190810160405280929190818152602001828054611f1b9061321d565b8015611f685780601f10611f3d57610100808354040283529160200191611f68565b820191906000526020600020905b815481529060010190602001808311611f4b57829003601f168201915b50505050509050915091509250929050565b600060016000838152602001908152602001600020600084815260200190815260200160002060000154148015611fdb5750600060016000838152602001908152602001600020600084815260200190815260200160002060010180549050145b1561212f57600080611fed8484611e01565b91509150620f42408261200091906133e8565b60016000858152602001908152602001600020600086815260200190815260200160002060000181905550600160008481526020019081526020016000206000858152602001908152602001600020600101604051806040016040528060008054906101000a900473ffffffffffffffffffffffffffffffffffffffff1673ffffffffffffffffffffffffffffffffffffffff16815260200183815250908060018154018082558091505060019003906000526020600020906002020160009091909190915060008201518160000160006101000a81548173ffffffffffffffffffffffffffffffffffffffff021916908373ffffffffffffffffffffffffffffffffffffffff1602179055506020820151816001019080519060200190612129929190612304565b50505050505b5050565b60005b600160008381526020019081526020016000206000848152602001908152602001600020600101805490508110156122ff57600060016000848152602001908152602001600020600085815260200190815260200160002060010182815481106121a3576121a2613004565b5b906000526020600020906002020160000160009054906101000a900473ffffffffffffffffffffffffffffffffffffffff1690506000600260008373ffffffffffffffffffffffffffffffffffffffff1673ffffffffffffffffffffffffffffffffffffffff1681526020019081526020016000205411156122eb578073ffffffffffffffffffffffffffffffffffffffff166108fc600260008473ffffffffffffffffffffffffffffffffffffffff1673ffffffffffffffffffffffffffffffffffffffff168152602001908152602001600020549081150290604051600060405180830381858888f193505050501580156122a4573d6000803e3d6000fd5b506000600260008373ffffffffffffffffffffffffffffffffffffffff1673ffffffffffffffffffffffffffffffffffffffff168152602001908152602001600020819055505b5080806122f790613062565b915050612136565b505050565b8280546123109061321d565b90600052602060002090601f0160209004810192826123325760008555612379565b82601f1061234b57805160ff1916838001178555612379565b82800160010185558215612379579182015b8281111561237857825182559160200191906001019061235d565b5b50905061238691906123d4565b5090565b604051806040016040528060008152602001606081525090565b6040518060400160405280600073ffffffffffffffffffffffffffffffffffffffff168152602001606081525090565b5b808211156123ed5760008160009055506001016123d5565b5090565b600081519050919050565b600082825260208201905092915050565b6000819050602082019050919050565b600081519050919050565b600082825260208201905092915050565b6000819050602082019050919050565b600073ffffffffffffffffffffffffffffffffffffffff82169050919050565b600061247482612449565b9050919050565b61248481612469565b82525050565b6000612496838361247b565b60208301905092915050565b6000602082019050919050565b60006124ba8261241d565b6124c48185612428565b93506124cf83612439565b8060005b838110156125005781516124e7888261248a565b97506124f2836124a2565b9250506001810190506124d3565b5085935050505092915050565b600061251983836124af565b905092915050565b6000602082019050919050565b6000612539826123f1565b61254381856123fc565b9350836020820285016125558561240d565b8060005b858110156125915784840389528151612572858261250d565b945061257d83612521565b925060208a01995050600181019050612559565b50829750879550505050505092915050565b600081519050919050565b600082825260208201905092915050565b6000819050602082019050919050565b600081519050919050565b600082825260208201905092915050565b6000819050602082019050919050565b600081519050919050565b600082825260208201905092915050565b60005b8381101561263557808201518184015260208101905061261a565b83811115612644576000848401525b50505050565b6000601f19601f8301169050919050565b6000612666826125fb565b6126708185612606565b9350612680818560208601612617565b6126898161264a565b840191505092915050565b60006126a0838361265b565b905092915050565b6000602082019050919050565b60006126c0826125cf565b6126ca81856125da565b9350836020820285016126dc856125eb565b8060005b8581101561271857848403895281516126f98582612694565b9450612704836126a8565b925060208a019950506001810190506126e0565b50829750879550505050505092915050565b600061273683836126b5565b905092915050565b6000602082019050919050565b6000612756826125a3565b61276081856125ae565b935083602082028501612772856125bf565b8060005b858110156127ae578484038952815161278f858261272a565b945061279a8361273e565b925060208a01995050600181019050612776565b50829750879550505050505092915050565b600060408201905081810360008301526127da818561252e565b905081810360208301526127ee818461274b565b90509392505050565b6000604051905090565b600080fd5b600080fd5b6000819050919050565b61281e8161280b565b811461282957600080fd5b50565b60008135905061283b81612815565b92915050565b600080fd5b600080fd5b7f4e487b7100000000000000000000000000000000000000000000000000000000600052604160045260246000fd5b6128838261264a565b810181811067ffffffffffffffff821117156128a2576128a161284b565b5b80604052505050565b60006128b56127f7565b90506128c1828261287a565b919050565b600067ffffffffffffffff8211156128e1576128e061284b565b5b6128ea8261264a565b9050602081019050919050565b82818337600083830152505050565b6000612919612914846128c6565b6128ab565b90508281526020810184848401111561293557612934612846565b5b6129408482856128f7565b509392505050565b600082601f83011261295d5761295c612841565b5b813561296d848260208601612906565b91505092915050565b60008060006060848603121561298f5761298e612801565b5b600061299d8682870161282c565b93505060206129ae8682870161282c565b925050604084013567ffffffffffffffff8111156129cf576129ce612806565b5b6129db86828701612948565b9150509250925092565b6129ee8161280b565b82525050565b6000602082019050612a0960008301846129e5565b92915050565b60008060408385031215612a2657612a25612801565b5b6000612a348582860161282c565b9250506020612a458582860161282c565b9150509250929050565b60008060008060808587031215612a6957612a68612801565b5b6000612a778782880161282c565b9450506020612a888782880161282c565b9350506040612a998782880161282c565b925050606085013567ffffffffffffffff811115612aba57612ab9612806565b5b612ac687828801612948565b91505092959194509250565b600081519050919050565b600082825260208201905092915050565b6000819050602082019050919050565b600081519050919050565b600082825260208201905092915050565b6000819050602082019050919050565b612b338161280b565b82525050565b600081519050919050565b600082825260208201905092915050565b6000819050602082019050919050565b6000604083016000830151612b7d600086018261247b565b5060208301518482036020860152612b95828261265b565b9150508091505092915050565b6000612bae8383612b65565b905092915050565b6000602082019050919050565b6000612bce82612b39565b612bd88185612b44565b935083602082028501612bea85612b55565b8060005b85811015612c265784840389528151612c078582612ba2565b9450612c1283612bb6565b925060208a01995050600181019050612bee565b50829750879550505050505092915050565b6000604083016000830151612c506000860182612b2a565b5060208301518482036020860152612c688282612bc3565b9150508091505092915050565b6000612c818383612c38565b905092915050565b6000602082019050919050565b6000612ca182612afe565b612cab8185612b09565b935083602082028501612cbd85612b1a565b8060005b85811015612cf95784840389528151612cda8582612c75565b9450612ce583612c89565b925060208a01995050600181019050612cc1565b50829750879550505050505092915050565b6000612d178383612c96565b905092915050565b6000602082019050919050565b6000612d3782612ad2565b612d418185612add565b935083602082028501612d5385612aee565b8060005b85811015612d8f5784840389528151612d708582612d0b565b9450612d7b83612d1f565b925060208a01995050600181019050612d57565b50829750879550505050505092915050565b60006020820190508181036000830152612dbb8184612d2c565b905092915050565b6000819050919050565b6000612de8612de3612dde84612449565b612dc3565b612449565b9050919050565b6000612dfa82612dcd565b9050919050565b6000612e0c82612def565b9050919050565b612e1c81612e01565b82525050565b6000602082019050612e376000830184612e13565b92915050565b60008115159050919050565b612e5281612e3d565b82525050565b6000602082019050612e6d6000830184612e49565b92915050565b612e7c81612469565b82525050565b600082825260208201905092915050565b6000612e9e826125fb565b612ea88185612e82565b9350612eb8818560208601612617565b612ec18161264a565b840191505092915050565b6000604082019050612ee16000830185612e73565b8181036020830152612ef38184612e93565b90509392505050565b6000612f0782612449565b9050919050565b612f1781612efc565b82525050565b6000602082019050612f326000830184612f0e565b92915050565b6000606082019050612f4d60008301866129e5565b8181036020830152612f5f8185612e93565b9050612f6e60408301846129e5565b949350505050565b60006020820190508181036000830152612f908184612e93565b905092915050565b7f436f6e7472616374206973206e6f7420656e61626c6564000000000000000000600082015250565b6000612fce601783612e82565b9150612fd982612f98565b602082019050919050565b60006020820190508181036000830152612ffd81612fc1565b9050919050565b7f4e487b7100000000000000000000000000000000000000000000000000000000600052603260045260246000fd5b7f4e487b7100000000000000000000000000000000000000000000000000000000600052601160045260246000fd5b600061306d8261280b565b91507fffffffffffffffffffffffffffffffffffffffffffffffffffffffffffffffff820361309f5761309e613033565b5b600182019050919050565b7f496e76616c6964207820636f6f7264696e617465000000000000000000000000600082015250565b60006130e0601483612e82565b91506130eb826130aa565b602082019050919050565b6000602082019050818103600083015261310f816130d3565b9050919050565b7f496e76616c6964207920636f6f7264696e617465000000000000000000000000600082015250565b600061314c601483612e82565b915061315782613116565b602082019050919050565b6000602082019050818103600083015261317b8161313f565b9050919050565b7f4e6f7420746865206f776e6572206f662074686973206c617965720000000000600082015250565b60006131b8601b83612e82565b91506131c382613182565b602082019050919050565b600060208201905081810360008301526131e7816131ab565b9050919050565b7f4e487b7100000000000000000000000000000000000000000000000000000000600052602260045260246000fd5b6000600282049050600182168061323557607f821691505b602082108103613248576132476131ee565b5b50919050565b7f4f6e6c7920746865206f776e65722063616e2063616c6c20746869732066756e60008201527f6374696f6e000000000000000000000000000000000000000000000000000000602082015250565b60006132aa602583612e82565b91506132b58261324e565b604082019050919050565b600060208201905081810360008301526132d98161329d565b9050919050565b6000815190506132ef81612815565b92915050565b60006020828403121561330b5761330a612801565b5b6000613319848285016132e0565b91505092915050565b7f4e6f7420656e6f75676820746f74616c2076616c756520696e2053746167652060008201527f3100000000000000000000000000000000000000000000000000000000000000602082015250565b600061337e602183612e82565b915061338982613322565b604082019050919050565b600060208201905081810360008301526133ad81613371565b9050919050565b60006133bf8261280b565b91506133ca8361280b565b9250828210156133dd576133dc613033565b5b828203905092915050565b60006133f38261280b565b91506133fe8361280b565b9250817fffffffffffffffffffffffffffffffffffffffffffffffffffffffffffffffff048311821515161561343757613436613033565b5b828202905092915050565b600061344d8261280b565b91506134588361280b565b9250827fffffffffffffffffffffffffffffffffffffffffffffffffffffffffffffffff0382111561348d5761348c613033565b5b828201905092915050565b7f43616e6e6f7420627579206d6f7265207468616e203130206c6179657273206160008201527f74206f6e63650000000000000000000000000000000000000000000000000000602082015250565b60006134f4602683612e82565b91506134ff82613498565b604082019050919050565b60006020820190508181036000830152613523816134e7565b9050919050565b7f4e487b7100000000000000000000000000000000000000000000000000000000600052601260045260246000fd5b60006135648261280b565b915061356f8361280b565b92508261357f5761357e61352a565b5b828204905092915050565b7f496e636f727265637420504f4c2073656e740000000000000000000000000000600082015250565b60006135c0601283612e82565b91506135cb8261358a565b602082019050919050565b600060208201905081810360008301526135ef816135b3565b9050919050565b600060808201905061360b60008301876129e5565b61361860208301866129e5565b61362560408301856129e5565b81810360608301526136378184612e93565b905095945050505050565b7f496e76616c696420782d636f6f7264696e617465000000000000000000000000600082015250565b6000613678601483612e82565b915061368382613642565b602082019050919050565b600060208201905081810360008301526136a78161366b565b9050919050565b7f496e76616c696420792d636f6f7264696e617465000000000000000000000000600082015250565b60006136e4601483612e82565b91506136ef826136ae565b602082019050919050565b60006020820190508181036000830152613713816136d7565b905091905056fea26469706673582212208d7ae860a31caf82e8049856be0e6dbf810ce402c84c3dd6bd7cc15d8896faf164736f6c634300080d0033",
  "immutableReferences": {},
  "source": "// SPDX-License-Identifier: MIT\npragma solidity >=0.4.22 <0.9.0;\n\nimport \"./BaseContract.sol\";\nimport \"./DataStorage2.sol\";\n\ncontract Pixelflux2 is BaseContract, DataStorage2 {\n    bool public isEnabled = false;\n    BaseContract public baseContract;\n\n    event ContractEnabled();\n\n    function isContractEnabled() public override view returns(bool) {\n        return isEnabled;\n    }\n\n    constructor(address _baseContractAddress) {\n        baseContract = BaseContract(_baseContractAddress);\n    }\n\n    function enableContract() public onlyOwner {\n        uint256 totalValue = baseContract.calculateTotalValue();\n        require(totalValue >= 3200 * 10**9, \"Not enough total value in Stage 1\");\n        isEnabled = true;\n        emit ContractEnabled();\n    }\n\n    function getInitialValue(uint x, uint y) internal override view returns (uint256, string memory) {\n        require(x < gridWidth, \"Invalid x-coordinate\");\n        require(y < gridHeight, \"Invalid y-coordinate\");\n        return (initialValues[y][x], colorValues[y][x]);\n    }\n    function getGridWidth() internal override pure returns (uint256) {\n        return gridWidth;\n    }\n\n    function getGridHeight() internal override pure returns (uint256) {\n        return gridHeight;\n    }\n}\n",
  "sourcePath": "/home/wao/Meteor/Workspace/Sao/polygon/contracts/Pixelflux2.sol",
  "compiler": {
    "name": "solc",
    "version": "0.8.13+commit.abaa5c0e.Emscripten.clang"
  },
  "schemaVersion": "3.4.16",
  "updatedAt": "2023-09-29T15:51:57.767Z",
  "networkType": "ethereum",
  "devdoc": {
    "kind": "dev",
    "methods": {},
    "version": 1
  },
  "userdoc": {
    "kind": "user",
    "methods": {},
    "version": 1
  }
}