{
  "contractName": "Pixelflux3",
  "abi": [
    {
      "inputs": [
        {
          "internalType": "address",
          "name": "_baseContractAddress1",
          "type": "address"
        },
        {
          "internalType": "address",
          "name": "_baseContractAddress2",
          "type": "address"
        }
      ],
      "stateMutability": "nonpayable",
      "type": "constructor"
    },
    {
      "anonymous": false,
      "inputs": [],
      "name": "ContractEnabled",
      "type": "event"
    },
    {
      "anonymous": false,
      "inputs": [
        {
          "indexed": true,
          "internalType": "address",
          "name": "buyer",
          "type": "address"
        },
        {
          "indexed": false,
          "internalType": "uint256",
          "name": "x",
          "type": "uint256"
        },
        {
          "indexed": false,
          "internalType": "uint256",
          "name": "y",
          "type": "uint256"
        },
        {
          "indexed": false,
          "internalType": "uint256",
          "name": "numLayers",
          "type": "uint256"
        },
        {
          "indexed": false,
          "internalType": "string",
          "name": "color",
          "type": "string"
        }
      ],
      "name": "LayerPurchased",
      "type": "event"
    },
    {
      "inputs": [],
      "name": "baseContract1",
      "outputs": [
        {
          "internalType": "contract BaseContract",
          "name": "",
          "type": "address"
        }
      ],
      "stateMutability": "view",
      "type": "function",
      "constant": true
    },
    {
      "inputs": [],
      "name": "baseContract2",
      "outputs": [
        {
          "internalType": "contract BaseContract",
          "name": "",
          "type": "address"
        }
      ],
      "stateMutability": "view",
      "type": "function",
      "constant": true
    },
    {
      "inputs": [
        {
          "internalType": "uint256",
          "name": "x",
          "type": "uint256"
        },
        {
          "internalType": "uint256",
          "name": "y",
          "type": "uint256"
        },
        {
          "internalType": "string",
          "name": "color",
          "type": "string"
        }
      ],
      "name": "buyLayer",
      "outputs": [],
      "stateMutability": "payable",
      "type": "function",
      "payable": true
    },
    {
      "inputs": [
        {
          "internalType": "uint256",
          "name": "x",
          "type": "uint256"
        },
        {
          "internalType": "uint256",
          "name": "y",
          "type": "uint256"
        },
        {
          "internalType": "uint256",
          "name": "numLayersToAdd",
          "type": "uint256"
        },
        {
          "internalType": "string",
          "name": "color",
          "type": "string"
        }
      ],
      "name": "buyMultipleLayers",
      "outputs": [],
      "stateMutability": "payable",
      "type": "function",
      "payable": true
    },
    {
      "inputs": [],
      "name": "calculateTotalValue",
      "outputs": [
        {
          "internalType": "uint256",
          "name": "",
          "type": "uint256"
        }
      ],
      "stateMutability": "view",
      "type": "function",
      "constant": true
    },
    {
      "inputs": [
        {
          "internalType": "uint256",
          "name": "",
          "type": "uint256"
        },
        {
          "internalType": "uint256",
          "name": "",
          "type": "uint256"
        }
      ],
      "name": "colorValues",
      "outputs": [
        {
          "internalType": "string",
          "name": "",
          "type": "string"
        }
      ],
      "stateMutability": "view",
      "type": "function",
      "constant": true
    },
    {
      "inputs": [],
      "name": "getAllCellStates",
      "outputs": [
        {
          "components": [
            {
              "internalType": "uint256",
              "name": "baseValue",
              "type": "uint256"
            },
            {
              "components": [
                {
                  "internalType": "address payable",
                  "name": "owner",
                  "type": "address"
                },
                {
                  "internalType": "string",
                  "name": "color",
                  "type": "string"
                }
              ],
              "internalType": "struct BaseContract.Layer[]",
              "name": "layers",
              "type": "tuple[]"
            }
          ],
          "internalType": "struct BaseContract.Cell[][]",
          "name": "",
          "type": "tuple[][]"
        }
      ],
      "stateMutability": "view",
      "type": "function",
      "constant": true
    },
    {
      "inputs": [],
      "name": "getAllTopLayers",
      "outputs": [
        {
          "internalType": "address payable[][]",
          "name": "",
          "type": "address[][]"
        },
        {
          "internalType": "string[][]",
          "name": "",
          "type": "string[][]"
        }
      ],
      "stateMutability": "view",
      "type": "function",
      "constant": true
    },
    {
      "inputs": [
        {
          "internalType": "uint256",
          "name": "x",
          "type": "uint256"
        },
        {
          "internalType": "uint256",
          "name": "y",
          "type": "uint256"
        }
      ],
      "name": "getCellState",
      "outputs": [
        {
          "internalType": "uint256",
          "name": "",
          "type": "uint256"
        },
        {
          "internalType": "string",
          "name": "",
          "type": "string"
        },
        {
          "internalType": "uint256",
          "name": "",
          "type": "uint256"
        }
      ],
      "stateMutability": "view",
      "type": "function",
      "constant": true
    },
    {
      "inputs": [
        {
          "internalType": "uint256",
          "name": "x",
          "type": "uint256"
        },
        {
          "internalType": "uint256",
          "name": "y",
          "type": "uint256"
        }
      ],
      "name": "getTopLayerOfCell",
      "outputs": [
        {
          "internalType": "address payable",
          "name": "",
          "type": "address"
        },
        {
          "internalType": "string",
          "name": "",
          "type": "string"
        }
      ],
      "stateMutability": "view",
      "type": "function",
      "constant": true
    },
    {
      "inputs": [
        {
          "internalType": "uint256",
          "name": "",
          "type": "uint256"
        },
        {
          "internalType": "uint256",
          "name": "",
          "type": "uint256"
        }
      ],
      "name": "grid",
      "outputs": [
        {
          "internalType": "uint256",
          "name": "baseValue",
          "type": "uint256"
        }
      ],
      "stateMutability": "view",
      "type": "function",
      "constant": true
    },
    {
      "inputs": [],
      "name": "gridHeight",
      "outputs": [
        {
          "internalType": "uint256",
          "name": "",
          "type": "uint256"
        }
      ],
      "stateMutability": "view",
      "type": "function",
      "constant": true
    },
    {
      "inputs": [],
      "name": "gridWidth",
      "outputs": [
        {
          "internalType": "uint256",
          "name": "",
          "type": "uint256"
        }
      ],
      "stateMutability": "view",
      "type": "function",
      "constant": true
    },
    {
      "inputs": [
        {
          "internalType": "uint256",
          "name": "",
          "type": "uint256"
        },
        {
          "internalType": "uint256",
          "name": "",
          "type": "uint256"
        }
      ],
      "name": "initialValues",
      "outputs": [
        {
          "internalType": "uint256",
          "name": "",
          "type": "uint256"
        }
      ],
      "stateMutability": "view",
      "type": "function",
      "constant": true
    },
    {
      "inputs": [],
      "name": "isEnabled",
      "outputs": [
        {
          "internalType": "bool",
          "name": "",
          "type": "bool"
        }
      ],
      "stateMutability": "view",
      "type": "function",
      "constant": true
    },
    {
      "inputs": [],
      "name": "owner",
      "outputs": [
        {
          "internalType": "address",
          "name": "",
          "type": "address"
        }
      ],
      "stateMutability": "view",
      "type": "function",
      "constant": true
    },
    {
      "inputs": [
        {
          "internalType": "uint256",
          "name": "x",
          "type": "uint256"
        },
        {
          "internalType": "uint256",
          "name": "y",
          "type": "uint256"
        },
        {
          "internalType": "uint256",
          "name": "layerIndex",
          "type": "uint256"
        },
        {
          "internalType": "string",
          "name": "newColor",
          "type": "string"
        }
      ],
      "name": "setLayerColor",
      "outputs": [],
      "stateMutability": "nonpayable",
      "type": "function"
    },
    {
      "inputs": [],
      "name": "withdrawFunds",
      "outputs": [],
      "stateMutability": "nonpayable",
      "type": "function"
    },
    {
      "inputs": [],
      "name": "isContractEnabled",
      "outputs": [
        {
          "internalType": "bool",
          "name": "",
          "type": "bool"
        }
      ],
      "stateMutability": "view",
      "type": "function",
      "constant": true
    },
    {
      "inputs": [],
      "name": "enableContract",
      "outputs": [],
      "stateMutability": "nonpayable",
      "type": "function"
    }
  ],
  "bytecode": "0x60806040526040518061022001604052806040518061042001604052806040518060200160405280600081525081526020016040518060200160405280600081525081526020016040518060200160405280600081525081526020016040518060200160405280600081525081526020016040518060200160405280600081525081526020016040518060200160405280600081525081526020016040518060200160405280600081525081526020016040518060200160405280600081525081526020016040518060200160405280600081525081526020016040518060200160405280600081525081526020016040518060200160405280600081525081526020016040518060200160405280600081525081526020016040518060200160405280600081525081526020016040518060200160405280600081525081526020016040518060200160405280600081525081526020016040518060200160405280600081525081526020016040518060200160405280600081525081526020016040518060200160405280600081525081526020016040518060200160405280600081525081526020016040518060200160405280600081525081526020016040518060200160405280600081525081526020016040518060200160405280600081525081526020016040518060200160405280600081525081526020016040518060200160405280600081525081526020016040518060200160405280600081525081526020016040518060200160405280600081525081526020016040518060200160405280600081525081526020016040518060200160405280600081525081526020016040518060200160405280600081525081526020016040518060200160405280600081525081526020016040518060200160405280600081525081526020016040518060200160405280600081525081526020016040518060200160405280600081525081525081526020016040518061042001604052806040518060200160405280600081525081526020016040518060200160405280600081525081526020016040518060200160405280600081525081526020016040518060200160405280600081525081526020016040518060200160405280600081525081526020016040518060200160405280600081525081526020016040518060200160405280600081525081526020016040518060200160405280600081525081526020016040518060200160405280600081525081526020016040518060200160405280600081525081526020016040518060200160405280600081525081526020016040518060200160405280600081525081526020016040518060200160405280600081525081526020016040518060200160405280600081525081526020016040518060200160405280600081525081526020016040518060200160405280600081525081526020016040518060200160405280600081525081526020016040518060200160405280600081525081526020016040518060200160405280600081525081526020016040518060200160405280600081525081526020016040518060200160405280600081525081526020016040518060200160405280600081525081526020016040518060200160405280600081525081526020016040518060200160405280600081525081526020016040518060200160405280600081525081526020016040518060200160405280600081525081526020016040518060200160405280600081525081526020016040518060200160405280600081525081526020016040518060200160405280600081525081526020016040518060400160405280600781526020017f233962363565350000000000000000000000000000000000000000000000000081525081526020016040518060400160405280600781526020017f233939363265350000000000000000000000000000000000000000000000000081525081526020016040518060200160405280600081525081526020016040518060200160405280600081525081525081526020016040518061042001604052806040518060200160405280600081525081526020016040518060200160405280600081525081526020016040518060200160405280600081525081526020016040518060200160405280600081525081526020016040518060200160405280600081525081526020016040518060200160405280600081525081526020016040518060200160405280600081525081526020016040518060200160405280600081525081526020016040518060200160405280600081525081526020016040518060200160405280600081525081526020016040518060200160405280600081525081526020016040518060200160405280600081525081526020016040518060200160405280600081525081526020016040518060200160405280600081525081526020016040518060200160405280600081525081526020016040518060400160405280600781526020017f236235386465630000000000000000000000000000000000000000000000000081525081526020016040518060400160405280600781526020017f236233386165620000000000000000000000000000000000000000000000000081525081526020016040518060400160405280600781526020017f236231383765620000000000000000000000000000000000000000000000000081525081526020016040518060400160405280600781526020017f236166383465610000000000000000000000000000000000000000000000000081525081526020016040518060400160405280600781526020017f236164383065610000000000000000000000000000000000000000000000000081525081526020016040518060200160405280600081525081526020016040518060200160405280600081525081526020016040518060200160405280600081525081526020016040518060200160405280600081525081526020016040518060200160405280600081525081526020016040518060200160405280600081525081526020016040518060200160405280600081525081526020016040518060200160405280600081525081526020016040518060400160405280600781526020017f233962363665360000000000000000000000000000000000000000000000000081525081526020016040518060400160405280600781526020017f233939363265350000000000000000000000000000000000000000000000000081525081526020016040518060400160405280600781526020017f233938363065350000000000000000000000000000000000000000000000000081525081526020016040518060200160405280600081525081526020016040518060200160405280600081525081525081526020016040518061042001604052806040518060200160405280600081525081526020016040518060200160405280600081525081526020016040518060200160405280600081525081526020016040518060200160405280600081525081526020016040518060200160405280600081525081526020016040518060400160405280600781526020017f236337613866300000000000000000000000000000000000000000000000000081525081526020016040518060400160405280600781526020017f236335613566300000000000000000000000000000000000000000000000000081525081526020016040518060400160405280600781526020017f236333613265660000000000000000000000000000000000000000000000000081525081526020016040518060400160405280600781526020017f236331396665660000000000000000000000000000000000000000000000000081525081526020016040518060200160405280600081525081526020016040518060200160405280600081525081526020016040518060200160405280600081525081526020016040518060200160405280600081525081526020016040518060200160405280600081525081526020016040518060400160405280600781526020017f236235386565630000000000000000000000000000000000000000000000000081525081526020016040518060200160405280600081525081526020016040518060400160405280600781526020017f236231383765620000000000000000000000000000000000000000000000000081525081526020016040518060200160405280600081525081526020016040518060200160405280600081525081526020016040518060200160405280600081525081526020016040518060400160405280600781526020017f236161376365390000000000000000000000000000000000000000000000000081525081526020016040518060200160405280600081525081526020016040518060200160405280600081525081526020016040518060200160405280600081525081526020016040518060400160405280600781526020017f236132373065370000000000000000000000000000000000000000000000000081525081526020016040518060400160405280600781526020017f236130366365370000000000000000000000000000000000000000000000000081525081526020016040518060400160405280600781526020017f233965366165360000000000000000000000000000000000000000000000000081525081526020016040518060200160405280600081525081526020016040518060400160405280600781526020017f233961363465350000000000000000000000000000000000000000000000000081525081526020016040518060200160405280600081525081526020016040518060400160405280600781526020017f233936356565340000000000000000000000000000000000000000000000000081525081526020016040518060200160405280600081525081526020016040518060200160405280600081525081525081526020016040518061042001604052806040518060200160405280600081525081526020016040518060200160405280600081525081526020016040518060200160405280600081525081526020016040518060200160405280600081525081526020016040518060400160405280600781526020017f236337613966310000000000000000000000000000000000000000000000000081525081526020016040518060400160405280600781526020017f236335613666300000000000000000000000000000000000000000000000000081525081526020016040518060400160405280600781526020017f236333613366300000000000000000000000000000000000000000000000000081525081526020016040518060400160405280600781526020017f236331613065660000000000000000000000000000000000000000000000000081525081526020016040518060400160405280600781526020017f236330396565660000000000000000000000000000000000000000000000000081525081526020016040518060400160405280600781526020017f236265396265650000000000000000000000000000000000000000000000000081525081526020016040518060200160405280600081525081526020016040518060200160405280600081525081526020016040518060200160405280600081525081526020016040518060400160405280600781526020017f236236386565630000000000000000000000000000000000000000000000000081525081526020016040518060200160405280600081525081526020016040518060400160405280600781526020017f236232383965620000000000000000000000000000000000000000000000000081525081526020016040518060200160405280600081525081526020016040518060400160405280600781526020017f236165383365610000000000000000000000000000000000000000000000000081525081526020016040518060400160405280600781526020017f236163383065610000000000000000000000000000000000000000000000000081525081526020016040518060200160405280600081525081526020016040518060200160405280600081525081526020016040518060400160405280600781526020017f236136373665380000000000000000000000000000000000000000000000000081525081526020016040518060400160405280600781526020017f236135373465380000000000000000000000000000000000000000000000000081525081526020016040518060400160405280600781526020017f236133373165370000000000000000000000000000000000000000000000000081525081526020016040518060400160405280600781526020017f236131366565370000000000000000000000000000000000000000000000000081525081526020016040518060400160405280600781526020017f233966366265360000000000000000000000000000000000000000000000000081525081526020016040518060400160405280600781526020017f233964363865360000000000000000000000000000000000000000000000000081525081526020016040518060200160405280600081525081526020016040518060400160405280600781526020017f233939363265350000000000000000000000000000000000000000000000000081525081526020016040518060200160405280600081525081526020016040518060400160405280600781526020017f233935356365340000000000000000000000000000000000000000000000000081525081526020016040518060200160405280600081525081526020016040518060200160405280600081525081525081526020016040518061042001604052806040518060200160405280600081525081526020016040518060200160405280600081525081526020016040518060400160405280600781526020017f236361616466310000000000000000000000000000000000000000000000000081525081526020016040518060400160405280600781526020017f236338616166310000000000000000000000000000000000000000000000000081525081526020016040518060400160405280600781526020017f236336613866300000000000000000000000000000000000000000000000000081525081526020016040518060200160405280600081525081526020016040518060200160405280600081525081526020016040518060200160405280600081525081526020016040518060200160405280600081525081526020016040518060200160405280600081525081526020016040518060400160405280600781526020017f236261393565640000000000000000000000000000000000000000000000000081525081526020016040518060200160405280600081525081526020016040518060400160405280600781526020017f236237393065630000000000000000000000000000000000000000000000000081525081526020016040518060200160405280600081525081526020016040518060400160405280600781526020017f236233386165620000000000000000000000000000000000000000000000000081525081526020016040518060200160405280600081525081526020016040518060400160405280600781526020017f236166383465610000000000000000000000000000000000000000000000000081525081526020016040518060200160405280600081525081526020016040518060200160405280600081525081526020016040518060400160405280600781526020017f236139376265390000000000000000000000000000000000000000000000000081525081526020016040518060200160405280600081525081526020016040518060400160405280600781526020017f236135373565380000000000000000000000000000000000000000000000000081525081526020016040518060400160405280600781526020017f236133373265380000000000000000000000000000000000000000000000000081525081526020016040518060200160405280600081525081526020016040518060400160405280600781526020017f233966366365370000000000000000000000000000000000000000000000000081525081526020016040518060200160405280600081525081526020016040518060400160405280600781526020017f233963363665360000000000000000000000000000000000000000000000000081525081526020016040518060200160405280600081525081526020016040518060400160405280600781526020017f233938363065350000000000000000000000000000000000000000000000000081525081526020016040518060200160405280600081525081526020016040518060400160405280600781526020017f233934356165340000000000000000000000000000000000000000000000000081525081526020016040518060200160405280600081525081526020016040518060200160405280600081525081525081526020016040518061042001604052806040518060200160405280600081525081526020016040518060200160405280600081525081526020016040518060400160405280600781526020017f236339616266310000000000000000000000000000000000000000000000000081525081526020016040518060200160405280600081525081526020016040518060400160405280600781526020017f236335613566300000000000000000000000000000000000000000000000000081525081526020016040518060200160405280600081525081526020016040518060400160405280600781526020017f236331396665660000000000000000000000000000000000000000000000000081525081526020016040518060400160405280600781526020017f236266396365650000000000000000000000000000000000000000000000000081525081526020016040518060400160405280600781526020017f236264396165650000000000000000000000000000000000000000000000000081525081526020016040518060400160405280600781526020017f236262393765650000000000000000000000000000000000000000000000000081525081526020016040518060200160405280600081525081526020016040518060200160405280600081525081526020016040518060400160405280600781526020017f236235386565630000000000000000000000000000000000000000000000000081525081526020016040518060200160405280600081525081526020016040518060400160405280600781526020017f236231383765620000000000000000000000000000000000000000000000000081525081526020016040518060200160405280600081525081526020016040518060400160405280600781526020017f236165383265610000000000000000000000000000000000000000000000000081525081526020016040518060200160405280600081525081526020016040518060200160405280600081525081526020016040518060400160405280600781526020017f236138373965390000000000000000000000000000000000000000000000000081525081526020016040518060200160405280600081525081526020016040518060400160405280600781526020017f236134373365380000000000000000000000000000000000000000000000000081525081526020016040518060200160405280600081525081526020016040518060400160405280600781526020017f236130366465370000000000000000000000000000000000000000000000000081525081526020016040518060200160405280600081525081526020016040518060200160405280600081525081526020016040518060400160405280600781526020017f233961363465350000000000000000000000000000000000000000000000000081525081526020016040518060200160405280600081525081526020016040518060400160405280600781526020017f233936356565340000000000000000000000000000000000000000000000000081525081526020016040518060200160405280600081525081526020016040518060400160405280600781526020017f233933353865330000000000000000000000000000000000000000000000000081525081526020016040518060200160405280600081525081526020016040518060200160405280600081525081525081526020016040518061042001604052806040518060200160405280600081525081526020016040518060200160405280600081525081526020016040518060400160405280600781526020017f236337613966310000000000000000000000000000000000000000000000000081525081526020016040518060200160405280600081525081526020016040518060400160405280600781526020017f236334613466300000000000000000000000000000000000000000000000000081525081526020016040518060200160405280600081525081526020016040518060400160405280600781526020017f236330396565660000000000000000000000000000000000000000000000000081525081526020016040518060200160405280600081525081526020016040518060200160405280600081525081526020016040518060400160405280600781526020017f236261393465640000000000000000000000000000000000000000000000000081525081526020016040518060400160405280600781526020017f236238393165640000000000000000000000000000000000000000000000000081525081526020016040518060200160405280600081525081526020016040518060400160405280600781526020017f236234386365630000000000000000000000000000000000000000000000000081525081526020016040518060200160405280600081525081526020016040518060400160405280600781526020017f236230383665620000000000000000000000000000000000000000000000000081525081526020016040518060200160405280600081525081526020016040518060400160405280600781526020017f236163383065610000000000000000000000000000000000000000000000000081525081526020016040518060200160405280600081525081526020016040518060200160405280600081525081526020016040518060400160405280600781526020017f236137373765380000000000000000000000000000000000000000000000000081525081526020016040518060200160405280600081525081526020016040518060400160405280600781526020017f236133373165370000000000000000000000000000000000000000000000000081525081526020016040518060200160405280600081525081526020016040518060400160405280600781526020017f233966366265360000000000000000000000000000000000000000000000000081525081526020016040518060200160405280600081525081526020016040518060400160405280600781526020017f233962363565350000000000000000000000000000000000000000000000000081525081526020016040518060200160405280600081525081526020016040518060400160405280600781526020017f233937356665350000000000000000000000000000000000000000000000000081525081526020016040518060400160405280600781526020017f233935356365340000000000000000000000000000000000000000000000000081525081526020016040518060200160405280600081525081526020016040518060400160405280600781526020017f233931353665330000000000000000000000000000000000000000000000000081525081526020016040518060200160405280600081525081526020016040518060200160405280600081525081525081526020016040518061042001604052806040518060200160405280600081525081526020016040518060200160405280600081525081526020016040518060400160405280600781526020017f236336613866300000000000000000000000000000000000000000000000000081525081526020016040518060200160405280600081525081526020016040518060400160405280600781526020017f236332613165660000000000000000000000000000000000000000000000000081525081526020016040518060200160405280600081525081526020016040518060400160405280600781526020017f236265396265650000000000000000000000000000000000000000000000000081525081526020016040518060400160405280600781526020017f236263393865650000000000000000000000000000000000000000000000000081525081526020016040518060400160405280600781526020017f236262393665640000000000000000000000000000000000000000000000000081525081526020016040518060200160405280600081525081526020016040518060400160405280600781526020017f236237393065630000000000000000000000000000000000000000000000000081525081526020016040518060400160405280600781526020017f236235386465630000000000000000000000000000000000000000000000000081525081526020016040518060400160405280600781526020017f236233386165620000000000000000000000000000000000000000000000000081525081526020016040518060200160405280600081525081526020016040518060400160405280600781526020017f236166383465610000000000000000000000000000000000000000000000000081525081526020016040518060200160405280600081525081526020016040518060400160405280600781526020017f236162376565610000000000000000000000000000000000000000000000000081525081526020016040518060200160405280600081525081526020016040518060200160405280600081525081526020016040518060400160405280600781526020017f236135373565380000000000000000000000000000000000000000000000000081525081526020016040518060200160405280600081525081526020016040518060400160405280600781526020017f236131366665370000000000000000000000000000000000000000000000000081525081526020016040518060200160405280600081525081526020016040518060400160405280600781526020017f233965363965360000000000000000000000000000000000000000000000000081525081526020016040518060200160405280600081525081526020016040518060400160405280600781526020017f233961363365350000000000000000000000000000000000000000000000000081525081526020016040518060400160405280600781526020017f233938363065350000000000000000000000000000000000000000000000000081525081526020016040518060200160405280600081525081526020016040518060200160405280600081525081526020016040518060200160405280600081525081526020016040518060400160405280600781526020017f233930353565330000000000000000000000000000000000000000000000000081525081526020016040518060200160405280600081525081526020016040518060200160405280600081525081525081526020016040518061042001604052806040518060200160405280600081525081526020016040518060200160405280600081525081526020016040518060400160405280600781526020017f236335613566300000000000000000000000000000000000000000000000000081525081526020016040518060200160405280600081525081526020016040518060400160405280600781526020017f236331613065660000000000000000000000000000000000000000000000000081525081526020016040518060200160405280600081525081526020016040518060400160405280600781526020017f236264396165650000000000000000000000000000000000000000000000000081525081526020016040518060200160405280600081525081526020016040518060400160405280600781526020017f236239393465640000000000000000000000000000000000000000000000000081525081526020016040518060400160405280600781526020017f236237393165640000000000000000000000000000000000000000000000000081525081526020016040518060200160405280600081525081526020016040518060400160405280600781526020017f236234386265630000000000000000000000000000000000000000000000000081525081526020016040518060400160405280600781526020017f236232383865620000000000000000000000000000000000000000000000000081525081526020016040518060200160405280600081525081526020016040518060400160405280600781526020017f236165383265610000000000000000000000000000000000000000000000000081525081526020016040518060200160405280600081525081526020016040518060200160405280600081525081526020016040518060400160405280600781526020017f236138373965390000000000000000000000000000000000000000000000000081525081526020016040518060400160405280600781526020017f236136373665380000000000000000000000000000000000000000000000000081525081526020016040518060200160405280600081525081526020016040518060200160405280600081525081526020016040518060400160405280600781526020017f236130366465370000000000000000000000000000000000000000000000000081525081526020016040518060200160405280600081525081526020016040518060400160405280600781526020017f233963363765360000000000000000000000000000000000000000000000000081525081526020016040518060200160405280600081525081526020016040518060400160405280600781526020017f233938363165350000000000000000000000000000000000000000000000000081525081526020016040518060200160405280600081525081526020016040518060400160405280600781526020017f233935356365340000000000000000000000000000000000000000000000000081525081526020016040518060200160405280600081525081526020016040518060200160405280600081525081526020016040518060400160405280600781526020017f233866353265320000000000000000000000000000000000000000000000000081525081526020016040518060200160405280600081525081526020016040518060200160405280600081525081525081526020016040518061042001604052806040518060200160405280600081525081526020016040518060200160405280600081525081526020016040518060400160405280600781526020017f236334613466300000000000000000000000000000000000000000000000000081525081526020016040518060200160405280600081525081526020016040518060400160405280600781526020017f236330396565660000000000000000000000000000000000000000000000000081525081526020016040518060200160405280600081525081526020016040518060400160405280600781526020017f236263393865650000000000000000000000000000000000000000000000000081525081526020016040518060200160405280600081525081526020016040518060400160405280600781526020017f236238393265640000000000000000000000000000000000000000000000000081525081526020016040518060200160405280600081525081526020016040518060200160405280600081525081526020016040518060400160405280600781526020017f236232383965620000000000000000000000000000000000000000000000000081525081526020016040518060200160405280600081525081526020016040518060400160405280600781526020017f236165383365610000000000000000000000000000000000000000000000000081525081526020016040518060200160405280600081525081526020016040518060400160405280600781526020017f236162376465390000000000000000000000000000000000000000000000000081525081526020016040518060200160405280600081525081526020016040518060200160405280600081525081526020016040518060200160405280600081525081526020016040518060200160405280600081525081526020016040518060200160405280600081525081526020016040518060400160405280600781526020017f233966366265360000000000000000000000000000000000000000000000000081525081526020016040518060200160405280600081525081526020016040518060400160405280600781526020017f233962363665360000000000000000000000000000000000000000000000000081525081526020016040518060200160405280600081525081526020016040518060400160405280600781526020017f233937356665350000000000000000000000000000000000000000000000000081525081526020016040518060200160405280600081525081526020016040518060400160405280600781526020017f233933353965340000000000000000000000000000000000000000000000000081525081526020016040518060200160405280600081525081526020016040518060400160405280600781526020017f233866353365330000000000000000000000000000000000000000000000000081525081526020016040518060400160405280600781526020017f233865353165320000000000000000000000000000000000000000000000000081525081526020016040518060200160405280600081525081526020016040518060200160405280600081525081525081526020016040518061042001604052806040518060200160405280600081525081526020016040518060200160405280600081525081526020016040518060400160405280600781526020017f236332613165660000000000000000000000000000000000000000000000000081525081526020016040518060200160405280600081525081526020016040518060400160405280600781526020017f236266396365650000000000000000000000000000000000000000000000000081525081526020016040518060200160405280600081525081526020016040518060400160405280600781526020017f236262393665640000000000000000000000000000000000000000000000000081525081526020016040518060400160405280600781526020017f236239393365640000000000000000000000000000000000000000000000000081525081526020016040518060200160405280600081525081526020016040518060200160405280600081525081526020016040518060400160405280600781526020017f236233386165620000000000000000000000000000000000000000000000000081525081526020016040518060400160405280600781526020017f236231383765620000000000000000000000000000000000000000000000000081525081526020016040518060200160405280600081525081526020016040518060200160405280600081525081526020016040518060400160405280600781526020017f236162376565610000000000000000000000000000000000000000000000000081525081526020016040518060200160405280600081525081526020016040518060400160405280600781526020017f236137373865390000000000000000000000000000000000000000000000000081525081526020016040518060200160405280600081525081526020016040518060200160405280600081525081526020016040518060400160405280600781526020017f236132373065370000000000000000000000000000000000000000000000000081525081526020016040518060400160405280600781526020017f236130366365370000000000000000000000000000000000000000000000000081525081526020016040518060400160405280600781526020017f233965363965360000000000000000000000000000000000000000000000000081525081526020016040518060200160405280600081525081526020016040518060400160405280600781526020017f233961363365350000000000000000000000000000000000000000000000000081525081526020016040518060200160405280600081525081526020016040518060400160405280600781526020017f233936356465340000000000000000000000000000000000000000000000000081525081526020016040518060200160405280600081525081526020016040518060400160405280600781526020017f233932353865330000000000000000000000000000000000000000000000000081525081526020016040518060400160405280600781526020017f233930353565330000000000000000000000000000000000000000000000000081525081526020016040518060400160405280600781526020017f233865353265320000000000000000000000000000000000000000000000000081525081526020016040518060400160405280600781526020017f233863346565320000000000000000000000000000000000000000000000000081525081526020016040518060200160405280600081525081526020016040518060200160405280600081525081525081526020016040518061042001604052806040518060200160405280600081525081526020016040518060200160405280600081525081526020016040518060400160405280600781526020017f236331613065660000000000000000000000000000000000000000000000000081525081526020016040518060200160405280600081525081526020016040518060400160405280600781526020017f236264396165650000000000000000000000000000000000000000000000000081525081526020016040518060200160405280600081525081526020016040518060200160405280600081525081526020016040518060200160405280600081525081526020016040518060200160405280600081525081526020016040518060400160405280600781526020017f236234386265630000000000000000000000000000000000000000000000000081525081526020016040518060200160405280600081525081526020016040518060200160405280600081525081526020016040518060200160405280600081525081526020016040518060200160405280600081525081526020016040518060200160405280600081525081526020016040518060400160405280600781526020017f236138376165390000000000000000000000000000000000000000000000000081525081526020016040518060400160405280600781526020017f236136373665380000000000000000000000000000000000000000000000000081525081526020016040518060400160405280600781526020017f236134373365380000000000000000000000000000000000000000000000000081525081526020016040518060400160405280600781526020017f236132373065370000000000000000000000000000000000000000000000000081525081526020016040518060400160405280600781526020017f236130366465370000000000000000000000000000000000000000000000000081525081526020016040518060200160405280600081525081526020016040518060400160405280600781526020017f233963363765360000000000000000000000000000000000000000000000000081525081526020016040518060200160405280600081525081526020016040518060400160405280600781526020017f233939363265350000000000000000000000000000000000000000000000000081525081526020016040518060200160405280600081525081526020016040518060400160405280600781526020017f233935356365340000000000000000000000000000000000000000000000000081525081526020016040518060200160405280600081525081526020016040518060200160405280600081525081526020016040518060200160405280600081525081526020016040518060200160405280600081525081526020016040518060200160405280600081525081526020016040518060200160405280600081525081526020016040518060200160405280600081525081525081526020016040518061042001604052806040518060200160405280600081525081526020016040518060200160405280600081525081526020016040518060400160405280600781526020017f236330396565660000000000000000000000000000000000000000000000000081525081526020016040518060200160405280600081525081526020016040518060400160405280600781526020017f236263393865650000000000000000000000000000000000000000000000000081525081526020016040518060200160405280600081525081526020016040518060400160405280600781526020017f236238393265640000000000000000000000000000000000000000000000000081525081526020016040518060400160405280600781526020017f236236386665630000000000000000000000000000000000000000000000000081525081526020016040518060400160405280600781526020017f236234386365630000000000000000000000000000000000000000000000000081525081526020016040518060200160405280600081525081526020016040518060200160405280600081525081526020016040518060200160405280600081525081526020016040518060200160405280600081525081526020016040518060200160405280600081525081526020016040518060200160405280600081525081526020016040518060200160405280600081525081526020016040518060200160405280600081525081526020016040518060200160405280600081525081526020016040518060200160405280600081525081526020016040518060200160405280600081525081526020016040518060200160405280600081525081526020016040518060400160405280600781526020017f233962363665360000000000000000000000000000000000000000000000000081525081526020016040518060200160405280600081525081526020016040518060400160405280600781526020017f233937356665350000000000000000000000000000000000000000000000000081525081526020016040518060200160405280600081525081526020016040518060400160405280600781526020017f233933353965340000000000000000000000000000000000000000000000000081525081526020016040518060200160405280600081525081526020016040518060200160405280600081525081526020016040518060200160405280600081525081526020016040518060200160405280600081525081526020016040518060200160405280600081525081526020016040518060200160405280600081525081526020016040518060200160405280600081525081525081526020016040518061042001604052806040518060200160405280600081525081526020016040518060200160405280600081525081526020016040518060200160405280600081525081526020016040518060400160405280600781526020017f236264393965650000000000000000000000000000000000000000000000000081525081526020016040518060400160405280600781526020017f236262393665640000000000000000000000000000000000000000000000000081525081526020016040518060400160405280600781526020017f236239393365640000000000000000000000000000000000000000000000000081525081526020016040518060400160405280600781526020017f236237393065630000000000000000000000000000000000000000000000000081525081526020016040518060400160405280600781526020017f236235386465630000000000000000000000000000000000000000000000000081525081526020016040518060200160405280600081525081526020016040518060200160405280600081525081526020016040518060200160405280600081525081526020016040518060200160405280600081525081526020016040518060200160405280600081525081526020016040518060200160405280600081525081526020016040518060200160405280600081525081526020016040518060200160405280600081525081526020016040518060200160405280600081525081526020016040518060200160405280600081525081526020016040518060200160405280600081525081526020016040518060200160405280600081525081526020016040518060200160405280600081525081526020016040518060400160405280600781526020017f233961363365350000000000000000000000000000000000000000000000000081525081526020016040518060400160405280600781526020017f233938363065350000000000000000000000000000000000000000000000000081525081526020016040518060400160405280600781526020017f233936356565340000000000000000000000000000000000000000000000000081525081526020016040518060400160405280600781526020017f233934356265340000000000000000000000000000000000000000000000000081525081526020016040518060400160405280600781526020017f2339323538653300000000000000000000000000000000000000000000000000815250815260200160405180602001604052806000815250815260200160405180602001604052806000815250815260200160405180602001604052806000815250815260200160405180602001604052806000815250815260200160405180602001604052806000815250815260200160405180602001604052806000815250815260200160405180602001604052806000815250815250815260200160405180610420016040528060405180602001604052806000815250815260200160405180602001604052806000815250815260200160405180602001604052806000815250815260200160405180602001604052806000815250815260200160405180602001604052806000815250815260200160405180602001604052806000815250815260200160405180602001604052806000815250815260200160405180602001604052806000815250815260200160405180602001604052806000815250815260200160405180602001604052806000815250815260200160405180602001604052806000815250815260200160405180602001604052806000815250815260200160405180602001604052806000815250815260200160405180602001604052806000815250815260200160405180602001604052806000815250815260200160405180602001604052806000815250815260200160405180602001604052806000815250815260200160405180602001604052806000815250815260200160405180602001604052806000815250815260200160405180602001604052806000815250815260200160405180602001604052806000815250815260200160405180602001604052806000815250815260200160405180602001604052806000815250815260200160405180602001604052806000815250815260200160405180602001604052806000815250815260200160405180602001604052806000815250815260200160405180602001604052806000815250815260200160405180602001604052806000815250815260200160405180602001604052806000815250815260200160405180602001604052806000815250815260200160405180602001604052806000815250815260200160405180602001604052806000815250815260200160405180602001604052806000815250815250815260200160405180610420016040528060405180602001604052806000815250815260200160405180602001604052806000815250815260200160405180602001604052806000815250815260200160405180602001604052806000815250815260200160405180602001604052806000815250815260200160405180602001604052806000815250815260200160405180602001604052806000815250815260200160405180602001604052806000815250815260200160405180602001604052806000815250815260200160405180602001604052806000815250815260200160405180602001604052806000815250815260200160405180602001604052806000815250815260200160405180602001604052806000815250815260200160405180602001604052806000815250815260200160405180602001604052806000815250815260200160405180602001604052806000815250815260200160405180602001604052806000815250815260200160405180602001604052806000815250815260200160405180602001604052806000815250815260200160405180602001604052806000815250815260200160405180602001604052806000815250815260200160405180602001604052806000815250815260200160405180602001604052806000815250815260200160405180602001604052806000815250815260200160405180602001604052806000815250815260200160405180602001604052806000815250815260200160405180602001604052806000815250815260200160405180602001604052806000815250815260200160405180602001604052806000815250815260200160405180602001604052806000815250815260200160405180602001604052806000815250815260200160405180602001604052806000815250815260200160405180602001604052806000815250815250815250610444906011620048f992919062006a0d565b50600061088560006101000a81548160ff0219169083151502179055503480156200492357600080fd5b506040516200a91e3803806200a91e833981810160405281019062004949919062006d1a565b336000806101000a81548173ffffffffffffffffffffffffffffffffffffffff021916908373ffffffffffffffffffffffffffffffffffffffff160217905550604051806104200160405280606e61ffff16815260200160d261ffff16815260200161014061ffff1681526020016101a461ffff16815260200161021261ffff16815260200161027661ffff1681526020016102e461ffff16815260200161034861ffff1681526020016103b661ffff16815260200161044c61ffff1681526020016104b061ffff16815260200161051461ffff16815260200161057861ffff1681526020016105dc61ffff16815260200161064061ffff1681526020016106a461ffff16815260200161070861ffff16815260200161076c61ffff1681526020016107d061ffff16815260200161083461ffff16815260200161089861ffff1681526020016108fc61ffff16815260200161096061ffff1681526020016109c461ffff168152602001610a2861ffff168152602001610a8c61ffff168152602001610af061ffff168152602001610b5461ffff168152602001610bb861ffff168152602001610c8061ffff168152602001610ce461ffff168152602001610d4861ffff168152602001610dac61ffff16815250600360006021811062004b355762004b3462006d61565b5b6021020190602162004b4992919062006a64565b50604051806104200160405280606e62ffffff16815260200160dc62ffffff16815260200161014062ffffff1681526020016101ae62ffffff16815260200161021c62ffffff16815260200161028a62ffffff1681526020016102f862ffffff16815260200161035c62ffffff1681526020016103ca62ffffff16815260200161044c62ffffff1681526020016104b062ffffff16815260200161051462ffffff16815260200161057862ffffff1681526020016105dc62ffffff16815260200161064062ffffff1681526020016106a462ffffff16815260200161070862ffffff16815260200161076c62ffffff16815260200161083462ffffff16815260200161089862ffffff1681526020016108fc62ffffff16815260200161096062ffffff1681526020016109c462ffffff168152602001610a2862ffffff168152602001610a8c62ffffff168152602001610af062ffffff168152602001610b5462ffffff168152602001610bb862ffffff168152602001610c1c62ffffff1681526020016201fbd062ffffff168152602001620249f062ffffff168152602001610dac62ffffff168152602001610e1062ffffff16815250600360016021811062004d195762004d1862006d61565b5b6021020190602162004d2d92919062006aaf565b50604051806104200160405280606e62ffffff16815260200160dc62ffffff16815260200161014a62ffffff1681526020016101b862ffffff16815260200161022662ffffff16815260200161029e62ffffff16815260200161030c62ffffff16815260200161037a62ffffff1681526020016103e862ffffff16815260200161044c62ffffff1681526020016104b062ffffff16815260200161051462ffffff16815260200161057862ffffff16815260200161064062ffffff1681526020016106a462ffffff16815260200161947062ffffff16815260200161a41062ffffff16815260200161b3b062ffffff16815260200161c35062ffffff16815260200161d6d862ffffff1681526020016108fc62ffffff16815260200161096062ffffff168152602001610a2862ffffff168152602001610a8c62ffffff168152602001610af062ffffff168152602001610b5462ffffff168152602001610bb862ffffff168152602001610c1c62ffffff1681526020016201fbd062ffffff168152602001620222e062ffffff1681526020016202710062ffffff168152602001610e1062ffffff168152602001610e7462ffffff16815250600360026021811062004efe5762004efd62006d61565b5b6021020190602162004f1292919062006aaf565b50604051806104200160405280606e62ffffff16815260200160e662ffffff16815260200161015462ffffff1681526020016101cc62ffffff16815260200161023a62ffffff168152602001612af862ffffff1681526020016132c862ffffff168152602001613a9862ffffff16815260200161465062ffffff16815260200161044c62ffffff16815260200161051462ffffff16815260200161057862ffffff1681526020016105dc62ffffff16815260200161064062ffffff168152602001618ca062ffffff16815260200161070862ffffff16815260200161abe062ffffff16815260200161083462ffffff16815260200161089862ffffff1681526020016108fc62ffffff16815260200161fa0062ffffff1681526020016109c462ffffff168152602001610a2862ffffff168152602001610a8c62ffffff16815260200162016b4862ffffff168152602001620186a062ffffff1681526020016201adb062ffffff168152602001610c8062ffffff168152602001620222e062ffffff168152602001610d4862ffffff1681526020016202981062ffffff168152602001610e1062ffffff168152602001610ed862ffffff1681525060038060218110620050e457620050e362006d61565b5b60210201906021620050f892919062006aaf565b50604051806104200160405280607862ffffff16815260200160e662ffffff16815260200161015e62ffffff1681526020016101d662ffffff16815260200161245462ffffff168152602001612af862ffffff1681526020016136b062ffffff168152602001613e8062ffffff168152602001614a3862ffffff16815260200161520862ffffff16815260200161051462ffffff16815260200161057862ffffff1681526020016105dc62ffffff1681526020016184d062ffffff16815260200161070862ffffff16815260200161a41062ffffff1681526020016107d062ffffff16815260200161c73862ffffff16815260200161dac062ffffff1681526020016108fc62ffffff1681526020016109c462ffffff168152602001620124f862ffffff16815260200162013c6862ffffff16815260200162015f9062ffffff168152602001620182b862ffffff1681526020016201adb062ffffff1681526020016201d4c062ffffff168152602001610ce462ffffff168152602001620249f062ffffff168152602001610dac62ffffff1681526020016202bf2062ffffff168152602001610e7462ffffff168152602001610f3c62ffffff168152506003600460218110620052ce57620052cd62006d61565b5b60210201906021620052e292919062006aaf565b50604051806104200160405280607862ffffff16815260200160f062ffffff16815260200161157c62ffffff168152602001611d4c62ffffff16815260200161258062ffffff1681526020016102d062ffffff16815260200161034862ffffff1681526020016103c062ffffff16815260200161044c62ffffff1681526020016104b062ffffff1681526020016161a862ffffff16815260200161057862ffffff168152602001617d0062ffffff1681526020016106a462ffffff168152602001619c4062ffffff16815260200161076c62ffffff16815260200161bf6862ffffff16815260200161089862ffffff1681526020016108fc62ffffff16815260200161fde862ffffff1681526020016109c462ffffff1681526020016201349862ffffff168152602001620153d862ffffff168152602001610b5462ffffff1681526020016201adb062ffffff168152602001610c1c62ffffff1681526020016201fbd062ffffff168152602001610d4862ffffff1681526020016202710062ffffff168152602001610e1062ffffff16815260200162030d4062ffffff168152602001610ed862ffffff168152602001610fa062ffffff168152506003600560218110620054b657620054b562006d61565b5b60210201906021620054ca92919062006aaf565b50604051806104200160405280607862ffffff16815260200160fa62ffffff16815260200161164462ffffff1681526020016101ea62ffffff16815260200161271062ffffff1681526020016102e462ffffff168152602001613a9862ffffff16815260200161465062ffffff168152602001614e2062ffffff1681526020016159d862ffffff16815260200161057862ffffff1681526020016105dc62ffffff1681526020016184d062ffffff1681526020016106a462ffffff16815260200161a41062ffffff1681526020016107d062ffffff16815260200161c73862ffffff16815260200161089862ffffff1681526020016108fc62ffffff16815260200162010d8862ffffff168152602001610a2862ffffff1681526020016201482062ffffff168152602001610af062ffffff168152602001620186a062ffffff168152602001610c1c62ffffff168152602001610c8062ffffff168152602001620222e062ffffff168152602001610d4862ffffff1681526020016202981062ffffff168152602001610e7462ffffff16815260200162035b6062ffffff168152602001610f3c62ffffff16815260200161100462ffffff1681525060036006602181106200569e576200569d62006d61565b5b60210201906021620056b292919062006aaf565b50604051806104200160405280608262ffffff16815260200160fa62ffffff16815260200161177062ffffff1681526020016101f462ffffff16815260200161271062ffffff1681526020016102f862ffffff168152602001613e8062ffffff1681526020016103e862ffffff16815260200161044c62ffffff1681526020016161a862ffffff168152602001616d6062ffffff1681526020016105dc62ffffff1681526020016188b862ffffff16815260200161070862ffffff16815260200161abe062ffffff1681526020016107d062ffffff16815260200161d2f062ffffff1681526020016108fc62ffffff16815260200161096062ffffff1681526020016201194062ffffff168152602001610a2862ffffff168152602001620157c062ffffff168152602001610b5462ffffff1681526020016201adb062ffffff168152602001610c8062ffffff1681526020016201fbd062ffffff168152602001610d4862ffffff1681526020016202981062ffffff1681526020016202e63062ffffff168152602001610ed862ffffff1681526020016203a98062ffffff168152602001610fa062ffffff16815260200161106862ffffff16815250600360076021811062005887576200588662006d61565b5b602102019060216200589b92919062006aaf565b50604051806104200160405280608262ffffff16815260200161010462ffffff16815260200161183862ffffff16815260200161020862ffffff168152602001612af862ffffff16815260200161030262ffffff168152602001613e8062ffffff168152602001614a3862ffffff1681526020016155f062ffffff16815260200161051462ffffff16815260200161714862ffffff1681526020016180e862ffffff16815260200161908862ffffff16815260200161070862ffffff16815260200161b3b062ffffff16815260200161083462ffffff16815260200161dea862ffffff1681526020016108fc62ffffff1681526020016109c462ffffff16815260200162012cc862ffffff168152602001610a8c62ffffff16815260200162016f3062ffffff168152602001610bb862ffffff1681526020016201adb062ffffff168152602001610c8062ffffff168152602001620222e062ffffff1681526020016202710062ffffff168152602001610e1062ffffff168152602001610e7462ffffff168152602001610f3c62ffffff1681526020016203f7a062ffffff16815260200161100462ffffff1681526020016110cc62ffffff16815250600360086021811062005a705762005a6f62006d61565b5b6021020190602162005a8492919062006aaf565b50604051806104200160405280608262ffffff16815260200161010462ffffff16815260200161196462ffffff16815260200161021262ffffff168152602001612af862ffffff16815260200161031662ffffff16815260200161426862ffffff16815260200161044c62ffffff1681526020016159d862ffffff16815260200161697862ffffff1681526020016105dc62ffffff1681526020016184d062ffffff16815260200161985862ffffff16815260200161070862ffffff16815260200161bb8062ffffff16815260200161083462ffffff16815260200161089862ffffff168152602001620101d062ffffff1681526020016201211062ffffff168152602001610a2862ffffff168152602001610af062ffffff168152602001620182b862ffffff168152602001610bb862ffffff1681526020016201d4c062ffffff168152602001610ce462ffffff168152602001620249f062ffffff168152602001610e1062ffffff1681526020016202e63062ffffff168152602001610ed862ffffff168152602001610fa062ffffff16815260200162046cd062ffffff16815260200161106862ffffff16815260200161113062ffffff16815250600360096021811062005c5a5762005c5962006d61565b5b6021020190602162005c6e92919062006aaf565b50604051806104200160405280608c62ffffff16815260200161010e62ffffff168152602001611a2c62ffffff16815260200161021c62ffffff168152602001612ee062ffffff16815260200161032a62ffffff16815260200161465062ffffff16815260200161044c62ffffff168152602001615dc062ffffff16815260200161051462ffffff1681526020016105dc62ffffff168152602001618ca062ffffff16815260200161070862ffffff16815260200161b3b062ffffff1681526020016107d062ffffff16815260200161dac062ffffff1681526020016108fc62ffffff16815260200161096062ffffff168152602001610a2862ffffff168152602001610a8c62ffffff168152602001610af062ffffff1681526020016201adb062ffffff168152602001610c1c62ffffff1681526020016201fbd062ffffff168152602001610d4862ffffff1681526020016202710062ffffff168152602001610e1062ffffff1681526020016203345062ffffff168152602001610f3c62ffffff168152602001620445c062ffffff1681526020016204e20062ffffff1681526020016110cc62ffffff16815260200161119462ffffff168152506003600a6021811062005e435762005e4262006d61565b5b6021020190602162005e5792919062006aaf565b50604051806104200160405280608c62ffffff16815260200161011862ffffff168152602001611b5862ffffff16815260200161022662ffffff168152602001612ee062ffffff16815260200161033e62ffffff16815260200161465062ffffff1681526020016155f062ffffff1681526020016104b062ffffff16815260200161057862ffffff1681526020016180e862ffffff16815260200161947062ffffff16815260200161070862ffffff16815260200161076c62ffffff16815260200161cf0862ffffff16815260200161089862ffffff168152602001620101d062ffffff1681526020016109c462ffffff168152602001610a2862ffffff16815260200162015f9062ffffff168152602001620186a062ffffff1681526020016201adb062ffffff168152602001610c8062ffffff168152602001620222e062ffffff168152602001610d4862ffffff1681526020016202bf2062ffffff168152602001610e7462ffffff1681526020016203827062ffffff1681526020016203f7a062ffffff1681526020016204baf062ffffff16815260200162057e4062ffffff16815260200161113062ffffff1681526020016111f862ffffff168152506003600b6021811062006030576200602f62006d61565b5b602102019060216200604492919062006aaf565b50604051806104200160405280608c62ffffff16815260200161011862ffffff168152602001611c8462ffffff16815260200161023062ffffff1681526020016132c862ffffff16815260200161035262ffffff1681526020016103de62ffffff16815260200161044c62ffffff16815260200161051462ffffff16815260200161791862ffffff16815260200161064062ffffff1681526020016106a462ffffff16815260200161070862ffffff1681526020016107d062ffffff16815260200161083462ffffff16815260200161f23062ffffff1681526020016201117062ffffff168152602001620130b062ffffff168152602001620153d862ffffff16815260200162017ae862ffffff168152602001610bb862ffffff1681526020016201d4c062ffffff168152602001610c8062ffffff168152602001620249f062ffffff168152602001610dac62ffffff1681526020016202e63062ffffff168152602001610ed862ffffff168152602001610f3c62ffffff16815260200161100462ffffff16815260200161106862ffffff16815260200161113062ffffff16815260200161119462ffffff16815260200161125c62ffffff168152506003600c602181106200621a576200621962006d61565b5b602102019060216200622e92919062006aaf565b50604051806104200160405280608c62ffffff16815260200161012262ffffff168152602001611db062ffffff16815260200161024462ffffff1681526020016132c862ffffff16815260200161035c62ffffff168152602001614e2062ffffff168152602001615dc062ffffff168152602001616d6062ffffff16815260200161057862ffffff16815260200161064062ffffff1681526020016106a462ffffff16815260200161076c62ffffff1681526020016107d062ffffff16815260200161089862ffffff1681526020016108fc62ffffff16815260200161096062ffffff168152602001610a2862ffffff168152602001610a8c62ffffff168152602001610b5462ffffff168152602001610bb862ffffff1681526020016201fbd062ffffff168152602001610ce462ffffff1681526020016202710062ffffff168152602001610e1062ffffff1681526020016203345062ffffff168152602001610f3c62ffffff168152602001610fa062ffffff16815260200161106862ffffff1681526020016110cc62ffffff16815260200161119462ffffff1681526020016111f862ffffff1681526020016112c062ffffff168152506003600d602181106200640057620063ff62006d61565b5b602102019060216200641492919062006aaf565b50604051806104200160405280609662ffffff16815260200161012262ffffff1681526020016101b862ffffff168152602001612af862ffffff1681526020016136b062ffffff16815260200161426862ffffff16815260200161520862ffffff1681526020016161a862ffffff16815260200161051462ffffff1681526020016105dc62ffffff16815260200161064062ffffff16815260200161070862ffffff16815260200161076c62ffffff16815260200161083462ffffff16815260200161089862ffffff16815260200161096062ffffff1681526020016109c462ffffff168152602001610a2862ffffff168152602001610af062ffffff168152602001610b5462ffffff168152602001610c1c62ffffff168152602001620222e062ffffff1681526020016202710062ffffff1681526020016202981062ffffff16815260200162030d4062ffffff16815260200162035b6062ffffff168152602001610fa062ffffff16815260200161100462ffffff1681526020016110cc62ffffff16815260200161113062ffffff1681526020016111f862ffffff16815260200161125c62ffffff16815260200161132462ffffff168152506003600e60218110620065e857620065e762006d61565b5b60210201906021620065fc92919062006aaf565b50604051806104200160405280609661ffff16815260200161012c61ffff1681526020016101c261ffff16815260200161025861ffff1681526020016102ee61ffff16815260200161038461ffff16815260200161044c61ffff1681526020016104b061ffff16815260200161057861ffff1681526020016105dc61ffff1681526020016106a461ffff16815260200161070861ffff1681526020016107d061ffff16815260200161083461ffff1681526020016108fc61ffff16815260200161096061ffff168152602001610a2861ffff168152602001610a8c61ffff168152602001610b5461ffff168152602001610bb861ffff168152602001610c8061ffff168152602001610ce461ffff168152602001610dac61ffff168152602001610e1061ffff168152602001610ed861ffff168152602001610f3c61ffff16815260200161100461ffff16815260200161106861ffff16815260200161113061ffff16815260200161119461ffff16815260200161125c61ffff1681526020016112c061ffff16815260200161138861ffff168152506003600f60218110620067aa57620067a962006d61565b5b60210201906021620067be92919062006a64565b50604051806104200160405280609661ffff16815260200161013661ffff1681526020016101cc61ffff16815260200161026261ffff16815260200161030261ffff16815260200161039861ffff16815260200161044c61ffff1681526020016104b061ffff16815260200161057861ffff1681526020016105dc61ffff1681526020016106a461ffff16815260200161070861ffff1681526020016107d061ffff16815260200161083461ffff1681526020016108fc61ffff16815260200161096061ffff168152602001610a2861ffff168152602001610af061ffff168152602001610b5461ffff168152602001610c1c61ffff168152602001610c8061ffff168152602001610d4861ffff168152602001610dac61ffff168152602001610e7461ffff168152602001610ed861ffff168152602001610fa061ffff16815260200161100461ffff1681526020016110cc61ffff16815260200161113061ffff1681526020016111f861ffff16815260200161125c61ffff16815260200161132461ffff16815260200161138861ffff1681525060036010602181106200696c576200696b62006d61565b5b602102019060216200698092919062006a64565b508161088560016101000a81548173ffffffffffffffffffffffffffffffffffffffff021916908373ffffffffffffffffffffffffffffffffffffffff1602179055508061088660006101000a81548173ffffffffffffffffffffffffffffffffffffffff021916908373ffffffffffffffffffffffffffffffffffffffff160217905550505062006df4565b8260218002810192821562006a51579160200282015b8281111562006a505782518290602162006a3f92919062006afb565b509160200191906021019062006a23565b5b50905062006a60919062006b55565b5090565b826021810192821562006a9c579160200282015b8281111562006a9b578251829061ffff1690559160200191906001019062006a78565b5b50905062006aab919062006b7d565b5090565b826021810192821562006ae8579160200282015b8281111562006ae7578251829062ffffff1690559160200191906001019062006ac3565b5b50905062006af7919062006b7d565b5090565b826021810192821562006b42579160200282015b8281111562006b4157825182908051906020019062006b3092919062006b9c565b509160200191906001019062006b0f565b5b50905062006b51919062006c2d565b5090565b5b8082111562006b79576000818162006b6f919062006c55565b5060210162006b56565b5090565b5b8082111562006b9857600081600090555060010162006b7e565b5090565b82805462006baa9062006dbf565b90600052602060002090601f01602090048101928262006bce576000855562006c1a565b82601f1062006be957805160ff191683800117855562006c1a565b8280016001018555821562006c1a579182015b8281111562006c1957825182559160200191906001019062006bfc565b5b50905062006c29919062006b7d565b5090565b5b8082111562006c51576000818162006c47919062006c6a565b5060010162006c2e565b5090565b50806021019062006c67919062006c2d565b50565b50805462006c789062006dbf565b6000825580601f1062006c8c575062006cad565b601f01602090049060005260206000209081019062006cac919062006b7d565b5b50565b600080fd5b600073ffffffffffffffffffffffffffffffffffffffff82169050919050565b600062006ce28262006cb5565b9050919050565b62006cf48162006cd5565b811462006d0057600080fd5b50565b60008151905062006d148162006ce9565b92915050565b6000806040838503121562006d345762006d3362006cb0565b5b600062006d448582860162006d03565b925050602062006d578582860162006d03565b9150509250929050565b7f4e487b7100000000000000000000000000000000000000000000000000000000600052603260045260246000fd5b7f4e487b7100000000000000000000000000000000000000000000000000000000600052602260045260246000fd5b6000600282049050600182168062006dd857607f821691505b60208210810362006dee5762006ded62006d90565b5b50919050565b613b1a8062006e046000396000f3fe60806040526004361061011f5760003560e01c80636aa633b6116100a0578063a06101d011610064578063a06101d014610396578063ad9591e7146103c1578063b0e987db14610400578063eca83a691461043d578063f9cebc26146104595761011f565b80636aa633b6146102ac5780637d63215c146102d7578063819aca1d146103025780638da5cb5b146103405780639d602d2d1461036b5761011f565b806324600fc3116100e757806324600fc3146101fd57806325247c0114610214578063367545e21461023f578063367edd321461026a57806338b145df146102815761011f565b80630c081500146101245780630ce9befa14610150578063108c5e141461016c578063146008e31461019757806317ba786f146101d4575b600080fd5b34801561013057600080fd5b50610139610496565b604051610147929190612a8c565b60405180910390f35b61016a60048036038101906101659190612c42565b61073a565b005b34801561017857600080fd5b50610181610829565b60405161018e9190612cc0565b60405180910390f35b3480156101a357600080fd5b506101be60048036038101906101b99190612cdb565b61082e565b6040516101cb9190612cc0565b60405180910390f35b3480156101e057600080fd5b506101fb60048036038101906101f69190612d1b565b610859565b005b34801561020957600080fd5b50610212610a79565b005b34801561022057600080fd5b50610229610bb9565b6040516102369190612dfd565b60405180910390f35b34801561024b57600080fd5b50610254610be0565b60405161026191906130e7565b60405180910390f35b34801561027657600080fd5b5061027f611022565b005b34801561028d57600080fd5b506102966112ba565b6040516102a39190612cc0565b60405180910390f35b3480156102b857600080fd5b506102c16112bf565b6040516102ce9190613124565b60405180910390f35b3480156102e357600080fd5b506102ec6112d3565b6040516102f99190612dfd565b60405180910390f35b34801561030e57600080fd5b5061032960048036038101906103249190612cdb565b6112fa565b604051610337929190613198565b60405180910390f35b34801561034c57600080fd5b506103556115f4565b60405161036291906131e9565b60405180910390f35b34801561037757600080fd5b50610380611618565b60405161038d9190613124565b60405180910390f35b3480156103a257600080fd5b506103ab611630565b6040516103b89190612cc0565b60405180910390f35b3480156103cd57600080fd5b506103e860048036038101906103e39190612cdb565b611843565b6040516103f793929190613204565b60405180910390f35b34801561040c57600080fd5b5061042760048036038101906104229190612cdb565b611b36565b6040516104349190612cc0565b60405180910390f35b61045760048036038101906104529190612d1b565b611b64565b005b34801561046557600080fd5b50610480600480360381019061047b9190612cdb565b612004565b60405161048d9190613242565b60405180910390f35b6060806104a1611618565b6104e0576040517f08c379a00000000000000000000000000000000000000000000000000000000081526004016104d7906132b0565b60405180910390fd5b60006104ea6120bb565b905060006104f66120c4565b905060008167ffffffffffffffff81111561051457610513612b17565b5b60405190808252806020026020018201604052801561054757816020015b60608152602001906001900390816105325790505b50905060008267ffffffffffffffff81111561056657610565612b17565b5b60405190808252806020026020018201604052801561059957816020015b60608152602001906001900390816105845790505b50905060005b8381101561072b5760008567ffffffffffffffff8111156105c3576105c2612b17565b5b6040519080825280602002602001820160405280156105f15781602001602082028036833780820191505090505b50905060008667ffffffffffffffff8111156106105761060f612b17565b5b60405190808252806020026020018201604052801561064357816020015b606081526020019060019003908161062e5790505b50905060005b878110156106d75761065b81856112fa565b84838151811061066e5761066d6132d0565b5b60200260200101848481518110610688576106876132d0565b5b602002602001018290528273ffffffffffffffffffffffffffffffffffffffff1673ffffffffffffffffffffffffffffffffffffffff16815250505080806106cf9061332e565b915050610649565b50818584815181106106ec576106eb6132d0565b5b60200260200101819052508084848151811061070b5761070a6132d0565b5b6020026020010181905250505080806107239061332e565b91505061059f565b50818195509550505050509091565b610742611618565b610781576040517f08c379a0000000000000000000000000000000000000000000000000000000008152600401610778906132b0565b60405180910390fd5b828261078b6120bb565b82106107cc576040517f08c379a00000000000000000000000000000000000000000000000000000000081526004016107c3906133c2565b60405180910390fd5b6107d46120c4565b8110610815576040517f08c379a000000000000000000000000000000000000000000000000000000000815260040161080c9061342e565b60405180910390fd5b6108228585600186611b64565b5050505050565b601181565b6001602052816000526040600020602052806000526040600020600091509150508060000154905081565b610861611618565b6108a0576040517f08c379a0000000000000000000000000000000000000000000000000000000008152600401610897906132b0565b60405180910390fd5b83836108aa6120bb565b82106108eb576040517f08c379a00000000000000000000000000000000000000000000000000000000081526004016108e2906133c2565b60405180910390fd5b6108f36120c4565b8110610934576040517f08c379a000000000000000000000000000000000000000000000000000000000815260040161092b9061342e565b60405180910390fd5b8585853373ffffffffffffffffffffffffffffffffffffffff166001600084815260200190815260200160002060008581526020019081526020016000206001018281548110610987576109866132d0565b5b906000526020600020906002020160000160009054906101000a900473ffffffffffffffffffffffffffffffffffffffff1673ffffffffffffffffffffffffffffffffffffffff1614610a0f576040517f08c379a0000000000000000000000000000000000000000000000000000000008152600401610a069061349a565b60405180910390fd5b85600160008a815260200190815260200160002060008b81526020019081526020016000206001018881548110610a4957610a486132d0565b5b90600052602060002090600202016001019080519060200190610a6d9291906125d0565b50505050505050505050565b60008054906101000a900473ffffffffffffffffffffffffffffffffffffffff1673ffffffffffffffffffffffffffffffffffffffff163373ffffffffffffffffffffffffffffffffffffffff1614610b07576040517f08c379a0000000000000000000000000000000000000000000000000000000008152600401610afe9061352c565b60405180910390fd5b600047905060008111610b4f576040517f08c379a0000000000000000000000000000000000000000000000000000000008152600401610b4690613598565b60405180910390fd5b60008054906101000a900473ffffffffffffffffffffffffffffffffffffffff1673ffffffffffffffffffffffffffffffffffffffff166108fc829081150290604051600060405180830381858888f19350505050158015610bb5573d6000803e3d6000fd5b5050565b61088560019054906101000a900473ffffffffffffffffffffffffffffffffffffffff1681565b6060610bea611618565b610c29576040517f08c379a0000000000000000000000000000000000000000000000000000000008152600401610c20906132b0565b60405180910390fd5b6000610c336120bb565b90506000610c3f6120c4565b905060008167ffffffffffffffff811115610c5d57610c5c612b17565b5b604051908082528060200260200182016040528015610c9057816020015b6060815260200190600190039081610c7b5790505b50905060005b828110156110185760008467ffffffffffffffff811115610cba57610cb9612b17565b5b604051908082528060200260200182016040528015610cf357816020015b610ce0612656565b815260200190600190039081610cd85790505b50905060005b85811015610fe4576000806000610d108487611843565b92509250925082858581518110610d2a57610d296132d0565b5b6020026020010151600001818152505060008103610e4657600167ffffffffffffffff811115610d5d57610d5c612b17565b5b604051908082528060200260200182016040528015610d9657816020015b610d83612670565b815260200190600190039081610d7b5790505b50858581518110610daa57610da96132d0565b5b602002602001015160200181905250604051806040016040528060008054906101000a900473ffffffffffffffffffffffffffffffffffffffff1673ffffffffffffffffffffffffffffffffffffffff16815260200183815250858581518110610e1757610e166132d0565b5b602002602001015160200151600081518110610e3657610e356132d0565b5b6020026020010181905250610fce565b600160008781526020019081526020016000206000858152602001908152602001600020600101805480602002602001604051908101604052809291908181526020016000905b82821015610fa757838290600052602060002090600202016040518060400160405290816000820160009054906101000a900473ffffffffffffffffffffffffffffffffffffffff1673ffffffffffffffffffffffffffffffffffffffff1673ffffffffffffffffffffffffffffffffffffffff168152602001600182018054610f16906135e7565b80601f0160208091040260200160405190810160405280929190818152602001828054610f42906135e7565b8015610f8f5780601f10610f6457610100808354040283529160200191610f8f565b820191906000526020600020905b815481529060010190602001808311610f7257829003601f168201915b50505050508152505081526020019060010190610e8d565b50505050858581518110610fbe57610fbd6132d0565b5b6020026020010151602001819052505b5050508080610fdc9061332e565b915050610cf9565b5080838381518110610ff957610ff86132d0565b5b60200260200101819052505080806110109061332e565b915050610c96565b5080935050505090565b60008054906101000a900473ffffffffffffffffffffffffffffffffffffffff1673ffffffffffffffffffffffffffffffffffffffff163373ffffffffffffffffffffffffffffffffffffffff16146110b0576040517f08c379a00000000000000000000000000000000000000000000000000000000081526004016110a79061352c565b60405180910390fd5b600061088560019054906101000a900473ffffffffffffffffffffffffffffffffffffffff1673ffffffffffffffffffffffffffffffffffffffff1663a06101d06040518163ffffffff1660e01b8152600401602060405180830381865afa158015611120573d6000803e3d6000fd5b505050506040513d601f19601f82011682018060405250810190611144919061362d565b9050600061088660009054906101000a900473ffffffffffffffffffffffffffffffffffffffff1673ffffffffffffffffffffffffffffffffffffffff1663a06101d06040518163ffffffff1660e01b8152600401602060405180830381865afa1580156111b6573d6000803e3d6000fd5b505050506040513d601f19601f820116820180604052508101906111da919061362d565b905065082f79cd9000821015611225576040517f08c379a000000000000000000000000000000000000000000000000000000000815260040161121c906136cc565b60405180910390fd5b6516bcc41e900081101561126e576040517f08c379a00000000000000000000000000000000000000000000000000000000081526004016112659061375e565b60405180910390fd5b600161088560006101000a81548160ff0219169083151502179055507f961479333f7baab3eea2ead54f4113612e06058e0f3cdd932672aa14bcd831c260405160405180910390a15050565b602181565b61088560009054906101000a900460ff1681565b61088660009054906101000a900473ffffffffffffffffffffffffffffffffffffffff1681565b60006060611306611618565b611345576040517f08c379a000000000000000000000000000000000000000000000000000000000815260040161133c906132b0565b60405180910390fd5b838361134f6120bb565b8210611390576040517f08c379a0000000000000000000000000000000000000000000000000000000008152600401611387906133c2565b60405180910390fd5b6113986120c4565b81106113d9576040517f08c379a00000000000000000000000000000000000000000000000000000000081526004016113d09061342e565b60405180910390fd5b60006001600087815260200190815260200160002060008881526020019081526020016000206040518060400160405290816000820154815260200160018201805480602002602001604051908101604052809291908181526020016000905b8282101561155357838290600052602060002090600202016040518060400160405290816000820160009054906101000a900473ffffffffffffffffffffffffffffffffffffffff1673ffffffffffffffffffffffffffffffffffffffff1673ffffffffffffffffffffffffffffffffffffffff1681526020016001820180546114c2906135e7565b80601f01602080910402602001604051908101604052809291908181526020018280546114ee906135e7565b801561153b5780601f106115105761010080835404028352916020019161153b565b820191906000526020600020905b81548152906001019060200180831161151e57829003601f168201915b50505050508152505081526020019060010190611439565b505050508152505090506000816020015151036115a657600061157688886120cd565b91505060008054906101000a900473ffffffffffffffffffffffffffffffffffffffff16819550955050506115eb565b6000816020015160018360200151516115bf919061377e565b815181106115d0576115cf6132d0565b5b60200260200101519050806000015181602001519550955050505b50509250929050565b60008054906101000a900473ffffffffffffffffffffffffffffffffffffffff1681565b600061088560009054906101000a900460ff16905090565b6000806000905060006116416120bb565b9050600061164d6120c4565b905060005b818110156118395760005b838110156118255760006001600084815260200190815260200160002060008381526020019081526020016000206040518060400160405290816000820154815260200160018201805480602002602001604051908101604052809291908181526020016000905b828210156117df57838290600052602060002090600202016040518060400160405290816000820160009054906101000a900473ffffffffffffffffffffffffffffffffffffffff1673ffffffffffffffffffffffffffffffffffffffff1673ffffffffffffffffffffffffffffffffffffffff16815260200160018201805461174e906135e7565b80601f016020809104026020016040519081016040528092919081815260200182805461177a906135e7565b80156117c75780601f1061179c576101008083540402835291602001916117c7565b820191906000526020600020905b8154815290600101906020018083116117aa57829003601f168201915b505050505081525050815260200190600101906116c5565b505050508152505090506000816020015151826000015161180091906137b2565b9050808761180e919061380c565b96505050808061181d9061332e565b91505061165d565b5080806118319061332e565b915050611652565b5082935050505090565b600060606000611851611618565b611890576040517f08c379a0000000000000000000000000000000000000000000000000000000008152600401611887906132b0565b60405180910390fd5b848461189a6120bb565b82106118db576040517f08c379a00000000000000000000000000000000000000000000000000000000081526004016118d2906133c2565b60405180910390fd5b6118e36120c4565b8110611924576040517f08c379a000000000000000000000000000000000000000000000000000000000815260040161191b9061342e565b60405180910390fd5b60006001600088815260200190815260200160002060008981526020019081526020016000206040518060400160405290816000820154815260200160018201805480602002602001604051908101604052809291908181526020016000905b82821015611a9e57838290600052602060002090600202016040518060400160405290816000820160009054906101000a900473ffffffffffffffffffffffffffffffffffffffff1673ffffffffffffffffffffffffffffffffffffffff1673ffffffffffffffffffffffffffffffffffffffff168152602001600182018054611a0d906135e7565b80601f0160208091040260200160405190810160405280929190818152602001828054611a39906135e7565b8015611a865780601f10611a5b57610100808354040283529160200191611a86565b820191906000526020600020905b815481529060010190602001808311611a6957829003601f168201915b50505050508152505081526020019060010190611984565b50505050815250509050600081602001515103611ae657600080611ac28a8a6120cd565b91509150620f424082611ad591906137b2565b816000975097509750505050611b2d565b806000015181602001516001836020015151611b02919061377e565b81518110611b1357611b126132d0565b5b602002602001015160200151826020015151955095509550505b50509250925092565b60038260218110611b4657600080fd5b602102018160218110611b5857600080fd5b01600091509150505481565b611b6c611618565b611bab576040517f08c379a0000000000000000000000000000000000000000000000000000000008152600401611ba2906132b0565b60405180910390fd5b8383611bb56120bb565b8210611bf6576040517f08c379a0000000000000000000000000000000000000000000000000000000008152600401611bed906133c2565b60405180910390fd5b611bfe6120c4565b8110611c3f576040517f08c379a0000000000000000000000000000000000000000000000000000000008152600401611c369061342e565b60405180910390fd5b600a841115611c83576040517f08c379a0000000000000000000000000000000000000000000000000000000008152600401611c7a906138d4565b60405180910390fd5b611c8d8686612246565b6000633b9aca0060016000888152602001908152602001600020600089815260200190815260200160002060000154611cc691906137b2565b9050600060016000888152602001908152602001600020600089815260200190815260200160002060010180549050905060006002600188846002611d0b91906137b2565b611d15919061380c565b611d1f919061377e565b88611d2a91906137b2565b611d349190613923565b905060008184611d4491906137b2565b9050803414611d88576040517f08c379a0000000000000000000000000000000000000000000000000000000008152600401611d7f906139a0565b60405180910390fd5b60005b88811015611e995760005b84811015611e77576000600160008d815260200190815260200160002060008e81526020019081526020016000206001018281548110611dd957611dd86132d0565b5b906000526020600020906002020160000160009054906101000a900473ffffffffffffffffffffffffffffffffffffffff16905086600260008373ffffffffffffffffffffffffffffffffffffffff1673ffffffffffffffffffffffffffffffffffffffff1681526020019081526020016000206000828254611e5c919061380c565b92505081905550508080611e6f9061332e565b915050611d96565b508380611e839061332e565b9450508080611e919061332e565b915050611d8b565b50611ea48a8a6123ff565b60005b88811015611fa357600160008b815260200190815260200160002060008c815260200190815260200160002060010160405180604001604052803373ffffffffffffffffffffffffffffffffffffffff1681526020018a815250908060018154018082558091505060019003906000526020600020906002020160009091909190915060008201518160000160006101000a81548173ffffffffffffffffffffffffffffffffffffffff021916908373ffffffffffffffffffffffffffffffffffffffff1602179055506020820151816001019080519060200190611f8d9291906125d0565b5050508080611f9b9061332e565b915050611ea7565b503373ffffffffffffffffffffffffffffffffffffffff167fe658510eab96e65991bb68ee771137bf387eaa3dc4a16189ea0f525766e76b2a8b8b8b8b604051611ff094939291906139c0565b60405180910390a250505050505050505050565b610444826021811061201557600080fd5b60210201816021811061202757600080fd5b0160009150915050805461203a906135e7565b80601f0160208091040260200160405190810160405280929190818152602001828054612066906135e7565b80156120b35780601f10612088576101008083540402835291602001916120b3565b820191906000526020600020905b81548152906001019060200180831161209657829003601f168201915b505050505081565b60006021905090565b60006011905090565b6000606060218410612114576040517f08c379a000000000000000000000000000000000000000000000000000000000815260040161210b90613a58565b60405180910390fd5b60118310612157576040517f08c379a000000000000000000000000000000000000000000000000000000000815260040161214e90613ac4565b60405180910390fd5b6003836021811061216b5761216a6132d0565b5b602102018460218110612181576121806132d0565b5b01546104448460218110612198576121976132d0565b5b6021020185602181106121ae576121ad6132d0565b5b018080546121bb906135e7565b80601f01602080910402602001604051908101604052809291908181526020018280546121e7906135e7565b80156122345780601f1061220957610100808354040283529160200191612234565b820191906000526020600020905b81548152906001019060200180831161221757829003601f168201915b50505050509050915091509250929050565b6000600160008381526020019081526020016000206000848152602001908152602001600020600001541480156122a75750600060016000838152602001908152602001600020600084815260200190815260200160002060010180549050145b156123fb576000806122b984846120cd565b91509150620f4240826122cc91906137b2565b60016000858152602001908152602001600020600086815260200190815260200160002060000181905550600160008481526020019081526020016000206000858152602001908152602001600020600101604051806040016040528060008054906101000a900473ffffffffffffffffffffffffffffffffffffffff1673ffffffffffffffffffffffffffffffffffffffff16815260200183815250908060018154018082558091505060019003906000526020600020906002020160009091909190915060008201518160000160006101000a81548173ffffffffffffffffffffffffffffffffffffffff021916908373ffffffffffffffffffffffffffffffffffffffff16021790555060208201518160010190805190602001906123f59291906125d0565b50505050505b5050565b60005b600160008381526020019081526020016000206000848152602001908152602001600020600101805490508110156125cb576000600160008481526020019081526020016000206000858152602001908152602001600020600101828154811061246f5761246e6132d0565b5b906000526020600020906002020160000160009054906101000a900473ffffffffffffffffffffffffffffffffffffffff1690506000600260008373ffffffffffffffffffffffffffffffffffffffff1673ffffffffffffffffffffffffffffffffffffffff1681526020019081526020016000205411156125b7578073ffffffffffffffffffffffffffffffffffffffff166108fc600260008473ffffffffffffffffffffffffffffffffffffffff1673ffffffffffffffffffffffffffffffffffffffff168152602001908152602001600020549081150290604051600060405180830381858888f19350505050158015612570573d6000803e3d6000fd5b506000600260008373ffffffffffffffffffffffffffffffffffffffff1673ffffffffffffffffffffffffffffffffffffffff168152602001908152602001600020819055505b5080806125c39061332e565b915050612402565b505050565b8280546125dc906135e7565b90600052602060002090601f0160209004810192826125fe5760008555612645565b82601f1061261757805160ff1916838001178555612645565b82800160010185558215612645579182015b82811115612644578251825591602001919060010190612629565b5b50905061265291906126a0565b5090565b604051806040016040528060008152602001606081525090565b6040518060400160405280600073ffffffffffffffffffffffffffffffffffffffff168152602001606081525090565b5b808211156126b95760008160009055506001016126a1565b5090565b600081519050919050565b600082825260208201905092915050565b6000819050602082019050919050565b600081519050919050565b600082825260208201905092915050565b6000819050602082019050919050565b600073ffffffffffffffffffffffffffffffffffffffff82169050919050565b600061274082612715565b9050919050565b61275081612735565b82525050565b60006127628383612747565b60208301905092915050565b6000602082019050919050565b6000612786826126e9565b61279081856126f4565b935061279b83612705565b8060005b838110156127cc5781516127b38882612756565b97506127be8361276e565b92505060018101905061279f565b5085935050505092915050565b60006127e5838361277b565b905092915050565b6000602082019050919050565b6000612805826126bd565b61280f81856126c8565b935083602082028501612821856126d9565b8060005b8581101561285d578484038952815161283e85826127d9565b9450612849836127ed565b925060208a01995050600181019050612825565b50829750879550505050505092915050565b600081519050919050565b600082825260208201905092915050565b6000819050602082019050919050565b600081519050919050565b600082825260208201905092915050565b6000819050602082019050919050565b600081519050919050565b600082825260208201905092915050565b60005b838110156129015780820151818401526020810190506128e6565b83811115612910576000848401525b50505050565b6000601f19601f8301169050919050565b6000612932826128c7565b61293c81856128d2565b935061294c8185602086016128e3565b61295581612916565b840191505092915050565b600061296c8383612927565b905092915050565b6000602082019050919050565b600061298c8261289b565b61299681856128a6565b9350836020820285016129a8856128b7565b8060005b858110156129e457848403895281516129c58582612960565b94506129d083612974565b925060208a019950506001810190506129ac565b50829750879550505050505092915050565b6000612a028383612981565b905092915050565b6000602082019050919050565b6000612a228261286f565b612a2c818561287a565b935083602082028501612a3e8561288b565b8060005b85811015612a7a5784840389528151612a5b85826129f6565b9450612a6683612a0a565b925060208a01995050600181019050612a42565b50829750879550505050505092915050565b60006040820190508181036000830152612aa681856127fa565b90508181036020830152612aba8184612a17565b90509392505050565b6000604051905090565b600080fd5b600080fd5b6000819050919050565b612aea81612ad7565b8114612af557600080fd5b50565b600081359050612b0781612ae1565b92915050565b600080fd5b600080fd5b7f4e487b7100000000000000000000000000000000000000000000000000000000600052604160045260246000fd5b612b4f82612916565b810181811067ffffffffffffffff82111715612b6e57612b6d612b17565b5b80604052505050565b6000612b81612ac3565b9050612b8d8282612b46565b919050565b600067ffffffffffffffff821115612bad57612bac612b17565b5b612bb682612916565b9050602081019050919050565b82818337600083830152505050565b6000612be5612be084612b92565b612b77565b905082815260208101848484011115612c0157612c00612b12565b5b612c0c848285612bc3565b509392505050565b600082601f830112612c2957612c28612b0d565b5b8135612c39848260208601612bd2565b91505092915050565b600080600060608486031215612c5b57612c5a612acd565b5b6000612c6986828701612af8565b9350506020612c7a86828701612af8565b925050604084013567ffffffffffffffff811115612c9b57612c9a612ad2565b5b612ca786828701612c14565b9150509250925092565b612cba81612ad7565b82525050565b6000602082019050612cd56000830184612cb1565b92915050565b60008060408385031215612cf257612cf1612acd565b5b6000612d0085828601612af8565b9250506020612d1185828601612af8565b9150509250929050565b60008060008060808587031215612d3557612d34612acd565b5b6000612d4387828801612af8565b9450506020612d5487828801612af8565b9350506040612d6587828801612af8565b925050606085013567ffffffffffffffff811115612d8657612d85612ad2565b5b612d9287828801612c14565b91505092959194509250565b6000819050919050565b6000612dc3612dbe612db984612715565b612d9e565b612715565b9050919050565b6000612dd582612da8565b9050919050565b6000612de782612dca565b9050919050565b612df781612ddc565b82525050565b6000602082019050612e126000830184612dee565b92915050565b600081519050919050565b600082825260208201905092915050565b6000819050602082019050919050565b600081519050919050565b600082825260208201905092915050565b6000819050602082019050919050565b612e7981612ad7565b82525050565b600081519050919050565b600082825260208201905092915050565b6000819050602082019050919050565b6000604083016000830151612ec36000860182612747565b5060208301518482036020860152612edb8282612927565b9150508091505092915050565b6000612ef48383612eab565b905092915050565b6000602082019050919050565b6000612f1482612e7f565b612f1e8185612e8a565b935083602082028501612f3085612e9b565b8060005b85811015612f6c5784840389528151612f4d8582612ee8565b9450612f5883612efc565b925060208a01995050600181019050612f34565b50829750879550505050505092915050565b6000604083016000830151612f966000860182612e70565b5060208301518482036020860152612fae8282612f09565b9150508091505092915050565b6000612fc78383612f7e565b905092915050565b6000602082019050919050565b6000612fe782612e44565b612ff18185612e4f565b93508360208202850161300385612e60565b8060005b8581101561303f57848403895281516130208582612fbb565b945061302b83612fcf565b925060208a01995050600181019050613007565b50829750879550505050505092915050565b600061305d8383612fdc565b905092915050565b6000602082019050919050565b600061307d82612e18565b6130878185612e23565b93508360208202850161309985612e34565b8060005b858110156130d557848403895281516130b68582613051565b94506130c183613065565b925060208a0199505060018101905061309d565b50829750879550505050505092915050565b600060208201905081810360008301526131018184613072565b905092915050565b60008115159050919050565b61311e81613109565b82525050565b60006020820190506131396000830184613115565b92915050565b61314881612735565b82525050565b600082825260208201905092915050565b600061316a826128c7565b613174818561314e565b93506131848185602086016128e3565b61318d81612916565b840191505092915050565b60006040820190506131ad600083018561313f565b81810360208301526131bf818461315f565b90509392505050565b60006131d382612715565b9050919050565b6131e3816131c8565b82525050565b60006020820190506131fe60008301846131da565b92915050565b60006060820190506132196000830186612cb1565b818103602083015261322b818561315f565b905061323a6040830184612cb1565b949350505050565b6000602082019050818103600083015261325c818461315f565b905092915050565b7f436f6e7472616374206973206e6f7420656e61626c6564000000000000000000600082015250565b600061329a60178361314e565b91506132a582613264565b602082019050919050565b600060208201905081810360008301526132c98161328d565b9050919050565b7f4e487b7100000000000000000000000000000000000000000000000000000000600052603260045260246000fd5b7f4e487b7100000000000000000000000000000000000000000000000000000000600052601160045260246000fd5b600061333982612ad7565b91507fffffffffffffffffffffffffffffffffffffffffffffffffffffffffffffffff820361336b5761336a6132ff565b5b600182019050919050565b7f496e76616c6964207820636f6f7264696e617465000000000000000000000000600082015250565b60006133ac60148361314e565b91506133b782613376565b602082019050919050565b600060208201905081810360008301526133db8161339f565b9050919050565b7f496e76616c6964207920636f6f7264696e617465000000000000000000000000600082015250565b600061341860148361314e565b9150613423826133e2565b602082019050919050565b600060208201905081810360008301526134478161340b565b9050919050565b7f4e6f7420746865206f776e6572206f662074686973206c617965720000000000600082015250565b6000613484601b8361314e565b915061348f8261344e565b602082019050919050565b600060208201905081810360008301526134b381613477565b9050919050565b7f4f6e6c7920746865206f776e65722063616e2063616c6c20746869732066756e60008201527f6374696f6e000000000000000000000000000000000000000000000000000000602082015250565b600061351660258361314e565b9150613521826134ba565b604082019050919050565b6000602082019050818103600083015261354581613509565b9050919050565b7f4e6f2066756e647320746f207769746864726177000000000000000000000000600082015250565b600061358260148361314e565b915061358d8261354c565b602082019050919050565b600060208201905081810360008301526135b181613575565b9050919050565b7f4e487b7100000000000000000000000000000000000000000000000000000000600052602260045260246000fd5b600060028204905060018216806135ff57607f821691505b602082108103613612576136116135b8565b5b50919050565b60008151905061362781612ae1565b92915050565b60006020828403121561364357613642612acd565b5b600061365184828501613618565b91505092915050565b7f4e6f7420656e6f75676820746f74616c2076616c756520696e2053746167652060008201527f3100000000000000000000000000000000000000000000000000000000000000602082015250565b60006136b660218361314e565b91506136c18261365a565b604082019050919050565b600060208201905081810360008301526136e5816136a9565b9050919050565b7f4e6f7420656e6f75676820746f74616c2076616c756520696e2053746167652060008201527f3200000000000000000000000000000000000000000000000000000000000000602082015250565b600061374860218361314e565b9150613753826136ec565b604082019050919050565b600060208201905081810360008301526137778161373b565b9050919050565b600061378982612ad7565b915061379483612ad7565b9250828210156137a7576137a66132ff565b5b828203905092915050565b60006137bd82612ad7565b91506137c883612ad7565b9250817fffffffffffffffffffffffffffffffffffffffffffffffffffffffffffffffff0483118215151615613801576138006132ff565b5b828202905092915050565b600061381782612ad7565b915061382283612ad7565b9250827fffffffffffffffffffffffffffffffffffffffffffffffffffffffffffffffff03821115613857576138566132ff565b5b828201905092915050565b7f43616e6e6f7420627579206d6f7265207468616e203130206c6179657273206160008201527f74206f6e63650000000000000000000000000000000000000000000000000000602082015250565b60006138be60268361314e565b91506138c982613862565b604082019050919050565b600060208201905081810360008301526138ed816138b1565b9050919050565b7f4e487b7100000000000000000000000000000000000000000000000000000000600052601260045260246000fd5b600061392e82612ad7565b915061393983612ad7565b925082613949576139486138f4565b5b828204905092915050565b7f496e636f727265637420504f4c2073656e740000000000000000000000000000600082015250565b600061398a60128361314e565b915061399582613954565b602082019050919050565b600060208201905081810360008301526139b98161397d565b9050919050565b60006080820190506139d56000830187612cb1565b6139e26020830186612cb1565b6139ef6040830185612cb1565b8181036060830152613a01818461315f565b905095945050505050565b7f496e76616c696420782d636f6f7264696e617465000000000000000000000000600082015250565b6000613a4260148361314e565b9150613a4d82613a0c565b602082019050919050565b60006020820190508181036000830152613a7181613a35565b9050919050565b7f496e76616c696420792d636f6f7264696e617465000000000000000000000000600082015250565b6000613aae60148361314e565b9150613ab982613a78565b602082019050919050565b60006020820190508181036000830152613add81613aa1565b905091905056fea2646970667358221220174ca37ee4c6419b95ec5de4e102a56eb631d935947d6b0d9e7a8cb5860cd1bb64736f6c634300080d0033",
  "immutableReferences": {},
  "source": "// SPDX-License-Identifier: MIT\npragma solidity >=0.4.22 <0.9.0;\n\nimport \"./BaseContract.sol\";\nimport \"./DataStorage3.sol\";\n\ncontract Pixelflux3 is BaseContract, DataStorage3 {\n    bool public isEnabled = false;\n    BaseContract public baseContract1;\n    BaseContract public baseContract2;\n\n    event ContractEnabled();\n\n    function isContractEnabled() public override view returns(bool) {\n        return isEnabled;\n    }\n\n    constructor(address _baseContractAddress1, address _baseContractAddress2) {\n        baseContract1 = BaseContract(_baseContractAddress1);\n        baseContract2 = BaseContract(_baseContractAddress2);\n    }\n\n    function enableContract() public onlyOwner {\n        uint256 totalValue1 = baseContract1.calculateTotalValue();\n        uint256 totalValue2 = baseContract2.calculateTotalValue();\n        require(totalValue1 >= 9000 * 10**9, \"Not enough total value in Stage 1\");\n        require(totalValue2 >= 25000 * 10**9, \"Not enough total value in Stage 2\");\n        isEnabled = true;\n        \n        emit ContractEnabled();\n    }\n\n    function getInitialValue(uint x, uint y) internal override view returns (uint256, string memory) {\n        require(x < gridWidth, \"Invalid x-coordinate\");\n        require(y < gridHeight, \"Invalid y-coordinate\");\n        return (initialValues[y][x], colorValues[y][x]);\n    }\n\n    function getGridWidth() internal override pure returns (uint256) {\n        return gridWidth;\n    }\n\n    function getGridHeight() internal override pure returns (uint256) {\n        return gridHeight;\n    }\n}\n",
  "sourcePath": "/home/wao/Meteor/Workspace/Sao/polygon/contracts/Pixelflux3.sol",
  "compiler": {
    "name": "solc",
    "version": "0.8.13+commit.abaa5c0e.Emscripten.clang"
  },
  "schemaVersion": "3.4.13",
  "updatedAt": "2023-09-29T16:40:43.178Z",
  "networkType": "ethereum",
  "devdoc": {
    "kind": "dev",
    "methods": {},
    "version": 1
  },
  "userdoc": {
    "kind": "user",
    "methods": {},
    "version": 1
  }
}