{
  "contractName": "Pixelflux",
  "abi": [
    {
      "inputs": [],
      "stateMutability": "nonpayable",
      "type": "constructor"
    },
    {
      "inputs": [
        {
          "internalType": "uint256",
          "name": "",
          "type": "uint256"
        },
        {
          "internalType": "uint256",
          "name": "",
          "type": "uint256"
        }
      ],
      "name": "grid",
      "outputs": [
        {
          "internalType": "uint256",
          "name": "baseValue",
          "type": "uint256"
        }
      ],
      "stateMutability": "view",
      "type": "function",
      "constant": true
    },
    {
      "inputs": [],
      "name": "gridHeight",
      "outputs": [
        {
          "internalType": "uint256",
          "name": "",
          "type": "uint256"
        }
      ],
      "stateMutability": "view",
      "type": "function",
      "constant": true
    },
    {
      "inputs": [],
      "name": "gridWidth",
      "outputs": [
        {
          "internalType": "uint256",
          "name": "",
          "type": "uint256"
        }
      ],
      "stateMutability": "view",
      "type": "function",
      "constant": true
    },
    {
      "inputs": [
        {
          "internalType": "uint256",
          "name": "",
          "type": "uint256"
        },
        {
          "internalType": "uint256",
          "name": "",
          "type": "uint256"
        }
      ],
      "name": "initialValues",
      "outputs": [
        {
          "internalType": "uint256",
          "name": "",
          "type": "uint256"
        }
      ],
      "stateMutability": "view",
      "type": "function",
      "constant": true
    },
    {
      "inputs": [],
      "name": "owner",
      "outputs": [
        {
          "internalType": "address",
          "name": "",
          "type": "address"
        }
      ],
      "stateMutability": "view",
      "type": "function",
      "constant": true
    },
    {
      "inputs": [
        {
          "internalType": "uint256",
          "name": "x",
          "type": "uint256"
        },
        {
          "internalType": "uint256",
          "name": "y",
          "type": "uint256"
        },
        {
          "internalType": "uint256",
          "name": "layerIndex",
          "type": "uint256"
        },
        {
          "internalType": "string",
          "name": "newColor",
          "type": "string"
        }
      ],
      "name": "setLayerColor",
      "outputs": [],
      "stateMutability": "nonpayable",
      "type": "function"
    },
    {
      "inputs": [
        {
          "internalType": "uint256",
          "name": "x",
          "type": "uint256"
        },
        {
          "internalType": "uint256",
          "name": "y",
          "type": "uint256"
        },
        {
          "internalType": "string",
          "name": "color",
          "type": "string"
        }
      ],
      "name": "buyLayer",
      "outputs": [],
      "stateMutability": "payable",
      "type": "function",
      "payable": true
    },
    {
      "inputs": [
        {
          "internalType": "uint256",
          "name": "x",
          "type": "uint256"
        },
        {
          "internalType": "uint256",
          "name": "y",
          "type": "uint256"
        },
        {
          "internalType": "uint256",
          "name": "numLayersToAdd",
          "type": "uint256"
        },
        {
          "internalType": "string",
          "name": "color",
          "type": "string"
        }
      ],
      "name": "buyMultipleLayers",
      "outputs": [],
      "stateMutability": "payable",
      "type": "function",
      "payable": true
    },
    {
      "inputs": [
        {
          "internalType": "uint256",
          "name": "x",
          "type": "uint256"
        },
        {
          "internalType": "uint256",
          "name": "y",
          "type": "uint256"
        }
      ],
      "name": "getCellState",
      "outputs": [
        {
          "internalType": "uint256",
          "name": "",
          "type": "uint256"
        },
        {
          "internalType": "string",
          "name": "",
          "type": "string"
        },
        {
          "internalType": "uint256",
          "name": "",
          "type": "uint256"
        }
      ],
      "stateMutability": "view",
      "type": "function",
      "constant": true
    }
  ],
  "bytecode": "0x60806040523480156200001157600080fd5b50604051806104200160405280600360ff168152602001600660ff168152602001600960ff168152602001600c60ff168152602001600f60ff168152602001601260ff168152602001601560ff168152602001601860ff168152602001601b60ff168152602001601e60ff168152602001602160ff168152602001602460ff168152602001602760ff168152602001602a60ff168152602001602d60ff168152602001603060ff168152602001603360ff168152602001603660ff168152602001603960ff168152602001603c60ff168152602001603f60ff168152602001604260ff168152602001604560ff168152602001604860ff168152602001604b60ff168152602001604e60ff168152602001605160ff168152602001605460ff168152602001605760ff168152602001605a60ff168152602001605d60ff168152602001606060ff168152602001606360ff16815250600080601a81106200017d576200017c62002dbf565b5b602102019060216200019192919062002d0b565b50604051806104200160405280600660ff168152602001600c60ff168152602001601260ff168152602001601860ff168152602001601e60ff168152602001602460ff168152602001602a60ff168152602001603060ff168152602001603660ff168152602001603c60ff168152602001604260ff168152602001604860ff168152602001604e60ff168152602001605460ff168152602001605a60ff168152602001606060ff168152602001606460ff168152602001606e60ff168152602001606e60ff168152602001607860ff168152602001608260ff168152602001608260ff168152602001608c60ff168152602001608c60ff168152602001609660ff16815260200160a060ff16815260200160a060ff16815260200160aa60ff16815260200160aa60ff16815260200160b460ff16815260200160be60ff16815260200160be60ff16815260200160c860ff1681525060006001601a8110620002fe57620002fd62002dbf565b5b602102019060216200031292919062002d0b565b50604051806104200160405280600961ffff168152602001601261ffff168152602001601b61ffff168152602001602461ffff168152602001602d61ffff16815260200161021c61ffff16815260200161028061ffff1681526020016102e461ffff16815260200161035261ffff1681526020016103c061ffff16815260200161044c61ffff168152602001606e61ffff168152602001607861ffff168152602001608261ffff168152602001608c61ffff168152602001608c61ffff168152602001609661ffff16815260200160a061ffff16815260200160aa61ffff16815260200160b461ffff16815260200160be61ffff16815260200160c861ffff16815260200160d261ffff16815260200160dc61ffff16815260200160dc61ffff16815260200160e661ffff16815260200160f061ffff16815260200160fa61ffff16815260200161010461ffff16815260200161010e61ffff16815260200161011861ffff16815260200161012261ffff16815260200161012c61ffff1681525060006002601a8110620004ab57620004aa62002dbf565b5b60210201906021620004bf92919062002d55565b50604051806104200160405280600c61ffff168152602001601861ffff168152602001602461ffff168152602001603061ffff168152602001603c61ffff1681526020016102d061ffff168152602001605461ffff168152602001606061ffff16815260200161044c61ffff168152602001607861ffff168152602001608261ffff16815260200161064061ffff16815260200160a061ffff16815260200160aa61ffff16815260200160b461ffff1681526020016108fc61ffff1681526020016109c461ffff168152602001610a8c61ffff168152602001610b5461ffff168152602001610c8061ffff16815260200160fa61ffff16815260200161010461ffff168152602001610f3c61ffff16815260200161106861ffff16815260200161113061ffff16815260200161125c61ffff16815260200161014061ffff16815260200161015461ffff16815260200161015e61ffff16815260200161016861ffff16815260200161017261ffff16815260200161017c61ffff16815260200161019061ffff1681525060006003601a811062000661576200066062002dbf565b5b602102019060216200067592919062002d55565b50604051806104200160405280600f61ffff168152602001601e61ffff168152602001602d61ffff168152602001603c61ffff168152602001604b61ffff16815260200161038e61ffff168152602001606e61ffff16815260200161051461ffff168152602001608c61ffff168152602001609661ffff16815260200160aa61ffff16815260200160b461ffff16815260200161089861ffff16815260200160d261ffff168152602001610a8c61ffff16815260200160f061ffff168152602001610c8061ffff16815260200161010e61ffff16815260200161012261ffff16815260200161012c61ffff1681526020016110cc61ffff1681526020016111f861ffff16815260200161015e61ffff1681526020016114b461ffff16815260200161017c61ffff16815260200161177061ffff16815260200161019a61ffff1681526020016101a461ffff1681526020016101ae61ffff1681526020016101c261ffff1681526020016101cc61ffff1681526020016101e061ffff1681526020016101f461ffff1681525060006004601a811062000818576200081762002dbf565b5b602102019060216200082c92919062002d55565b50604051806104200160405280601261ffff168152602001602461ffff168152602001603661ffff168152602001604861ffff168152602001605a61ffff16815260200161044c61ffff168152602001608261ffff1681526020016105dc61ffff16815260200160a061ffff16815260200160b461ffff16815260200161089861ffff1681526020016109c461ffff16815260200160e661ffff168152602001610bb861ffff16815260200161010e61ffff168152602001610e1061ffff16815260200161013661ffff16815260200161106861ffff16815260200161119461ffff16815260200161016861ffff1681526020016114b461ffff1681526020016115e061ffff16815260200161019a61ffff16815260200161190061ffff1681526020016101c261ffff168152602001611ce861ffff1681526020016101ea61ffff1681526020016101f461ffff16815260200161020861ffff16815260200161021c61ffff16815260200161023061ffff16815260200161024461ffff16815260200161024e61ffff1681525060006005601a8110620009d257620009d162002dbf565b5b60210201906021620009e692919062002d55565b50604051806104200160405280601561ffff168152602001602a61ffff168152602001603f61ffff168152602001605461ffff168152602001606e61ffff16815260200161051461ffff168152602001609661ffff16815260200161070861ffff16815260200160be61ffff16815260200160d261ffff168152602001610a2861ffff168152602001610b5461ffff16815260200161010e61ffff168152602001610e1061ffff16815260200161014061ffff16815260200161106861ffff16815260200161016861ffff16815260200161138861ffff16815260200161019061ffff1681526020016116a861ffff1681526020016101b861ffff168152602001611a2c61ffff1681526020016101e061ffff168152602001611e1461ffff16815260200161021261ffff16815260200161226061ffff16815260200161023a61ffff16815260200161024e61ffff16815260200161026261ffff16815260200161027661ffff16815260200161028a61ffff16815260200161029e61ffff1681526020016102b261ffff1681525060006006601a811062000b8d5762000b8c62002dbf565b5b6021020190602162000ba192919062002d55565b50604051806104200160405280601861ffff168152602001603061ffff168152602001604861ffff168152602001606061ffff168152602001607861ffff1681526020016105dc61ffff16815260200160aa61ffff16815260200161083461ffff16815260200160dc61ffff16815260200160f061ffff168152602001610bb861ffff16815260200161012261ffff168152602001610e7461ffff16815260200161100461ffff16815260200161016861ffff16815260200161132461ffff16815260200161019a61ffff1681526020016116a861ffff1681526020016101cc61ffff168152602001611a2c61ffff1681526020016101f461ffff168152602001611e7861ffff16815260200161022661ffff1681526020016122c461ffff16815260200161025861ffff16815260200161271061ffff168152602001612af861ffff168152602001612ee061ffff1681526020016102bc61ffff1681526020016102d061ffff1681526020016102e461ffff16815260200161030261ffff16815260200161031661ffff1681525060006007601a811062000d485762000d4762002dbf565b5b6021020190602162000d5c92919062002d55565b50604051806104200160405280601b61ffff168152602001603661ffff168152602001605161ffff168152602001606e61ffff168152602001608c61ffff1681526020016106a461ffff16815260200160be61ffff16815260200161096061ffff16815260200160f061ffff168152602001610c1c61ffff16815260200161012c61ffff16815260200161014061ffff1681526020016110cc61ffff16815260200161125c61ffff16815260200161019a61ffff1681526020016115e061ffff1681526020016101cc61ffff1681526020016119c861ffff1681526020016101fe61ffff168152602001611e1461ffff16815260200161023a61ffff1681526020016122c461ffff16815260200161026c61ffff16815260200161271061ffff1681526020016102a861ffff168152602001612ee061ffff168152602001612ee061ffff1681526020016132c861ffff16815260200161030c61ffff16815260200161032a61ffff16815260200161034861ffff16815260200161035c61ffff16815260200161037a61ffff1681525060006008601a811062000f045762000f0362002dbf565b5b6021020190602162000f1892919062002d55565b50604051806104200160405280601e61ffff168152602001603c61ffff168152602001605a61ffff168152602001607861ffff168152602001609661ffff16815260200161076c61ffff16815260200160d261ffff168152602001610a8c61ffff16815260200161010e61ffff168152602001610dac61ffff168152602001610f3c61ffff1681526020016110cc61ffff1681526020016112c061ffff1681526020016114b461ffff1681526020016101c261ffff16815260200161189c61ffff1681526020016101fe61ffff168152602001611d4c61ffff168152602001611f4061ffff1681526020016121fc61ffff16815260200161027661ffff16815260200161271061ffff1681526020016102b261ffff168152602001612ee061ffff1681526020016102ee61ffff16815260200161030c61ffff16815260200161032a61ffff168152602001613a9861ffff16815260200161036661ffff16815260200161038461ffff1681526020016103a261ffff1681526020016103c061ffff1681526020016103de61ffff1681525060006009601a8110620010c157620010c062002dbf565b5b60210201906021620010d592919062002d55565b50604051806104200160405280602161ffff168152602001604261ffff168152602001606361ffff168152602001608261ffff16815260200160a061ffff16815260200161089861ffff16815260200160e661ffff168152602001610bb861ffff16815260200161012c61ffff168152602001610f3c61ffff16815260200161016861ffff16815260200161019061ffff1681526020016101ae61ffff16815260200161170c61ffff1681526020016101ea61ffff168152602001611b5861ffff16815260200161023061ffff16815260200161024e61ffff16815260200161027661ffff16815260200161029461ffff1681526020016102b261ffff168152602001612af861ffff168152602001612ee061ffff16815260200161031661ffff1681526020016136b061ffff16815260200161035c61ffff16815260200161037a61ffff16815260200161426861ffff1681526020016103c061ffff1681526020016103de61ffff1681526020016103e861ffff16815260200161044c61ffff16815260200161044c61ffff168152506000600a601a81106200127e576200127d62002dbf565b5b602102019060216200129292919062002d55565b50604051806104200160405280602461ffff168152602001604861ffff168152602001606e61ffff168152602001608c61ffff16815260200160b461ffff16815260200161096061ffff16815260200160fa61ffff168152602001610ce461ffff16815260200161014061ffff1681526020016110cc61ffff16815260200161019061ffff1681526020016101ae61ffff1681526020016101d661ffff1681526020016101f461ffff168152602001611c2061ffff16815260200161024461ffff16815260200161213461ffff16815260200161028a61ffff1681526020016102a861ffff1681526020016102d061ffff168152602001612ee061ffff16815260200161031661ffff1681526020016132c861ffff1681526020016136b061ffff168152602001613a9861ffff16815260200161426861ffff16815260200161465061ffff1681526020016103e861ffff1681526020016103e861ffff16815260200161044c61ffff16815260200161044c61ffff1681526020016104b061ffff1681526020016104b061ffff168152506000600b601a81106200143b576200143a62002dbf565b5b602102019060216200144f92919062002d55565b50604051806104200160405280602761ffff168152602001604e61ffff168152602001607861ffff16815260200160a061ffff16815260200160c861ffff168152602001610a2861ffff16815260200161010e61ffff168152602001610e1061ffff16815260200161015e61ffff16815260200161125c61ffff1681526020016101ae61ffff1681526020016101d661ffff1681526020016101fe61ffff16815260200161022661ffff16815260200161024e61ffff16815260200161219861ffff1681526020016124b861ffff16815260200161271061ffff168152602001612af861ffff168152602001612ee061ffff16815260200161033461ffff16815260200161035c61ffff16815260200161038461ffff1681526020016103ac61ffff1681526020016103d461ffff1681526020016103e861ffff16815260200161044c61ffff16815260200161044c61ffff16815260200161044c61ffff1681526020016104b061ffff1681526020016104b061ffff1681526020016104b061ffff16815260200161051461ffff168152506000600c601a8110620015f957620015f862002dbf565b5b602102019060216200160d92919062002d55565b50604051806104200160405280602a61ffff168152602001605461ffff168152602001608261ffff16815260200160aa61ffff16815260200160d261ffff168152602001610b5461ffff168152602001610d4861ffff168152602001610fa061ffff16815260200161119461ffff16815260200161145061ffff1681526020016101cc61ffff1681526020016101f461ffff16815260200161022661ffff16815260200161024e61ffff16815260200161027661ffff16815260200161029e61ffff1681526020016102c661ffff1681526020016102f861ffff16815260200161032061ffff16815260200161034861ffff16815260200161037061ffff16815260200161039861ffff1681526020016103ca61ffff1681526020016103e861ffff16815260200161044c61ffff16815260200161044c61ffff16815260200161044c61ffff1681526020016104b061ffff1681526020016104b061ffff16815260200161051461ffff16815260200161051461ffff16815260200161051461ffff16815260200161057861ffff168152506000600d601a8110620017b757620017b662002dbf565b5b60210201906021620017cb92919062002d55565b50604051806104200160405280602d61ffff168152602001605a61ffff168152602001608c61ffff16815260200160b461ffff16815260200160dc61ffff16815260200161010e61ffff168152602001610e7461ffff1681526020016110cc61ffff16815260200161132461ffff1681526020016115e061ffff1681526020016101ea61ffff16815260200161021c61ffff16815260200161024e61ffff16815260200161027661ffff16815260200161029e61ffff1681526020016102d061ffff16815260200161030261ffff16815260200161032a61ffff16815260200161035c61ffff16815260200161038461ffff1681526020016103b661ffff1681526020016103de61ffff1681526020016103e861ffff16815260200161044c61ffff16815260200161044c61ffff1681526020016104b061ffff1681526020016104b061ffff16815260200161051461ffff16815260200161051461ffff16815260200161051461ffff16815260200161057861ffff16815260200161057861ffff1681526020016105dc61ffff168152506000600e601a811062001975576200197462002dbf565b5b602102019060216200198992919062002d55565b50604051806104200160405280603061ffff168152602001606061ffff168152602001608c61ffff16815260200160be61ffff16815260200160f061ffff16815260200161012261ffff16815260200161015461ffff16815260200161017c61ffff1681526020016101ae61ffff1681526020016101e061ffff16815260200161021261ffff16815260200161024461ffff16815260200161026c61ffff16815260200161029e61ffff1681526020016102d061ffff16815260200161030261ffff16815260200161033461ffff16815260200161035c61ffff16815260200161038e61ffff1681526020016103c061ffff1681526020016103e861ffff16815260200161044c61ffff16815260200161044c61ffff1681526020016104b061ffff1681526020016104b061ffff1681526020016104b061ffff16815260200161051461ffff16815260200161051461ffff16815260200161057861ffff16815260200161057861ffff1681526020016105dc61ffff1681526020016105dc61ffff16815260200161064061ffff168152506000600f601a811062001b335762001b3262002dbf565b5b6021020190602162001b4792919062002d55565b50604051806104200160405280603361ffff168152602001606461ffff168152602001609661ffff16815260200160c861ffff16815260200161010461ffff16815260200161013661ffff16815260200161016861ffff16815260200161019a61ffff1681526020016101cc61ffff1681526020016101fe61ffff16815260200161023061ffff16815260200161026261ffff16815260200161029461ffff1681526020016102c661ffff16815260200161030261ffff16815260200161033461ffff16815260200161036661ffff1681526020016136b061ffff168152602001613a9861ffff1681526020016103e861ffff16815260200161044c61ffff16815260200161044c61ffff1681526020016104b061ffff1681526020016104b061ffff16815260200161051461ffff16815260200161051461ffff16815260200161057861ffff16815260200161057861ffff1681526020016105dc61ffff1681526020016105dc61ffff16815260200161064061ffff16815260200161064061ffff1681526020016106a461ffff1681525060006010601a811062001cf25762001cf162002dbf565b5b6021020190602162001d0692919062002d55565b50604051806104200160405280603661ffff168152602001606e61ffff16815260200160a061ffff16815260200160dc61ffff16815260200161010e61ffff16815260200161014061ffff16815260200161017c61ffff1681526020016101ae61ffff1681526020016101ea61ffff16815260200161021c61ffff16815260200161024e61ffff16815260200161028a61ffff1681526020016102bc61ffff1681526020016102f861ffff16815260200161032a61ffff16815260200161035c61ffff1681526020016136b061ffff168152602001613a9861ffff16815260200161426861ffff16815260200161044c61ffff16815260200161044c61ffff1681526020016104b061ffff1681526020016104b061ffff16815260200161051461ffff16815260200161057861ffff16815260200161057861ffff1681526020016105dc61ffff1681526020016105dc61ffff16815260200161064061ffff16815260200161064061ffff1681526020016106a461ffff1681526020016106a461ffff16815260200161070861ffff1681525060006011601a811062001eb15762001eb062002dbf565b5b6021020190602162001ec592919062002d55565b50604051806104200160405280603961ffff168152602001606e61ffff16815260200160aa61ffff16815260200160e661ffff16815260200161012261ffff16815260200161015461ffff16815260200161019061ffff1681526020016101cc61ffff1681526020016101fe61ffff16815260200161023a61ffff16815260200161027661ffff16815260200161251c61ffff16815260200161271061ffff168152602001612ee061ffff1681526020016132c861ffff16815260200161038e61ffff168152602001613a9861ffff1681526020016103e861ffff16815260200161465061ffff16815260200161044c61ffff1681526020016104b061ffff16815260200161051461ffff16815260200161051461ffff16815260200161057861ffff16815260200161057861ffff1681526020016105dc61ffff1681526020016105dc61ffff16815260200161064061ffff1681526020016106a461ffff1681526020016106a461ffff16815260200161070861ffff16815260200161070861ffff16815260200161076c61ffff1681525060006012601a811062002070576200206f62002dbf565b5b602102019060216200208492919062002d55565b50604051806104200160405280603c61ffff168152602001607861ffff16815260200160b461ffff16815260200160f061ffff16815260200161012c61ffff16815260200161016861ffff1681526020016101a461ffff1681526020016101e061ffff16815260200161021c61ffff16815260200161025861ffff16815260200161238c61ffff16815260200161271061ffff168152602001612af861ffff168152602001612ee061ffff16815260200161038461ffff168152602001613a9861ffff168152602001613e8061ffff16815260200161044c61ffff168152602001614a3861ffff1681526020016104b061ffff16815260200161051461ffff16815260200161051461ffff16815260200161057861ffff16815260200161057861ffff1681526020016105dc61ffff16815260200161064061ffff16815260200161064061ffff1681526020016106a461ffff1681526020016106a461ffff16815260200161070861ffff16815260200161076c61ffff16815260200161076c61ffff1681526020016107d061ffff1681525060006013601a81106200222f576200222e62002dbf565b5b602102019060216200224392919062002d55565b50604051806104200160405280603f61ffff168152602001608261ffff16815260200160be61ffff16815260200160fa61ffff16815260200161014061ffff16815260200161017c61ffff1681526020016101b861ffff1681526020016101f461ffff16815260200161023a61ffff16815260200161027661ffff16815260200161258061ffff168152602001612af861ffff16815260200161033461ffff1681526020016132c861ffff1681526020016103b661ffff1681526020016103e861ffff16815260200161426861ffff16815260200161044c61ffff16815260200161520861ffff16815260200161051461ffff16815260200161051461ffff16815260200161057861ffff16815260200161057861ffff1681526020016105dc61ffff16815260200161064061ffff16815260200161064061ffff1681526020016106a461ffff16815260200161070861ffff16815260200161070861ffff16815260200161076c61ffff1681526020016107d061ffff1681526020016107d061ffff16815260200161083461ffff1681525060006014601a8110620023ee57620023ed62002dbf565b5b602102019060216200240292919062002d55565b50604051806104200160405280604261ffff168152602001608261ffff16815260200160c861ffff16815260200161010461ffff16815260200161014a61ffff16815260200161019061ffff1681526020016101cc61ffff16815260200161021261ffff16815260200161024e61ffff16815260200161029461ffff1681526020016102da61ffff168152602001612ee061ffff16815260200161035c61ffff1681526020016136b061ffff1681526020016103de61ffff16815260200161044c61ffff168152602001614a3861ffff1681526020016104b061ffff1681526020016155f061ffff16815260200161051461ffff16815260200161057861ffff1681526020016105dc61ffff1681526020016105dc61ffff16815260200161064061ffff1681526020016106a461ffff1681526020016106a461ffff16815260200161070861ffff16815260200161070861ffff16815260200161076c61ffff1681526020016107d061ffff1681526020016107d061ffff16815260200161083461ffff16815260200161089861ffff1681525060006015601a8110620025ae57620025ad62002dbf565b5b60210201906021620025c292919062002d55565b50604051806104200160405280604561ffff168152602001608c61ffff16815260200160d261ffff16815260200161011861ffff16815260200161015e61ffff16815260200161019a61ffff1681526020016101e061ffff16815260200161022661ffff16815260200161026c61ffff1681526020016102b261ffff1681526020016102f861ffff16815260200161033e61ffff1681526020016136b061ffff1681526020016103ca61ffff168152602001613e8061ffff16815260200161044c61ffff1681526020016104b061ffff1681526020016104b061ffff1681526020016159d861ffff16815260200161057861ffff16815260200161057861ffff1681526020016105dc61ffff16815260200161064061ffff1681526020016106a461ffff1681526020016106a461ffff16815260200161070861ffff16815260200161076c61ffff16815260200161076c61ffff1681526020016107d061ffff16815260200161083461ffff16815260200161083461ffff16815260200161089861ffff1681526020016108fc61ffff1681525060006016601a81106200276e576200276d62002dbf565b5b602102019060216200278292919062002d55565b50604051806104200160405280604861ffff168152602001608c61ffff16815260200160dc61ffff16815260200161012261ffff16815260200161016861ffff1681526020016101ae61ffff1681526020016101f461ffff16815260200161024461ffff16815260200161028a61ffff1681526020016102d061ffff16815260200161031661ffff16815260200161035c61ffff1681526020016103ac61ffff168152602001613e8061ffff16815260200161044c61ffff168152602001614a3861ffff1681526020016104b061ffff16815260200161051461ffff1681526020016161a861ffff16815260200161057861ffff1681526020016105dc61ffff16815260200161064061ffff1681526020016106a461ffff1681526020016106a461ffff16815260200161070861ffff16815260200161076c61ffff16815260200161076c61ffff1681526020016107d061ffff16815260200161083461ffff16815260200161089861ffff16815260200161089861ffff1681526020016108fc61ffff16815260200161096061ffff1681525060006017601a81106200292e576200292d62002dbf565b5b602102019060216200294292919062002d55565b50604051806104200160405280604b61ffff168152602001609661ffff16815260200160e661ffff16815260200161012c61ffff16815260200161017c61ffff1681526020016101c261ffff16815260200161021261ffff16815260200161025861ffff1681526020016102a861ffff1681526020016102ee61ffff168152602001612ee061ffff1681526020016136b061ffff168152602001613a9861ffff16815260200161426861ffff168152602001614a3861ffff1681526020016104b061ffff1681526020016155f061ffff16815260200161057861ffff16815260200161659061ffff16815260200161714861ffff16815260200161791861ffff1681526020016184d061ffff1681526020016106a461ffff16815260200161070861ffff16815260200161076c61ffff1681526020016107d061ffff1681526020016107d061ffff16815260200161083461ffff16815260200161089861ffff1681526020016108fc61ffff1681526020016108fc61ffff16815260200161096061ffff1681526020016109c461ffff1681525060006018601a811062002aee5762002aed62002dbf565b5b6021020190602162002b0292919062002d55565b50604051806104200160405280604e61ffff16815260200160a061ffff16815260200160e661ffff16815260200161013661ffff16815260200161018661ffff1681526020016101d661ffff16815260200161022661ffff16815260200161026c61ffff1681526020016102bc61ffff168152602001612af861ffff1681526020016132c861ffff168152602001613a9861ffff168152602001613e8061ffff16815260200161465061ffff168152602001614e2061ffff1681526020016155f061ffff168152602001615dc061ffff16815260200161659061ffff168152602001616d6061ffff16815260200161791861ffff1681526020016180e861ffff168152602001618ca061ffff16815260200161985861ffff16815260200161a41061ffff1681526020016107d061ffff1681526020016107d061ffff16815260200161083461ffff16815260200161089861ffff1681526020016108fc61ffff1681526020016108fc61ffff16815260200161096061ffff1681526020016109c461ffff168152602001610a2861ffff1681525060006019601a811062002cae5762002cad62002dbf565b5b6021020190602162002cc292919062002d55565b503361035a60006101000a81548173ffffffffffffffffffffffffffffffffffffffff021916908373ffffffffffffffffffffffffffffffffffffffff16021790555062002dee565b826021810192821562002d42579160200282015b8281111562002d41578251829060ff1690559160200191906001019062002d1f565b5b50905062002d51919062002da0565b5090565b826021810192821562002d8d579160200282015b8281111562002d8c578251829061ffff1690559160200191906001019062002d69565b5b50905062002d9c919062002da0565b5090565b5b8082111562002dbb57600081600090555060010162002da1565b5090565b7f4e487b7100000000000000000000000000000000000000000000000000000000600052603260045260246000fd5b6117948062002dfe6000396000f3fe6080604052600436106100865760003560e01c806338b145df1161005957806338b145df146101385780638da5cb5b14610163578063ad9591e71461018e578063b0e987db146101cd578063eca83a691461020a57610086565b80630ce9befa1461008b578063108c5e14146100a7578063146008e3146100d257806317ba786f1461010f575b600080fd5b6100a560048036038101906100a09190611146565b610226565b005b3480156100b357600080fd5b506100bc6102c2565b6040516100c991906111c4565b60405180910390f35b3480156100de57600080fd5b506100f960048036038101906100f491906111df565b6102c7565b60405161010691906111c4565b60405180910390f35b34801561011b57600080fd5b506101366004803603810190610131919061121f565b6102f3565b005b34801561014457600080fd5b5061014d6104c2565b60405161015a91906111c4565b60405180910390f35b34801561016f57600080fd5b506101786104c7565b60405161018591906112e3565b60405180910390f35b34801561019a57600080fd5b506101b560048036038101906101b091906111df565b6104ee565b6040516101c493929190611386565b60405180910390f35b3480156101d957600080fd5b506101f460048036038101906101ef91906111df565b610750565b60405161020191906111c4565b60405180910390f35b610224600480360381019061021f919061121f565b61077e565b005b82826021821061026b576040517f08c379a000000000000000000000000000000000000000000000000000000000815260040161026290611410565b60405180910390fd5b601a81106102ae576040517f08c379a00000000000000000000000000000000000000000000000000000000081526004016102a59061147c565b60405180910390fd5b6102bb858560018661077e565b5050505050565b601a81565b61035b602052816000526040600020602052806000526040600020600091509150508060000154905081565b838360218210610338576040517f08c379a000000000000000000000000000000000000000000000000000000000815260040161032f90611410565b60405180910390fd5b601a811061037b576040517f08c379a00000000000000000000000000000000000000000000000000000000081526004016103729061147c565b60405180910390fd5b8585853373ffffffffffffffffffffffffffffffffffffffff1661035b6000858152602001908152602001600020600084815260200190815260200160002060010182815481106103cf576103ce61149c565b5b906000526020600020906002020160000160009054906101000a900473ffffffffffffffffffffffffffffffffffffffff1673ffffffffffffffffffffffffffffffffffffffff1614610457576040517f08c379a000000000000000000000000000000000000000000000000000000000815260040161044e90611517565b60405180910390fd5b8561035b60008b815260200190815260200160002060008a815260200190815260200160002060010188815481106104925761049161149c565b5b906000526020600020906002020160010190805190602001906104b6929190610f13565b50505050505050505050565b602181565b61035a60009054906101000a900473ffffffffffffffffffffffffffffffffffffffff1681565b600060606000848460218210610539576040517f08c379a000000000000000000000000000000000000000000000000000000000815260040161053090611410565b60405180910390fd5b601a811061057c576040517f08c379a00000000000000000000000000000000000000000000000000000000081526004016105739061147c565b60405180910390fd5b600061035b600089815260200190815260200160002060008881526020019081526020016000206040518060400160405290816000820154815260200160018201805480602002602001604051908101604052809291908181526020016000905b828210156106f757838290600052602060002090600202016040518060400160405290816000820160009054906101000a900473ffffffffffffffffffffffffffffffffffffffff1673ffffffffffffffffffffffffffffffffffffffff1673ffffffffffffffffffffffffffffffffffffffff16815260200160018201805461066690611566565b80601f016020809104026020016040519081016040528092919081815260200182805461069290611566565b80156106df5780601f106106b4576101008083540402835291602001916106df565b820191906000526020600020905b8154815290600101906020018083116106c257829003601f168201915b505050505081525050815260200190600101906105dd565b5050505081525050905080600001518160200151600183602001515161071d91906115c6565b8151811061072e5761072d61149c565b5b6020026020010151602001518260200151519550955095505050509250925092565b600082601a811061076057600080fd5b60210201816021811061077257600080fd5b01600091509150505481565b8383602182106107c3576040517f08c379a00000000000000000000000000000000000000000000000000000000081526004016107ba90611410565b60405180910390fd5b601a8110610806576040517f08c379a00000000000000000000000000000000000000000000000000000000081526004016107fd9061147c565b60405180910390fd5b6108108686610d64565b600061035b600088815260200190815260200160002060008781526020019081526020016000206000015490506000805b868110156108b657828161035b60008c815260200190815260200160002060008b81526020019081526020016000206001018054905061088191906115fa565b61088b9190611650565b8361089691906115fa565b826108a191906115fa565b915080806108ae906116aa565b915050610841565b508034146108f9576040517f08c379a00000000000000000000000000000000000000000000000000000000081526004016108f09061173e565b60405180910390fd5b600061035b60008a8152602001908152602001600020600089815260200190815260200160002060010180549050905060008167ffffffffffffffff8111156109455761094461101b565b5b6040519080825280602002602001820160405280156109735781602001602082028036833780820191505090505b50905060008267ffffffffffffffff8111156109925761099161101b565b5b6040519080825280602002602001820160405280156109c05781602001602082028036833780820191505090505b50905060005b83811015610b6c57600061035b60008e815260200190815260200160002060008d81526020019081526020016000206001018281548110610a0a57610a0961149c565b5b906000526020600020906002020160000160009054906101000a900473ffffffffffffffffffffffffffffffffffffffff1690506000805b83811015610ae2578273ffffffffffffffffffffffffffffffffffffffff16868281518110610a7457610a7361149c565b5b602002602001015173ffffffffffffffffffffffffffffffffffffffff1603610acf5788858281518110610aab57610aaa61149c565b5b60200260200101818151610abf91906115fa565b9150818152505060019150610ae2565b8080610ada906116aa565b915050610a42565b5080610b575781858481518110610afc57610afb61149c565b5b602002602001019073ffffffffffffffffffffffffffffffffffffffff16908173ffffffffffffffffffffffffffffffffffffffff168152505087848481518110610b4a57610b4961149c565b5b6020026020010181815250505b50508080610b64906116aa565b9150506109c6565b5060005b83811015610c5557600073ffffffffffffffffffffffffffffffffffffffff16838281518110610ba357610ba261149c565b5b602002602001015173ffffffffffffffffffffffffffffffffffffffff1614610c4257828181518110610bd957610bd861149c565b5b602002602001015173ffffffffffffffffffffffffffffffffffffffff166108fc838381518110610c0d57610c0c61149c565b5b60200260200101519081150290604051600060405180830381858888f19350505050158015610c40573d6000803e3d6000fd5b505b8080610c4d906116aa565b915050610b70565b5060005b89811015610d565761035b60008d815260200190815260200160002060008c815260200190815260200160002060010160405180604001604052803373ffffffffffffffffffffffffffffffffffffffff1681526020018b815250908060018154018082558091505060019003906000526020600020906002020160009091909190915060008201518160000160006101000a81548173ffffffffffffffffffffffffffffffffffffffff021916908373ffffffffffffffffffffffffffffffffffffffff1602179055506020820151816001019080519060200190610d40929190610f13565b5050508080610d4e906116aa565b915050610c59565b505050505050505050505050565b600061035b600084815260200190815260200160002060008381526020019081526020016000206000015403610f0f57620f4240600083601a8110610dac57610dab61149c565b5b602102018260218110610dc257610dc161149c565b5b0154610dce9190611650565b61035b600084815260200190815260200160002060008381526020019081526020016000206000018190555061035b60008381526020019081526020016000206000828152602001908152602001600020600101604051806040016040528061035a60009054906101000a900473ffffffffffffffffffffffffffffffffffffffff1673ffffffffffffffffffffffffffffffffffffffff16815260200160405180602001604052806000815250815250908060018154018082558091505060019003906000526020600020906002020160009091909190915060008201518160000160006101000a81548173ffffffffffffffffffffffffffffffffffffffff021916908373ffffffffffffffffffffffffffffffffffffffff1602179055506020820151816001019080519060200190610f0b929190610f13565b5050505b5050565b828054610f1f90611566565b90600052602060002090601f016020900481019282610f415760008555610f88565b82601f10610f5a57805160ff1916838001178555610f88565b82800160010185558215610f88579182015b82811115610f87578251825591602001919060010190610f6c565b5b509050610f959190610f99565b5090565b5b80821115610fb2576000816000905550600101610f9a565b5090565b6000604051905090565b600080fd5b600080fd5b6000819050919050565b610fdd81610fca565b8114610fe857600080fd5b50565b600081359050610ffa81610fd4565b92915050565b600080fd5b600080fd5b6000601f19601f8301169050919050565b7f4e487b7100000000000000000000000000000000000000000000000000000000600052604160045260246000fd5b6110538261100a565b810181811067ffffffffffffffff821117156110725761107161101b565b5b80604052505050565b6000611085610fb6565b9050611091828261104a565b919050565b600067ffffffffffffffff8211156110b1576110b061101b565b5b6110ba8261100a565b9050602081019050919050565b82818337600083830152505050565b60006110e96110e484611096565b61107b565b90508281526020810184848401111561110557611104611005565b5b6111108482856110c7565b509392505050565b600082601f83011261112d5761112c611000565b5b813561113d8482602086016110d6565b91505092915050565b60008060006060848603121561115f5761115e610fc0565b5b600061116d86828701610feb565b935050602061117e86828701610feb565b925050604084013567ffffffffffffffff81111561119f5761119e610fc5565b5b6111ab86828701611118565b9150509250925092565b6111be81610fca565b82525050565b60006020820190506111d960008301846111b5565b92915050565b600080604083850312156111f6576111f5610fc0565b5b600061120485828601610feb565b925050602061121585828601610feb565b9150509250929050565b6000806000806080858703121561123957611238610fc0565b5b600061124787828801610feb565b945050602061125887828801610feb565b935050604061126987828801610feb565b925050606085013567ffffffffffffffff81111561128a57611289610fc5565b5b61129687828801611118565b91505092959194509250565b600073ffffffffffffffffffffffffffffffffffffffff82169050919050565b60006112cd826112a2565b9050919050565b6112dd816112c2565b82525050565b60006020820190506112f860008301846112d4565b92915050565b600081519050919050565b600082825260208201905092915050565b60005b8381101561133857808201518184015260208101905061131d565b83811115611347576000848401525b50505050565b6000611358826112fe565b6113628185611309565b935061137281856020860161131a565b61137b8161100a565b840191505092915050565b600060608201905061139b60008301866111b5565b81810360208301526113ad818561134d565b90506113bc60408301846111b5565b949350505050565b7f496e76616c6964207820636f6f7264696e617465000000000000000000000000600082015250565b60006113fa601483611309565b9150611405826113c4565b602082019050919050565b60006020820190508181036000830152611429816113ed565b9050919050565b7f496e76616c6964207920636f6f7264696e617465000000000000000000000000600082015250565b6000611466601483611309565b915061147182611430565b602082019050919050565b6000602082019050818103600083015261149581611459565b9050919050565b7f4e487b7100000000000000000000000000000000000000000000000000000000600052603260045260246000fd5b7f4e6f7420746865206f776e6572206f662074686973206c617965720000000000600082015250565b6000611501601b83611309565b915061150c826114cb565b602082019050919050565b60006020820190508181036000830152611530816114f4565b9050919050565b7f4e487b7100000000000000000000000000000000000000000000000000000000600052602260045260246000fd5b6000600282049050600182168061157e57607f821691505b60208210810361159157611590611537565b5b50919050565b7f4e487b7100000000000000000000000000000000000000000000000000000000600052601160045260246000fd5b60006115d182610fca565b91506115dc83610fca565b9250828210156115ef576115ee611597565b5b828203905092915050565b600061160582610fca565b915061161083610fca565b9250827fffffffffffffffffffffffffffffffffffffffffffffffffffffffffffffffff0382111561164557611644611597565b5b828201905092915050565b600061165b82610fca565b915061166683610fca565b9250817fffffffffffffffffffffffffffffffffffffffffffffffffffffffffffffffff048311821515161561169f5761169e611597565b5b828202905092915050565b60006116b582610fca565b91507fffffffffffffffffffffffffffffffffffffffffffffffffffffffffffffffff82036116e7576116e6611597565b5b600182019050919050565b7f496e636f727265637420504f4c2073656e740000000000000000000000000000600082015250565b6000611728601283611309565b9150611733826116f2565b602082019050919050565b600060208201905081810360008301526117578161171b565b905091905056fea2646970667358221220ef324950db7104ef2bf692ae6493dd286dbbec48387e3349478af8271d9898b964736f6c634300080d0033",
  "immutableReferences": {},
  "source": "// SPDX-License-Identifier: MIT\npragma solidity >=0.4.22 <0.9.0;\n\nimport \"./DataStorage.sol\";\n\ncontract Pixelflux is DataStorage {\n    address public owner;\n    \n    struct Layer {\n        address payable owner;\n        string color;\n    }\n\n    struct Cell {\n        uint256 baseValue;\n        Layer[] layers;\n    }\n\n    mapping(uint => mapping(uint => Cell)) public grid;\n\n    constructor() {\n        owner = msg.sender;\n    }\n    \n    modifier onlyOwner() {\n        require(msg.sender == owner, \"Only the owner can call this function\");\n        _;\n    }\n\n    modifier onlyLayerOwner(uint x, uint y, uint256 layerIndex) {\n        require(grid[x][y].layers[layerIndex].owner == msg.sender, \"Not the owner of this layer\");\n        _;\n    }\n\n    function setLayerColor(uint x, uint y, uint256 layerIndex, string memory newColor) public validCoordinates(x, y) onlyLayerOwner(x, y, layerIndex) {\n        grid[x][y].layers[layerIndex].color = newColor;\n    }\n\n    function initializeCell(uint x, uint y) internal {\n        if (grid[x][y].baseValue == 0) {\n            grid[x][y].baseValue = initialValues[x][y] * 10**6;\n            grid[x][y].layers.push(Layer({\n                owner: payable(owner),\n                color: \"\"\n            }));\n        }\n    }\n\n    modifier validCoordinates(uint x, uint y) {\n        require(x < gridWidth, \"Invalid x coordinate\");\n        require(y < gridHeight, \"Invalid y coordinate\");\n        _;\n    }\n\n    function buyLayer(uint x, uint y, string memory color) public payable validCoordinates(x, y) {\n        buyMultipleLayers(x, y, 1, color);\n    }\n    function buyMultipleLayers(uint x, uint y, uint256 numLayersToAdd, string memory color) public payable validCoordinates(x, y) {\n        initializeCell(x, y);\n\n        uint256 baseValueForCell = grid[x][y].baseValue;\n        uint256 totalCost = 0;\n        for (uint256 i = 0; i < numLayersToAdd; i++) {\n            totalCost += baseValueForCell + (grid[x][y].layers.length + i) * baseValueForCell;\n        }\n        require(msg.value == totalCost, \"Incorrect POL sent\");\n\n        uint256 currentLayersCount = grid[x][y].layers.length;\n\n        // Optimized transfer\n        address[] memory payoutAddresses = new address[](currentLayersCount);\n        uint256[] memory payoutAmounts = new uint256[](currentLayersCount);\n\n        for (uint256 i = 0; i < currentLayersCount; i++) {\n            address layerOwner = grid[x][y].layers[i].owner;\n            bool found = false;\n            for (uint256 j = 0; j < i; j++) {\n                if (payoutAddresses[j] == layerOwner) {\n                    payoutAmounts[j] += baseValueForCell;\n                    found = true;\n                    break;\n                }\n            }\n            if (!found) {\n                payoutAddresses[i] = layerOwner;\n                payoutAmounts[i] = baseValueForCell;\n            }\n        }\n\n        for (uint256 i = 0; i < currentLayersCount; i++) {\n            if (payoutAddresses[i] != address(0)) {\n                payable(payoutAddresses[i]).transfer(payoutAmounts[i]);\n            }\n        }\n\n        for (uint256 i = 0; i < numLayersToAdd; i++) {\n            grid[x][y].layers.push(Layer({\n                owner: payable(msg.sender),\n                color: color\n            }));\n        }\n    }\n\n\n\n    function getCellState(uint x, uint y) public view validCoordinates(x, y) returns (uint256, string memory, uint256)  {\n        Cell memory cell = grid[x][y];\n        return (cell.baseValue, cell.layers[cell.layers.length - 1].color, cell.layers.length);\n    }\n}\n",
  "sourcePath": "/home/wao/Meteor/Workspace/Sao/PixelFlux/contracts/Pixelflux.sol",
  "compiler": {
    "name": "solc",
    "version": "0.8.13+commit.abaa5c0e.Emscripten.clang"
  },
  "schemaVersion": "3.4.16",
  "updatedAt": "2023-09-23T06:55:19.973Z",
  "networkType": "ethereum",
  "devdoc": {
    "kind": "dev",
    "methods": {},
    "version": 1
  },
  "userdoc": {
    "kind": "user",
    "methods": {},
    "version": 1
  }
}