{
  "contractName": "Pixelflux3",
  "abi": [
    {
      "inputs": [
        {
          "internalType": "address",
          "name": "_baseContractAddress1",
          "type": "address"
        },
        {
          "internalType": "address",
          "name": "_baseContractAddress2",
          "type": "address"
        }
      ],
      "stateMutability": "nonpayable",
      "type": "constructor"
    },
    {
      "anonymous": false,
      "inputs": [],
      "name": "ContractEnabled",
      "type": "event"
    },
    {
      "anonymous": false,
      "inputs": [
        {
          "indexed": true,
          "internalType": "address",
          "name": "buyer",
          "type": "address"
        },
        {
          "indexed": false,
          "internalType": "uint256",
          "name": "x",
          "type": "uint256"
        },
        {
          "indexed": false,
          "internalType": "uint256",
          "name": "y",
          "type": "uint256"
        },
        {
          "indexed": false,
          "internalType": "uint256",
          "name": "numLayers",
          "type": "uint256"
        },
        {
          "indexed": false,
          "internalType": "string",
          "name": "color",
          "type": "string"
        }
      ],
      "name": "LayerPurchased",
      "type": "event"
    },
    {
      "inputs": [],
      "name": "baseContract1",
      "outputs": [
        {
          "internalType": "contract BaseContract",
          "name": "",
          "type": "address"
        }
      ],
      "stateMutability": "view",
      "type": "function",
      "constant": true
    },
    {
      "inputs": [],
      "name": "baseContract2",
      "outputs": [
        {
          "internalType": "contract BaseContract",
          "name": "",
          "type": "address"
        }
      ],
      "stateMutability": "view",
      "type": "function",
      "constant": true
    },
    {
      "inputs": [
        {
          "internalType": "uint256",
          "name": "x",
          "type": "uint256"
        },
        {
          "internalType": "uint256",
          "name": "y",
          "type": "uint256"
        },
        {
          "internalType": "string",
          "name": "color",
          "type": "string"
        }
      ],
      "name": "buyLayer",
      "outputs": [],
      "stateMutability": "payable",
      "type": "function",
      "payable": true
    },
    {
      "inputs": [
        {
          "internalType": "uint256",
          "name": "x",
          "type": "uint256"
        },
        {
          "internalType": "uint256",
          "name": "y",
          "type": "uint256"
        },
        {
          "internalType": "uint256",
          "name": "numLayersToAdd",
          "type": "uint256"
        },
        {
          "internalType": "string",
          "name": "color",
          "type": "string"
        }
      ],
      "name": "buyMultipleLayers",
      "outputs": [],
      "stateMutability": "payable",
      "type": "function",
      "payable": true
    },
    {
      "inputs": [],
      "name": "calculateTotalValue",
      "outputs": [
        {
          "internalType": "uint256",
          "name": "",
          "type": "uint256"
        }
      ],
      "stateMutability": "view",
      "type": "function",
      "constant": true
    },
    {
      "inputs": [
        {
          "internalType": "uint256",
          "name": "",
          "type": "uint256"
        },
        {
          "internalType": "uint256",
          "name": "",
          "type": "uint256"
        }
      ],
      "name": "colorValues",
      "outputs": [
        {
          "internalType": "string",
          "name": "",
          "type": "string"
        }
      ],
      "stateMutability": "view",
      "type": "function",
      "constant": true
    },
    {
      "inputs": [],
      "name": "getAllCellStates",
      "outputs": [
        {
          "components": [
            {
              "internalType": "uint256",
              "name": "baseValue",
              "type": "uint256"
            },
            {
              "components": [
                {
                  "internalType": "address payable",
                  "name": "owner",
                  "type": "address"
                },
                {
                  "internalType": "string",
                  "name": "color",
                  "type": "string"
                }
              ],
              "internalType": "struct BaseContract.Layer[]",
              "name": "layers",
              "type": "tuple[]"
            }
          ],
          "internalType": "struct BaseContract.Cell[][]",
          "name": "",
          "type": "tuple[][]"
        }
      ],
      "stateMutability": "view",
      "type": "function",
      "constant": true
    },
    {
      "inputs": [],
      "name": "getAllTopLayers",
      "outputs": [
        {
          "internalType": "address payable[][]",
          "name": "",
          "type": "address[][]"
        },
        {
          "internalType": "string[][]",
          "name": "",
          "type": "string[][]"
        }
      ],
      "stateMutability": "view",
      "type": "function",
      "constant": true
    },
    {
      "inputs": [
        {
          "internalType": "uint256",
          "name": "x",
          "type": "uint256"
        },
        {
          "internalType": "uint256",
          "name": "y",
          "type": "uint256"
        }
      ],
      "name": "getCellState",
      "outputs": [
        {
          "internalType": "uint256",
          "name": "",
          "type": "uint256"
        },
        {
          "internalType": "string",
          "name": "",
          "type": "string"
        },
        {
          "internalType": "uint256",
          "name": "",
          "type": "uint256"
        }
      ],
      "stateMutability": "view",
      "type": "function",
      "constant": true
    },
    {
      "inputs": [
        {
          "internalType": "uint256",
          "name": "x",
          "type": "uint256"
        },
        {
          "internalType": "uint256",
          "name": "y",
          "type": "uint256"
        }
      ],
      "name": "getTopLayerOfCell",
      "outputs": [
        {
          "internalType": "address payable",
          "name": "",
          "type": "address"
        },
        {
          "internalType": "string",
          "name": "",
          "type": "string"
        }
      ],
      "stateMutability": "view",
      "type": "function",
      "constant": true
    },
    {
      "inputs": [
        {
          "internalType": "uint256",
          "name": "",
          "type": "uint256"
        },
        {
          "internalType": "uint256",
          "name": "",
          "type": "uint256"
        }
      ],
      "name": "grid",
      "outputs": [
        {
          "internalType": "uint256",
          "name": "baseValue",
          "type": "uint256"
        }
      ],
      "stateMutability": "view",
      "type": "function",
      "constant": true
    },
    {
      "inputs": [],
      "name": "gridHeight",
      "outputs": [
        {
          "internalType": "uint256",
          "name": "",
          "type": "uint256"
        }
      ],
      "stateMutability": "view",
      "type": "function",
      "constant": true
    },
    {
      "inputs": [],
      "name": "gridWidth",
      "outputs": [
        {
          "internalType": "uint256",
          "name": "",
          "type": "uint256"
        }
      ],
      "stateMutability": "view",
      "type": "function",
      "constant": true
    },
    {
      "inputs": [
        {
          "internalType": "uint256",
          "name": "",
          "type": "uint256"
        },
        {
          "internalType": "uint256",
          "name": "",
          "type": "uint256"
        }
      ],
      "name": "initialValues",
      "outputs": [
        {
          "internalType": "uint256",
          "name": "",
          "type": "uint256"
        }
      ],
      "stateMutability": "view",
      "type": "function",
      "constant": true
    },
    {
      "inputs": [],
      "name": "isEnabled",
      "outputs": [
        {
          "internalType": "bool",
          "name": "",
          "type": "bool"
        }
      ],
      "stateMutability": "view",
      "type": "function",
      "constant": true
    },
    {
      "inputs": [],
      "name": "owner",
      "outputs": [
        {
          "internalType": "address",
          "name": "",
          "type": "address"
        }
      ],
      "stateMutability": "view",
      "type": "function",
      "constant": true
    },
    {
      "inputs": [
        {
          "internalType": "uint256",
          "name": "x",
          "type": "uint256"
        },
        {
          "internalType": "uint256",
          "name": "y",
          "type": "uint256"
        },
        {
          "internalType": "uint256",
          "name": "layerIndex",
          "type": "uint256"
        },
        {
          "internalType": "string",
          "name": "newColor",
          "type": "string"
        }
      ],
      "name": "setLayerColor",
      "outputs": [],
      "stateMutability": "nonpayable",
      "type": "function"
    },
    {
      "inputs": [],
      "name": "isContractEnabled",
      "outputs": [
        {
          "internalType": "bool",
          "name": "",
          "type": "bool"
        }
      ],
      "stateMutability": "view",
      "type": "function",
      "constant": true
    },
    {
      "inputs": [],
      "name": "enableContract",
      "outputs": [],
      "stateMutability": "nonpayable",
      "type": "function"
    }
  ],
  "bytecode": "0x60806040526040518061022001604052806040518061042001604052806040518060200160405280600081525081526020016040518060200160405280600081525081526020016040518060200160405280600081525081526020016040518060200160405280600081525081526020016040518060200160405280600081525081526020016040518060200160405280600081525081526020016040518060200160405280600081525081526020016040518060200160405280600081525081526020016040518060200160405280600081525081526020016040518060200160405280600081525081526020016040518060200160405280600081525081526020016040518060200160405280600081525081526020016040518060200160405280600081525081526020016040518060200160405280600081525081526020016040518060200160405280600081525081526020016040518060200160405280600081525081526020016040518060200160405280600081525081526020016040518060200160405280600081525081526020016040518060200160405280600081525081526020016040518060200160405280600081525081526020016040518060200160405280600081525081526020016040518060200160405280600081525081526020016040518060200160405280600081525081526020016040518060200160405280600081525081526020016040518060200160405280600081525081526020016040518060200160405280600081525081526020016040518060200160405280600081525081526020016040518060200160405280600081525081526020016040518060200160405280600081525081526020016040518060200160405280600081525081526020016040518060200160405280600081525081526020016040518060200160405280600081525081526020016040518060200160405280600081525081525081526020016040518061042001604052806040518060200160405280600081525081526020016040518060200160405280600081525081526020016040518060200160405280600081525081526020016040518060200160405280600081525081526020016040518060200160405280600081525081526020016040518060200160405280600081525081526020016040518060200160405280600081525081526020016040518060200160405280600081525081526020016040518060200160405280600081525081526020016040518060200160405280600081525081526020016040518060200160405280600081525081526020016040518060200160405280600081525081526020016040518060200160405280600081525081526020016040518060200160405280600081525081526020016040518060200160405280600081525081526020016040518060200160405280600081525081526020016040518060200160405280600081525081526020016040518060200160405280600081525081526020016040518060200160405280600081525081526020016040518060200160405280600081525081526020016040518060200160405280600081525081526020016040518060200160405280600081525081526020016040518060200160405280600081525081526020016040518060200160405280600081525081526020016040518060200160405280600081525081526020016040518060200160405280600081525081526020016040518060200160405280600081525081526020016040518060200160405280600081525081526020016040518060200160405280600081525081526020016040518060400160405280600781526020017f233962363565350000000000000000000000000000000000000000000000000081525081526020016040518060400160405280600781526020017f233939363265350000000000000000000000000000000000000000000000000081525081526020016040518060200160405280600081525081526020016040518060200160405280600081525081525081526020016040518061042001604052806040518060200160405280600081525081526020016040518060200160405280600081525081526020016040518060200160405280600081525081526020016040518060200160405280600081525081526020016040518060200160405280600081525081526020016040518060200160405280600081525081526020016040518060200160405280600081525081526020016040518060200160405280600081525081526020016040518060200160405280600081525081526020016040518060200160405280600081525081526020016040518060200160405280600081525081526020016040518060200160405280600081525081526020016040518060200160405280600081525081526020016040518060200160405280600081525081526020016040518060200160405280600081525081526020016040518060400160405280600781526020017f236235386465630000000000000000000000000000000000000000000000000081525081526020016040518060400160405280600781526020017f236233386165620000000000000000000000000000000000000000000000000081525081526020016040518060400160405280600781526020017f236231383765620000000000000000000000000000000000000000000000000081525081526020016040518060400160405280600781526020017f236166383465610000000000000000000000000000000000000000000000000081525081526020016040518060400160405280600781526020017f236164383065610000000000000000000000000000000000000000000000000081525081526020016040518060200160405280600081525081526020016040518060200160405280600081525081526020016040518060200160405280600081525081526020016040518060200160405280600081525081526020016040518060200160405280600081525081526020016040518060200160405280600081525081526020016040518060200160405280600081525081526020016040518060200160405280600081525081526020016040518060400160405280600781526020017f233962363665360000000000000000000000000000000000000000000000000081525081526020016040518060400160405280600781526020017f233939363265350000000000000000000000000000000000000000000000000081525081526020016040518060400160405280600781526020017f233938363065350000000000000000000000000000000000000000000000000081525081526020016040518060200160405280600081525081526020016040518060200160405280600081525081525081526020016040518061042001604052806040518060200160405280600081525081526020016040518060200160405280600081525081526020016040518060200160405280600081525081526020016040518060200160405280600081525081526020016040518060200160405280600081525081526020016040518060400160405280600781526020017f236337613866300000000000000000000000000000000000000000000000000081525081526020016040518060400160405280600781526020017f236335613566300000000000000000000000000000000000000000000000000081525081526020016040518060400160405280600781526020017f236333613265660000000000000000000000000000000000000000000000000081525081526020016040518060400160405280600781526020017f236331396665660000000000000000000000000000000000000000000000000081525081526020016040518060200160405280600081525081526020016040518060200160405280600081525081526020016040518060200160405280600081525081526020016040518060200160405280600081525081526020016040518060200160405280600081525081526020016040518060400160405280600781526020017f236235386565630000000000000000000000000000000000000000000000000081525081526020016040518060200160405280600081525081526020016040518060400160405280600781526020017f236231383765620000000000000000000000000000000000000000000000000081525081526020016040518060200160405280600081525081526020016040518060200160405280600081525081526020016040518060200160405280600081525081526020016040518060400160405280600781526020017f236161376365390000000000000000000000000000000000000000000000000081525081526020016040518060200160405280600081525081526020016040518060200160405280600081525081526020016040518060200160405280600081525081526020016040518060400160405280600781526020017f236132373065370000000000000000000000000000000000000000000000000081525081526020016040518060400160405280600781526020017f236130366365370000000000000000000000000000000000000000000000000081525081526020016040518060400160405280600781526020017f233965366165360000000000000000000000000000000000000000000000000081525081526020016040518060200160405280600081525081526020016040518060400160405280600781526020017f233961363465350000000000000000000000000000000000000000000000000081525081526020016040518060200160405280600081525081526020016040518060400160405280600781526020017f233936356565340000000000000000000000000000000000000000000000000081525081526020016040518060200160405280600081525081526020016040518060200160405280600081525081525081526020016040518061042001604052806040518060200160405280600081525081526020016040518060200160405280600081525081526020016040518060200160405280600081525081526020016040518060200160405280600081525081526020016040518060400160405280600781526020017f236337613966310000000000000000000000000000000000000000000000000081525081526020016040518060400160405280600781526020017f236335613666300000000000000000000000000000000000000000000000000081525081526020016040518060400160405280600781526020017f236333613366300000000000000000000000000000000000000000000000000081525081526020016040518060400160405280600781526020017f236331613065660000000000000000000000000000000000000000000000000081525081526020016040518060400160405280600781526020017f236330396565660000000000000000000000000000000000000000000000000081525081526020016040518060400160405280600781526020017f236265396265650000000000000000000000000000000000000000000000000081525081526020016040518060200160405280600081525081526020016040518060200160405280600081525081526020016040518060200160405280600081525081526020016040518060400160405280600781526020017f236236386565630000000000000000000000000000000000000000000000000081525081526020016040518060200160405280600081525081526020016040518060400160405280600781526020017f236232383965620000000000000000000000000000000000000000000000000081525081526020016040518060200160405280600081525081526020016040518060400160405280600781526020017f236165383365610000000000000000000000000000000000000000000000000081525081526020016040518060400160405280600781526020017f236163383065610000000000000000000000000000000000000000000000000081525081526020016040518060200160405280600081525081526020016040518060200160405280600081525081526020016040518060400160405280600781526020017f236136373665380000000000000000000000000000000000000000000000000081525081526020016040518060400160405280600781526020017f236135373465380000000000000000000000000000000000000000000000000081525081526020016040518060400160405280600781526020017f236133373165370000000000000000000000000000000000000000000000000081525081526020016040518060400160405280600781526020017f236131366565370000000000000000000000000000000000000000000000000081525081526020016040518060400160405280600781526020017f233966366265360000000000000000000000000000000000000000000000000081525081526020016040518060400160405280600781526020017f233964363865360000000000000000000000000000000000000000000000000081525081526020016040518060200160405280600081525081526020016040518060400160405280600781526020017f233939363265350000000000000000000000000000000000000000000000000081525081526020016040518060200160405280600081525081526020016040518060400160405280600781526020017f233935356365340000000000000000000000000000000000000000000000000081525081526020016040518060200160405280600081525081526020016040518060200160405280600081525081525081526020016040518061042001604052806040518060200160405280600081525081526020016040518060200160405280600081525081526020016040518060400160405280600781526020017f236361616466310000000000000000000000000000000000000000000000000081525081526020016040518060400160405280600781526020017f236338616166310000000000000000000000000000000000000000000000000081525081526020016040518060400160405280600781526020017f236336613866300000000000000000000000000000000000000000000000000081525081526020016040518060200160405280600081525081526020016040518060200160405280600081525081526020016040518060200160405280600081525081526020016040518060200160405280600081525081526020016040518060200160405280600081525081526020016040518060400160405280600781526020017f236261393565640000000000000000000000000000000000000000000000000081525081526020016040518060200160405280600081525081526020016040518060400160405280600781526020017f236237393065630000000000000000000000000000000000000000000000000081525081526020016040518060200160405280600081525081526020016040518060400160405280600781526020017f236233386165620000000000000000000000000000000000000000000000000081525081526020016040518060200160405280600081525081526020016040518060400160405280600781526020017f236166383465610000000000000000000000000000000000000000000000000081525081526020016040518060200160405280600081525081526020016040518060200160405280600081525081526020016040518060400160405280600781526020017f236139376265390000000000000000000000000000000000000000000000000081525081526020016040518060200160405280600081525081526020016040518060400160405280600781526020017f236135373565380000000000000000000000000000000000000000000000000081525081526020016040518060400160405280600781526020017f236133373265380000000000000000000000000000000000000000000000000081525081526020016040518060200160405280600081525081526020016040518060400160405280600781526020017f233966366365370000000000000000000000000000000000000000000000000081525081526020016040518060200160405280600081525081526020016040518060400160405280600781526020017f233963363665360000000000000000000000000000000000000000000000000081525081526020016040518060200160405280600081525081526020016040518060400160405280600781526020017f233938363065350000000000000000000000000000000000000000000000000081525081526020016040518060200160405280600081525081526020016040518060400160405280600781526020017f233934356165340000000000000000000000000000000000000000000000000081525081526020016040518060200160405280600081525081526020016040518060200160405280600081525081525081526020016040518061042001604052806040518060200160405280600081525081526020016040518060200160405280600081525081526020016040518060400160405280600781526020017f236339616266310000000000000000000000000000000000000000000000000081525081526020016040518060200160405280600081525081526020016040518060400160405280600781526020017f236335613566300000000000000000000000000000000000000000000000000081525081526020016040518060200160405280600081525081526020016040518060400160405280600781526020017f236331396665660000000000000000000000000000000000000000000000000081525081526020016040518060400160405280600781526020017f236266396365650000000000000000000000000000000000000000000000000081525081526020016040518060400160405280600781526020017f236264396165650000000000000000000000000000000000000000000000000081525081526020016040518060400160405280600781526020017f236262393765650000000000000000000000000000000000000000000000000081525081526020016040518060200160405280600081525081526020016040518060200160405280600081525081526020016040518060400160405280600781526020017f236235386565630000000000000000000000000000000000000000000000000081525081526020016040518060200160405280600081525081526020016040518060400160405280600781526020017f236231383765620000000000000000000000000000000000000000000000000081525081526020016040518060200160405280600081525081526020016040518060400160405280600781526020017f236165383265610000000000000000000000000000000000000000000000000081525081526020016040518060200160405280600081525081526020016040518060200160405280600081525081526020016040518060400160405280600781526020017f236138373965390000000000000000000000000000000000000000000000000081525081526020016040518060200160405280600081525081526020016040518060400160405280600781526020017f236134373365380000000000000000000000000000000000000000000000000081525081526020016040518060200160405280600081525081526020016040518060400160405280600781526020017f236130366465370000000000000000000000000000000000000000000000000081525081526020016040518060200160405280600081525081526020016040518060200160405280600081525081526020016040518060400160405280600781526020017f233961363465350000000000000000000000000000000000000000000000000081525081526020016040518060200160405280600081525081526020016040518060400160405280600781526020017f233936356565340000000000000000000000000000000000000000000000000081525081526020016040518060200160405280600081525081526020016040518060400160405280600781526020017f233933353865330000000000000000000000000000000000000000000000000081525081526020016040518060200160405280600081525081526020016040518060200160405280600081525081525081526020016040518061042001604052806040518060200160405280600081525081526020016040518060200160405280600081525081526020016040518060400160405280600781526020017f236337613966310000000000000000000000000000000000000000000000000081525081526020016040518060200160405280600081525081526020016040518060400160405280600781526020017f236334613466300000000000000000000000000000000000000000000000000081525081526020016040518060200160405280600081525081526020016040518060400160405280600781526020017f236330396565660000000000000000000000000000000000000000000000000081525081526020016040518060200160405280600081525081526020016040518060200160405280600081525081526020016040518060400160405280600781526020017f236261393465640000000000000000000000000000000000000000000000000081525081526020016040518060400160405280600781526020017f236238393165640000000000000000000000000000000000000000000000000081525081526020016040518060200160405280600081525081526020016040518060400160405280600781526020017f236234386365630000000000000000000000000000000000000000000000000081525081526020016040518060200160405280600081525081526020016040518060400160405280600781526020017f236230383665620000000000000000000000000000000000000000000000000081525081526020016040518060200160405280600081525081526020016040518060400160405280600781526020017f236163383065610000000000000000000000000000000000000000000000000081525081526020016040518060200160405280600081525081526020016040518060200160405280600081525081526020016040518060400160405280600781526020017f236137373765380000000000000000000000000000000000000000000000000081525081526020016040518060200160405280600081525081526020016040518060400160405280600781526020017f236133373165370000000000000000000000000000000000000000000000000081525081526020016040518060200160405280600081525081526020016040518060400160405280600781526020017f233966366265360000000000000000000000000000000000000000000000000081525081526020016040518060200160405280600081525081526020016040518060400160405280600781526020017f233962363565350000000000000000000000000000000000000000000000000081525081526020016040518060200160405280600081525081526020016040518060400160405280600781526020017f233937356665350000000000000000000000000000000000000000000000000081525081526020016040518060400160405280600781526020017f233935356365340000000000000000000000000000000000000000000000000081525081526020016040518060200160405280600081525081526020016040518060400160405280600781526020017f233931353665330000000000000000000000000000000000000000000000000081525081526020016040518060200160405280600081525081526020016040518060200160405280600081525081525081526020016040518061042001604052806040518060200160405280600081525081526020016040518060200160405280600081525081526020016040518060400160405280600781526020017f236336613866300000000000000000000000000000000000000000000000000081525081526020016040518060200160405280600081525081526020016040518060400160405280600781526020017f236332613165660000000000000000000000000000000000000000000000000081525081526020016040518060200160405280600081525081526020016040518060400160405280600781526020017f236265396265650000000000000000000000000000000000000000000000000081525081526020016040518060400160405280600781526020017f236263393865650000000000000000000000000000000000000000000000000081525081526020016040518060400160405280600781526020017f236262393665640000000000000000000000000000000000000000000000000081525081526020016040518060200160405280600081525081526020016040518060400160405280600781526020017f236237393065630000000000000000000000000000000000000000000000000081525081526020016040518060400160405280600781526020017f236235386465630000000000000000000000000000000000000000000000000081525081526020016040518060400160405280600781526020017f236233386165620000000000000000000000000000000000000000000000000081525081526020016040518060200160405280600081525081526020016040518060400160405280600781526020017f236166383465610000000000000000000000000000000000000000000000000081525081526020016040518060200160405280600081525081526020016040518060400160405280600781526020017f236162376565610000000000000000000000000000000000000000000000000081525081526020016040518060200160405280600081525081526020016040518060200160405280600081525081526020016040518060400160405280600781526020017f236135373565380000000000000000000000000000000000000000000000000081525081526020016040518060200160405280600081525081526020016040518060400160405280600781526020017f236131366665370000000000000000000000000000000000000000000000000081525081526020016040518060200160405280600081525081526020016040518060400160405280600781526020017f233965363965360000000000000000000000000000000000000000000000000081525081526020016040518060200160405280600081525081526020016040518060400160405280600781526020017f233961363365350000000000000000000000000000000000000000000000000081525081526020016040518060400160405280600781526020017f233938363065350000000000000000000000000000000000000000000000000081525081526020016040518060200160405280600081525081526020016040518060200160405280600081525081526020016040518060200160405280600081525081526020016040518060400160405280600781526020017f233930353565330000000000000000000000000000000000000000000000000081525081526020016040518060200160405280600081525081526020016040518060200160405280600081525081525081526020016040518061042001604052806040518060200160405280600081525081526020016040518060200160405280600081525081526020016040518060400160405280600781526020017f236335613566300000000000000000000000000000000000000000000000000081525081526020016040518060200160405280600081525081526020016040518060400160405280600781526020017f236331613065660000000000000000000000000000000000000000000000000081525081526020016040518060200160405280600081525081526020016040518060400160405280600781526020017f236264396165650000000000000000000000000000000000000000000000000081525081526020016040518060200160405280600081525081526020016040518060400160405280600781526020017f236239393465640000000000000000000000000000000000000000000000000081525081526020016040518060400160405280600781526020017f236237393165640000000000000000000000000000000000000000000000000081525081526020016040518060200160405280600081525081526020016040518060400160405280600781526020017f236234386265630000000000000000000000000000000000000000000000000081525081526020016040518060400160405280600781526020017f236232383865620000000000000000000000000000000000000000000000000081525081526020016040518060200160405280600081525081526020016040518060400160405280600781526020017f236165383265610000000000000000000000000000000000000000000000000081525081526020016040518060200160405280600081525081526020016040518060200160405280600081525081526020016040518060400160405280600781526020017f236138373965390000000000000000000000000000000000000000000000000081525081526020016040518060400160405280600781526020017f236136373665380000000000000000000000000000000000000000000000000081525081526020016040518060200160405280600081525081526020016040518060200160405280600081525081526020016040518060400160405280600781526020017f236130366465370000000000000000000000000000000000000000000000000081525081526020016040518060200160405280600081525081526020016040518060400160405280600781526020017f233963363765360000000000000000000000000000000000000000000000000081525081526020016040518060200160405280600081525081526020016040518060400160405280600781526020017f233938363165350000000000000000000000000000000000000000000000000081525081526020016040518060200160405280600081525081526020016040518060400160405280600781526020017f233935356365340000000000000000000000000000000000000000000000000081525081526020016040518060200160405280600081525081526020016040518060200160405280600081525081526020016040518060400160405280600781526020017f233866353265320000000000000000000000000000000000000000000000000081525081526020016040518060200160405280600081525081526020016040518060200160405280600081525081525081526020016040518061042001604052806040518060200160405280600081525081526020016040518060200160405280600081525081526020016040518060400160405280600781526020017f236334613466300000000000000000000000000000000000000000000000000081525081526020016040518060200160405280600081525081526020016040518060400160405280600781526020017f236330396565660000000000000000000000000000000000000000000000000081525081526020016040518060200160405280600081525081526020016040518060400160405280600781526020017f236263393865650000000000000000000000000000000000000000000000000081525081526020016040518060200160405280600081525081526020016040518060400160405280600781526020017f236238393265640000000000000000000000000000000000000000000000000081525081526020016040518060200160405280600081525081526020016040518060200160405280600081525081526020016040518060400160405280600781526020017f236232383965620000000000000000000000000000000000000000000000000081525081526020016040518060200160405280600081525081526020016040518060400160405280600781526020017f236165383365610000000000000000000000000000000000000000000000000081525081526020016040518060200160405280600081525081526020016040518060400160405280600781526020017f236162376465390000000000000000000000000000000000000000000000000081525081526020016040518060200160405280600081525081526020016040518060200160405280600081525081526020016040518060200160405280600081525081526020016040518060200160405280600081525081526020016040518060200160405280600081525081526020016040518060400160405280600781526020017f233966366265360000000000000000000000000000000000000000000000000081525081526020016040518060200160405280600081525081526020016040518060400160405280600781526020017f233962363665360000000000000000000000000000000000000000000000000081525081526020016040518060200160405280600081525081526020016040518060400160405280600781526020017f233937356665350000000000000000000000000000000000000000000000000081525081526020016040518060200160405280600081525081526020016040518060400160405280600781526020017f233933353965340000000000000000000000000000000000000000000000000081525081526020016040518060200160405280600081525081526020016040518060400160405280600781526020017f233866353365330000000000000000000000000000000000000000000000000081525081526020016040518060400160405280600781526020017f233865353165320000000000000000000000000000000000000000000000000081525081526020016040518060200160405280600081525081526020016040518060200160405280600081525081525081526020016040518061042001604052806040518060200160405280600081525081526020016040518060200160405280600081525081526020016040518060400160405280600781526020017f236332613165660000000000000000000000000000000000000000000000000081525081526020016040518060200160405280600081525081526020016040518060400160405280600781526020017f236266396365650000000000000000000000000000000000000000000000000081525081526020016040518060200160405280600081525081526020016040518060400160405280600781526020017f236262393665640000000000000000000000000000000000000000000000000081525081526020016040518060400160405280600781526020017f236239393365640000000000000000000000000000000000000000000000000081525081526020016040518060200160405280600081525081526020016040518060200160405280600081525081526020016040518060400160405280600781526020017f236233386165620000000000000000000000000000000000000000000000000081525081526020016040518060400160405280600781526020017f236231383765620000000000000000000000000000000000000000000000000081525081526020016040518060200160405280600081525081526020016040518060200160405280600081525081526020016040518060400160405280600781526020017f236162376565610000000000000000000000000000000000000000000000000081525081526020016040518060200160405280600081525081526020016040518060400160405280600781526020017f236137373865390000000000000000000000000000000000000000000000000081525081526020016040518060200160405280600081525081526020016040518060200160405280600081525081526020016040518060400160405280600781526020017f236132373065370000000000000000000000000000000000000000000000000081525081526020016040518060400160405280600781526020017f236130366365370000000000000000000000000000000000000000000000000081525081526020016040518060400160405280600781526020017f233965363965360000000000000000000000000000000000000000000000000081525081526020016040518060200160405280600081525081526020016040518060400160405280600781526020017f233961363365350000000000000000000000000000000000000000000000000081525081526020016040518060200160405280600081525081526020016040518060400160405280600781526020017f233936356465340000000000000000000000000000000000000000000000000081525081526020016040518060200160405280600081525081526020016040518060400160405280600781526020017f233932353865330000000000000000000000000000000000000000000000000081525081526020016040518060400160405280600781526020017f233930353565330000000000000000000000000000000000000000000000000081525081526020016040518060400160405280600781526020017f233865353265320000000000000000000000000000000000000000000000000081525081526020016040518060400160405280600781526020017f233863346565320000000000000000000000000000000000000000000000000081525081526020016040518060200160405280600081525081526020016040518060200160405280600081525081525081526020016040518061042001604052806040518060200160405280600081525081526020016040518060200160405280600081525081526020016040518060400160405280600781526020017f236331613065660000000000000000000000000000000000000000000000000081525081526020016040518060200160405280600081525081526020016040518060400160405280600781526020017f236264396165650000000000000000000000000000000000000000000000000081525081526020016040518060200160405280600081525081526020016040518060200160405280600081525081526020016040518060200160405280600081525081526020016040518060200160405280600081525081526020016040518060400160405280600781526020017f236234386265630000000000000000000000000000000000000000000000000081525081526020016040518060200160405280600081525081526020016040518060200160405280600081525081526020016040518060200160405280600081525081526020016040518060200160405280600081525081526020016040518060200160405280600081525081526020016040518060400160405280600781526020017f236138376165390000000000000000000000000000000000000000000000000081525081526020016040518060400160405280600781526020017f236136373665380000000000000000000000000000000000000000000000000081525081526020016040518060400160405280600781526020017f236134373365380000000000000000000000000000000000000000000000000081525081526020016040518060400160405280600781526020017f236132373065370000000000000000000000000000000000000000000000000081525081526020016040518060400160405280600781526020017f236130366465370000000000000000000000000000000000000000000000000081525081526020016040518060200160405280600081525081526020016040518060400160405280600781526020017f233963363765360000000000000000000000000000000000000000000000000081525081526020016040518060200160405280600081525081526020016040518060400160405280600781526020017f233939363265350000000000000000000000000000000000000000000000000081525081526020016040518060200160405280600081525081526020016040518060400160405280600781526020017f233935356365340000000000000000000000000000000000000000000000000081525081526020016040518060200160405280600081525081526020016040518060200160405280600081525081526020016040518060200160405280600081525081526020016040518060200160405280600081525081526020016040518060200160405280600081525081526020016040518060200160405280600081525081526020016040518060200160405280600081525081525081526020016040518061042001604052806040518060200160405280600081525081526020016040518060200160405280600081525081526020016040518060400160405280600781526020017f236330396565660000000000000000000000000000000000000000000000000081525081526020016040518060200160405280600081525081526020016040518060400160405280600781526020017f236263393865650000000000000000000000000000000000000000000000000081525081526020016040518060200160405280600081525081526020016040518060400160405280600781526020017f236238393265640000000000000000000000000000000000000000000000000081525081526020016040518060400160405280600781526020017f236236386665630000000000000000000000000000000000000000000000000081525081526020016040518060400160405280600781526020017f236234386365630000000000000000000000000000000000000000000000000081525081526020016040518060200160405280600081525081526020016040518060200160405280600081525081526020016040518060200160405280600081525081526020016040518060200160405280600081525081526020016040518060200160405280600081525081526020016040518060200160405280600081525081526020016040518060200160405280600081525081526020016040518060200160405280600081525081526020016040518060200160405280600081525081526020016040518060200160405280600081525081526020016040518060200160405280600081525081526020016040518060200160405280600081525081526020016040518060400160405280600781526020017f233962363665360000000000000000000000000000000000000000000000000081525081526020016040518060200160405280600081525081526020016040518060400160405280600781526020017f233937356665350000000000000000000000000000000000000000000000000081525081526020016040518060200160405280600081525081526020016040518060400160405280600781526020017f233933353965340000000000000000000000000000000000000000000000000081525081526020016040518060200160405280600081525081526020016040518060200160405280600081525081526020016040518060200160405280600081525081526020016040518060200160405280600081525081526020016040518060200160405280600081525081526020016040518060200160405280600081525081526020016040518060200160405280600081525081525081526020016040518061042001604052806040518060200160405280600081525081526020016040518060200160405280600081525081526020016040518060200160405280600081525081526020016040518060400160405280600781526020017f236264393965650000000000000000000000000000000000000000000000000081525081526020016040518060400160405280600781526020017f236262393665640000000000000000000000000000000000000000000000000081525081526020016040518060400160405280600781526020017f236239393365640000000000000000000000000000000000000000000000000081525081526020016040518060400160405280600781526020017f236237393065630000000000000000000000000000000000000000000000000081525081526020016040518060400160405280600781526020017f236235386465630000000000000000000000000000000000000000000000000081525081526020016040518060200160405280600081525081526020016040518060200160405280600081525081526020016040518060200160405280600081525081526020016040518060200160405280600081525081526020016040518060200160405280600081525081526020016040518060200160405280600081525081526020016040518060200160405280600081525081526020016040518060200160405280600081525081526020016040518060200160405280600081525081526020016040518060200160405280600081525081526020016040518060200160405280600081525081526020016040518060200160405280600081525081526020016040518060200160405280600081525081526020016040518060400160405280600781526020017f233961363365350000000000000000000000000000000000000000000000000081525081526020016040518060400160405280600781526020017f233938363065350000000000000000000000000000000000000000000000000081525081526020016040518060400160405280600781526020017f233936356565340000000000000000000000000000000000000000000000000081525081526020016040518060400160405280600781526020017f233934356265340000000000000000000000000000000000000000000000000081525081526020016040518060400160405280600781526020017f2339323538653300000000000000000000000000000000000000000000000000815250815260200160405180602001604052806000815250815260200160405180602001604052806000815250815260200160405180602001604052806000815250815260200160405180602001604052806000815250815260200160405180602001604052806000815250815260200160405180602001604052806000815250815260200160405180602001604052806000815250815250815260200160405180610420016040528060405180602001604052806000815250815260200160405180602001604052806000815250815260200160405180602001604052806000815250815260200160405180602001604052806000815250815260200160405180602001604052806000815250815260200160405180602001604052806000815250815260200160405180602001604052806000815250815260200160405180602001604052806000815250815260200160405180602001604052806000815250815260200160405180602001604052806000815250815260200160405180602001604052806000815250815260200160405180602001604052806000815250815260200160405180602001604052806000815250815260200160405180602001604052806000815250815260200160405180602001604052806000815250815260200160405180602001604052806000815250815260200160405180602001604052806000815250815260200160405180602001604052806000815250815260200160405180602001604052806000815250815260200160405180602001604052806000815250815260200160405180602001604052806000815250815260200160405180602001604052806000815250815260200160405180602001604052806000815250815260200160405180602001604052806000815250815260200160405180602001604052806000815250815260200160405180602001604052806000815250815260200160405180602001604052806000815250815260200160405180602001604052806000815250815260200160405180602001604052806000815250815260200160405180602001604052806000815250815260200160405180602001604052806000815250815260200160405180602001604052806000815250815260200160405180602001604052806000815250815250815260200160405180610420016040528060405180602001604052806000815250815260200160405180602001604052806000815250815260200160405180602001604052806000815250815260200160405180602001604052806000815250815260200160405180602001604052806000815250815260200160405180602001604052806000815250815260200160405180602001604052806000815250815260200160405180602001604052806000815250815260200160405180602001604052806000815250815260200160405180602001604052806000815250815260200160405180602001604052806000815250815260200160405180602001604052806000815250815260200160405180602001604052806000815250815260200160405180602001604052806000815250815260200160405180602001604052806000815250815260200160405180602001604052806000815250815260200160405180602001604052806000815250815260200160405180602001604052806000815250815260200160405180602001604052806000815250815260200160405180602001604052806000815250815260200160405180602001604052806000815250815260200160405180602001604052806000815250815260200160405180602001604052806000815250815260200160405180602001604052806000815250815260200160405180602001604052806000815250815260200160405180602001604052806000815250815260200160405180602001604052806000815250815260200160405180602001604052806000815250815260200160405180602001604052806000815250815260200160405180602001604052806000815250815260200160405180602001604052806000815250815260200160405180602001604052806000815250815260200160405180602001604052806000815250815250815250610444906011620048f992919062006a0d565b50600061088560006101000a81548160ff0219169083151502179055503480156200492357600080fd5b506040516200a7213803806200a721833981810160405281019062004949919062006d1a565b336000806101000a81548173ffffffffffffffffffffffffffffffffffffffff021916908373ffffffffffffffffffffffffffffffffffffffff160217905550604051806104200160405280606e61ffff16815260200160d261ffff16815260200161014061ffff1681526020016101a461ffff16815260200161021261ffff16815260200161027661ffff1681526020016102e461ffff16815260200161034861ffff1681526020016103b661ffff16815260200161044c61ffff1681526020016104b061ffff16815260200161051461ffff16815260200161057861ffff1681526020016105dc61ffff16815260200161064061ffff1681526020016106a461ffff16815260200161070861ffff16815260200161076c61ffff1681526020016107d061ffff16815260200161083461ffff16815260200161089861ffff1681526020016108fc61ffff16815260200161096061ffff1681526020016109c461ffff168152602001610a2861ffff168152602001610a8c61ffff168152602001610af061ffff168152602001610b5461ffff168152602001610bb861ffff168152602001610c8061ffff168152602001610ce461ffff168152602001610d4861ffff168152602001610dac61ffff16815250600360006021811062004b355762004b3462006d61565b5b6021020190602162004b4992919062006a64565b50604051806104200160405280606e62ffffff16815260200160dc62ffffff16815260200161014062ffffff1681526020016101ae62ffffff16815260200161021c62ffffff16815260200161028a62ffffff1681526020016102f862ffffff16815260200161035c62ffffff1681526020016103ca62ffffff16815260200161044c62ffffff1681526020016104b062ffffff16815260200161051462ffffff16815260200161057862ffffff1681526020016105dc62ffffff16815260200161064062ffffff1681526020016106a462ffffff16815260200161070862ffffff16815260200161076c62ffffff16815260200161083462ffffff16815260200161089862ffffff1681526020016108fc62ffffff16815260200161096062ffffff1681526020016109c462ffffff168152602001610a2862ffffff168152602001610a8c62ffffff168152602001610af062ffffff168152602001610b5462ffffff168152602001610bb862ffffff168152602001610c1c62ffffff1681526020016201fbd062ffffff168152602001620249f062ffffff168152602001610dac62ffffff168152602001610e1062ffffff16815250600360016021811062004d195762004d1862006d61565b5b6021020190602162004d2d92919062006aaf565b50604051806104200160405280606e62ffffff16815260200160dc62ffffff16815260200161014a62ffffff1681526020016101b862ffffff16815260200161022662ffffff16815260200161029e62ffffff16815260200161030c62ffffff16815260200161037a62ffffff1681526020016103e862ffffff16815260200161044c62ffffff1681526020016104b062ffffff16815260200161051462ffffff16815260200161057862ffffff16815260200161064062ffffff1681526020016106a462ffffff16815260200161947062ffffff16815260200161a41062ffffff16815260200161b3b062ffffff16815260200161c35062ffffff16815260200161d6d862ffffff1681526020016108fc62ffffff16815260200161096062ffffff168152602001610a2862ffffff168152602001610a8c62ffffff168152602001610af062ffffff168152602001610b5462ffffff168152602001610bb862ffffff168152602001610c1c62ffffff1681526020016201fbd062ffffff168152602001620222e062ffffff1681526020016202710062ffffff168152602001610e1062ffffff168152602001610e7462ffffff16815250600360026021811062004efe5762004efd62006d61565b5b6021020190602162004f1292919062006aaf565b50604051806104200160405280606e62ffffff16815260200160e662ffffff16815260200161015462ffffff1681526020016101cc62ffffff16815260200161023a62ffffff168152602001612af862ffffff1681526020016132c862ffffff168152602001613a9862ffffff16815260200161465062ffffff16815260200161044c62ffffff16815260200161051462ffffff16815260200161057862ffffff1681526020016105dc62ffffff16815260200161064062ffffff168152602001618ca062ffffff16815260200161070862ffffff16815260200161abe062ffffff16815260200161083462ffffff16815260200161089862ffffff1681526020016108fc62ffffff16815260200161fa0062ffffff1681526020016109c462ffffff168152602001610a2862ffffff168152602001610a8c62ffffff16815260200162016b4862ffffff168152602001620186a062ffffff1681526020016201adb062ffffff168152602001610c8062ffffff168152602001620222e062ffffff168152602001610d4862ffffff1681526020016202981062ffffff168152602001610e1062ffffff168152602001610ed862ffffff1681525060038060218110620050e457620050e362006d61565b5b60210201906021620050f892919062006aaf565b50604051806104200160405280607862ffffff16815260200160e662ffffff16815260200161015e62ffffff1681526020016101d662ffffff16815260200161245462ffffff168152602001612af862ffffff1681526020016136b062ffffff168152602001613e8062ffffff168152602001614a3862ffffff16815260200161520862ffffff16815260200161051462ffffff16815260200161057862ffffff1681526020016105dc62ffffff1681526020016184d062ffffff16815260200161070862ffffff16815260200161a41062ffffff1681526020016107d062ffffff16815260200161c73862ffffff16815260200161dac062ffffff1681526020016108fc62ffffff1681526020016109c462ffffff168152602001620124f862ffffff16815260200162013c6862ffffff16815260200162015f9062ffffff168152602001620182b862ffffff1681526020016201adb062ffffff1681526020016201d4c062ffffff168152602001610ce462ffffff168152602001620249f062ffffff168152602001610dac62ffffff1681526020016202bf2062ffffff168152602001610e7462ffffff168152602001610f3c62ffffff168152506003600460218110620052ce57620052cd62006d61565b5b60210201906021620052e292919062006aaf565b50604051806104200160405280607862ffffff16815260200160f062ffffff16815260200161157c62ffffff168152602001611d4c62ffffff16815260200161258062ffffff1681526020016102d062ffffff16815260200161034862ffffff1681526020016103c062ffffff16815260200161044c62ffffff1681526020016104b062ffffff1681526020016161a862ffffff16815260200161057862ffffff168152602001617d0062ffffff1681526020016106a462ffffff168152602001619c4062ffffff16815260200161076c62ffffff16815260200161bf6862ffffff16815260200161089862ffffff1681526020016108fc62ffffff16815260200161fde862ffffff1681526020016109c462ffffff1681526020016201349862ffffff168152602001620153d862ffffff168152602001610b5462ffffff1681526020016201adb062ffffff168152602001610c1c62ffffff1681526020016201fbd062ffffff168152602001610d4862ffffff1681526020016202710062ffffff168152602001610e1062ffffff16815260200162030d4062ffffff168152602001610ed862ffffff168152602001610fa062ffffff168152506003600560218110620054b657620054b562006d61565b5b60210201906021620054ca92919062006aaf565b50604051806104200160405280607862ffffff16815260200160fa62ffffff16815260200161164462ffffff1681526020016101ea62ffffff16815260200161271062ffffff1681526020016102e462ffffff168152602001613a9862ffffff16815260200161465062ffffff168152602001614e2062ffffff1681526020016159d862ffffff16815260200161057862ffffff1681526020016105dc62ffffff1681526020016184d062ffffff1681526020016106a462ffffff16815260200161a41062ffffff1681526020016107d062ffffff16815260200161c73862ffffff16815260200161089862ffffff1681526020016108fc62ffffff16815260200162010d8862ffffff168152602001610a2862ffffff1681526020016201482062ffffff168152602001610af062ffffff168152602001620186a062ffffff168152602001610c1c62ffffff168152602001610c8062ffffff168152602001620222e062ffffff168152602001610d4862ffffff1681526020016202981062ffffff168152602001610e7462ffffff16815260200162035b6062ffffff168152602001610f3c62ffffff16815260200161100462ffffff1681525060036006602181106200569e576200569d62006d61565b5b60210201906021620056b292919062006aaf565b50604051806104200160405280608262ffffff16815260200160fa62ffffff16815260200161177062ffffff1681526020016101f462ffffff16815260200161271062ffffff1681526020016102f862ffffff168152602001613e8062ffffff1681526020016103e862ffffff16815260200161044c62ffffff1681526020016161a862ffffff168152602001616d6062ffffff1681526020016105dc62ffffff1681526020016188b862ffffff16815260200161070862ffffff16815260200161abe062ffffff1681526020016107d062ffffff16815260200161d2f062ffffff1681526020016108fc62ffffff16815260200161096062ffffff1681526020016201194062ffffff168152602001610a2862ffffff168152602001620157c062ffffff168152602001610b5462ffffff1681526020016201adb062ffffff168152602001610c8062ffffff1681526020016201fbd062ffffff168152602001610d4862ffffff1681526020016202981062ffffff1681526020016202e63062ffffff168152602001610ed862ffffff1681526020016203a98062ffffff168152602001610fa062ffffff16815260200161106862ffffff16815250600360076021811062005887576200588662006d61565b5b602102019060216200589b92919062006aaf565b50604051806104200160405280608262ffffff16815260200161010462ffffff16815260200161183862ffffff16815260200161020862ffffff168152602001612af862ffffff16815260200161030262ffffff168152602001613e8062ffffff168152602001614a3862ffffff1681526020016155f062ffffff16815260200161051462ffffff16815260200161714862ffffff1681526020016180e862ffffff16815260200161908862ffffff16815260200161070862ffffff16815260200161b3b062ffffff16815260200161083462ffffff16815260200161dea862ffffff1681526020016108fc62ffffff1681526020016109c462ffffff16815260200162012cc862ffffff168152602001610a8c62ffffff16815260200162016f3062ffffff168152602001610bb862ffffff1681526020016201adb062ffffff168152602001610c8062ffffff168152602001620222e062ffffff1681526020016202710062ffffff168152602001610e1062ffffff168152602001610e7462ffffff168152602001610f3c62ffffff1681526020016203f7a062ffffff16815260200161100462ffffff1681526020016110cc62ffffff16815250600360086021811062005a705762005a6f62006d61565b5b6021020190602162005a8492919062006aaf565b50604051806104200160405280608262ffffff16815260200161010462ffffff16815260200161196462ffffff16815260200161021262ffffff168152602001612af862ffffff16815260200161031662ffffff16815260200161426862ffffff16815260200161044c62ffffff1681526020016159d862ffffff16815260200161697862ffffff1681526020016105dc62ffffff1681526020016184d062ffffff16815260200161985862ffffff16815260200161070862ffffff16815260200161bb8062ffffff16815260200161083462ffffff16815260200161089862ffffff168152602001620101d062ffffff1681526020016201211062ffffff168152602001610a2862ffffff168152602001610af062ffffff168152602001620182b862ffffff168152602001610bb862ffffff1681526020016201d4c062ffffff168152602001610ce462ffffff168152602001620249f062ffffff168152602001610e1062ffffff1681526020016202e63062ffffff168152602001610ed862ffffff168152602001610fa062ffffff16815260200162046cd062ffffff16815260200161106862ffffff16815260200161113062ffffff16815250600360096021811062005c5a5762005c5962006d61565b5b6021020190602162005c6e92919062006aaf565b50604051806104200160405280608c62ffffff16815260200161010e62ffffff168152602001611a2c62ffffff16815260200161021c62ffffff168152602001612ee062ffffff16815260200161032a62ffffff16815260200161465062ffffff16815260200161044c62ffffff168152602001615dc062ffffff16815260200161051462ffffff1681526020016105dc62ffffff168152602001618ca062ffffff16815260200161070862ffffff16815260200161b3b062ffffff1681526020016107d062ffffff16815260200161dac062ffffff1681526020016108fc62ffffff16815260200161096062ffffff168152602001610a2862ffffff168152602001610a8c62ffffff168152602001610af062ffffff1681526020016201adb062ffffff168152602001610c1c62ffffff1681526020016201fbd062ffffff168152602001610d4862ffffff1681526020016202710062ffffff168152602001610e1062ffffff1681526020016203345062ffffff168152602001610f3c62ffffff168152602001620445c062ffffff1681526020016204e20062ffffff1681526020016110cc62ffffff16815260200161119462ffffff168152506003600a6021811062005e435762005e4262006d61565b5b6021020190602162005e5792919062006aaf565b50604051806104200160405280608c62ffffff16815260200161011862ffffff168152602001611b5862ffffff16815260200161022662ffffff168152602001612ee062ffffff16815260200161033e62ffffff16815260200161465062ffffff1681526020016155f062ffffff1681526020016104b062ffffff16815260200161057862ffffff1681526020016180e862ffffff16815260200161947062ffffff16815260200161070862ffffff16815260200161076c62ffffff16815260200161cf0862ffffff16815260200161089862ffffff168152602001620101d062ffffff1681526020016109c462ffffff168152602001610a2862ffffff16815260200162015f9062ffffff168152602001620186a062ffffff1681526020016201adb062ffffff168152602001610c8062ffffff168152602001620222e062ffffff168152602001610d4862ffffff1681526020016202bf2062ffffff168152602001610e7462ffffff1681526020016203827062ffffff1681526020016203f7a062ffffff1681526020016204baf062ffffff16815260200162057e4062ffffff16815260200161113062ffffff1681526020016111f862ffffff168152506003600b6021811062006030576200602f62006d61565b5b602102019060216200604492919062006aaf565b50604051806104200160405280608c62ffffff16815260200161011862ffffff168152602001611c8462ffffff16815260200161023062ffffff1681526020016132c862ffffff16815260200161035262ffffff1681526020016103de62ffffff16815260200161044c62ffffff16815260200161051462ffffff16815260200161791862ffffff16815260200161064062ffffff1681526020016106a462ffffff16815260200161070862ffffff1681526020016107d062ffffff16815260200161083462ffffff16815260200161f23062ffffff1681526020016201117062ffffff168152602001620130b062ffffff168152602001620153d862ffffff16815260200162017ae862ffffff168152602001610bb862ffffff1681526020016201d4c062ffffff168152602001610c8062ffffff168152602001620249f062ffffff168152602001610dac62ffffff1681526020016202e63062ffffff168152602001610ed862ffffff168152602001610f3c62ffffff16815260200161100462ffffff16815260200161106862ffffff16815260200161113062ffffff16815260200161119462ffffff16815260200161125c62ffffff168152506003600c602181106200621a576200621962006d61565b5b602102019060216200622e92919062006aaf565b50604051806104200160405280608c62ffffff16815260200161012262ffffff168152602001611db062ffffff16815260200161024462ffffff1681526020016132c862ffffff16815260200161035c62ffffff168152602001614e2062ffffff168152602001615dc062ffffff168152602001616d6062ffffff16815260200161057862ffffff16815260200161064062ffffff1681526020016106a462ffffff16815260200161076c62ffffff1681526020016107d062ffffff16815260200161089862ffffff1681526020016108fc62ffffff16815260200161096062ffffff168152602001610a2862ffffff168152602001610a8c62ffffff168152602001610b5462ffffff168152602001610bb862ffffff1681526020016201fbd062ffffff168152602001610ce462ffffff1681526020016202710062ffffff168152602001610e1062ffffff1681526020016203345062ffffff168152602001610f3c62ffffff168152602001610fa062ffffff16815260200161106862ffffff1681526020016110cc62ffffff16815260200161119462ffffff1681526020016111f862ffffff1681526020016112c062ffffff168152506003600d602181106200640057620063ff62006d61565b5b602102019060216200641492919062006aaf565b50604051806104200160405280609662ffffff16815260200161012262ffffff1681526020016101b862ffffff168152602001612af862ffffff1681526020016136b062ffffff16815260200161426862ffffff16815260200161520862ffffff1681526020016161a862ffffff16815260200161051462ffffff1681526020016105dc62ffffff16815260200161064062ffffff16815260200161070862ffffff16815260200161076c62ffffff16815260200161083462ffffff16815260200161089862ffffff16815260200161096062ffffff1681526020016109c462ffffff168152602001610a2862ffffff168152602001610af062ffffff168152602001610b5462ffffff168152602001610c1c62ffffff168152602001620222e062ffffff1681526020016202710062ffffff1681526020016202981062ffffff16815260200162030d4062ffffff16815260200162035b6062ffffff168152602001610fa062ffffff16815260200161100462ffffff1681526020016110cc62ffffff16815260200161113062ffffff1681526020016111f862ffffff16815260200161125c62ffffff16815260200161132462ffffff168152506003600e60218110620065e857620065e762006d61565b5b60210201906021620065fc92919062006aaf565b50604051806104200160405280609661ffff16815260200161012c61ffff1681526020016101c261ffff16815260200161025861ffff1681526020016102ee61ffff16815260200161038461ffff16815260200161044c61ffff1681526020016104b061ffff16815260200161057861ffff1681526020016105dc61ffff1681526020016106a461ffff16815260200161070861ffff1681526020016107d061ffff16815260200161083461ffff1681526020016108fc61ffff16815260200161096061ffff168152602001610a2861ffff168152602001610a8c61ffff168152602001610b5461ffff168152602001610bb861ffff168152602001610c8061ffff168152602001610ce461ffff168152602001610dac61ffff168152602001610e1061ffff168152602001610ed861ffff168152602001610f3c61ffff16815260200161100461ffff16815260200161106861ffff16815260200161113061ffff16815260200161119461ffff16815260200161125c61ffff1681526020016112c061ffff16815260200161138861ffff168152506003600f60218110620067aa57620067a962006d61565b5b60210201906021620067be92919062006a64565b50604051806104200160405280609661ffff16815260200161013661ffff1681526020016101cc61ffff16815260200161026261ffff16815260200161030261ffff16815260200161039861ffff16815260200161044c61ffff1681526020016104b061ffff16815260200161057861ffff1681526020016105dc61ffff1681526020016106a461ffff16815260200161070861ffff1681526020016107d061ffff16815260200161083461ffff1681526020016108fc61ffff16815260200161096061ffff168152602001610a2861ffff168152602001610af061ffff168152602001610b5461ffff168152602001610c1c61ffff168152602001610c8061ffff168152602001610d4861ffff168152602001610dac61ffff168152602001610e7461ffff168152602001610ed861ffff168152602001610fa061ffff16815260200161100461ffff1681526020016110cc61ffff16815260200161113061ffff1681526020016111f861ffff16815260200161125c61ffff16815260200161132461ffff16815260200161138861ffff1681525060036010602181106200696c576200696b62006d61565b5b602102019060216200698092919062006a64565b508161088560016101000a81548173ffffffffffffffffffffffffffffffffffffffff021916908373ffffffffffffffffffffffffffffffffffffffff1602179055508061088660006101000a81548173ffffffffffffffffffffffffffffffffffffffff021916908373ffffffffffffffffffffffffffffffffffffffff160217905550505062006df4565b8260218002810192821562006a51579160200282015b8281111562006a505782518290602162006a3f92919062006afb565b509160200191906021019062006a23565b5b50905062006a60919062006b55565b5090565b826021810192821562006a9c579160200282015b8281111562006a9b578251829061ffff1690559160200191906001019062006a78565b5b50905062006aab919062006b7d565b5090565b826021810192821562006ae8579160200282015b8281111562006ae7578251829062ffffff1690559160200191906001019062006ac3565b5b50905062006af7919062006b7d565b5090565b826021810192821562006b42579160200282015b8281111562006b4157825182908051906020019062006b3092919062006b9c565b509160200191906001019062006b0f565b5b50905062006b51919062006c2d565b5090565b5b8082111562006b79576000818162006b6f919062006c55565b5060210162006b56565b5090565b5b8082111562006b9857600081600090555060010162006b7e565b5090565b82805462006baa9062006dbf565b90600052602060002090601f01602090048101928262006bce576000855562006c1a565b82601f1062006be957805160ff191683800117855562006c1a565b8280016001018555821562006c1a579182015b8281111562006c1957825182559160200191906001019062006bfc565b5b50905062006c29919062006b7d565b5090565b5b8082111562006c51576000818162006c47919062006c6a565b5060010162006c2e565b5090565b50806021019062006c67919062006c2d565b50565b50805462006c789062006dbf565b6000825580601f1062006c8c575062006cad565b601f01602090049060005260206000209081019062006cac919062006b7d565b5b50565b600080fd5b600073ffffffffffffffffffffffffffffffffffffffff82169050919050565b600062006ce28262006cb5565b9050919050565b62006cf48162006cd5565b811462006d0057600080fd5b50565b60008151905062006d148162006ce9565b92915050565b6000806040838503121562006d345762006d3362006cb0565b5b600062006d448582860162006d03565b925050602062006d578582860162006d03565b9150509250929050565b7f4e487b7100000000000000000000000000000000000000000000000000000000600052603260045260246000fd5b7f4e487b7100000000000000000000000000000000000000000000000000000000600052602260045260246000fd5b6000600282049050600182168062006dd857607f821691505b60208210810362006dee5762006ded62006d90565b5b50919050565b61391d8062006e046000396000f3fe6080604052600436106101145760003560e01c80636aa633b6116100a0578063a06101d011610064578063a06101d014610374578063ad9591e71461039f578063b0e987db146103de578063eca83a691461041b578063f9cebc261461043757610114565b80636aa633b61461028a5780637d63215c146102b5578063819aca1d146102e05780638da5cb5b1461031e5780639d602d2d1461034957610114565b806317ba786f116100e757806317ba786f146101c957806325247c01146101f2578063367545e21461021d578063367edd321461024857806338b145df1461025f57610114565b80630c081500146101195780630ce9befa14610145578063108c5e1414610161578063146008e31461018c575b600080fd5b34801561012557600080fd5b5061012e610474565b60405161013c9291906128fb565b60405180910390f35b61015f600480360381019061015a9190612ab1565b610718565b005b34801561016d57600080fd5b50610176610807565b6040516101839190612b2f565b60405180910390f35b34801561019857600080fd5b506101b360048036038101906101ae9190612b4a565b61080c565b6040516101c09190612b2f565b60405180910390f35b3480156101d557600080fd5b506101f060048036038101906101eb9190612b8a565b610837565b005b3480156101fe57600080fd5b50610207610a57565b6040516102149190612c6c565b60405180910390f35b34801561022957600080fd5b50610232610a7e565b60405161023f9190612f56565b60405180910390f35b34801561025457600080fd5b5061025d610ec0565b005b34801561026b57600080fd5b50610274611156565b6040516102819190612b2f565b60405180910390f35b34801561029657600080fd5b5061029f61115b565b6040516102ac9190612f93565b60405180910390f35b3480156102c157600080fd5b506102ca61116f565b6040516102d79190612c6c565b60405180910390f35b3480156102ec57600080fd5b5061030760048036038101906103029190612b4a565b611196565b604051610315929190613007565b60405180910390f35b34801561032a57600080fd5b50610333611490565b6040516103409190613058565b60405180910390f35b34801561035557600080fd5b5061035e6114b4565b60405161036b9190612f93565b60405180910390f35b34801561038057600080fd5b506103896114cc565b6040516103969190612b2f565b60405180910390f35b3480156103ab57600080fd5b506103c660048036038101906103c19190612b4a565b6116df565b6040516103d593929190613073565b60405180910390f35b3480156103ea57600080fd5b5061040560048036038101906104009190612b4a565b6119d2565b6040516104129190612b2f565b60405180910390f35b61043560048036038101906104309190612b8a565b611a00565b005b34801561044357600080fd5b5061045e60048036038101906104599190612b4a565b611e73565b60405161046b91906130b1565b60405180910390f35b60608061047f6114b4565b6104be576040517f08c379a00000000000000000000000000000000000000000000000000000000081526004016104b59061311f565b60405180910390fd5b60006104c8611f2a565b905060006104d4611f33565b905060008167ffffffffffffffff8111156104f2576104f1612986565b5b60405190808252806020026020018201604052801561052557816020015b60608152602001906001900390816105105790505b50905060008267ffffffffffffffff81111561054457610543612986565b5b60405190808252806020026020018201604052801561057757816020015b60608152602001906001900390816105625790505b50905060005b838110156107095760008567ffffffffffffffff8111156105a1576105a0612986565b5b6040519080825280602002602001820160405280156105cf5781602001602082028036833780820191505090505b50905060008667ffffffffffffffff8111156105ee576105ed612986565b5b60405190808252806020026020018201604052801561062157816020015b606081526020019060019003908161060c5790505b50905060005b878110156106b5576106398185611196565b84838151811061064c5761064b61313f565b5b602002602001018484815181106106665761066561313f565b5b602002602001018290528273ffffffffffffffffffffffffffffffffffffffff1673ffffffffffffffffffffffffffffffffffffffff16815250505080806106ad9061319d565b915050610627565b50818584815181106106ca576106c961313f565b5b6020026020010181905250808484815181106106e9576106e861313f565b5b6020026020010181905250505080806107019061319d565b91505061057d565b50818195509550505050509091565b6107206114b4565b61075f576040517f08c379a00000000000000000000000000000000000000000000000000000000081526004016107569061311f565b60405180910390fd5b8282610769611f2a565b82106107aa576040517f08c379a00000000000000000000000000000000000000000000000000000000081526004016107a190613231565b60405180910390fd5b6107b2611f33565b81106107f3576040517f08c379a00000000000000000000000000000000000000000000000000000000081526004016107ea9061329d565b60405180910390fd5b6108008585600186611a00565b5050505050565b601181565b6001602052816000526040600020602052806000526040600020600091509150508060000154905081565b61083f6114b4565b61087e576040517f08c379a00000000000000000000000000000000000000000000000000000000081526004016108759061311f565b60405180910390fd5b8383610888611f2a565b82106108c9576040517f08c379a00000000000000000000000000000000000000000000000000000000081526004016108c090613231565b60405180910390fd5b6108d1611f33565b8110610912576040517f08c379a00000000000000000000000000000000000000000000000000000000081526004016109099061329d565b60405180910390fd5b8585853373ffffffffffffffffffffffffffffffffffffffff1660016000848152602001908152602001600020600085815260200190815260200160002060010182815481106109655761096461313f565b5b906000526020600020906002020160000160009054906101000a900473ffffffffffffffffffffffffffffffffffffffff1673ffffffffffffffffffffffffffffffffffffffff16146109ed576040517f08c379a00000000000000000000000000000000000000000000000000000000081526004016109e490613309565b60405180910390fd5b85600160008a815260200190815260200160002060008b81526020019081526020016000206001018881548110610a2757610a2661313f565b5b90600052602060002090600202016001019080519060200190610a4b92919061243f565b50505050505050505050565b61088560019054906101000a900473ffffffffffffffffffffffffffffffffffffffff1681565b6060610a886114b4565b610ac7576040517f08c379a0000000000000000000000000000000000000000000000000000000008152600401610abe9061311f565b60405180910390fd5b6000610ad1611f2a565b90506000610add611f33565b905060008167ffffffffffffffff811115610afb57610afa612986565b5b604051908082528060200260200182016040528015610b2e57816020015b6060815260200190600190039081610b195790505b50905060005b82811015610eb65760008467ffffffffffffffff811115610b5857610b57612986565b5b604051908082528060200260200182016040528015610b9157816020015b610b7e6124c5565b815260200190600190039081610b765790505b50905060005b85811015610e82576000806000610bae84876116df565b92509250925082858581518110610bc857610bc761313f565b5b6020026020010151600001818152505060008103610ce457600167ffffffffffffffff811115610bfb57610bfa612986565b5b604051908082528060200260200182016040528015610c3457816020015b610c216124df565b815260200190600190039081610c195790505b50858581518110610c4857610c4761313f565b5b602002602001015160200181905250604051806040016040528060008054906101000a900473ffffffffffffffffffffffffffffffffffffffff1673ffffffffffffffffffffffffffffffffffffffff16815260200183815250858581518110610cb557610cb461313f565b5b602002602001015160200151600081518110610cd457610cd361313f565b5b6020026020010181905250610e6c565b600160008781526020019081526020016000206000858152602001908152602001600020600101805480602002602001604051908101604052809291908181526020016000905b82821015610e4557838290600052602060002090600202016040518060400160405290816000820160009054906101000a900473ffffffffffffffffffffffffffffffffffffffff1673ffffffffffffffffffffffffffffffffffffffff1673ffffffffffffffffffffffffffffffffffffffff168152602001600182018054610db490613358565b80601f0160208091040260200160405190810160405280929190818152602001828054610de090613358565b8015610e2d5780601f10610e0257610100808354040283529160200191610e2d565b820191906000526020600020905b815481529060010190602001808311610e1057829003601f168201915b50505050508152505081526020019060010190610d2b565b50505050858581518110610e5c57610e5b61313f565b5b6020026020010151602001819052505b5050508080610e7a9061319d565b915050610b97565b5080838381518110610e9757610e9661313f565b5b6020026020010181905250508080610eae9061319d565b915050610b34565b5080935050505090565b60008054906101000a900473ffffffffffffffffffffffffffffffffffffffff1673ffffffffffffffffffffffffffffffffffffffff163373ffffffffffffffffffffffffffffffffffffffff1614610f4e576040517f08c379a0000000000000000000000000000000000000000000000000000000008152600401610f45906133fb565b60405180910390fd5b600061088560019054906101000a900473ffffffffffffffffffffffffffffffffffffffff1673ffffffffffffffffffffffffffffffffffffffff1663a06101d06040518163ffffffff1660e01b8152600401602060405180830381865afa158015610fbe573d6000803e3d6000fd5b505050506040513d601f19601f82011682018060405250810190610fe29190613430565b9050600061088660009054906101000a900473ffffffffffffffffffffffffffffffffffffffff1673ffffffffffffffffffffffffffffffffffffffff1663a06101d06040518163ffffffff1660e01b8152600401602060405180830381865afa158015611054573d6000803e3d6000fd5b505050506040513d601f19601f820116820180604052508101906110789190613430565b9050640826299e008210156110c2576040517f08c379a00000000000000000000000000000000000000000000000000000000081526004016110b9906134cf565b60405180910390fd5b6404a817c80081101561110a576040517f08c379a000000000000000000000000000000000000000000000000000000000815260040161110190613561565b60405180910390fd5b600161088560006101000a81548160ff0219169083151502179055507f961479333f7baab3eea2ead54f4113612e06058e0f3cdd932672aa14bcd831c260405160405180910390a15050565b602181565b61088560009054906101000a900460ff1681565b61088660009054906101000a900473ffffffffffffffffffffffffffffffffffffffff1681565b600060606111a26114b4565b6111e1576040517f08c379a00000000000000000000000000000000000000000000000000000000081526004016111d89061311f565b60405180910390fd5b83836111eb611f2a565b821061122c576040517f08c379a000000000000000000000000000000000000000000000000000000000815260040161122390613231565b60405180910390fd5b611234611f33565b8110611275576040517f08c379a000000000000000000000000000000000000000000000000000000000815260040161126c9061329d565b60405180910390fd5b60006001600087815260200190815260200160002060008881526020019081526020016000206040518060400160405290816000820154815260200160018201805480602002602001604051908101604052809291908181526020016000905b828210156113ef57838290600052602060002090600202016040518060400160405290816000820160009054906101000a900473ffffffffffffffffffffffffffffffffffffffff1673ffffffffffffffffffffffffffffffffffffffff1673ffffffffffffffffffffffffffffffffffffffff16815260200160018201805461135e90613358565b80601f016020809104026020016040519081016040528092919081815260200182805461138a90613358565b80156113d75780601f106113ac576101008083540402835291602001916113d7565b820191906000526020600020905b8154815290600101906020018083116113ba57829003601f168201915b505050505081525050815260200190600101906112d5565b505050508152505090506000816020015151036114425760006114128888611f3c565b91505060008054906101000a900473ffffffffffffffffffffffffffffffffffffffff1681955095505050611487565b60008160200151600183602001515161145b9190613581565b8151811061146c5761146b61313f565b5b60200260200101519050806000015181602001519550955050505b50509250929050565b60008054906101000a900473ffffffffffffffffffffffffffffffffffffffff1681565b600061088560009054906101000a900460ff16905090565b6000806000905060006114dd611f2a565b905060006114e9611f33565b905060005b818110156116d55760005b838110156116c15760006001600084815260200190815260200160002060008381526020019081526020016000206040518060400160405290816000820154815260200160018201805480602002602001604051908101604052809291908181526020016000905b8282101561167b57838290600052602060002090600202016040518060400160405290816000820160009054906101000a900473ffffffffffffffffffffffffffffffffffffffff1673ffffffffffffffffffffffffffffffffffffffff1673ffffffffffffffffffffffffffffffffffffffff1681526020016001820180546115ea90613358565b80601f016020809104026020016040519081016040528092919081815260200182805461161690613358565b80156116635780601f1061163857610100808354040283529160200191611663565b820191906000526020600020905b81548152906001019060200180831161164657829003601f168201915b50505050508152505081526020019060010190611561565b505050508152505090506000816020015151826000015161169c91906135b5565b905080876116aa919061360f565b9650505080806116b99061319d565b9150506114f9565b5080806116cd9061319d565b9150506114ee565b5082935050505090565b6000606060006116ed6114b4565b61172c576040517f08c379a00000000000000000000000000000000000000000000000000000000081526004016117239061311f565b60405180910390fd5b8484611736611f2a565b8210611777576040517f08c379a000000000000000000000000000000000000000000000000000000000815260040161176e90613231565b60405180910390fd5b61177f611f33565b81106117c0576040517f08c379a00000000000000000000000000000000000000000000000000000000081526004016117b79061329d565b60405180910390fd5b60006001600088815260200190815260200160002060008981526020019081526020016000206040518060400160405290816000820154815260200160018201805480602002602001604051908101604052809291908181526020016000905b8282101561193a57838290600052602060002090600202016040518060400160405290816000820160009054906101000a900473ffffffffffffffffffffffffffffffffffffffff1673ffffffffffffffffffffffffffffffffffffffff1673ffffffffffffffffffffffffffffffffffffffff1681526020016001820180546118a990613358565b80601f01602080910402602001604051908101604052809291908181526020018280546118d590613358565b80156119225780601f106118f757610100808354040283529160200191611922565b820191906000526020600020905b81548152906001019060200180831161190557829003601f168201915b50505050508152505081526020019060010190611820565b505050508152505090506000816020015151036119825760008061195e8a8a611f3c565b91509150620f42408261197191906135b5565b8160009750975097505050506119c9565b80600001518160200151600183602001515161199e9190613581565b815181106119af576119ae61313f565b5b602002602001015160200151826020015151955095509550505b50509250925092565b600382602181106119e257600080fd5b6021020181602181106119f457600080fd5b01600091509150505481565b611a086114b4565b611a47576040517f08c379a0000000000000000000000000000000000000000000000000000000008152600401611a3e9061311f565b60405180910390fd5b8383611a51611f2a565b8210611a92576040517f08c379a0000000000000000000000000000000000000000000000000000000008152600401611a8990613231565b60405180910390fd5b611a9a611f33565b8110611adb576040517f08c379a0000000000000000000000000000000000000000000000000000000008152600401611ad29061329d565b60405180910390fd5b600a841115611b1f576040517f08c379a0000000000000000000000000000000000000000000000000000000008152600401611b16906136d7565b60405180910390fd5b611b2986866120b5565b6000633b9aca0060016000888152602001908152602001600020600089815260200190815260200160002060000154611b6291906135b5565b9050600060016000888152602001908152602001600020600089815260200190815260200160002060010180549050905060006002600188846002611ba791906135b5565b611bb1919061360f565b611bbb9190613581565b88611bc691906135b5565b611bd09190613726565b905060008184611be091906135b5565b9050803414611c24576040517f08c379a0000000000000000000000000000000000000000000000000000000008152600401611c1b906137a3565b60405180910390fd5b60005b83811015611d08576000600160008c815260200190815260200160002060008d81526020019081526020016000206001018281548110611c6a57611c6961313f565b5b906000526020600020906002020160000160009054906101000a900473ffffffffffffffffffffffffffffffffffffffff16905085600260008373ffffffffffffffffffffffffffffffffffffffff1673ffffffffffffffffffffffffffffffffffffffff1681526020019081526020016000206000828254611ced919061360f565b92505081905550508080611d009061319d565b915050611c27565b50611d138a8a61226e565b60005b88811015611e1257600160008b815260200190815260200160002060008c815260200190815260200160002060010160405180604001604052803373ffffffffffffffffffffffffffffffffffffffff1681526020018a815250908060018154018082558091505060019003906000526020600020906002020160009091909190915060008201518160000160006101000a81548173ffffffffffffffffffffffffffffffffffffffff021916908373ffffffffffffffffffffffffffffffffffffffff1602179055506020820151816001019080519060200190611dfc92919061243f565b5050508080611e0a9061319d565b915050611d16565b503373ffffffffffffffffffffffffffffffffffffffff167fe658510eab96e65991bb68ee771137bf387eaa3dc4a16189ea0f525766e76b2a8b8b8b8b604051611e5f94939291906137c3565b60405180910390a250505050505050505050565b6104448260218110611e8457600080fd5b602102018160218110611e9657600080fd5b01600091509150508054611ea990613358565b80601f0160208091040260200160405190810160405280929190818152602001828054611ed590613358565b8015611f225780601f10611ef757610100808354040283529160200191611f22565b820191906000526020600020905b815481529060010190602001808311611f0557829003601f168201915b505050505081565b60006021905090565b60006011905090565b6000606060218410611f83576040517f08c379a0000000000000000000000000000000000000000000000000000000008152600401611f7a9061385b565b60405180910390fd5b60118310611fc6576040517f08c379a0000000000000000000000000000000000000000000000000000000008152600401611fbd906138c7565b60405180910390fd5b60038360218110611fda57611fd961313f565b5b602102018460218110611ff057611fef61313f565b5b015461044484602181106120075761200661313f565b5b60210201856021811061201d5761201c61313f565b5b0180805461202a90613358565b80601f016020809104026020016040519081016040528092919081815260200182805461205690613358565b80156120a35780601f10612078576101008083540402835291602001916120a3565b820191906000526020600020905b81548152906001019060200180831161208657829003601f168201915b50505050509050915091509250929050565b6000600160008381526020019081526020016000206000848152602001908152602001600020600001541480156121165750600060016000838152602001908152602001600020600084815260200190815260200160002060010180549050145b1561226a576000806121288484611f3c565b91509150620f42408261213b91906135b5565b60016000858152602001908152602001600020600086815260200190815260200160002060000181905550600160008481526020019081526020016000206000858152602001908152602001600020600101604051806040016040528060008054906101000a900473ffffffffffffffffffffffffffffffffffffffff1673ffffffffffffffffffffffffffffffffffffffff16815260200183815250908060018154018082558091505060019003906000526020600020906002020160009091909190915060008201518160000160006101000a81548173ffffffffffffffffffffffffffffffffffffffff021916908373ffffffffffffffffffffffffffffffffffffffff160217905550602082015181600101908051906020019061226492919061243f565b50505050505b5050565b60005b6001600083815260200190815260200160002060008481526020019081526020016000206001018054905081101561243a57600060016000848152602001908152602001600020600085815260200190815260200160002060010182815481106122de576122dd61313f565b5b906000526020600020906002020160000160009054906101000a900473ffffffffffffffffffffffffffffffffffffffff1690506000600260008373ffffffffffffffffffffffffffffffffffffffff1673ffffffffffffffffffffffffffffffffffffffff168152602001908152602001600020541115612426578073ffffffffffffffffffffffffffffffffffffffff166108fc600260008473ffffffffffffffffffffffffffffffffffffffff1673ffffffffffffffffffffffffffffffffffffffff168152602001908152602001600020549081150290604051600060405180830381858888f193505050501580156123df573d6000803e3d6000fd5b506000600260008373ffffffffffffffffffffffffffffffffffffffff1673ffffffffffffffffffffffffffffffffffffffff168152602001908152602001600020819055505b5080806124329061319d565b915050612271565b505050565b82805461244b90613358565b90600052602060002090601f01602090048101928261246d57600085556124b4565b82601f1061248657805160ff19168380011785556124b4565b828001600101855582156124b4579182015b828111156124b3578251825591602001919060010190612498565b5b5090506124c1919061250f565b5090565b604051806040016040528060008152602001606081525090565b6040518060400160405280600073ffffffffffffffffffffffffffffffffffffffff168152602001606081525090565b5b80821115612528576000816000905550600101612510565b5090565b600081519050919050565b600082825260208201905092915050565b6000819050602082019050919050565b600081519050919050565b600082825260208201905092915050565b6000819050602082019050919050565b600073ffffffffffffffffffffffffffffffffffffffff82169050919050565b60006125af82612584565b9050919050565b6125bf816125a4565b82525050565b60006125d183836125b6565b60208301905092915050565b6000602082019050919050565b60006125f582612558565b6125ff8185612563565b935061260a83612574565b8060005b8381101561263b57815161262288826125c5565b975061262d836125dd565b92505060018101905061260e565b5085935050505092915050565b600061265483836125ea565b905092915050565b6000602082019050919050565b60006126748261252c565b61267e8185612537565b93508360208202850161269085612548565b8060005b858110156126cc57848403895281516126ad8582612648565b94506126b88361265c565b925060208a01995050600181019050612694565b50829750879550505050505092915050565b600081519050919050565b600082825260208201905092915050565b6000819050602082019050919050565b600081519050919050565b600082825260208201905092915050565b6000819050602082019050919050565b600081519050919050565b600082825260208201905092915050565b60005b83811015612770578082015181840152602081019050612755565b8381111561277f576000848401525b50505050565b6000601f19601f8301169050919050565b60006127a182612736565b6127ab8185612741565b93506127bb818560208601612752565b6127c481612785565b840191505092915050565b60006127db8383612796565b905092915050565b6000602082019050919050565b60006127fb8261270a565b6128058185612715565b93508360208202850161281785612726565b8060005b85811015612853578484038952815161283485826127cf565b945061283f836127e3565b925060208a0199505060018101905061281b565b50829750879550505050505092915050565b600061287183836127f0565b905092915050565b6000602082019050919050565b6000612891826126de565b61289b81856126e9565b9350836020820285016128ad856126fa565b8060005b858110156128e957848403895281516128ca8582612865565b94506128d583612879565b925060208a019950506001810190506128b1565b50829750879550505050505092915050565b600060408201905081810360008301526129158185612669565b905081810360208301526129298184612886565b90509392505050565b6000604051905090565b600080fd5b600080fd5b6000819050919050565b61295981612946565b811461296457600080fd5b50565b60008135905061297681612950565b92915050565b600080fd5b600080fd5b7f4e487b7100000000000000000000000000000000000000000000000000000000600052604160045260246000fd5b6129be82612785565b810181811067ffffffffffffffff821117156129dd576129dc612986565b5b80604052505050565b60006129f0612932565b90506129fc82826129b5565b919050565b600067ffffffffffffffff821115612a1c57612a1b612986565b5b612a2582612785565b9050602081019050919050565b82818337600083830152505050565b6000612a54612a4f84612a01565b6129e6565b905082815260208101848484011115612a7057612a6f612981565b5b612a7b848285612a32565b509392505050565b600082601f830112612a9857612a9761297c565b5b8135612aa8848260208601612a41565b91505092915050565b600080600060608486031215612aca57612ac961293c565b5b6000612ad886828701612967565b9350506020612ae986828701612967565b925050604084013567ffffffffffffffff811115612b0a57612b09612941565b5b612b1686828701612a83565b9150509250925092565b612b2981612946565b82525050565b6000602082019050612b446000830184612b20565b92915050565b60008060408385031215612b6157612b6061293c565b5b6000612b6f85828601612967565b9250506020612b8085828601612967565b9150509250929050565b60008060008060808587031215612ba457612ba361293c565b5b6000612bb287828801612967565b9450506020612bc387828801612967565b9350506040612bd487828801612967565b925050606085013567ffffffffffffffff811115612bf557612bf4612941565b5b612c0187828801612a83565b91505092959194509250565b6000819050919050565b6000612c32612c2d612c2884612584565b612c0d565b612584565b9050919050565b6000612c4482612c17565b9050919050565b6000612c5682612c39565b9050919050565b612c6681612c4b565b82525050565b6000602082019050612c816000830184612c5d565b92915050565b600081519050919050565b600082825260208201905092915050565b6000819050602082019050919050565b600081519050919050565b600082825260208201905092915050565b6000819050602082019050919050565b612ce881612946565b82525050565b600081519050919050565b600082825260208201905092915050565b6000819050602082019050919050565b6000604083016000830151612d3260008601826125b6565b5060208301518482036020860152612d4a8282612796565b9150508091505092915050565b6000612d638383612d1a565b905092915050565b6000602082019050919050565b6000612d8382612cee565b612d8d8185612cf9565b935083602082028501612d9f85612d0a565b8060005b85811015612ddb5784840389528151612dbc8582612d57565b9450612dc783612d6b565b925060208a01995050600181019050612da3565b50829750879550505050505092915050565b6000604083016000830151612e056000860182612cdf565b5060208301518482036020860152612e1d8282612d78565b9150508091505092915050565b6000612e368383612ded565b905092915050565b6000602082019050919050565b6000612e5682612cb3565b612e608185612cbe565b935083602082028501612e7285612ccf565b8060005b85811015612eae5784840389528151612e8f8582612e2a565b9450612e9a83612e3e565b925060208a01995050600181019050612e76565b50829750879550505050505092915050565b6000612ecc8383612e4b565b905092915050565b6000602082019050919050565b6000612eec82612c87565b612ef68185612c92565b935083602082028501612f0885612ca3565b8060005b85811015612f445784840389528151612f258582612ec0565b9450612f3083612ed4565b925060208a01995050600181019050612f0c565b50829750879550505050505092915050565b60006020820190508181036000830152612f708184612ee1565b905092915050565b60008115159050919050565b612f8d81612f78565b82525050565b6000602082019050612fa86000830184612f84565b92915050565b612fb7816125a4565b82525050565b600082825260208201905092915050565b6000612fd982612736565b612fe38185612fbd565b9350612ff3818560208601612752565b612ffc81612785565b840191505092915050565b600060408201905061301c6000830185612fae565b818103602083015261302e8184612fce565b90509392505050565b600061304282612584565b9050919050565b61305281613037565b82525050565b600060208201905061306d6000830184613049565b92915050565b60006060820190506130886000830186612b20565b818103602083015261309a8185612fce565b90506130a96040830184612b20565b949350505050565b600060208201905081810360008301526130cb8184612fce565b905092915050565b7f436f6e7472616374206973206e6f7420656e61626c6564000000000000000000600082015250565b6000613109601783612fbd565b9150613114826130d3565b602082019050919050565b60006020820190508181036000830152613138816130fc565b9050919050565b7f4e487b7100000000000000000000000000000000000000000000000000000000600052603260045260246000fd5b7f4e487b7100000000000000000000000000000000000000000000000000000000600052601160045260246000fd5b60006131a882612946565b91507fffffffffffffffffffffffffffffffffffffffffffffffffffffffffffffffff82036131da576131d961316e565b5b600182019050919050565b7f496e76616c6964207820636f6f7264696e617465000000000000000000000000600082015250565b600061321b601483612fbd565b9150613226826131e5565b602082019050919050565b6000602082019050818103600083015261324a8161320e565b9050919050565b7f496e76616c6964207920636f6f7264696e617465000000000000000000000000600082015250565b6000613287601483612fbd565b915061329282613251565b602082019050919050565b600060208201905081810360008301526132b68161327a565b9050919050565b7f4e6f7420746865206f776e6572206f662074686973206c617965720000000000600082015250565b60006132f3601b83612fbd565b91506132fe826132bd565b602082019050919050565b60006020820190508181036000830152613322816132e6565b9050919050565b7f4e487b7100000000000000000000000000000000000000000000000000000000600052602260045260246000fd5b6000600282049050600182168061337057607f821691505b60208210810361338357613382613329565b5b50919050565b7f4f6e6c7920746865206f776e65722063616e2063616c6c20746869732066756e60008201527f6374696f6e000000000000000000000000000000000000000000000000000000602082015250565b60006133e5602583612fbd565b91506133f082613389565b604082019050919050565b60006020820190508181036000830152613414816133d8565b9050919050565b60008151905061342a81612950565b92915050565b6000602082840312156134465761344561293c565b5b60006134548482850161341b565b91505092915050565b7f4e6f7420656e6f75676820746f74616c2076616c756520696e2053746167652060008201527f3100000000000000000000000000000000000000000000000000000000000000602082015250565b60006134b9602183612fbd565b91506134c48261345d565b604082019050919050565b600060208201905081810360008301526134e8816134ac565b9050919050565b7f4e6f7420656e6f75676820746f74616c2076616c756520696e2053746167652060008201527f3200000000000000000000000000000000000000000000000000000000000000602082015250565b600061354b602183612fbd565b9150613556826134ef565b604082019050919050565b6000602082019050818103600083015261357a8161353e565b9050919050565b600061358c82612946565b915061359783612946565b9250828210156135aa576135a961316e565b5b828203905092915050565b60006135c082612946565b91506135cb83612946565b9250817fffffffffffffffffffffffffffffffffffffffffffffffffffffffffffffffff04831182151516156136045761360361316e565b5b828202905092915050565b600061361a82612946565b915061362583612946565b9250827fffffffffffffffffffffffffffffffffffffffffffffffffffffffffffffffff0382111561365a5761365961316e565b5b828201905092915050565b7f43616e6e6f7420627579206d6f7265207468616e203130206c6179657273206160008201527f74206f6e63650000000000000000000000000000000000000000000000000000602082015250565b60006136c1602683612fbd565b91506136cc82613665565b604082019050919050565b600060208201905081810360008301526136f0816136b4565b9050919050565b7f4e487b7100000000000000000000000000000000000000000000000000000000600052601260045260246000fd5b600061373182612946565b915061373c83612946565b92508261374c5761374b6136f7565b5b828204905092915050565b7f496e636f727265637420504f4c2073656e740000000000000000000000000000600082015250565b600061378d601283612fbd565b915061379882613757565b602082019050919050565b600060208201905081810360008301526137bc81613780565b9050919050565b60006080820190506137d86000830187612b20565b6137e56020830186612b20565b6137f26040830185612b20565b81810360608301526138048184612fce565b905095945050505050565b7f496e76616c696420782d636f6f7264696e617465000000000000000000000000600082015250565b6000613845601483612fbd565b91506138508261380f565b602082019050919050565b6000602082019050818103600083015261387481613838565b9050919050565b7f496e76616c696420792d636f6f7264696e617465000000000000000000000000600082015250565b60006138b1601483612fbd565b91506138bc8261387b565b602082019050919050565b600060208201905081810360008301526138e0816138a4565b905091905056fea264697066735822122082df08d42a5a7c0e140e4d3dd338b9b693fe24cdb9e45233b1c75d358d1e2d1064736f6c634300080d0033",
  "immutableReferences": {},
  "source": "// SPDX-License-Identifier: MIT\npragma solidity >=0.4.22 <0.9.0;\n\nimport \"./BaseContract.sol\";\nimport \"./DataStorage3.sol\";\n\ncontract Pixelflux3 is BaseContract, DataStorage3 {\n    bool public isEnabled = false;\n    BaseContract public baseContract1;\n    BaseContract public baseContract2;\n\n    event ContractEnabled();\n\n    function isContractEnabled() public override view returns(bool) {\n        return isEnabled;\n    }\n\n    constructor(address _baseContractAddress1, address _baseContractAddress2) {\n        baseContract1 = BaseContract(_baseContractAddress1);\n        baseContract2 = BaseContract(_baseContractAddress2);\n    }\n\n    function enableContract() public onlyOwner {\n        uint256 totalValue1 = baseContract1.calculateTotalValue();\n        uint256 totalValue2 = baseContract2.calculateTotalValue();\n        require(totalValue1 >= 35 * 10**9, \"Not enough total value in Stage 1\");\n        require(totalValue2 >= 20 * 10**9, \"Not enough total value in Stage 2\");\n        isEnabled = true;\n        \n        emit ContractEnabled();\n    }\n\n    function getInitialValue(uint x, uint y) internal override view returns (uint256, string memory) {\n        require(x < gridWidth, \"Invalid x-coordinate\");\n        require(y < gridHeight, \"Invalid y-coordinate\");\n        return (initialValues[y][x], colorValues[y][x]);\n    }\n\n    function getGridWidth() internal override pure returns (uint256) {\n        return gridWidth;\n    }\n\n    function getGridHeight() internal override pure returns (uint256) {\n        return gridHeight;\n    }\n}\n",
  "sourcePath": "/home/wao/Meteor/Workspace/Sao/pixelflux/contracts/Pixelflux3.sol",
  "compiler": {
    "name": "solc",
    "version": "0.8.13+commit.abaa5c0e.Emscripten.clang"
  },
  "schemaVersion": "3.4.16",
  "updatedAt": "2023-09-27T14:12:32.229Z",
  "networkType": "ethereum",
  "devdoc": {
    "kind": "dev",
    "methods": {},
    "version": 1
  },
  "userdoc": {
    "kind": "user",
    "methods": {},
    "version": 1
  }
}