{
  "contractName": "Pixelflux2",
  "abi": [
    {
      "inputs": [
        {
          "internalType": "address",
          "name": "_baseContractAddress",
          "type": "address"
        }
      ],
      "stateMutability": "nonpayable",
      "type": "constructor"
    },
    {
      "anonymous": false,
      "inputs": [],
      "name": "ContractEnabled",
      "type": "event"
    },
    {
      "anonymous": false,
      "inputs": [
        {
          "indexed": true,
          "internalType": "address",
          "name": "buyer",
          "type": "address"
        },
        {
          "indexed": false,
          "internalType": "uint256",
          "name": "x",
          "type": "uint256"
        },
        {
          "indexed": false,
          "internalType": "uint256",
          "name": "y",
          "type": "uint256"
        },
        {
          "indexed": false,
          "internalType": "uint256",
          "name": "numLayers",
          "type": "uint256"
        },
        {
          "indexed": false,
          "internalType": "string",
          "name": "color",
          "type": "string"
        }
      ],
      "name": "LayerPurchased",
      "type": "event"
    },
    {
      "inputs": [],
      "name": "baseContract",
      "outputs": [
        {
          "internalType": "contract BaseContract",
          "name": "",
          "type": "address"
        }
      ],
      "stateMutability": "view",
      "type": "function"
    },
    {
      "inputs": [
        {
          "internalType": "uint256",
          "name": "x",
          "type": "uint256"
        },
        {
          "internalType": "uint256",
          "name": "y",
          "type": "uint256"
        },
        {
          "internalType": "string",
          "name": "color",
          "type": "string"
        }
      ],
      "name": "buyLayer",
      "outputs": [],
      "stateMutability": "payable",
      "type": "function"
    },
    {
      "inputs": [
        {
          "internalType": "uint256",
          "name": "x",
          "type": "uint256"
        },
        {
          "internalType": "uint256",
          "name": "y",
          "type": "uint256"
        },
        {
          "internalType": "uint256",
          "name": "numLayersToAdd",
          "type": "uint256"
        },
        {
          "internalType": "string",
          "name": "color",
          "type": "string"
        }
      ],
      "name": "buyMultipleLayers",
      "outputs": [],
      "stateMutability": "payable",
      "type": "function"
    },
    {
      "inputs": [],
      "name": "calculateTotalValue",
      "outputs": [
        {
          "internalType": "uint256",
          "name": "",
          "type": "uint256"
        }
      ],
      "stateMutability": "view",
      "type": "function"
    },
    {
      "inputs": [
        {
          "internalType": "uint256",
          "name": "",
          "type": "uint256"
        },
        {
          "internalType": "uint256",
          "name": "",
          "type": "uint256"
        }
      ],
      "name": "colorValues",
      "outputs": [
        {
          "internalType": "string",
          "name": "",
          "type": "string"
        }
      ],
      "stateMutability": "view",
      "type": "function"
    },
    {
      "inputs": [],
      "name": "getAllCellStates",
      "outputs": [
        {
          "components": [
            {
              "internalType": "uint256",
              "name": "baseValue",
              "type": "uint256"
            },
            {
              "components": [
                {
                  "internalType": "address payable",
                  "name": "owner",
                  "type": "address"
                },
                {
                  "internalType": "string",
                  "name": "color",
                  "type": "string"
                }
              ],
              "internalType": "struct BaseContract.Layer[]",
              "name": "layers",
              "type": "tuple[]"
            }
          ],
          "internalType": "struct BaseContract.Cell[][]",
          "name": "",
          "type": "tuple[][]"
        }
      ],
      "stateMutability": "view",
      "type": "function"
    },
    {
      "inputs": [],
      "name": "getAllTopLayers",
      "outputs": [
        {
          "internalType": "address payable[][]",
          "name": "",
          "type": "address[][]"
        },
        {
          "internalType": "string[][]",
          "name": "",
          "type": "string[][]"
        }
      ],
      "stateMutability": "view",
      "type": "function"
    },
    {
      "inputs": [
        {
          "internalType": "uint256",
          "name": "x",
          "type": "uint256"
        },
        {
          "internalType": "uint256",
          "name": "y",
          "type": "uint256"
        }
      ],
      "name": "getCellState",
      "outputs": [
        {
          "internalType": "uint256",
          "name": "",
          "type": "uint256"
        },
        {
          "internalType": "string",
          "name": "",
          "type": "string"
        },
        {
          "internalType": "uint256",
          "name": "",
          "type": "uint256"
        }
      ],
      "stateMutability": "view",
      "type": "function"
    },
    {
      "inputs": [
        {
          "internalType": "uint256",
          "name": "x",
          "type": "uint256"
        },
        {
          "internalType": "uint256",
          "name": "y",
          "type": "uint256"
        }
      ],
      "name": "getTopLayerOfCell",
      "outputs": [
        {
          "internalType": "address payable",
          "name": "",
          "type": "address"
        },
        {
          "internalType": "string",
          "name": "",
          "type": "string"
        }
      ],
      "stateMutability": "view",
      "type": "function"
    },
    {
      "inputs": [
        {
          "internalType": "uint256",
          "name": "",
          "type": "uint256"
        },
        {
          "internalType": "uint256",
          "name": "",
          "type": "uint256"
        }
      ],
      "name": "grid",
      "outputs": [
        {
          "internalType": "uint256",
          "name": "baseValue",
          "type": "uint256"
        }
      ],
      "stateMutability": "view",
      "type": "function"
    },
    {
      "inputs": [],
      "name": "gridHeight",
      "outputs": [
        {
          "internalType": "uint256",
          "name": "",
          "type": "uint256"
        }
      ],
      "stateMutability": "view",
      "type": "function"
    },
    {
      "inputs": [],
      "name": "gridWidth",
      "outputs": [
        {
          "internalType": "uint256",
          "name": "",
          "type": "uint256"
        }
      ],
      "stateMutability": "view",
      "type": "function"
    },
    {
      "inputs": [
        {
          "internalType": "uint256",
          "name": "",
          "type": "uint256"
        },
        {
          "internalType": "uint256",
          "name": "",
          "type": "uint256"
        }
      ],
      "name": "initialValues",
      "outputs": [
        {
          "internalType": "uint256",
          "name": "",
          "type": "uint256"
        }
      ],
      "stateMutability": "view",
      "type": "function"
    },
    {
      "inputs": [],
      "name": "isEnabled",
      "outputs": [
        {
          "internalType": "bool",
          "name": "",
          "type": "bool"
        }
      ],
      "stateMutability": "view",
      "type": "function"
    },
    {
      "inputs": [],
      "name": "owner",
      "outputs": [
        {
          "internalType": "address",
          "name": "",
          "type": "address"
        }
      ],
      "stateMutability": "view",
      "type": "function"
    },
    {
      "inputs": [
        {
          "internalType": "uint256",
          "name": "x",
          "type": "uint256"
        },
        {
          "internalType": "uint256",
          "name": "y",
          "type": "uint256"
        },
        {
          "internalType": "uint256",
          "name": "layerIndex",
          "type": "uint256"
        },
        {
          "internalType": "string",
          "name": "newColor",
          "type": "string"
        }
      ],
      "name": "setLayerColor",
      "outputs": [],
      "stateMutability": "nonpayable",
      "type": "function"
    },
    {
      "inputs": [],
      "name": "withdrawFunds",
      "outputs": [],
      "stateMutability": "nonpayable",
      "type": "function"
    },
    {
      "inputs": [],
      "name": "isContractEnabled",
      "outputs": [
        {
          "internalType": "bool",
          "name": "",
          "type": "bool"
        }
      ],
      "stateMutability": "view",
      "type": "function"
    },
    {
      "inputs": [],
      "name": "enableContract",
      "outputs": [],
      "stateMutability": "nonpayable",
      "type": "function"
    }
  ],
  "bytecode": "0x60806040526040518061024001604052806040518061042001604052806040518060200160405280600081525081526020016040518060200160405280600081525081526020016040518060200160405280600081525081526020016040518060200160405280600081525081526020016040518060200160405280600081525081526020016040518060200160405280600081525081526020016040518060200160405280600081525081526020016040518060200160405280600081525081526020016040518060200160405280600081525081526020016040518060200160405280600081525081526020016040518060200160405280600081525081526020016040518060200160405280600081525081526020016040518060200160405280600081525081526020016040518060200160405280600081525081526020016040518060200160405280600081525081526020016040518060200160405280600081525081526020016040518060200160405280600081525081526020016040518060200160405280600081525081526020016040518060200160405280600081525081526020016040518060200160405280600081525081526020016040518060200160405280600081525081526020016040518060200160405280600081525081526020016040518060200160405280600081525081526020016040518060200160405280600081525081526020016040518060200160405280600081525081526020016040518060200160405280600081525081526020016040518060200160405280600081525081526020016040518060200160405280600081525081526020016040518060200160405280600081525081526020016040518060200160405280600081525081526020016040518060200160405280600081525081526020016040518060200160405280600081525081526020016040518060200160405280600081525081525081526020016040518061042001604052806040518060200160405280600081525081526020016040518060200160405280600081525081526020016040518060200160405280600081525081526020016040518060200160405280600081525081526020016040518060200160405280600081525081526020016040518060200160405280600081525081526020016040518060200160405280600081525081526020016040518060200160405280600081525081526020016040518060200160405280600081525081526020016040518060200160405280600081525081526020016040518060200160405280600081525081526020016040518060200160405280600081525081526020016040518060200160405280600081525081526020016040518060200160405280600081525081526020016040518060200160405280600081525081526020016040518060200160405280600081525081526020016040518060200160405280600081525081526020016040518060400160405280600781526020017f236338616266310000000000000000000000000000000000000000000000000081525081526020016040518060400160405280600781526020017f236336613866300000000000000000000000000000000000000000000000000081525081526020016040518060200160405280600081525081526020016040518060200160405280600081525081526020016040518060200160405280600081525081526020016040518060200160405280600081525081526020016040518060200160405280600081525081526020016040518060200160405280600081525081526020016040518060200160405280600081525081526020016040518060200160405280600081525081526020016040518060200160405280600081525081526020016040518060200160405280600081525081526020016040518060200160405280600081525081526020016040518060200160405280600081525081526020016040518060200160405280600081525081526020016040518060200160405280600081525081525081526020016040518061042001604052806040518060200160405280600081525081526020016040518060200160405280600081525081526020016040518060200160405280600081525081526020016040518060200160405280600081525081526020016040518060200160405280600081525081526020016040518060200160405280600081525081526020016040518060200160405280600081525081526020016040518060200160405280600081525081526020016040518060200160405280600081525081526020016040518060200160405280600081525081526020016040518060200160405280600081525081526020016040518060200160405280600081525081526020016040518060200160405280600081525081526020016040518060200160405280600081525081526020016040518060200160405280600081525081526020016040518060200160405280600081525081526020016040518060400160405280600781526020017f236339616366310000000000000000000000000000000000000000000000000081525081526020016040518060400160405280600781526020017f236337613966310000000000000000000000000000000000000000000000000081525081526020016040518060400160405280600781526020017f236335613666300000000000000000000000000000000000000000000000000081525081526020016040518060200160405280600081525081526020016040518060200160405280600081525081526020016040518060200160405280600081525081526020016040518060200160405280600081525081526020016040518060200160405280600081525081526020016040518060200160405280600081525081526020016040518060200160405280600081525081526020016040518060200160405280600081525081526020016040518060200160405280600081525081526020016040518060200160405280600081525081526020016040518060200160405280600081525081526020016040518060200160405280600081525081526020016040518060200160405280600081525081526020016040518060200160405280600081525081525081526020016040518061042001604052806040518060200160405280600081525081526020016040518060200160405280600081525081526020016040518060200160405280600081525081526020016040518060200160405280600081525081526020016040518060200160405280600081525081526020016040518060200160405280600081525081526020016040518060200160405280600081525081526020016040518060200160405280600081525081526020016040518060200160405280600081525081526020016040518060200160405280600081525081526020016040518060200160405280600081525081526020016040518060400160405280600781526020017f236432623966330000000000000000000000000000000000000000000000000081525081526020016040518060400160405280600781526020017f236430623666330000000000000000000000000000000000000000000000000081525081526020016040518060400160405280600781526020017f236365623366320000000000000000000000000000000000000000000000000081525081526020016040518060400160405280600781526020017f236363623066320000000000000000000000000000000000000000000000000081525081526020016040518060200160405280600081525081526020016040518060400160405280600781526020017f236338616166310000000000000000000000000000000000000000000000000081525081526020016040518060200160405280600081525081526020016040518060400160405280600781526020017f236334613466300000000000000000000000000000000000000000000000000081525081526020016040518060200160405280600081525081526020016040518060200160405280600081525081526020016040518060200160405280600081525081526020016040518060200160405280600081525081526020016040518060200160405280600081525081526020016040518060200160405280600081525081526020016040518060200160405280600081525081526020016040518060200160405280600081525081526020016040518060200160405280600081525081526020016040518060200160405280600081525081526020016040518060200160405280600081525081526020016040518060200160405280600081525081526020016040518060200160405280600081525081526020016040518060200160405280600081525081525081526020016040518061042001604052806040518060200160405280600081525081526020016040518060200160405280600081525081526020016040518060200160405280600081525081526020016040518060200160405280600081525081526020016040518060200160405280600081525081526020016040518060200160405280600081525081526020016040518060200160405280600081525081526020016040518060200160405280600081525081526020016040518060200160405280600081525081526020016040518060200160405280600081525081526020016040518060400160405280600781526020017f236432626166330000000000000000000000000000000000000000000000000081525081526020016040518060400160405280600781526020017f236430623766330000000000000000000000000000000000000000000000000081525081526020016040518060400160405280600781526020017f236365623466320000000000000000000000000000000000000000000000000081525081526020016040518060400160405280600781526020017f236363623166320000000000000000000000000000000000000000000000000081525081526020016040518060200160405280600081525081526020016040518060400160405280600781526020017f236339616266310000000000000000000000000000000000000000000000000081525081526020016040518060400160405280600781526020017f236337613866300000000000000000000000000000000000000000000000000081525081526020016040518060200160405280600081525081526020016040518060400160405280600781526020017f236333613265660000000000000000000000000000000000000000000000000081525081526020016040518060200160405280600081525081526020016040518060200160405280600081525081526020016040518060200160405280600081525081526020016040518060200160405280600081525081526020016040518060200160405280600081525081526020016040518060200160405280600081525081526020016040518060200160405280600081525081526020016040518060200160405280600081525081526020016040518060200160405280600081525081526020016040518060200160405280600081525081526020016040518060200160405280600081525081526020016040518060200160405280600081525081526020016040518060200160405280600081525081526020016040518060200160405280600081525081525081526020016040518061042001604052806040518060200160405280600081525081526020016040518060200160405280600081525081526020016040518060200160405280600081525081526020016040518060200160405280600081525081526020016040518060200160405280600081525081526020016040518060200160405280600081525081526020016040518060200160405280600081525081526020016040518060200160405280600081525081526020016040518060200160405280600081525081526020016040518060200160405280600081525081526020016040518060400160405280600781526020017f236431623866330000000000000000000000000000000000000000000000000081525081526020016040518060400160405280600781526020017f236366623566330000000000000000000000000000000000000000000000000081525081526020016040518060200160405280600081525081526020016040518060400160405280600781526020017f236362616666320000000000000000000000000000000000000000000000000081525081526020016040518060200160405280600081525081526020016040518060200160405280600081525081526020016040518060400160405280600781526020017f236335613666300000000000000000000000000000000000000000000000000081525081526020016040518060200160405280600081525081526020016040518060400160405280600781526020017f236331613065660000000000000000000000000000000000000000000000000081525081526020016040518060200160405280600081525081526020016040518060200160405280600081525081526020016040518060200160405280600081525081526020016040518060200160405280600081525081526020016040518060200160405280600081525081526020016040518060200160405280600081525081526020016040518060200160405280600081525081526020016040518060200160405280600081525081526020016040518060200160405280600081525081526020016040518060200160405280600081525081526020016040518060200160405280600081525081526020016040518060200160405280600081525081526020016040518060200160405280600081525081526020016040518060200160405280600081525081525081526020016040518061042001604052806040518060200160405280600081525081526020016040518060200160405280600081525081526020016040518060200160405280600081525081526020016040518060200160405280600081525081526020016040518060200160405280600081525081526020016040518060200160405280600081525081526020016040518060200160405280600081525081526020016040518060200160405280600081525081526020016040518060200160405280600081525081526020016040518060200160405280600081525081526020016040518060200160405280600081525081526020016040518060400160405280600781526020017f236365623366320000000000000000000000000000000000000000000000000081525081526020016040518060200160405280600081525081526020016040518060400160405280600781526020017f236361616466310000000000000000000000000000000000000000000000000081525081526020016040518060200160405280600081525081526020016040518060200160405280600081525081526020016040518060400160405280600781526020017f236334613566300000000000000000000000000000000000000000000000000081525081526020016040518060200160405280600081525081526020016040518060400160405280600781526020017f236330396565660000000000000000000000000000000000000000000000000081525081526020016040518060200160405280600081525081526020016040518060200160405280600081525081526020016040518060200160405280600081525081526020016040518060200160405280600081525081526020016040518060200160405280600081525081526020016040518060200160405280600081525081526020016040518060200160405280600081525081526020016040518060200160405280600081525081526020016040518060200160405280600081525081526020016040518060200160405280600081525081526020016040518060200160405280600081525081526020016040518060200160405280600081525081526020016040518060200160405280600081525081526020016040518060200160405280600081525081525081526020016040518061042001604052806040518060200160405280600081525081526020016040518060200160405280600081525081526020016040518060200160405280600081525081526020016040518060200160405280600081525081526020016040518060200160405280600081525081526020016040518060200160405280600081525081526020016040518060200160405280600081525081526020016040518060200160405280600081525081526020016040518060200160405280600081525081526020016040518060200160405280600081525081526020016040518060200160405280600081525081526020016040518060200160405280600081525081526020016040518060400160405280600781526020017f236362616666310000000000000000000000000000000000000000000000000081525081526020016040518060200160405280600081525081526020016040518060400160405280600781526020017f236337613866300000000000000000000000000000000000000000000000000081525081526020016040518060200160405280600081525081526020016040518060200160405280600081525081526020016040518060200160405280600081525081526020016040518060400160405280600781526020017f236266396365650000000000000000000000000000000000000000000000000081525081526020016040518060200160405280600081525081526020016040518060200160405280600081525081526020016040518060200160405280600081525081526020016040518060200160405280600081525081526020016040518060200160405280600081525081526020016040518060200160405280600081525081526020016040518060200160405280600081525081526020016040518060200160405280600081525081526020016040518060200160405280600081525081526020016040518060200160405280600081525081526020016040518060200160405280600081525081526020016040518060200160405280600081525081526020016040518060200160405280600081525081526020016040518060200160405280600081525081525081526020016040518061042001604052806040518060200160405280600081525081526020016040518060200160405280600081525081526020016040518060200160405280600081525081526020016040518060200160405280600081525081526020016040518060200160405280600081525081526020016040518060200160405280600081525081526020016040518060200160405280600081525081526020016040518060200160405280600081525081526020016040518060200160405280600081525081526020016040518060200160405280600081525081526020016040518060200160405280600081525081526020016040518060200160405280600081525081526020016040518060200160405280600081525081526020016040518060400160405280600781526020017f236337613966310000000000000000000000000000000000000000000000000081525081526020016040518060200160405280600081525081526020016040518060400160405280600781526020017f236334613466300000000000000000000000000000000000000000000000000081525081526020016040518060200160405280600081525081526020016040518060200160405280600081525081526020016040518060400160405280600781526020017f236265396265650000000000000000000000000000000000000000000000000081525081526020016040518060200160405280600081525081526020016040518060200160405280600081525081526020016040518060200160405280600081525081526020016040518060200160405280600081525081526020016040518060200160405280600081525081526020016040518060200160405280600081525081526020016040518060200160405280600081525081526020016040518060200160405280600081525081526020016040518060200160405280600081525081526020016040518060200160405280600081525081526020016040518060200160405280600081525081526020016040518060200160405280600081525081526020016040518060200160405280600081525081526020016040518060200160405280600081525081525081526020016040518061042001604052806040518060200160405280600081525081526020016040518060200160405280600081525081526020016040518060200160405280600081525081526020016040518060200160405280600081525081526020016040518060200160405280600081525081526020016040518060200160405280600081525081526020016040518060200160405280600081525081526020016040518060200160405280600081525081526020016040518060200160405280600081525081526020016040518060200160405280600081525081526020016040518060400160405280600781526020017f236363623066320000000000000000000000000000000000000000000000000081525081526020016040518060400160405280600781526020017f236361616566310000000000000000000000000000000000000000000000000081525081526020016040518060400160405280600781526020017f236338616266310000000000000000000000000000000000000000000000000081525081526020016040518060400160405280600781526020017f236336613866300000000000000000000000000000000000000000000000000081525081526020016040518060400160405280600781526020017f236334613566300000000000000000000000000000000000000000000000000081525081526020016040518060200160405280600081525081526020016040518060400160405280600781526020017f236330396565660000000000000000000000000000000000000000000000000081525081526020016040518060200160405280600081525081526020016040518060400160405280600781526020017f236263393865650000000000000000000000000000000000000000000000000081525081526020016040518060400160405280600781526020017f236262393665640000000000000000000000000000000000000000000000000081525081526020016040518060400160405280600781526020017f236239393365640000000000000000000000000000000000000000000000000081525081526020016040518060400160405280600781526020017f236237393065630000000000000000000000000000000000000000000000000081525081526020016040518060200160405280600081525081526020016040518060200160405280600081525081526020016040518060200160405280600081525081526020016040518060200160405280600081525081526020016040518060200160405280600081525081526020016040518060200160405280600081525081526020016040518060200160405280600081525081526020016040518060200160405280600081525081526020016040518060200160405280600081525081526020016040518060200160405280600081525081526020016040518060200160405280600081525081525081526020016040518061042001604052806040518060200160405280600081525081526020016040518060200160405280600081525081526020016040518060200160405280600081525081526020016040518060200160405280600081525081526020016040518060200160405280600081525081526020016040518060200160405280600081525081526020016040518060200160405280600081525081526020016040518060200160405280600081525081526020016040518060200160405280600081525081526020016040518060400160405280600781526020017f236364623266320000000000000000000000000000000000000000000000000081525081526020016040518060400160405280600781526020017f236362616666310000000000000000000000000000000000000000000000000081525081526020016040518060400160405280600781526020017f236339616266310000000000000000000000000000000000000000000000000081525081526020016040518060400160405280600781526020017f236337613866300000000000000000000000000000000000000000000000000081525081526020016040518060400160405280600781526020017f236335613566300000000000000000000000000000000000000000000000000081525081526020016040518060400160405280600781526020017f236333613265660000000000000000000000000000000000000000000000000081525081526020016040518060400160405280600781526020017f236331613065660000000000000000000000000000000000000000000000000081525081526020016040518060400160405280600781526020017f236266396465660000000000000000000000000000000000000000000000000081525081526020016040518060400160405280600781526020017f236264396165650000000000000000000000000000000000000000000000000081525081526020016040518060400160405280600781526020017f236262393765650000000000000000000000000000000000000000000000000081525081526020016040518060400160405280600781526020017f236239393465640000000000000000000000000000000000000000000000000081525081526020016040518060400160405280600781526020017f236237393165640000000000000000000000000000000000000000000000000081525081526020016040518060400160405280600781526020017f236235386565630000000000000000000000000000000000000000000000000081525081526020016040518060400160405280600781526020017f236234386265630000000000000000000000000000000000000000000000000081525081526020016040518060400160405280600781526020017f236232383865620000000000000000000000000000000000000000000000000081525081526020016040518060200160405280600081525081526020016040518060200160405280600081525081526020016040518060200160405280600081525081526020016040518060200160405280600081525081526020016040518060200160405280600081525081526020016040518060200160405280600081525081526020016040518060200160405280600081525081526020016040518060200160405280600081525081526020016040518060200160405280600081525081525081526020016040518061042001604052806040518060200160405280600081525081526020016040518060200160405280600081525081526020016040518060200160405280600081525081526020016040518060200160405280600081525081526020016040518060200160405280600081525081526020016040518060200160405280600081525081526020016040518060200160405280600081525081526020016040518060200160405280600081525081526020016040518060400160405280600781526020017f236364623266320000000000000000000000000000000000000000000000000081525081526020016040518060400160405280600781526020017f236362616666320000000000000000000000000000000000000000000000000081525081526020016040518060200160405280600081525081526020016040518060200160405280600081525081526020016040518060200160405280600081525081526020016040518060200160405280600081525081526020016040518060200160405280600081525081526020016040518060400160405280600781526020017f236330396565660000000000000000000000000000000000000000000000000081525081526020016040518060400160405280600781526020017f236265396265650000000000000000000000000000000000000000000000000081525081526020016040518060400160405280600781526020017f236263393865650000000000000000000000000000000000000000000000000081525081526020016040518060200160405280600081525081526020016040518060200160405280600081525081526020016040518060200160405280600081525081526020016040518060200160405280600081525081526020016040518060200160405280600081525081526020016040518060400160405280600781526020017f236230383665620000000000000000000000000000000000000000000000000081525081526020016040518060400160405280600781526020017f236165383365610000000000000000000000000000000000000000000000000081525081526020016040518060200160405280600081525081526020016040518060200160405280600081525081526020016040518060200160405280600081525081526020016040518060200160405280600081525081526020016040518060200160405280600081525081526020016040518060200160405280600081525081526020016040518060200160405280600081525081526020016040518060200160405280600081525081525081526020016040518061042001604052806040518060200160405280600081525081526020016040518060200160405280600081525081526020016040518060200160405280600081525081526020016040518060200160405280600081525081526020016040518060200160405280600081525081526020016040518060200160405280600081525081526020016040518060200160405280600081525081526020016040518060400160405280600781526020017f236365623366320000000000000000000000000000000000000000000000000081525081526020016040518060400160405280600781526020017f236363623166320000000000000000000000000000000000000000000000000081525081526020016040518060200160405280600081525081526020016040518060200160405280600081525081526020016040518060200160405280600081525081526020016040518060200160405280600081525081526020016040518060200160405280600081525081526020016040518060200160405280600081525081526020016040518060200160405280600081525081526020016040518060400160405280600781526020017f236264393965650000000000000000000000000000000000000000000000000081525081526020016040518060200160405280600081525081526020016040518060200160405280600081525081526020016040518060200160405280600081525081526020016040518060200160405280600081525081526020016040518060200160405280600081525081526020016040518060200160405280600081525081526020016040518060200160405280600081525081526020016040518060400160405280600781526020017f236164383165610000000000000000000000000000000000000000000000000081525081526020016040518060400160405280600781526020017f236162376565610000000000000000000000000000000000000000000000000081525081526020016040518060200160405280600081525081526020016040518060200160405280600081525081526020016040518060200160405280600081525081526020016040518060200160405280600081525081526020016040518060200160405280600081525081526020016040518060200160405280600081525081526020016040518060200160405280600081525081525081526020016040518061042001604052806040518060200160405280600081525081526020016040518060200160405280600081525081526020016040518060200160405280600081525081526020016040518060200160405280600081525081526020016040518060200160405280600081525081526020016040518060200160405280600081525081526020016040518060200160405280600081525081526020016040518060400160405280600781526020017f236364623266320000000000000000000000000000000000000000000000000081525081526020016040518060400160405280600781526020017f236362616666310000000000000000000000000000000000000000000000000081525081526020016040518060200160405280600081525081526020016040518060200160405280600081525081526020016040518060200160405280600081525081526020016040518060200160405280600081525081526020016040518060200160405280600081525081526020016040518060200160405280600081525081526020016040518060200160405280600081525081526020016040518060400160405280600781526020017f236262393765650000000000000000000000000000000000000000000000000081525081526020016040518060200160405280600081525081526020016040518060200160405280600081525081526020016040518060200160405280600081525081526020016040518060200160405280600081525081526020016040518060200160405280600081525081526020016040518060200160405280600081525081526020016040518060200160405280600081525081526020016040518060400160405280600781526020017f236163376665610000000000000000000000000000000000000000000000000081525081526020016040518060400160405280600781526020017f236161376365390000000000000000000000000000000000000000000000000081525081526020016040518060200160405280600081525081526020016040518060200160405280600081525081526020016040518060200160405280600081525081526020016040518060200160405280600081525081526020016040518060200160405280600081525081526020016040518060200160405280600081525081526020016040518060200160405280600081525081525081526020016040518061042001604052806040518060200160405280600081525081526020016040518060200160405280600081525081526020016040518060200160405280600081525081526020016040518060200160405280600081525081526020016040518060200160405280600081525081526020016040518060200160405280600081525081526020016040518060200160405280600081525081526020016040518060200160405280600081525081526020016040518060400160405280600781526020017f236361616466310000000000000000000000000000000000000000000000000081525081526020016040518060400160405280600781526020017f236338616166310000000000000000000000000000000000000000000000000081525081526020016040518060200160405280600081525081526020016040518060200160405280600081525081526020016040518060200160405280600081525081526020016040518060200160405280600081525081526020016040518060200160405280600081525081526020016040518060400160405280600781526020017f236263393865650000000000000000000000000000000000000000000000000081525081526020016040518060400160405280600781526020017f236261393565640000000000000000000000000000000000000000000000000081525081526020016040518060400160405280600781526020017f236238393265640000000000000000000000000000000000000000000000000081525081526020016040518060200160405280600081525081526020016040518060200160405280600081525081526020016040518060200160405280600081525081526020016040518060200160405280600081525081526020016040518060200160405280600081525081526020016040518060400160405280600781526020017f236164383065610000000000000000000000000000000000000000000000000081525081526020016040518060400160405280600781526020017f236162376465390000000000000000000000000000000000000000000000000081525081526020016040518060200160405280600081525081526020016040518060200160405280600081525081526020016040518060200160405280600081525081526020016040518060200160405280600081525081526020016040518060200160405280600081525081526020016040518060200160405280600081525081526020016040518060200160405280600081525081526020016040518060200160405280600081525081525081526020016040518061042001604052806040518060200160405280600081525081526020016040518060200160405280600081525081526020016040518060200160405280600081525081526020016040518060200160405280600081525081526020016040518060200160405280600081525081526020016040518060200160405280600081525081526020016040518060200160405280600081525081526020016040518060200160405280600081525081526020016040518060200160405280600081525081526020016040518060400160405280600781526020017f236336613866300000000000000000000000000000000000000000000000000081525081526020016040518060400160405280600781526020017f236334613566300000000000000000000000000000000000000000000000000081525081526020016040518060400160405280600781526020017f236333613265660000000000000000000000000000000000000000000000000081525081526020016040518060400160405280600781526020017f236331396665660000000000000000000000000000000000000000000000000081525081526020016040518060400160405280600781526020017f236266396365650000000000000000000000000000000000000000000000000081525081526020016040518060400160405280600781526020017f236264393965650000000000000000000000000000000000000000000000000081525081526020016040518060400160405280600781526020017f236262393665640000000000000000000000000000000000000000000000000081525081526020016040518060200160405280600081525081526020016040518060400160405280600781526020017f236237393065630000000000000000000000000000000000000000000000000081525081526020016040518060400160405280600781526020017f236235386465630000000000000000000000000000000000000000000000000081525081526020016040518060400160405280600781526020017f236233386165630000000000000000000000000000000000000000000000000081525081526020016040518060400160405280600781526020017f236231383765620000000000000000000000000000000000000000000000000081525081526020016040518060400160405280600781526020017f236166383465620000000000000000000000000000000000000000000000000081525081526020016040518060400160405280600781526020017f236164383165610000000000000000000000000000000000000000000000000081525081526020016040518060400160405280600781526020017f236162376565610000000000000000000000000000000000000000000000000081525081526020016040518060200160405280600081525081526020016040518060200160405280600081525081526020016040518060200160405280600081525081526020016040518060200160405280600081525081526020016040518060200160405280600081525081526020016040518060200160405280600081525081526020016040518060200160405280600081525081526020016040518060200160405280600081525081526020016040518060200160405280600081525081525081526020016040518061042001604052806040518060200160405280600081525081526020016040518060200160405280600081525081526020016040518060200160405280600081525081526020016040518060200160405280600081525081526020016040518060200160405280600081525081526020016040518060200160405280600081525081526020016040518060200160405280600081525081526020016040518060200160405280600081525081526020016040518060200160405280600081525081526020016040518060200160405280600081525081526020016040518060400160405280600781526020017f236333613366300000000000000000000000000000000000000000000000000081525081526020016040518060400160405280600781526020017f236331613065660000000000000000000000000000000000000000000000000081525081526020016040518060400160405280600781526020017f236266396465660000000000000000000000000000000000000000000000000081525081526020016040518060400160405280600781526020017f236264396165650000000000000000000000000000000000000000000000000081525081526020016040518060400160405280600781526020017f236262393765650000000000000000000000000000000000000000000000000081525081526020016040518060200160405280600081525081526020016040518060200160405280600081525081526020016040518060200160405280600081525081526020016040518060400160405280600781526020017f236234386265630000000000000000000000000000000000000000000000000081525081526020016040518060400160405280600781526020017f236232383865620000000000000000000000000000000000000000000000000081525081526020016040518060400160405280600781526020017f236230383565620000000000000000000000000000000000000000000000000081525081526020016040518060400160405280600781526020017f236165383265610000000000000000000000000000000000000000000000000081525081526020016040518060400160405280600781526020017f2361633830656100000000000000000000000000000000000000000000000000815250815260200160405180602001604052806000815250815260200160405180602001604052806000815250815260200160405180602001604052806000815250815260200160405180602001604052806000815250815260200160405180602001604052806000815250815260200160405180602001604052806000815250815260200160405180602001604052806000815250815260200160405180602001604052806000815250815260200160405180602001604052806000815250815260200160405180602001604052806000815250815250815260200160405180610420016040528060405180602001604052806000815250815260200160405180602001604052806000815250815260200160405180602001604052806000815250815260200160405180602001604052806000815250815260200160405180602001604052806000815250815260200160405180602001604052806000815250815260200160405180602001604052806000815250815260200160405180602001604052806000815250815260200160405180602001604052806000815250815260200160405180602001604052806000815250815260200160405180602001604052806000815250815260200160405180602001604052806000815250815260200160405180602001604052806000815250815260200160405180602001604052806000815250815260200160405180602001604052806000815250815260200160405180602001604052806000815250815260200160405180602001604052806000815250815260200160405180602001604052806000815250815260200160405180602001604052806000815250815260200160405180602001604052806000815250815260200160405180602001604052806000815250815260200160405180602001604052806000815250815260200160405180602001604052806000815250815260200160405180602001604052806000815250815260200160405180602001604052806000815250815260200160405180602001604052806000815250815260200160405180602001604052806000815250815260200160405180602001604052806000815250815260200160405180602001604052806000815250815260200160405180602001604052806000815250815260200160405180602001604052806000815250815260200160405180602001604052806000815250815260200160405180602001604052806000815250815250815250610444906012620041a5929190620061fe565b50600061088560006101000a81548160ff021916908315150217905550348015620041cf57600080fd5b5060405162009efc38038062009efc8339818101604052810190620041f59190620064bf565b336000806101000a81548173ffffffffffffffffffffffffffffffffffffffff021916908373ffffffffffffffffffffffffffffffffffffffff160217905550604051806104200160405280603361ffff168152602001606461ffff168152602001609661ffff16815260200160c861ffff16815260200161010461ffff16815260200161013661ffff16815260200161016861ffff16815260200161019a61ffff1681526020016101cc61ffff1681526020016101fe61ffff16815260200161023061ffff16815260200161026261ffff16815260200161029461ffff1681526020016102c661ffff16815260200161030261ffff16815260200161033461ffff16815260200161036661ffff16815260200161039861ffff1681526020016103ca61ffff1681526020016103e861ffff16815260200161044c61ffff16815260200161044c61ffff1681526020016104b061ffff1681526020016104b061ffff16815260200161051461ffff16815260200161051461ffff16815260200161057861ffff16815260200161057861ffff1681526020016105dc61ffff1681526020016105dc61ffff16815260200161064061ffff16815260200161064061ffff1681526020016106a461ffff168152506003600060218110620043df57620043de620064f1565b5b60210201906021620043f392919062006255565b50604051806104200160405280603661ffff168152602001606e61ffff16815260200160a061ffff16815260200160dc61ffff16815260200161010e61ffff16815260200161014061ffff16815260200161017c61ffff1681526020016101ae61ffff1681526020016101ea61ffff16815260200161021c61ffff16815260200161024e61ffff16815260200161028a61ffff1681526020016102bc61ffff1681526020016102f861ffff16815260200161032a61ffff16815260200161035c61ffff16815260200161039861ffff168152602001613a9861ffff168152602001613e8061ffff16815260200161044c61ffff16815260200161044c61ffff1681526020016104b061ffff1681526020016104b061ffff16815260200161051461ffff16815260200161057861ffff16815260200161057861ffff1681526020016105dc61ffff1681526020016105dc61ffff16815260200161064061ffff16815260200161064061ffff1681526020016106a461ffff1681526020016106a461ffff16815260200161070861ffff1681525060036001602181106200459e576200459d620064f1565b5b60210201906021620045b292919062006255565b50604051806104200160405280603961ffff168152602001606e61ffff16815260200160aa61ffff16815260200160e661ffff16815260200161012261ffff16815260200161015461ffff16815260200161019061ffff1681526020016101cc61ffff1681526020016101fe61ffff16815260200161023a61ffff16815260200161027661ffff1681526020016102a861ffff1681526020016102e461ffff16815260200161032061ffff16815260200161035c61ffff16815260200161038e61ffff168152602001613a9861ffff168152602001613e8061ffff16815260200161465061ffff16815260200161044c61ffff1681526020016104b061ffff16815260200161051461ffff16815260200161051461ffff16815260200161057861ffff16815260200161057861ffff1681526020016105dc61ffff1681526020016105dc61ffff16815260200161064061ffff1681526020016106a461ffff1681526020016106a461ffff16815260200161070861ffff16815260200161070861ffff16815260200161076c61ffff1681525060036002602181106200475d576200475c620064f1565b5b602102019060216200477192919062006255565b50604051806104200160405280603c61ffff168152602001607861ffff16815260200160b461ffff16815260200160f061ffff16815260200161012c61ffff16815260200161016861ffff1681526020016101a461ffff1681526020016101e061ffff16815260200161021c61ffff16815260200161025861ffff16815260200161029461ffff16815260200161271061ffff168152602001612af861ffff168152602001612ee061ffff1681526020016132c861ffff1681526020016103c061ffff168152602001613e8061ffff16815260200161044c61ffff168152602001614a3861ffff1681526020016104b061ffff16815260200161051461ffff16815260200161051461ffff16815260200161057861ffff16815260200161057861ffff1681526020016105dc61ffff16815260200161064061ffff16815260200161064061ffff1681526020016106a461ffff1681526020016106a461ffff16815260200161070861ffff16815260200161076c61ffff16815260200161076c61ffff1681526020016107d061ffff16815250600380602181106200491b576200491a620064f1565b5b602102019060216200492f92919062006255565b50604051806104200160405280603f61ffff168152602001608261ffff16815260200160be61ffff16815260200160fa61ffff16815260200161014061ffff16815260200161017c61ffff1681526020016101b861ffff1681526020016101f461ffff16815260200161023a61ffff16815260200161027661ffff16815260200161251c61ffff168152602001612af861ffff168152602001612ee061ffff1681526020016132c861ffff1681526020016103b661ffff168152602001613e8061ffff16815260200161426861ffff16815260200161044c61ffff168152602001614e2061ffff16815260200161051461ffff16815260200161051461ffff16815260200161057861ffff16815260200161057861ffff1681526020016105dc61ffff16815260200161064061ffff16815260200161064061ffff1681526020016106a461ffff16815260200161070861ffff16815260200161070861ffff16815260200161076c61ffff1681526020016107d061ffff1681526020016107d061ffff16815260200161083461ffff16815250600360046021811062004ada5762004ad9620064f1565b5b6021020190602162004aee92919062006255565b50604051806104200160405280604261ffff168152602001608261ffff16815260200160c861ffff16815260200161010461ffff16815260200161014a61ffff16815260200161019061ffff1681526020016101cc61ffff16815260200161021261ffff16815260200161024e61ffff16815260200161029461ffff16815260200161271061ffff168152602001612af861ffff16815260200161035c61ffff1681526020016136b061ffff1681526020016103de61ffff16815260200161044c61ffff16815260200161465061ffff1681526020016104b061ffff1681526020016155f061ffff16815260200161051461ffff16815260200161057861ffff1681526020016105dc61ffff1681526020016105dc61ffff16815260200161064061ffff1681526020016106a461ffff1681526020016106a461ffff16815260200161070861ffff16815260200161070861ffff16815260200161076c61ffff1681526020016107d061ffff1681526020016107d061ffff16815260200161083461ffff16815260200161089861ffff16815250600360056021811062004c9a5762004c99620064f1565b5b6021020190602162004cae92919062006255565b50604051806104200160405280604561ffff168152602001608c61ffff16815260200160d261ffff16815260200161011861ffff16815260200161015e61ffff16815260200161019a61ffff1681526020016101e061ffff16815260200161022661ffff16815260200161026c61ffff1681526020016102b261ffff1681526020016102f861ffff168152602001612ee061ffff16815260200161038461ffff168152602001613a9861ffff1681526020016103e861ffff16815260200161044c61ffff168152602001614a3861ffff1681526020016104b061ffff1681526020016159d861ffff16815260200161057861ffff16815260200161057861ffff1681526020016105dc61ffff16815260200161064061ffff1681526020016106a461ffff1681526020016106a461ffff16815260200161070861ffff16815260200161076c61ffff16815260200161076c61ffff1681526020016107d061ffff16815260200161083461ffff16815260200161083461ffff16815260200161089861ffff1681526020016108fc61ffff16815250600360066021811062004e5a5762004e59620064f1565b5b6021020190602162004e6e92919062006255565b50604051806104200160405280604861ffff168152602001608c61ffff16815260200160dc61ffff16815260200161012261ffff16815260200161016861ffff1681526020016101ae61ffff1681526020016101f461ffff16815260200161024461ffff16815260200161028a61ffff1681526020016102d061ffff16815260200161031661ffff16815260200161035c61ffff1681526020016136b061ffff1681526020016103e861ffff16815260200161426861ffff1681526020016104b061ffff1681526020016104b061ffff16815260200161051461ffff1681526020016161a861ffff16815260200161057861ffff1681526020016105dc61ffff16815260200161064061ffff1681526020016106a461ffff1681526020016106a461ffff16815260200161070861ffff16815260200161076c61ffff16815260200161076c61ffff1681526020016107d061ffff16815260200161083461ffff16815260200161089861ffff16815260200161089861ffff1681526020016108fc61ffff16815260200161096061ffff1681525060036007602181106200501a5762005019620064f1565b5b602102019060216200502e92919062006255565b50604051806104200160405280604b61ffff168152602001609661ffff16815260200160e661ffff16815260200161012c61ffff16815260200161017c61ffff1681526020016101c261ffff16815260200161021261ffff16815260200161025861ffff1681526020016102a861ffff1681526020016102ee61ffff16815260200161033e61ffff16815260200161038461ffff1681526020016103d461ffff16815260200161426861ffff16815260200161044c61ffff168152602001614e2061ffff16815260200161051461ffff16815260200161057861ffff16815260200161659061ffff1681526020016105dc61ffff16815260200161064061ffff1681526020016106a461ffff1681526020016106a461ffff16815260200161070861ffff16815260200161076c61ffff1681526020016107d061ffff1681526020016107d061ffff16815260200161083461ffff16815260200161089861ffff1681526020016108fc61ffff1681526020016108fc61ffff16815260200161096061ffff1681526020016109c461ffff168152506003600860218110620051da57620051d9620064f1565b5b60210201906021620051ee92919062006255565b50604051806104200160405280604e61ffff16815260200160a061ffff16815260200160e661ffff16815260200161013661ffff16815260200161018661ffff1681526020016101d661ffff16815260200161022661ffff16815260200161026c61ffff1681526020016102bc61ffff16815260200161030c61ffff1681526020016132c861ffff1681526020016136b061ffff168152602001613e8061ffff16815260200161465061ffff168152602001614a3861ffff1681526020016104b061ffff1681526020016159d861ffff16815260200161057861ffff168152602001616d6061ffff16815260200161753061ffff168152602001617d0061ffff1681526020016188b861ffff16815260200161070861ffff16815260200161076c61ffff1681526020016107d061ffff1681526020016107d061ffff16815260200161083461ffff16815260200161089861ffff1681526020016108fc61ffff1681526020016108fc61ffff16815260200161096061ffff1681526020016109c461ffff168152602001610a2861ffff1681525060036009602181106200539a5762005399620064f1565b5b60210201906021620053ae92919062006255565b50604051806104200160405280605161ffff16815260200160a061ffff16815260200160f061ffff16815260200161014061ffff16815260200161019a61ffff1681526020016101ea61ffff16815260200161023a61ffff16815260200161028a61ffff1681526020016102da61ffff168152602001612ee061ffff1681526020016132c861ffff168152602001613a9861ffff16815260200161426861ffff168152602001614a3861ffff16815260200161520861ffff1681526020016155f061ffff168152602001615dc061ffff16815260200161697861ffff16815260200161714861ffff168152602001617d0061ffff1681526020016188b861ffff16815260200161947061ffff168152602001619c4061ffff16815260200161abe061ffff1681526020016107d061ffff16815260200161083461ffff16815260200161089861ffff1681526020016108fc61ffff1681526020016108fc61ffff16815260200161096061ffff1681526020016109c461ffff168152602001610a2861ffff168152602001610a8c61ffff168152506003600a602181106200555a5762005559620064f1565b5b602102019060216200556e92919062006255565b50604051806104200160405280605461ffff16815260200160aa61ffff16815260200160fa61ffff16815260200161015461ffff1681526020016101a461ffff1681526020016101f461ffff16815260200161024e61ffff16815260200161029e61ffff168152602001612af861ffff1681526020016132c861ffff16815260200161039861ffff1681526020016103e861ffff16815260200161044c61ffff1681526020016104b061ffff16815260200161051461ffff168152602001615dc061ffff16815260200161659061ffff168152602001616d6061ffff16815260200161064061ffff1681526020016106a461ffff16815260200161070861ffff16815260200161070861ffff16815260200161076c61ffff16815260200161b79861ffff16815260200161c73861ffff16815260200161089861ffff1681526020016108fc61ffff16815260200161096061ffff16815260200161096061ffff1681526020016109c461ffff168152602001610a2861ffff168152602001610a8c61ffff168152602001610af061ffff168152506003600b602181106200571a5762005719620064f1565b5b602102019060216200572e92919062006255565b50604051806104200160405280605761ffff16815260200160aa61ffff16815260200161010461ffff16815260200161015e61ffff1681526020016101b861ffff16815260200161020861ffff16815260200161026261ffff16815260200161271061ffff168152602001612ee061ffff16815260200161036661ffff1681526020016103c061ffff1681526020016103e861ffff16815260200161044c61ffff1681526020016104b061ffff16815260200161051461ffff16815260200161057861ffff16815260200161697861ffff16815260200161064061ffff1681526020016106a461ffff1681526020016106a461ffff16815260200161070861ffff16815260200161076c61ffff1681526020016107d061ffff16815260200161083461ffff16815260200161d2f061ffff16815260200161e29061ffff1681526020016108fc61ffff16815260200161096061ffff1681526020016109c461ffff168152602001610a2861ffff168152602001610a8c61ffff168152602001610af061ffff168152602001610b5461ffff168152506003600c60218110620058db57620058da620064f1565b5b60210201906021620058ef92919062006255565b50604051806104200160405280605a61ffff16815260200160b461ffff16815260200161010e61ffff16815260200161016861ffff1681526020016101c261ffff16815260200161021c61ffff16815260200161027661ffff168152602001612af861ffff168152602001612ee061ffff16815260200161038461ffff1681526020016103de61ffff16815260200161044c61ffff1681526020016104b061ffff16815260200161051461ffff16815260200161051461ffff16815260200161057861ffff16815260200161714861ffff16815260200161064061ffff1681526020016106a461ffff16815260200161070861ffff16815260200161076c61ffff1681526020016107d061ffff16815260200161083461ffff16815260200161089861ffff16815260200161dea861ffff16815260200161f23061ffff16815260200161096061ffff1681526020016109c461ffff168152602001610a2861ffff168152602001610a8c61ffff168152602001610af061ffff168152602001610b5461ffff168152602001610bb861ffff168152506003600d6021811062005a9c5762005a9b620064f1565b5b6021020190602162005ab092919062006255565b50604051806104200160405280605d61ffff16815260200160be61ffff16815260200161011861ffff16815260200161017261ffff1681526020016101cc61ffff16815260200161023061ffff16815260200161028a61ffff1681526020016102e461ffff1681526020016132c861ffff168152602001613a9861ffff1681526020016103e861ffff16815260200161044c61ffff1681526020016104b061ffff16815260200161051461ffff16815260200161057861ffff168152602001616d6061ffff16815260200161753061ffff1681526020016180e861ffff16815260200161070861ffff16815260200161076c61ffff1681526020016107d061ffff1681526020016107d061ffff16815260200161083461ffff16815260200161dac061ffff16815260200161ee4861ffff16815260200161096061ffff1681526020016109c461ffff168152602001610a2861ffff168152602001610a8c61ffff168152602001610af061ffff168152602001610b5461ffff168152602001610bb861ffff168152602001610c1c61ffff168152506003600e6021811062005c5d5762005c5c620064f1565b5b6021020190602162005c7192919062006255565b50604051806104200160405280606061ffff16815260200160be61ffff16815260200161012261ffff16815260200161017c61ffff1681526020016101e061ffff16815260200161024461ffff16815260200161029e61ffff16815260200161030261ffff16815260200161035c61ffff168152602001613a9861ffff16815260200161426861ffff168152602001614a3861ffff1681526020016155f061ffff168152602001615dc061ffff16815260200161697861ffff16815260200161714861ffff16815260200161064061ffff1681526020016188b861ffff16815260200161985861ffff16815260200161a41061ffff16815260200161b3b061ffff16815260200161c35061ffff16815260200161d2f061ffff16815260200161e67861ffff16815260200161096061ffff1681526020016109c461ffff168152602001610a2861ffff168152602001610a8c61ffff168152602001610af061ffff168152602001610b5461ffff168152602001610bb861ffff168152602001610c1c61ffff168152602001610c8061ffff168152506003600f6021811062005e1e5762005e1d620064f1565b5b6021020190602162005e3292919062006255565b50604051806104200160405280606361ffff16815260200160c861ffff16815260200161012c61ffff16815260200161019061ffff1681526020016101f461ffff16815260200161024e61ffff1681526020016102b261ffff16815260200161031661ffff16815260200161037a61ffff1681526020016103de61ffff16815260200161465061ffff168152602001614e2061ffff1681526020016159d861ffff1681526020016161a861ffff168152602001616d6061ffff16815260200161064061ffff1681526020016106a461ffff16815260200161070861ffff16815260200161a02861ffff16815260200161afc861ffff16815260200161bf6861ffff16815260200161cf0861ffff16815260200161dea861ffff16815260200161096061ffff1681526020016109c461ffff168152602001610a2861ffff168152602001610a8c61ffff168152602001610af061ffff168152602001610b5461ffff168152602001610bb861ffff168152602001610c1c61ffff168152602001610c8061ffff168152602001610ce461ffff16815250600360106021811062005fdf5762005fde620064f1565b5b6021020190602162005ff392919062006255565b50604051806104200160405280606461ffff16815260200160c861ffff16815260200161013661ffff16815260200161019a61ffff1681526020016101fe61ffff16815260200161026261ffff1681526020016102c661ffff16815260200161033461ffff16815260200161039861ffff1681526020016103e861ffff16815260200161044c61ffff1681526020016104b061ffff16815260200161051461ffff16815260200161057861ffff1681526020016105dc61ffff16815260200161064061ffff1681526020016106a461ffff16815260200161070861ffff16815260200161076c61ffff1681526020016107d061ffff16815260200161083461ffff16815260200161089861ffff1681526020016108fc61ffff16815260200161096061ffff168152602001610a2861ffff168152602001610a8c61ffff168152602001610af061ffff168152602001610b5461ffff168152602001610bb861ffff168152602001610c1c61ffff168152602001610c8061ffff168152602001610ce461ffff168152602001610d4861ffff168152506003601160218110620061a0576200619f620064f1565b5b60210201906021620061b492919062006255565b508061088560016101000a81548173ffffffffffffffffffffffffffffffffffffffff021916908373ffffffffffffffffffffffffffffffffffffffff1602179055505062006584565b8260218002810192821562006242579160200282015b82811115620062415782518290602162006230929190620062a0565b509160200191906021019062006214565b5b509050620062519190620062fa565b5090565b82602181019282156200628d579160200282015b828111156200628c578251829061ffff1690559160200191906001019062006269565b5b5090506200629c919062006322565b5090565b8260218101928215620062e7579160200282015b82811115620062e6578251829080519060200190620062d592919062006341565b5091602001919060010190620062b4565b5b509050620062f69190620063d2565b5090565b5b808211156200631e5760008181620063149190620063fa565b50602101620062fb565b5090565b5b808211156200633d57600081600090555060010162006323565b5090565b8280546200634f906200654f565b90600052602060002090601f016020900481019282620063735760008555620063bf565b82601f106200638e57805160ff1916838001178555620063bf565b82800160010185558215620063bf579182015b82811115620063be578251825591602001919060010190620063a1565b5b509050620063ce919062006322565b5090565b5b80821115620063f65760008181620063ec91906200640f565b50600101620063d3565b5090565b5080602101906200640c9190620063d2565b50565b5080546200641d906200654f565b6000825580601f1062006431575062006452565b601f01602090049060005260206000209081019062006451919062006322565b5b50565b600080fd5b600073ffffffffffffffffffffffffffffffffffffffff82169050919050565b600062006487826200645a565b9050919050565b62006499816200647a565b8114620064a557600080fd5b50565b600081519050620064b9816200648e565b92915050565b600060208284031215620064d857620064d762006455565b5b6000620064e884828501620064a8565b91505092915050565b7f4e487b7100000000000000000000000000000000000000000000000000000000600052603260045260246000fd5b7f4e487b7100000000000000000000000000000000000000000000000000000000600052602260045260246000fd5b600060028204905060018216806200656857607f821691505b6020821081036200657e576200657d62006520565b5b50919050565b61396880620065946000396000f3fe6080604052600436106101145760003560e01c80635b32619c116100a0578063a06101d011610064578063a06101d014610360578063ad9591e71461038b578063b0e987db146103ca578063eca83a6914610407578063f9cebc261461042357610114565b80635b32619c146102765780636aa633b6146102a1578063819aca1d146102cc5780638da5cb5b1461030a5780639d602d2d1461033557610114565b806317ba786f116100e757806317ba786f146101c957806324600fc3146101f2578063367545e214610209578063367edd321461023457806338b145df1461024b57610114565b80630c081500146101195780630ce9befa14610145578063108c5e1414610161578063146008e31461018c575b600080fd5b34801561012557600080fd5b5061012e610460565b60405161013c92919061296c565b60405180910390f35b61015f600480360381019061015a9190612b22565b610704565b005b34801561016d57600080fd5b506101766107f3565b6040516101839190612ba0565b60405180910390f35b34801561019857600080fd5b506101b360048036038101906101ae9190612bbb565b6107f8565b6040516101c09190612ba0565b60405180910390f35b3480156101d557600080fd5b506101f060048036038101906101eb9190612bfb565b610823565b005b3480156101fe57600080fd5b50610207610a43565b005b34801561021557600080fd5b5061021e610b83565b60405161022b9190612f4d565b60405180910390f35b34801561024057600080fd5b50610249610fc5565b005b34801561025757600080fd5b5061026061117d565b60405161026d9190612ba0565b60405180910390f35b34801561028257600080fd5b5061028b611182565b6040516102989190612fce565b60405180910390f35b3480156102ad57600080fd5b506102b66111a9565b6040516102c39190613004565b60405180910390f35b3480156102d857600080fd5b506102f360048036038101906102ee9190612bbb565b6111bd565b604051610301929190613078565b60405180910390f35b34801561031657600080fd5b5061031f6114b7565b60405161032c91906130c9565b60405180910390f35b34801561034157600080fd5b5061034a6114db565b6040516103579190613004565b60405180910390f35b34801561036c57600080fd5b506103756114f3565b6040516103829190612ba0565b60405180910390f35b34801561039757600080fd5b506103b260048036038101906103ad9190612bbb565b611706565b6040516103c1939291906130e4565b60405180910390f35b3480156103d657600080fd5b506103f160048036038101906103ec9190612bbb565b6119f9565b6040516103fe9190612ba0565b60405180910390f35b610421600480360381019061041c9190612bfb565b611a27565b005b34801561042f57600080fd5b5061044a60048036038101906104459190612bbb565b611ee4565b6040516104579190613122565b60405180910390f35b60608061046b6114db565b6104aa576040517f08c379a00000000000000000000000000000000000000000000000000000000081526004016104a190613190565b60405180910390fd5b60006104b4611f9b565b905060006104c0611fa4565b905060008167ffffffffffffffff8111156104de576104dd6129f7565b5b60405190808252806020026020018201604052801561051157816020015b60608152602001906001900390816104fc5790505b50905060008267ffffffffffffffff8111156105305761052f6129f7565b5b60405190808252806020026020018201604052801561056357816020015b606081526020019060019003908161054e5790505b50905060005b838110156106f55760008567ffffffffffffffff81111561058d5761058c6129f7565b5b6040519080825280602002602001820160405280156105bb5781602001602082028036833780820191505090505b50905060008667ffffffffffffffff8111156105da576105d96129f7565b5b60405190808252806020026020018201604052801561060d57816020015b60608152602001906001900390816105f85790505b50905060005b878110156106a15761062581856111bd565b848381518110610638576106376131b0565b5b60200260200101848481518110610652576106516131b0565b5b602002602001018290528273ffffffffffffffffffffffffffffffffffffffff1673ffffffffffffffffffffffffffffffffffffffff16815250505080806106999061320e565b915050610613565b50818584815181106106b6576106b56131b0565b5b6020026020010181905250808484815181106106d5576106d46131b0565b5b6020026020010181905250505080806106ed9061320e565b915050610569565b50818195509550505050509091565b61070c6114db565b61074b576040517f08c379a000000000000000000000000000000000000000000000000000000000815260040161074290613190565b60405180910390fd5b8282610755611f9b565b8210610796576040517f08c379a000000000000000000000000000000000000000000000000000000000815260040161078d906132a2565b60405180910390fd5b61079e611fa4565b81106107df576040517f08c379a00000000000000000000000000000000000000000000000000000000081526004016107d69061330e565b60405180910390fd5b6107ec8585600186611a27565b5050505050565b601281565b6001602052816000526040600020602052806000526040600020600091509150508060000154905081565b61082b6114db565b61086a576040517f08c379a000000000000000000000000000000000000000000000000000000000815260040161086190613190565b60405180910390fd5b8383610874611f9b565b82106108b5576040517f08c379a00000000000000000000000000000000000000000000000000000000081526004016108ac906132a2565b60405180910390fd5b6108bd611fa4565b81106108fe576040517f08c379a00000000000000000000000000000000000000000000000000000000081526004016108f59061330e565b60405180910390fd5b8585853373ffffffffffffffffffffffffffffffffffffffff166001600084815260200190815260200160002060008581526020019081526020016000206001018281548110610951576109506131b0565b5b906000526020600020906002020160000160009054906101000a900473ffffffffffffffffffffffffffffffffffffffff1673ffffffffffffffffffffffffffffffffffffffff16146109d9576040517f08c379a00000000000000000000000000000000000000000000000000000000081526004016109d09061337a565b60405180910390fd5b85600160008a815260200190815260200160002060008b81526020019081526020016000206001018881548110610a1357610a126131b0565b5b90600052602060002090600202016001019080519060200190610a379291906124b0565b50505050505050505050565b60008054906101000a900473ffffffffffffffffffffffffffffffffffffffff1673ffffffffffffffffffffffffffffffffffffffff163373ffffffffffffffffffffffffffffffffffffffff1614610ad1576040517f08c379a0000000000000000000000000000000000000000000000000000000008152600401610ac89061340c565b60405180910390fd5b600047905060008111610b19576040517f08c379a0000000000000000000000000000000000000000000000000000000008152600401610b1090613478565b60405180910390fd5b60008054906101000a900473ffffffffffffffffffffffffffffffffffffffff1673ffffffffffffffffffffffffffffffffffffffff166108fc829081150290604051600060405180830381858888f19350505050158015610b7f573d6000803e3d6000fd5b5050565b6060610b8d6114db565b610bcc576040517f08c379a0000000000000000000000000000000000000000000000000000000008152600401610bc390613190565b60405180910390fd5b6000610bd6611f9b565b90506000610be2611fa4565b905060008167ffffffffffffffff811115610c0057610bff6129f7565b5b604051908082528060200260200182016040528015610c3357816020015b6060815260200190600190039081610c1e5790505b50905060005b82811015610fbb5760008467ffffffffffffffff811115610c5d57610c5c6129f7565b5b604051908082528060200260200182016040528015610c9657816020015b610c83612536565b815260200190600190039081610c7b5790505b50905060005b85811015610f87576000806000610cb38487611706565b92509250925082858581518110610ccd57610ccc6131b0565b5b6020026020010151600001818152505060008103610de957600167ffffffffffffffff811115610d0057610cff6129f7565b5b604051908082528060200260200182016040528015610d3957816020015b610d26612550565b815260200190600190039081610d1e5790505b50858581518110610d4d57610d4c6131b0565b5b602002602001015160200181905250604051806040016040528060008054906101000a900473ffffffffffffffffffffffffffffffffffffffff1673ffffffffffffffffffffffffffffffffffffffff16815260200183815250858581518110610dba57610db96131b0565b5b602002602001015160200151600081518110610dd957610dd86131b0565b5b6020026020010181905250610f71565b600160008781526020019081526020016000206000858152602001908152602001600020600101805480602002602001604051908101604052809291908181526020016000905b82821015610f4a57838290600052602060002090600202016040518060400160405290816000820160009054906101000a900473ffffffffffffffffffffffffffffffffffffffff1673ffffffffffffffffffffffffffffffffffffffff1673ffffffffffffffffffffffffffffffffffffffff168152602001600182018054610eb9906134c7565b80601f0160208091040260200160405190810160405280929190818152602001828054610ee5906134c7565b8015610f325780601f10610f0757610100808354040283529160200191610f32565b820191906000526020600020905b815481529060010190602001808311610f1557829003601f168201915b50505050508152505081526020019060010190610e30565b50505050858581518110610f6157610f606131b0565b5b6020026020010151602001819052505b5050508080610f7f9061320e565b915050610c9c565b5080838381518110610f9c57610f9b6131b0565b5b6020026020010181905250508080610fb39061320e565b915050610c39565b5080935050505090565b60008054906101000a900473ffffffffffffffffffffffffffffffffffffffff1673ffffffffffffffffffffffffffffffffffffffff163373ffffffffffffffffffffffffffffffffffffffff1614611053576040517f08c379a000000000000000000000000000000000000000000000000000000000815260040161104a9061340c565b60405180910390fd5b600061088560019054906101000a900473ffffffffffffffffffffffffffffffffffffffff1673ffffffffffffffffffffffffffffffffffffffff1663a06101d06040518163ffffffff1660e01b8152600401602060405180830381865afa1580156110c3573d6000803e3d6000fd5b505050506040513d601f19601f820116820180604052508101906110e7919061350d565b90506502e90edd0000811015611132576040517f08c379a0000000000000000000000000000000000000000000000000000000008152600401611129906135ac565b60405180910390fd5b600161088560006101000a81548160ff0219169083151502179055507f961479333f7baab3eea2ead54f4113612e06058e0f3cdd932672aa14bcd831c260405160405180910390a150565b602181565b61088560019054906101000a900473ffffffffffffffffffffffffffffffffffffffff1681565b61088560009054906101000a900460ff1681565b600060606111c96114db565b611208576040517f08c379a00000000000000000000000000000000000000000000000000000000081526004016111ff90613190565b60405180910390fd5b8383611212611f9b565b8210611253576040517f08c379a000000000000000000000000000000000000000000000000000000000815260040161124a906132a2565b60405180910390fd5b61125b611fa4565b811061129c576040517f08c379a00000000000000000000000000000000000000000000000000000000081526004016112939061330e565b60405180910390fd5b60006001600087815260200190815260200160002060008881526020019081526020016000206040518060400160405290816000820154815260200160018201805480602002602001604051908101604052809291908181526020016000905b8282101561141657838290600052602060002090600202016040518060400160405290816000820160009054906101000a900473ffffffffffffffffffffffffffffffffffffffff1673ffffffffffffffffffffffffffffffffffffffff1673ffffffffffffffffffffffffffffffffffffffff168152602001600182018054611385906134c7565b80601f01602080910402602001604051908101604052809291908181526020018280546113b1906134c7565b80156113fe5780601f106113d3576101008083540402835291602001916113fe565b820191906000526020600020905b8154815290600101906020018083116113e157829003601f168201915b505050505081525050815260200190600101906112fc565b505050508152505090506000816020015151036114695760006114398888611fad565b91505060008054906101000a900473ffffffffffffffffffffffffffffffffffffffff16819550955050506114ae565b60008160200151600183602001515161148291906135cc565b81518110611493576114926131b0565b5b60200260200101519050806000015181602001519550955050505b50509250929050565b60008054906101000a900473ffffffffffffffffffffffffffffffffffffffff1681565b600061088560009054906101000a900460ff16905090565b600080600090506000611504611f9b565b90506000611510611fa4565b905060005b818110156116fc5760005b838110156116e85760006001600084815260200190815260200160002060008381526020019081526020016000206040518060400160405290816000820154815260200160018201805480602002602001604051908101604052809291908181526020016000905b828210156116a257838290600052602060002090600202016040518060400160405290816000820160009054906101000a900473ffffffffffffffffffffffffffffffffffffffff1673ffffffffffffffffffffffffffffffffffffffff1673ffffffffffffffffffffffffffffffffffffffff168152602001600182018054611611906134c7565b80601f016020809104026020016040519081016040528092919081815260200182805461163d906134c7565b801561168a5780601f1061165f5761010080835404028352916020019161168a565b820191906000526020600020905b81548152906001019060200180831161166d57829003601f168201915b50505050508152505081526020019060010190611588565b50505050815250509050600081602001515182600001516116c39190613600565b905080876116d1919061365a565b9650505080806116e09061320e565b915050611520565b5080806116f49061320e565b915050611515565b5082935050505090565b6000606060006117146114db565b611753576040517f08c379a000000000000000000000000000000000000000000000000000000000815260040161174a90613190565b60405180910390fd5b848461175d611f9b565b821061179e576040517f08c379a0000000000000000000000000000000000000000000000000000000008152600401611795906132a2565b60405180910390fd5b6117a6611fa4565b81106117e7576040517f08c379a00000000000000000000000000000000000000000000000000000000081526004016117de9061330e565b60405180910390fd5b60006001600088815260200190815260200160002060008981526020019081526020016000206040518060400160405290816000820154815260200160018201805480602002602001604051908101604052809291908181526020016000905b8282101561196157838290600052602060002090600202016040518060400160405290816000820160009054906101000a900473ffffffffffffffffffffffffffffffffffffffff1673ffffffffffffffffffffffffffffffffffffffff1673ffffffffffffffffffffffffffffffffffffffff1681526020016001820180546118d0906134c7565b80601f01602080910402602001604051908101604052809291908181526020018280546118fc906134c7565b80156119495780601f1061191e57610100808354040283529160200191611949565b820191906000526020600020905b81548152906001019060200180831161192c57829003601f168201915b50505050508152505081526020019060010190611847565b505050508152505090506000816020015151036119a9576000806119858a8a611fad565b91509150620f4240826119989190613600565b8160009750975097505050506119f0565b8060000151816020015160018360200151516119c591906135cc565b815181106119d6576119d56131b0565b5b602002602001015160200151826020015151955095509550505b50509250925092565b60038260218110611a0957600080fd5b602102018160218110611a1b57600080fd5b01600091509150505481565b611a2f6114db565b611a6e576040517f08c379a0000000000000000000000000000000000000000000000000000000008152600401611a6590613190565b60405180910390fd5b8383611a78611f9b565b8210611ab9576040517f08c379a0000000000000000000000000000000000000000000000000000000008152600401611ab0906132a2565b60405180910390fd5b611ac1611fa4565b8110611b02576040517f08c379a0000000000000000000000000000000000000000000000000000000008152600401611af99061330e565b60405180910390fd5b600a841115611b46576040517f08c379a0000000000000000000000000000000000000000000000000000000008152600401611b3d90613722565b60405180910390fd5b611b508686612126565b6000633b9aca0060016000888152602001908152602001600020600089815260200190815260200160002060000154611b899190613600565b9050600060016000888152602001908152602001600020600089815260200190815260200160002060010180549050905060006002600188846002611bce9190613600565b611bd8919061365a565b611be291906135cc565b88611bed9190613600565b611bf79190613771565b905060006002600189611c0a91906135cc565b89611c159190613600565b611c1f9190613771565b84611c2a9190613600565b90506000818386611c3b9190613600565b611c4591906135cc565b9050803414611c89576040517f08c379a0000000000000000000000000000000000000000000000000000000008152600401611c80906137ee565b60405180910390fd5b60005b84811015611d78576000600160008d815260200190815260200160002060008e81526020019081526020016000206001018281548110611ccf57611cce6131b0565b5b906000526020600020906002020160000160009054906101000a900473ffffffffffffffffffffffffffffffffffffffff1690508a87611d0f9190613600565b600260008373ffffffffffffffffffffffffffffffffffffffff1673ffffffffffffffffffffffffffffffffffffffff1681526020019081526020016000206000828254611d5d919061365a565b92505081905550508080611d709061320e565b915050611c8c565b50611d838b8b6122df565b60005b89811015611e8257600160008c815260200190815260200160002060008d815260200190815260200160002060010160405180604001604052803373ffffffffffffffffffffffffffffffffffffffff1681526020018b815250908060018154018082558091505060019003906000526020600020906002020160009091909190915060008201518160000160006101000a81548173ffffffffffffffffffffffffffffffffffffffff021916908373ffffffffffffffffffffffffffffffffffffffff1602179055506020820151816001019080519060200190611e6c9291906124b0565b5050508080611e7a9061320e565b915050611d86565b503373ffffffffffffffffffffffffffffffffffffffff167fe658510eab96e65991bb68ee771137bf387eaa3dc4a16189ea0f525766e76b2a8c8c8c8c604051611ecf949392919061380e565b60405180910390a25050505050505050505050565b6104448260218110611ef557600080fd5b602102018160218110611f0757600080fd5b01600091509150508054611f1a906134c7565b80601f0160208091040260200160405190810160405280929190818152602001828054611f46906134c7565b8015611f935780601f10611f6857610100808354040283529160200191611f93565b820191906000526020600020905b815481529060010190602001808311611f7657829003601f168201915b505050505081565b60006021905090565b60006012905090565b6000606060218410611ff4576040517f08c379a0000000000000000000000000000000000000000000000000000000008152600401611feb906138a6565b60405180910390fd5b60128310612037576040517f08c379a000000000000000000000000000000000000000000000000000000000815260040161202e90613912565b60405180910390fd5b6003836021811061204b5761204a6131b0565b5b602102018460218110612061576120606131b0565b5b01546104448460218110612078576120776131b0565b5b60210201856021811061208e5761208d6131b0565b5b0180805461209b906134c7565b80601f01602080910402602001604051908101604052809291908181526020018280546120c7906134c7565b80156121145780601f106120e957610100808354040283529160200191612114565b820191906000526020600020905b8154815290600101906020018083116120f757829003601f168201915b50505050509050915091509250929050565b6000600160008381526020019081526020016000206000848152602001908152602001600020600001541480156121875750600060016000838152602001908152602001600020600084815260200190815260200160002060010180549050145b156122db576000806121998484611fad565b91509150620f4240826121ac9190613600565b60016000858152602001908152602001600020600086815260200190815260200160002060000181905550600160008481526020019081526020016000206000858152602001908152602001600020600101604051806040016040528060008054906101000a900473ffffffffffffffffffffffffffffffffffffffff1673ffffffffffffffffffffffffffffffffffffffff16815260200183815250908060018154018082558091505060019003906000526020600020906002020160009091909190915060008201518160000160006101000a81548173ffffffffffffffffffffffffffffffffffffffff021916908373ffffffffffffffffffffffffffffffffffffffff16021790555060208201518160010190805190602001906122d59291906124b0565b50505050505b5050565b60005b600160008381526020019081526020016000206000848152602001908152602001600020600101805490508110156124ab576000600160008481526020019081526020016000206000858152602001908152602001600020600101828154811061234f5761234e6131b0565b5b906000526020600020906002020160000160009054906101000a900473ffffffffffffffffffffffffffffffffffffffff1690506000600260008373ffffffffffffffffffffffffffffffffffffffff1673ffffffffffffffffffffffffffffffffffffffff168152602001908152602001600020541115612497578073ffffffffffffffffffffffffffffffffffffffff166108fc600260008473ffffffffffffffffffffffffffffffffffffffff1673ffffffffffffffffffffffffffffffffffffffff168152602001908152602001600020549081150290604051600060405180830381858888f19350505050158015612450573d6000803e3d6000fd5b506000600260008373ffffffffffffffffffffffffffffffffffffffff1673ffffffffffffffffffffffffffffffffffffffff168152602001908152602001600020819055505b5080806124a39061320e565b9150506122e2565b505050565b8280546124bc906134c7565b90600052602060002090601f0160209004810192826124de5760008555612525565b82601f106124f757805160ff1916838001178555612525565b82800160010185558215612525579182015b82811115612524578251825591602001919060010190612509565b5b5090506125329190612580565b5090565b604051806040016040528060008152602001606081525090565b6040518060400160405280600073ffffffffffffffffffffffffffffffffffffffff168152602001606081525090565b5b80821115612599576000816000905550600101612581565b5090565b600081519050919050565b600082825260208201905092915050565b6000819050602082019050919050565b600081519050919050565b600082825260208201905092915050565b6000819050602082019050919050565b600073ffffffffffffffffffffffffffffffffffffffff82169050919050565b6000612620826125f5565b9050919050565b61263081612615565b82525050565b60006126428383612627565b60208301905092915050565b6000602082019050919050565b6000612666826125c9565b61267081856125d4565b935061267b836125e5565b8060005b838110156126ac5781516126938882612636565b975061269e8361264e565b92505060018101905061267f565b5085935050505092915050565b60006126c5838361265b565b905092915050565b6000602082019050919050565b60006126e58261259d565b6126ef81856125a8565b935083602082028501612701856125b9565b8060005b8581101561273d578484038952815161271e85826126b9565b9450612729836126cd565b925060208a01995050600181019050612705565b50829750879550505050505092915050565b600081519050919050565b600082825260208201905092915050565b6000819050602082019050919050565b600081519050919050565b600082825260208201905092915050565b6000819050602082019050919050565b600081519050919050565b600082825260208201905092915050565b60005b838110156127e15780820151818401526020810190506127c6565b838111156127f0576000848401525b50505050565b6000601f19601f8301169050919050565b6000612812826127a7565b61281c81856127b2565b935061282c8185602086016127c3565b612835816127f6565b840191505092915050565b600061284c8383612807565b905092915050565b6000602082019050919050565b600061286c8261277b565b6128768185612786565b93508360208202850161288885612797565b8060005b858110156128c457848403895281516128a58582612840565b94506128b083612854565b925060208a0199505060018101905061288c565b50829750879550505050505092915050565b60006128e28383612861565b905092915050565b6000602082019050919050565b60006129028261274f565b61290c818561275a565b93508360208202850161291e8561276b565b8060005b8581101561295a578484038952815161293b85826128d6565b9450612946836128ea565b925060208a01995050600181019050612922565b50829750879550505050505092915050565b6000604082019050818103600083015261298681856126da565b9050818103602083015261299a81846128f7565b90509392505050565b6000604051905090565b600080fd5b600080fd5b6000819050919050565b6129ca816129b7565b81146129d557600080fd5b50565b6000813590506129e7816129c1565b92915050565b600080fd5b600080fd5b7f4e487b7100000000000000000000000000000000000000000000000000000000600052604160045260246000fd5b612a2f826127f6565b810181811067ffffffffffffffff82111715612a4e57612a4d6129f7565b5b80604052505050565b6000612a616129a3565b9050612a6d8282612a26565b919050565b600067ffffffffffffffff821115612a8d57612a8c6129f7565b5b612a96826127f6565b9050602081019050919050565b82818337600083830152505050565b6000612ac5612ac084612a72565b612a57565b905082815260208101848484011115612ae157612ae06129f2565b5b612aec848285612aa3565b509392505050565b600082601f830112612b0957612b086129ed565b5b8135612b19848260208601612ab2565b91505092915050565b600080600060608486031215612b3b57612b3a6129ad565b5b6000612b49868287016129d8565b9350506020612b5a868287016129d8565b925050604084013567ffffffffffffffff811115612b7b57612b7a6129b2565b5b612b8786828701612af4565b9150509250925092565b612b9a816129b7565b82525050565b6000602082019050612bb56000830184612b91565b92915050565b60008060408385031215612bd257612bd16129ad565b5b6000612be0858286016129d8565b9250506020612bf1858286016129d8565b9150509250929050565b60008060008060808587031215612c1557612c146129ad565b5b6000612c23878288016129d8565b9450506020612c34878288016129d8565b9350506040612c45878288016129d8565b925050606085013567ffffffffffffffff811115612c6657612c656129b2565b5b612c7287828801612af4565b91505092959194509250565b600081519050919050565b600082825260208201905092915050565b6000819050602082019050919050565b600081519050919050565b600082825260208201905092915050565b6000819050602082019050919050565b612cdf816129b7565b82525050565b600081519050919050565b600082825260208201905092915050565b6000819050602082019050919050565b6000604083016000830151612d296000860182612627565b5060208301518482036020860152612d418282612807565b9150508091505092915050565b6000612d5a8383612d11565b905092915050565b6000602082019050919050565b6000612d7a82612ce5565b612d848185612cf0565b935083602082028501612d9685612d01565b8060005b85811015612dd25784840389528151612db38582612d4e565b9450612dbe83612d62565b925060208a01995050600181019050612d9a565b50829750879550505050505092915050565b6000604083016000830151612dfc6000860182612cd6565b5060208301518482036020860152612e148282612d6f565b9150508091505092915050565b6000612e2d8383612de4565b905092915050565b6000602082019050919050565b6000612e4d82612caa565b612e578185612cb5565b935083602082028501612e6985612cc6565b8060005b85811015612ea55784840389528151612e868582612e21565b9450612e9183612e35565b925060208a01995050600181019050612e6d565b50829750879550505050505092915050565b6000612ec38383612e42565b905092915050565b6000602082019050919050565b6000612ee382612c7e565b612eed8185612c89565b935083602082028501612eff85612c9a565b8060005b85811015612f3b5784840389528151612f1c8582612eb7565b9450612f2783612ecb565b925060208a01995050600181019050612f03565b50829750879550505050505092915050565b60006020820190508181036000830152612f678184612ed8565b905092915050565b6000819050919050565b6000612f94612f8f612f8a846125f5565b612f6f565b6125f5565b9050919050565b6000612fa682612f79565b9050919050565b6000612fb882612f9b565b9050919050565b612fc881612fad565b82525050565b6000602082019050612fe36000830184612fbf565b92915050565b60008115159050919050565b612ffe81612fe9565b82525050565b60006020820190506130196000830184612ff5565b92915050565b61302881612615565b82525050565b600082825260208201905092915050565b600061304a826127a7565b613054818561302e565b93506130648185602086016127c3565b61306d816127f6565b840191505092915050565b600060408201905061308d600083018561301f565b818103602083015261309f818461303f565b90509392505050565b60006130b3826125f5565b9050919050565b6130c3816130a8565b82525050565b60006020820190506130de60008301846130ba565b92915050565b60006060820190506130f96000830186612b91565b818103602083015261310b818561303f565b905061311a6040830184612b91565b949350505050565b6000602082019050818103600083015261313c818461303f565b905092915050565b7f436f6e7472616374206973206e6f7420656e61626c6564000000000000000000600082015250565b600061317a60178361302e565b915061318582613144565b602082019050919050565b600060208201905081810360008301526131a98161316d565b9050919050565b7f4e487b7100000000000000000000000000000000000000000000000000000000600052603260045260246000fd5b7f4e487b7100000000000000000000000000000000000000000000000000000000600052601160045260246000fd5b6000613219826129b7565b91507fffffffffffffffffffffffffffffffffffffffffffffffffffffffffffffffff820361324b5761324a6131df565b5b600182019050919050565b7f496e76616c6964207820636f6f7264696e617465000000000000000000000000600082015250565b600061328c60148361302e565b915061329782613256565b602082019050919050565b600060208201905081810360008301526132bb8161327f565b9050919050565b7f496e76616c6964207920636f6f7264696e617465000000000000000000000000600082015250565b60006132f860148361302e565b9150613303826132c2565b602082019050919050565b60006020820190508181036000830152613327816132eb565b9050919050565b7f4e6f7420746865206f776e6572206f662074686973206c617965720000000000600082015250565b6000613364601b8361302e565b915061336f8261332e565b602082019050919050565b6000602082019050818103600083015261339381613357565b9050919050565b7f4f6e6c7920746865206f776e65722063616e2063616c6c20746869732066756e60008201527f6374696f6e000000000000000000000000000000000000000000000000000000602082015250565b60006133f660258361302e565b91506134018261339a565b604082019050919050565b60006020820190508181036000830152613425816133e9565b9050919050565b7f4e6f2066756e647320746f207769746864726177000000000000000000000000600082015250565b600061346260148361302e565b915061346d8261342c565b602082019050919050565b6000602082019050818103600083015261349181613455565b9050919050565b7f4e487b7100000000000000000000000000000000000000000000000000000000600052602260045260246000fd5b600060028204905060018216806134df57607f821691505b6020821081036134f2576134f1613498565b5b50919050565b600081519050613507816129c1565b92915050565b600060208284031215613523576135226129ad565b5b6000613531848285016134f8565b91505092915050565b7f4e6f7420656e6f75676820746f74616c2076616c756520696e2053746167652060008201527f3100000000000000000000000000000000000000000000000000000000000000602082015250565b600061359660218361302e565b91506135a18261353a565b604082019050919050565b600060208201905081810360008301526135c581613589565b9050919050565b60006135d7826129b7565b91506135e2836129b7565b9250828210156135f5576135f46131df565b5b828203905092915050565b600061360b826129b7565b9150613616836129b7565b9250817fffffffffffffffffffffffffffffffffffffffffffffffffffffffffffffffff048311821515161561364f5761364e6131df565b5b828202905092915050565b6000613665826129b7565b9150613670836129b7565b9250827fffffffffffffffffffffffffffffffffffffffffffffffffffffffffffffffff038211156136a5576136a46131df565b5b828201905092915050565b7f43616e6e6f7420627579206d6f7265207468616e203130206c6179657273206160008201527f74206f6e63650000000000000000000000000000000000000000000000000000602082015250565b600061370c60268361302e565b9150613717826136b0565b604082019050919050565b6000602082019050818103600083015261373b816136ff565b9050919050565b7f4e487b7100000000000000000000000000000000000000000000000000000000600052601260045260246000fd5b600061377c826129b7565b9150613787836129b7565b92508261379757613796613742565b5b828204905092915050565b7f496e636f727265637420504f4c2073656e740000000000000000000000000000600082015250565b60006137d860128361302e565b91506137e3826137a2565b602082019050919050565b60006020820190508181036000830152613807816137cb565b9050919050565b60006080820190506138236000830187612b91565b6138306020830186612b91565b61383d6040830185612b91565b818103606083015261384f818461303f565b905095945050505050565b7f496e76616c696420782d636f6f7264696e617465000000000000000000000000600082015250565b600061389060148361302e565b915061389b8261385a565b602082019050919050565b600060208201905081810360008301526138bf81613883565b9050919050565b7f496e76616c696420792d636f6f7264696e617465000000000000000000000000600082015250565b60006138fc60148361302e565b9150613907826138c6565b602082019050919050565b6000602082019050818103600083015261392b816138ef565b905091905056fea264697066735822122007b68796ad6fc6a5c1ab52725ebf514660705430844dd37cc8b2871d090d1f7864736f6c634300080d0033",
  "immutableReferences": {},
  "source": "// SPDX-License-Identifier: MIT\npragma solidity >=0.4.22 <0.9.0;\n\nimport \"./BaseContract.sol\";\nimport \"./DataStorage2.sol\";\n\ncontract Pixelflux2 is BaseContract, DataStorage2 {\n    bool public isEnabled = false;\n    BaseContract public baseContract;\n\n    event ContractEnabled();\n\n    function isContractEnabled() public override view returns(bool) {\n        return isEnabled;\n    }\n\n    constructor(address _baseContractAddress) {\n        baseContract = BaseContract(_baseContractAddress);\n    }\n\n    function enableContract() public onlyOwner {\n        uint256 totalValue = baseContract.calculateTotalValue();\n        require(totalValue >= 3200 * 10**9, \"Not enough total value in Stage 1\");\n        isEnabled = true;\n        emit ContractEnabled();\n    }\n\n    function getInitialValue(uint x, uint y) internal override view returns (uint256, string memory) {\n        require(x < gridWidth, \"Invalid x-coordinate\");\n        require(y < gridHeight, \"Invalid y-coordinate\");\n        return (initialValues[y][x], colorValues[y][x]);\n    }\n    function getGridWidth() internal override pure returns (uint256) {\n        return gridWidth;\n    }\n\n    function getGridHeight() internal override pure returns (uint256) {\n        return gridHeight;\n    }\n}\n",
  "sourcePath": "/home/wao/Meteor/Workspace/Sao/pixelflux/contracts/Pixelflux2.sol",
  "compiler": {
    "name": "solc",
    "version": "0.8.13+commit.abaa5c0e.Emscripten.clang"
  },
  "schemaVersion": "3.4.13",
  "updatedAt": "2024-02-04T08:19:10.451Z",
  "devdoc": {
    "kind": "dev",
    "methods": {},
    "version": 1
  },
  "userdoc": {
    "kind": "user",
    "methods": {},
    "version": 1
  }
}