{
  "contractName": "Pixelflux1",
  "abi": [
    {
      "anonymous": false,
      "inputs": [
        {
          "indexed": true,
          "internalType": "address",
          "name": "buyer",
          "type": "address"
        },
        {
          "indexed": false,
          "internalType": "uint256",
          "name": "x",
          "type": "uint256"
        },
        {
          "indexed": false,
          "internalType": "uint256",
          "name": "y",
          "type": "uint256"
        },
        {
          "indexed": false,
          "internalType": "uint256",
          "name": "numLayers",
          "type": "uint256"
        },
        {
          "indexed": false,
          "internalType": "string",
          "name": "color",
          "type": "string"
        }
      ],
      "name": "LayerPurchased",
      "type": "event"
    },
    {
      "inputs": [
        {
          "internalType": "uint256",
          "name": "x",
          "type": "uint256"
        },
        {
          "internalType": "uint256",
          "name": "y",
          "type": "uint256"
        },
        {
          "internalType": "string",
          "name": "color",
          "type": "string"
        }
      ],
      "name": "buyLayer",
      "outputs": [],
      "stateMutability": "payable",
      "type": "function"
    },
    {
      "inputs": [
        {
          "internalType": "uint256",
          "name": "x",
          "type": "uint256"
        },
        {
          "internalType": "uint256",
          "name": "y",
          "type": "uint256"
        },
        {
          "internalType": "uint256",
          "name": "numLayersToAdd",
          "type": "uint256"
        },
        {
          "internalType": "string",
          "name": "color",
          "type": "string"
        }
      ],
      "name": "buyMultipleLayers",
      "outputs": [],
      "stateMutability": "payable",
      "type": "function"
    },
    {
      "inputs": [],
      "name": "calculateTotalValue",
      "outputs": [
        {
          "internalType": "uint256",
          "name": "",
          "type": "uint256"
        }
      ],
      "stateMutability": "view",
      "type": "function"
    },
    {
      "inputs": [
        {
          "internalType": "uint256",
          "name": "",
          "type": "uint256"
        },
        {
          "internalType": "uint256",
          "name": "",
          "type": "uint256"
        }
      ],
      "name": "colorValues",
      "outputs": [
        {
          "internalType": "string",
          "name": "",
          "type": "string"
        }
      ],
      "stateMutability": "view",
      "type": "function"
    },
    {
      "inputs": [],
      "name": "getAllCellStates",
      "outputs": [
        {
          "components": [
            {
              "internalType": "uint256",
              "name": "baseValue",
              "type": "uint256"
            },
            {
              "components": [
                {
                  "internalType": "address payable",
                  "name": "owner",
                  "type": "address"
                },
                {
                  "internalType": "string",
                  "name": "color",
                  "type": "string"
                }
              ],
              "internalType": "struct BaseContract.Layer[]",
              "name": "layers",
              "type": "tuple[]"
            }
          ],
          "internalType": "struct BaseContract.Cell[][]",
          "name": "",
          "type": "tuple[][]"
        }
      ],
      "stateMutability": "view",
      "type": "function"
    },
    {
      "inputs": [],
      "name": "getAllTopLayers",
      "outputs": [
        {
          "internalType": "address payable[][]",
          "name": "",
          "type": "address[][]"
        },
        {
          "internalType": "string[][]",
          "name": "",
          "type": "string[][]"
        }
      ],
      "stateMutability": "view",
      "type": "function"
    },
    {
      "inputs": [
        {
          "internalType": "uint256",
          "name": "x",
          "type": "uint256"
        },
        {
          "internalType": "uint256",
          "name": "y",
          "type": "uint256"
        }
      ],
      "name": "getCellState",
      "outputs": [
        {
          "internalType": "uint256",
          "name": "",
          "type": "uint256"
        },
        {
          "internalType": "string",
          "name": "",
          "type": "string"
        },
        {
          "internalType": "uint256",
          "name": "",
          "type": "uint256"
        }
      ],
      "stateMutability": "view",
      "type": "function"
    },
    {
      "inputs": [
        {
          "internalType": "uint256",
          "name": "x",
          "type": "uint256"
        },
        {
          "internalType": "uint256",
          "name": "y",
          "type": "uint256"
        }
      ],
      "name": "getTopLayerOfCell",
      "outputs": [
        {
          "internalType": "address payable",
          "name": "",
          "type": "address"
        },
        {
          "internalType": "string",
          "name": "",
          "type": "string"
        }
      ],
      "stateMutability": "view",
      "type": "function"
    },
    {
      "inputs": [
        {
          "internalType": "uint256",
          "name": "",
          "type": "uint256"
        },
        {
          "internalType": "uint256",
          "name": "",
          "type": "uint256"
        }
      ],
      "name": "grid",
      "outputs": [
        {
          "internalType": "uint256",
          "name": "baseValue",
          "type": "uint256"
        }
      ],
      "stateMutability": "view",
      "type": "function"
    },
    {
      "inputs": [],
      "name": "gridHeight",
      "outputs": [
        {
          "internalType": "uint256",
          "name": "",
          "type": "uint256"
        }
      ],
      "stateMutability": "view",
      "type": "function"
    },
    {
      "inputs": [],
      "name": "gridWidth",
      "outputs": [
        {
          "internalType": "uint256",
          "name": "",
          "type": "uint256"
        }
      ],
      "stateMutability": "view",
      "type": "function"
    },
    {
      "inputs": [
        {
          "internalType": "uint256",
          "name": "",
          "type": "uint256"
        },
        {
          "internalType": "uint256",
          "name": "",
          "type": "uint256"
        }
      ],
      "name": "initialValues",
      "outputs": [
        {
          "internalType": "uint256",
          "name": "",
          "type": "uint256"
        }
      ],
      "stateMutability": "view",
      "type": "function"
    },
    {
      "inputs": [],
      "name": "owner",
      "outputs": [
        {
          "internalType": "address",
          "name": "",
          "type": "address"
        }
      ],
      "stateMutability": "view",
      "type": "function"
    },
    {
      "inputs": [
        {
          "internalType": "uint256",
          "name": "x",
          "type": "uint256"
        },
        {
          "internalType": "uint256",
          "name": "y",
          "type": "uint256"
        },
        {
          "internalType": "uint256",
          "name": "layerIndex",
          "type": "uint256"
        },
        {
          "internalType": "string",
          "name": "newColor",
          "type": "string"
        }
      ],
      "name": "setLayerColor",
      "outputs": [],
      "stateMutability": "nonpayable",
      "type": "function"
    },
    {
      "inputs": [],
      "name": "withdrawFunds",
      "outputs": [],
      "stateMutability": "nonpayable",
      "type": "function"
    },
    {
      "inputs": [],
      "name": "isContractEnabled",
      "outputs": [
        {
          "internalType": "bool",
          "name": "",
          "type": "bool"
        }
      ],
      "stateMutability": "view",
      "type": "function"
    }
  ],
  "bytecode": "0x60806040526040518061020001604052806040518061042001604052806040518060200160405280600081525081526020016040518060200160405280600081525081526020016040518060200160405280600081525081526020016040518060200160405280600081525081526020016040518060200160405280600081525081526020016040518060200160405280600081525081526020016040518060200160405280600081525081526020016040518060200160405280600081525081526020016040518060200160405280600081525081526020016040518060200160405280600081525081526020016040518060200160405280600081525081526020016040518060200160405280600081525081526020016040518060200160405280600081525081526020016040518060200160405280600081525081526020016040518060200160405280600081525081526020016040518060200160405280600081525081526020016040518060200160405280600081525081526020016040518060200160405280600081525081526020016040518060200160405280600081525081526020016040518060200160405280600081525081526020016040518060200160405280600081525081526020016040518060200160405280600081525081526020016040518060200160405280600081525081526020016040518060200160405280600081525081526020016040518060200160405280600081525081526020016040518060200160405280600081525081526020016040518060200160405280600081525081526020016040518060200160405280600081525081526020016040518060200160405280600081525081526020016040518060200160405280600081525081526020016040518060200160405280600081525081526020016040518060200160405280600081525081526020016040518060200160405280600081525081525081526020016040518061042001604052806040518060200160405280600081525081526020016040518060200160405280600081525081526020016040518060200160405280600081525081526020016040518060200160405280600081525081526020016040518060200160405280600081525081526020016040518060200160405280600081525081526020016040518060200160405280600081525081526020016040518060200160405280600081525081526020016040518060200160405280600081525081526020016040518060200160405280600081525081526020016040518060200160405280600081525081526020016040518060200160405280600081525081526020016040518060200160405280600081525081526020016040518060200160405280600081525081526020016040518060200160405280600081525081526020016040518060200160405280600081525081526020016040518060200160405280600081525081526020016040518060200160405280600081525081526020016040518060200160405280600081525081526020016040518060200160405280600081525081526020016040518060200160405280600081525081526020016040518060200160405280600081525081526020016040518060200160405280600081525081526020016040518060200160405280600081525081526020016040518060200160405280600081525081526020016040518060200160405280600081525081526020016040518060200160405280600081525081526020016040518060200160405280600081525081526020016040518060200160405280600081525081526020016040518060200160405280600081525081526020016040518060200160405280600081525081526020016040518060200160405280600081525081526020016040518060200160405280600081525081525081526020016040518061042001604052806040518060200160405280600081525081526020016040518060200160405280600081525081526020016040518060200160405280600081525081526020016040518060200160405280600081525081526020016040518060200160405280600081525081526020016040518060400160405280600781526020017f236632656266620000000000000000000000000000000000000000000000000081525081526020016040518060400160405280600781526020017f236630653866620000000000000000000000000000000000000000000000000081525081526020016040518060400160405280600781526020017f236565653566610000000000000000000000000000000000000000000000000081525081526020016040518060400160405280600781526020017f236564653366610000000000000000000000000000000000000000000000000081525081526020016040518060400160405280600781526020017f236562653066390000000000000000000000000000000000000000000000000081525081526020016040518060400160405280600781526020017f236539646466390000000000000000000000000000000000000000000000000081525081526020016040518060200160405280600081525081526020016040518060200160405280600081525081526020016040518060200160405280600081525081526020016040518060200160405280600081525081526020016040518060200160405280600081525081526020016040518060200160405280600081525081526020016040518060200160405280600081525081526020016040518060200160405280600081525081526020016040518060200160405280600081525081526020016040518060200160405280600081525081526020016040518060200160405280600081525081526020016040518060200160405280600081525081526020016040518060200160405280600081525081526020016040518060200160405280600081525081526020016040518060200160405280600081525081526020016040518060200160405280600081525081526020016040518060200160405280600081525081526020016040518060200160405280600081525081526020016040518060200160405280600081525081526020016040518060200160405280600081525081526020016040518060200160405280600081525081526020016040518060200160405280600081525081525081526020016040518061042001604052806040518060200160405280600081525081526020016040518060200160405280600081525081526020016040518060200160405280600081525081526020016040518060200160405280600081525081526020016040518060200160405280600081525081526020016040518060400160405280600781526020017f236631656166620000000000000000000000000000000000000000000000000081525081526020016040518060200160405280600081525081526020016040518060200160405280600081525081526020016040518060400160405280600781526020017f236562653166610000000000000000000000000000000000000000000000000081525081526020016040518060200160405280600081525081526020016040518060200160405280600081525081526020016040518060400160405280600781526020017f236536643866380000000000000000000000000000000000000000000000000081525081526020016040518060200160405280600081525081526020016040518060200160405280600081525081526020016040518060200160405280600081525081526020016040518060400160405280600781526020017f236465636366360000000000000000000000000000000000000000000000000081525081526020016040518060400160405280600781526020017f236463633966360000000000000000000000000000000000000000000000000081525081526020016040518060400160405280600781526020017f236461633666350000000000000000000000000000000000000000000000000081525081526020016040518060400160405280600781526020017f236438633366350000000000000000000000000000000000000000000000000081525081526020016040518060400160405280600781526020017f236436633066340000000000000000000000000000000000000000000000000081525081526020016040518060200160405280600081525081526020016040518060200160405280600081525081526020016040518060400160405280600781526020017f236430623766330000000000000000000000000000000000000000000000000081525081526020016040518060400160405280600781526020017f236365623466320000000000000000000000000000000000000000000000000081525081526020016040518060400160405280600781526020017f236363623166320000000000000000000000000000000000000000000000000081525081526020016040518060400160405280600781526020017f236361616566310000000000000000000000000000000000000000000000000081525081526020016040518060200160405280600081525081526020016040518060200160405280600081525081526020016040518060200160405280600081525081526020016040518060200160405280600081525081526020016040518060200160405280600081525081526020016040518060200160405280600081525081526020016040518060200160405280600081525081525081526020016040518061042001604052806040518060200160405280600081525081526020016040518060200160405280600081525081526020016040518060200160405280600081525081526020016040518060200160405280600081525081526020016040518060200160405280600081525081526020016040518060400160405280600781526020017f236630653766620000000000000000000000000000000000000000000000000081525081526020016040518060200160405280600081525081526020016040518060400160405280600781526020017f236563653166610000000000000000000000000000000000000000000000000081525081526020016040518060200160405280600081525081526020016040518060200160405280600081525081526020016040518060200160405280600081525081526020016040518060200160405280600081525081526020016040518060400160405280600781526020017f236532643366370000000000000000000000000000000000000000000000000081525081526020016040518060200160405280600081525081526020016040518060400160405280600781526020017f236465636466360000000000000000000000000000000000000000000000000081525081526020016040518060200160405280600081525081526020016040518060400160405280600781526020017f236462633766350000000000000000000000000000000000000000000000000081525081526020016040518060200160405280600081525081526020016040518060200160405280600081525081526020016040518060200160405280600081525081526020016040518060400160405280600781526020017f236433626266330000000000000000000000000000000000000000000000000081525081526020016040518060400160405280600781526020017f236431623866330000000000000000000000000000000000000000000000000081525081526020016040518060200160405280600081525081526020016040518060400160405280600781526020017f236364623266320000000000000000000000000000000000000000000000000081525081526020016040518060200160405280600081525081526020016040518060400160405280600781526020017f236339616366310000000000000000000000000000000000000000000000000081525081526020016040518060200160405280600081525081526020016040518060200160405280600081525081526020016040518060200160405280600081525081526020016040518060200160405280600081525081526020016040518060200160405280600081525081526020016040518060200160405280600081525081526020016040518060200160405280600081525081525081526020016040518061042001604052806040518060200160405280600081525081526020016040518060200160405280600081525081526020016040518060200160405280600081525081526020016040518060200160405280600081525081526020016040518060200160405280600081525081526020016040518060400160405280600781526020017f236566653666610000000000000000000000000000000000000000000000000081525081526020016040518060200160405280600081525081526020016040518060400160405280600781526020017f236562653066390000000000000000000000000000000000000000000000000081525081526020016040518060200160405280600081525081526020016040518060200160405280600081525081526020016040518060400160405280600781526020017f236535643766380000000000000000000000000000000000000000000000000081525081526020016040518060400160405280600781526020017f236533643466380000000000000000000000000000000000000000000000000081525081526020016040518060200160405280600081525081526020016040518060400160405280600781526020017f236466636566370000000000000000000000000000000000000000000000000081525081526020016040518060200160405280600081525081526020016040518060400160405280600781526020017f236462633866360000000000000000000000000000000000000000000000000081525081526020016040518060200160405280600081525081526020016040518060400160405280600781526020017f236437633266350000000000000000000000000000000000000000000000000081525081526020016040518060400160405280600781526020017f236435626666340000000000000000000000000000000000000000000000000081525081526020016040518060200160405280600081525081526020016040518060400160405280600781526020017f236432623966330000000000000000000000000000000000000000000000000081525081526020016040518060400160405280600781526020017f236430623666330000000000000000000000000000000000000000000000000081525081526020016040518060200160405280600081525081526020016040518060400160405280600781526020017f236363623066320000000000000000000000000000000000000000000000000081525081526020016040518060200160405280600081525081526020016040518060400160405280600781526020017f236338616166310000000000000000000000000000000000000000000000000081525081526020016040518060200160405280600081525081526020016040518060200160405280600081525081526020016040518060200160405280600081525081526020016040518060200160405280600081525081526020016040518060200160405280600081525081526020016040518060200160405280600081525081526020016040518060200160405280600081525081525081526020016040518061042001604052806040518060200160405280600081525081526020016040518060200160405280600081525081526020016040518060200160405280600081525081526020016040518060200160405280600081525081526020016040518060200160405280600081525081526020016040518060400160405280600781526020017f236564653466610000000000000000000000000000000000000000000000000081525081526020016040518060200160405280600081525081526020016040518060400160405280600781526020017f236539646466390000000000000000000000000000000000000000000000000081525081526020016040518060200160405280600081525081526020016040518060200160405280600081525081526020016040518060400160405280600781526020017f236534643566380000000000000000000000000000000000000000000000000081525081526020016040518060400160405280600781526020017f236532643266370000000000000000000000000000000000000000000000000081525081526020016040518060200160405280600081525081526020016040518060400160405280600781526020017f236465636366360000000000000000000000000000000000000000000000000081525081526020016040518060200160405280600081525081526020016040518060400160405280600781526020017f236461633666350000000000000000000000000000000000000000000000000081525081526020016040518060200160405280600081525081526020016040518060400160405280600781526020017f236436633066340000000000000000000000000000000000000000000000000081525081526020016040518060200160405280600081525081526020016040518060400160405280600781526020017f236432626166330000000000000000000000000000000000000000000000000081525081526020016040518060200160405280600081525081526020016040518060400160405280600781526020017f236365623466320000000000000000000000000000000000000000000000000081525081526020016040518060200160405280600081525081526020016040518060400160405280600781526020017f236362616666310000000000000000000000000000000000000000000000000081525081526020016040518060200160405280600081525081526020016040518060400160405280600781526020017f236337613866300000000000000000000000000000000000000000000000000081525081526020016040518060200160405280600081525081526020016040518060200160405280600081525081526020016040518060200160405280600081525081526020016040518060200160405280600081525081526020016040518060200160405280600081525081526020016040518060200160405280600081525081526020016040518060200160405280600081525081525081526020016040518061042001604052806040518060200160405280600081525081526020016040518060200160405280600081525081526020016040518060200160405280600081525081526020016040518060200160405280600081525081526020016040518060200160405280600081525081526020016040518060400160405280600781526020017f236563653266610000000000000000000000000000000000000000000000000081525081526020016040518060200160405280600081525081526020016040518060400160405280600781526020017f236538646366390000000000000000000000000000000000000000000000000081525081526020016040518060200160405280600081525081526020016040518060200160405280600081525081526020016040518060400160405280600781526020017f236532643366370000000000000000000000000000000000000000000000000081525081526020016040518060200160405280600081525081526020016040518060400160405280600781526020017f236466636466360000000000000000000000000000000000000000000000000081525081526020016040518060400160405280600781526020017f236464636166360000000000000000000000000000000000000000000000000081525081526020016040518060200160405280600081525081526020016040518060400160405280600781526020017f236439633466350000000000000000000000000000000000000000000000000081525081526020016040518060200160405280600081525081526020016040518060400160405280600781526020017f236435626566340000000000000000000000000000000000000000000000000081525081526020016040518060200160405280600081525081526020016040518060400160405280600781526020017f236431623966330000000000000000000000000000000000000000000000000081525081526020016040518060200160405280600081525081526020016040518060400160405280600781526020017f236364623266320000000000000000000000000000000000000000000000000081525081526020016040518060200160405280600081525081526020016040518060400160405280600781526020017f236339616366310000000000000000000000000000000000000000000000000081525081526020016040518060200160405280600081525081526020016040518060400160405280600781526020017f236335613666300000000000000000000000000000000000000000000000000081525081526020016040518060400160405280600781526020017f236334613466300000000000000000000000000000000000000000000000000081525081526020016040518060400160405280600781526020017f236332613165660000000000000000000000000000000000000000000000000081525081526020016040518060200160405280600081525081526020016040518060200160405280600081525081526020016040518060200160405280600081525081526020016040518060200160405280600081525081526020016040518060200160405280600081525081525081526020016040518061042001604052806040518060200160405280600081525081526020016040518060200160405280600081525081526020016040518060200160405280600081525081526020016040518060200160405280600081525081526020016040518060200160405280600081525081526020016040518060400160405280600781526020017f236562653066390000000000000000000000000000000000000000000000000081525081526020016040518060200160405280600081525081526020016040518060400160405280600781526020017f236537646166380000000000000000000000000000000000000000000000000081525081526020016040518060200160405280600081525081526020016040518060400160405280600781526020017f236533643466380000000000000000000000000000000000000000000000000081525081526020016040518060200160405280600081525081526020016040518060200160405280600081525081526020016040518060400160405280600781526020017f236464636266360000000000000000000000000000000000000000000000000081525081526020016040518060400160405280600781526020017f236462633866360000000000000000000000000000000000000000000000000081525081526020016040518060200160405280600081525081526020016040518060400160405280600781526020017f236438633366350000000000000000000000000000000000000000000000000081525081526020016040518060200160405280600081525081526020016040518060400160405280600781526020017f236434626366340000000000000000000000000000000000000000000000000081525081526020016040518060200160405280600081525081526020016040518060400160405280600781526020017f236430623666330000000000000000000000000000000000000000000000000081525081526020016040518060200160405280600081525081526020016040518060400160405280600781526020017f236363623066320000000000000000000000000000000000000000000000000081525081526020016040518060200160405280600081525081526020016040518060400160405280600781526020017f236338616266310000000000000000000000000000000000000000000000000081525081526020016040518060200160405280600081525081526020016040518060400160405280600781526020017f236334613566300000000000000000000000000000000000000000000000000081525081526020016040518060400160405280600781526020017f236332613165660000000000000000000000000000000000000000000000000081525081526020016040518060400160405280600781526020017f236330396565660000000000000000000000000000000000000000000000000081525081526020016040518060200160405280600081525081526020016040518060200160405280600081525081526020016040518060200160405280600081525081526020016040518060200160405280600081525081526020016040518060200160405280600081525081525081526020016040518061042001604052806040518060200160405280600081525081526020016040518060200160405280600081525081526020016040518060200160405280600081525081526020016040518060200160405280600081525081526020016040518060200160405280600081525081526020016040518060400160405280600781526020017f236561646566390000000000000000000000000000000000000000000000000081525081526020016040518060200160405280600081525081526020016040518060400160405280600781526020017f236536643866380000000000000000000000000000000000000000000000000081525081526020016040518060200160405280600081525081526020016040518060400160405280600781526020017f236532643266370000000000000000000000000000000000000000000000000081525081526020016040518060400160405280600781526020017f236530636666370000000000000000000000000000000000000000000000000081525081526020016040518060400160405280600781526020017f236465636466360000000000000000000000000000000000000000000000000081525081526020016040518060400160405280600781526020017f236463633966360000000000000000000000000000000000000000000000000081525081526020016040518060400160405280600781526020017f236461633666350000000000000000000000000000000000000000000000000081525081526020016040518060200160405280600081525081526020016040518060400160405280600781526020017f236436633066340000000000000000000000000000000000000000000000000081525081526020016040518060200160405280600081525081526020016040518060400160405280600781526020017f236432626166330000000000000000000000000000000000000000000000000081525081526020016040518060400160405280600781526020017f236430623766330000000000000000000000000000000000000000000000000081525081526020016040518060400160405280600781526020017f236366623566320000000000000000000000000000000000000000000000000081525081526020016040518060200160405280600081525081526020016040518060400160405280600781526020017f236362616666310000000000000000000000000000000000000000000000000081525081526020016040518060200160405280600081525081526020016040518060400160405280600781526020017f236337613866300000000000000000000000000000000000000000000000000081525081526020016040518060200160405280600081525081526020016040518060200160405280600081525081526020016040518060200160405280600081525081526020016040518060400160405280600781526020017f236266396465660000000000000000000000000000000000000000000000000081525081526020016040518060200160405280600081525081526020016040518060200160405280600081525081526020016040518060200160405280600081525081526020016040518060200160405280600081525081526020016040518060200160405280600081525081525081526020016040518061042001604052806040518060200160405280600081525081526020016040518060200160405280600081525081526020016040518060200160405280600081525081526020016040518060200160405280600081525081526020016040518060200160405280600081525081526020016040518060400160405280600781526020017f236538646366390000000000000000000000000000000000000000000000000081525081526020016040518060200160405280600081525081526020016040518060400160405280600781526020017f236534643666380000000000000000000000000000000000000000000000000081525081526020016040518060200160405280600081525081526020016040518060400160405280600781526020017f236531643066370000000000000000000000000000000000000000000000000081525081526020016040518060200160405280600081525081526020016040518060200160405280600081525081526020016040518060200160405280600081525081526020016040518060400160405280600781526020017f236439633466350000000000000000000000000000000000000000000000000081525081526020016040518060200160405280600081525081526020016040518060400160405280600781526020017f236435626666340000000000000000000000000000000000000000000000000081525081526020016040518060200160405280600081525081526020016040518060200160405280600081525081526020016040518060200160405280600081525081526020016040518060200160405280600081525081526020016040518060200160405280600081525081526020016040518060400160405280600781526020017f236339616366310000000000000000000000000000000000000000000000000081525081526020016040518060400160405280600781526020017f236338616166310000000000000000000000000000000000000000000000000081525081526020016040518060200160405280600081525081526020016040518060400160405280600781526020017f236334613466300000000000000000000000000000000000000000000000000081525081526020016040518060200160405280600081525081526020016040518060200160405280600081525081526020016040518060400160405280600781526020017f236265396265650000000000000000000000000000000000000000000000000081525081526020016040518060200160405280600081525081526020016040518060200160405280600081525081526020016040518060200160405280600081525081526020016040518060200160405280600081525081526020016040518060200160405280600081525081525081526020016040518061042001604052806040518060200160405280600081525081526020016040518060200160405280600081525081526020016040518060200160405280600081525081526020016040518060200160405280600081525081526020016040518060200160405280600081525081526020016040518060400160405280600781526020017f236537646166390000000000000000000000000000000000000000000000000081525081526020016040518060200160405280600081525081526020016040518060400160405280600781526020017f236533643466380000000000000000000000000000000000000000000000000081525081526020016040518060200160405280600081525081526020016040518060400160405280600781526020017f236466636566370000000000000000000000000000000000000000000000000081525081526020016040518060200160405280600081525081526020016040518060200160405280600081525081526020016040518060200160405280600081525081526020016040518060200160405280600081525081526020016040518060400160405280600781526020017f236436626666340000000000000000000000000000000000000000000000000081525081526020016040518060200160405280600081525081526020016040518060400160405280600781526020017f236432623966330000000000000000000000000000000000000000000000000081525081526020016040518060200160405280600081525081526020016040518060200160405280600081525081526020016040518060200160405280600081525081526020016040518060400160405280600781526020017f236361616566310000000000000000000000000000000000000000000000000081525081526020016040518060200160405280600081525081526020016040518060400160405280600781526020017f236336613866300000000000000000000000000000000000000000000000000081525081526020016040518060400160405280600781526020017f236334613566300000000000000000000000000000000000000000000000000081525081526020016040518060400160405280600781526020017f236332613165660000000000000000000000000000000000000000000000000081525081526020016040518060400160405280600781526020017f236330396565660000000000000000000000000000000000000000000000000081525081526020016040518060400160405280600781526020017f236266396365650000000000000000000000000000000000000000000000000081525081526020016040518060200160405280600081525081526020016040518060200160405280600081525081526020016040518060200160405280600081525081526020016040518060200160405280600081525081526020016040518060200160405280600081525081526020016040518060200160405280600081525081525081526020016040518061042001604052806040518060200160405280600081525081526020016040518060200160405280600081525081526020016040518060200160405280600081525081526020016040518060200160405280600081525081526020016040518060200160405280600081525081526020016040518060400160405280600781526020017f236536643866380000000000000000000000000000000000000000000000000081525081526020016040518060200160405280600081525081526020016040518060400160405280600781526020017f236532643266370000000000000000000000000000000000000000000000000081525081526020016040518060200160405280600081525081526020016040518060400160405280600781526020017f236465636466360000000000000000000000000000000000000000000000000081525081526020016040518060200160405280600081525081526020016040518060200160405280600081525081526020016040518060200160405280600081525081526020016040518060200160405280600081525081526020016040518060200160405280600081525081526020016040518060400160405280600781526020017f236433626266330000000000000000000000000000000000000000000000000081525081526020016040518060400160405280600781526020017f236431623866330000000000000000000000000000000000000000000000000081525081526020016040518060400160405280600781526020017f236366623566320000000000000000000000000000000000000000000000000081525081526020016040518060400160405280600781526020017f236364623266320000000000000000000000000000000000000000000000000081525081526020016040518060400160405280600781526020017f236362616666310000000000000000000000000000000000000000000000000081525081526020016040518060200160405280600081525081526020016040518060200160405280600081525081526020016040518060200160405280600081525081526020016040518060200160405280600081525081526020016040518060200160405280600081525081526020016040518060200160405280600081525081526020016040518060200160405280600081525081526020016040518060200160405280600081525081526020016040518060200160405280600081525081526020016040518060200160405280600081525081526020016040518060200160405280600081525081526020016040518060200160405280600081525081526020016040518060200160405280600081525081525081526020016040518061042001604052806040518060200160405280600081525081526020016040518060200160405280600081525081526020016040518060200160405280600081525081526020016040518060200160405280600081525081526020016040518060200160405280600081525081526020016040518060400160405280600781526020017f236535643766380000000000000000000000000000000000000000000000000081525081526020016040518060400160405280600781526020017f236533643366370000000000000000000000000000000000000000000000000081525081526020016040518060400160405280600781526020017f236531643066370000000000000000000000000000000000000000000000000081525081526020016040518060400160405280600781526020017f236466636466360000000000000000000000000000000000000000000000000081525081526020016040518060400160405280600781526020017f236464636166360000000000000000000000000000000000000000000000000081525081526020016040518060200160405280600081525081526020016040518060200160405280600081525081526020016040518060200160405280600081525081526020016040518060200160405280600081525081526020016040518060200160405280600081525081526020016040518060200160405280600081525081526020016040518060200160405280600081525081526020016040518060200160405280600081525081526020016040518060200160405280600081525081526020016040518060200160405280600081525081526020016040518060200160405280600081525081526020016040518060200160405280600081525081526020016040518060200160405280600081525081526020016040518060200160405280600081525081526020016040518060200160405280600081525081526020016040518060200160405280600081525081526020016040518060200160405280600081525081526020016040518060200160405280600081525081526020016040518060200160405280600081525081526020016040518060200160405280600081525081526020016040518060200160405280600081525081526020016040518060200160405280600081525081526020016040518060200160405280600081525081525081526020016040518061042001604052806040518060200160405280600081525081526020016040518060200160405280600081525081526020016040518060200160405280600081525081526020016040518060200160405280600081525081526020016040518060200160405280600081525081526020016040518060200160405280600081525081526020016040518060400160405280600781526020017f236531643166370000000000000000000000000000000000000000000000000081525081526020016040518060400160405280600781526020017f236466636566370000000000000000000000000000000000000000000000000081525081526020016040518060400160405280600781526020017f236465636366360000000000000000000000000000000000000000000000000081525081526020016040518060400160405280600781526020017f236463633966360000000000000000000000000000000000000000000000000081525081526020016040518060200160405280600081525081526020016040518060200160405280600081525081526020016040518060200160405280600081525081526020016040518060200160405280600081525081526020016040518060200160405280600081525081526020016040518060200160405280600081525081526020016040518060200160405280600081525081526020016040518060200160405280600081525081526020016040518060200160405280600081525081526020016040518060200160405280600081525081526020016040518060200160405280600081525081526020016040518060200160405280600081525081526020016040518060200160405280600081525081526020016040518060200160405280600081525081526020016040518060200160405280600081525081526020016040518060200160405280600081525081526020016040518060200160405280600081525081526020016040518060200160405280600081525081526020016040518060200160405280600081525081526020016040518060200160405280600081525081526020016040518060200160405280600081525081526020016040518060200160405280600081525081526020016040518060200160405280600081525081525081526020016040518061042001604052806040518060200160405280600081525081526020016040518060200160405280600081525081526020016040518060200160405280600081525081526020016040518060200160405280600081525081526020016040518060200160405280600081525081526020016040518060200160405280600081525081526020016040518060200160405280600081525081526020016040518060200160405280600081525081526020016040518060200160405280600081525081526020016040518060200160405280600081525081526020016040518060200160405280600081525081526020016040518060200160405280600081525081526020016040518060200160405280600081525081526020016040518060200160405280600081525081526020016040518060200160405280600081525081526020016040518060200160405280600081525081526020016040518060200160405280600081525081526020016040518060200160405280600081525081526020016040518060200160405280600081525081526020016040518060200160405280600081525081526020016040518060200160405280600081525081526020016040518060200160405280600081525081526020016040518060200160405280600081525081526020016040518060200160405280600081525081526020016040518060200160405280600081525081526020016040518060200160405280600081525081526020016040518060200160405280600081525081526020016040518060200160405280600081525081526020016040518060200160405280600081525081526020016040518060200160405280600081525081526020016040518060200160405280600081525081526020016040518060200160405280600081525081526020016040518060200160405280600081525081525081525061044490601062003f3b92919062005ac6565b5034801562003f4957600080fd5b50336000806101000a81548173ffffffffffffffffffffffffffffffffffffffff021916908373ffffffffffffffffffffffffffffffffffffffff160217905550604051806104200160405280600360ff168152602001600660ff168152602001600960ff168152602001600c60ff168152602001600f60ff168152602001601260ff168152602001601560ff168152602001601860ff168152602001601b60ff168152602001601e60ff168152602001602160ff168152602001602460ff168152602001602760ff168152602001602a60ff168152602001602d60ff168152602001603060ff168152602001603360ff168152602001603660ff168152602001603960ff168152602001603c60ff168152602001603f60ff168152602001604260ff168152602001604560ff168152602001604860ff168152602001604b60ff168152602001604e60ff168152602001605160ff168152602001605460ff168152602001605760ff168152602001605a60ff168152602001605d60ff168152602001606060ff168152602001606360ff168152506003600060218110620040f657620040f562005d67565b5b602102019060216200410a92919062005b1d565b50604051806104200160405280600660ff168152602001600c60ff168152602001601260ff168152602001601860ff168152602001601e60ff168152602001602460ff168152602001602a60ff168152602001603060ff168152602001603660ff168152602001603c60ff168152602001604260ff168152602001604860ff168152602001604e60ff168152602001605460ff168152602001605a60ff168152602001606060ff168152602001606460ff168152602001606e60ff168152602001606e60ff168152602001607860ff168152602001608260ff168152602001608260ff168152602001608c60ff168152602001608c60ff168152602001609660ff16815260200160a060ff16815260200160a060ff16815260200160aa60ff16815260200160aa60ff16815260200160b460ff16815260200160be60ff16815260200160be60ff16815260200160c860ff16815250600360016021811062004277576200427662005d67565b5b602102019060216200428b92919062005b1d565b50604051806104200160405280600961ffff168152602001601261ffff168152602001601b61ffff168152602001602461ffff168152602001602d61ffff16815260200161021c61ffff16815260200161028061ffff1681526020016102e461ffff16815260200161034861ffff1681526020016103c061ffff16815260200161044c61ffff168152602001606e61ffff168152602001607861ffff168152602001608261ffff168152602001608c61ffff168152602001608c61ffff168152602001609661ffff16815260200160a061ffff16815260200160aa61ffff16815260200160b461ffff16815260200160be61ffff16815260200160c861ffff16815260200160d261ffff16815260200160dc61ffff16815260200160dc61ffff16815260200160e661ffff16815260200160f061ffff16815260200160fa61ffff16815260200161010461ffff16815260200161010e61ffff16815260200161011861ffff16815260200161012261ffff16815260200161012c61ffff16815250600360026021811062004424576200442362005d67565b5b602102019060216200443892919062005b67565b50604051806104200160405280600c61ffff168152602001601861ffff168152602001602461ffff168152602001603061ffff168152602001603c61ffff1681526020016102d061ffff168152602001605461ffff168152602001606061ffff16815260200161044c61ffff168152602001607861ffff168152602001608261ffff16815260200161064061ffff16815260200160a061ffff16815260200160aa61ffff16815260200160b461ffff1681526020016108fc61ffff1681526020016109c461ffff168152602001610a8c61ffff168152602001610b5461ffff168152602001610c1c61ffff16815260200160fa61ffff16815260200161010461ffff168152602001610f3c61ffff16815260200161106861ffff16815260200161113061ffff16815260200161125c61ffff16815260200161014061ffff16815260200161015461ffff16815260200161015e61ffff16815260200161016861ffff16815260200161017261ffff16815260200161017c61ffff16815260200161019061ffff1681525060038060218110620045d957620045d862005d67565b5b60210201906021620045ed92919062005b67565b50604051806104200160405280600f61ffff168152602001601e61ffff168152602001602d61ffff168152602001603c61ffff168152602001604b61ffff16815260200161038e61ffff168152602001606e61ffff16815260200161051461ffff168152602001608c61ffff168152602001609661ffff16815260200160aa61ffff16815260200160b461ffff16815260200161089861ffff16815260200160d261ffff168152602001610a8c61ffff16815260200160f061ffff168152602001610c8061ffff16815260200161010e61ffff16815260200161012261ffff16815260200161012c61ffff1681526020016110cc61ffff1681526020016111f861ffff16815260200161015e61ffff1681526020016114b461ffff16815260200161017c61ffff16815260200161177061ffff16815260200161019a61ffff1681526020016101a461ffff1681526020016101ae61ffff1681526020016101c261ffff1681526020016101cc61ffff1681526020016101e061ffff1681526020016101f461ffff16815250600360046021811062004790576200478f62005d67565b5b60210201906021620047a492919062005b67565b50604051806104200160405280601261ffff168152602001602461ffff168152602001603661ffff168152602001604861ffff168152602001605a61ffff16815260200161044c61ffff168152602001608261ffff1681526020016105dc61ffff16815260200160a061ffff16815260200160b461ffff16815260200161089861ffff1681526020016109c461ffff16815260200160e661ffff168152602001610bb861ffff16815260200161010e61ffff168152602001610e1061ffff16815260200161013661ffff16815260200161106861ffff16815260200161119461ffff16815260200161016861ffff16815260200161145061ffff1681526020016115e061ffff16815260200161019a61ffff16815260200161190061ffff1681526020016101c261ffff168152602001611ce861ffff1681526020016101ea61ffff1681526020016101f461ffff16815260200161020861ffff16815260200161021c61ffff16815260200161023061ffff16815260200161024461ffff16815260200161024e61ffff1681525060036005602181106200494a576200494962005d67565b5b602102019060216200495e92919062005b67565b50604051806104200160405280601561ffff168152602001602a61ffff168152602001603f61ffff168152602001605461ffff168152602001606e61ffff16815260200161051461ffff168152602001609661ffff16815260200161070861ffff16815260200160be61ffff16815260200160d261ffff168152602001610a2861ffff168152602001610b5461ffff16815260200161010e61ffff168152602001610e1061ffff16815260200161014061ffff16815260200161106861ffff16815260200161016861ffff16815260200161138861ffff16815260200161019061ffff1681526020016116a861ffff1681526020016101b861ffff168152602001611a2c61ffff1681526020016101e061ffff168152602001611db061ffff16815260200161021261ffff1681526020016121fc61ffff16815260200161023a61ffff16815260200161024e61ffff16815260200161026261ffff16815260200161027661ffff16815260200161028a61ffff16815260200161029e61ffff1681526020016102b261ffff16815250600360066021811062004b055762004b0462005d67565b5b6021020190602162004b1992919062005b67565b50604051806104200160405280601861ffff168152602001603061ffff168152602001604861ffff168152602001606061ffff168152602001607861ffff1681526020016105dc61ffff16815260200160aa61ffff16815260200161083461ffff16815260200160dc61ffff16815260200160f061ffff168152602001610bb861ffff16815260200161012261ffff168152602001610e7461ffff16815260200161100461ffff16815260200161016861ffff16815260200161132461ffff16815260200161019a61ffff1681526020016116a861ffff1681526020016101cc61ffff168152602001611a2c61ffff1681526020016101f461ffff168152602001611e1461ffff16815260200161022661ffff1681526020016122c461ffff16815260200161025861ffff16815260200161271061ffff168152602001612af861ffff168152602001612ee061ffff1681526020016102bc61ffff1681526020016102d061ffff1681526020016102e461ffff16815260200161030261ffff16815260200161031661ffff16815250600360076021811062004cc05762004cbf62005d67565b5b6021020190602162004cd492919062005b67565b50604051806104200160405280601b61ffff168152602001603661ffff168152602001605161ffff168152602001606e61ffff168152602001608c61ffff1681526020016106a461ffff16815260200160be61ffff16815260200161096061ffff16815260200160f061ffff168152602001610c1c61ffff16815260200161012c61ffff16815260200161014061ffff1681526020016110cc61ffff16815260200161125c61ffff16815260200161019a61ffff1681526020016115e061ffff1681526020016101cc61ffff1681526020016119c861ffff1681526020016101fe61ffff168152602001611e1461ffff16815260200161023a61ffff1681526020016122c461ffff16815260200161026c61ffff16815260200161271061ffff1681526020016102a861ffff168152602001612ee061ffff168152602001612ee061ffff1681526020016132c861ffff16815260200161030c61ffff16815260200161032a61ffff16815260200161034861ffff16815260200161035c61ffff16815260200161037a61ffff16815250600360086021811062004e7c5762004e7b62005d67565b5b6021020190602162004e9092919062005b67565b50604051806104200160405280601e61ffff168152602001603c61ffff168152602001605a61ffff168152602001607861ffff168152602001609661ffff16815260200161076c61ffff16815260200160d261ffff168152602001610a8c61ffff16815260200161010e61ffff168152602001610dac61ffff168152602001610f3c61ffff1681526020016110cc61ffff1681526020016112c061ffff1681526020016114b461ffff1681526020016101c261ffff16815260200161189c61ffff1681526020016101fe61ffff168152602001611ce861ffff168152602001611f4061ffff16815260200161219861ffff16815260200161027661ffff16815260200161271061ffff1681526020016102b261ffff168152602001612af861ffff1681526020016102ee61ffff16815260200161030c61ffff16815260200161032a61ffff168152602001613a9861ffff16815260200161036661ffff16815260200161038461ffff1681526020016103a261ffff1681526020016103c061ffff1681526020016103de61ffff16815250600360096021811062005039576200503862005d67565b5b602102019060216200504d92919062005b67565b50604051806104200160405280602161ffff168152602001604261ffff168152602001606361ffff168152602001608261ffff16815260200160a061ffff16815260200161089861ffff16815260200160e661ffff168152602001610bb861ffff16815260200161012c61ffff168152602001610f3c61ffff16815260200161016861ffff16815260200161019061ffff1681526020016101ae61ffff16815260200161170c61ffff1681526020016101ea61ffff168152602001611b5861ffff16815260200161023061ffff16815260200161024e61ffff16815260200161027661ffff16815260200161029461ffff1681526020016102b261ffff168152602001612af861ffff168152602001612ee061ffff16815260200161031661ffff1681526020016136b061ffff16815260200161035c61ffff16815260200161037a61ffff16815260200161426861ffff1681526020016103c061ffff1681526020016103de61ffff1681526020016103e861ffff16815260200161044c61ffff16815260200161044c61ffff168152506003600a60218110620051f657620051f562005d67565b5b602102019060216200520a92919062005b67565b50604051806104200160405280602461ffff168152602001604861ffff168152602001606e61ffff168152602001608c61ffff16815260200160b461ffff16815260200161096061ffff16815260200160fa61ffff168152602001610ce461ffff16815260200161014061ffff1681526020016110cc61ffff16815260200161019061ffff1681526020016101ae61ffff1681526020016101d661ffff1681526020016101f461ffff168152602001611bbc61ffff16815260200161024461ffff16815260200161213461ffff16815260200161028a61ffff1681526020016102a861ffff1681526020016102d061ffff168152602001612af861ffff16815260200161031661ffff1681526020016132c861ffff1681526020016136b061ffff168152602001613a9861ffff168152602001613e8061ffff16815260200161426861ffff1681526020016103e861ffff1681526020016103e861ffff16815260200161044c61ffff16815260200161044c61ffff1681526020016104b061ffff1681526020016104b061ffff168152506003600b60218110620053b357620053b262005d67565b5b60210201906021620053c792919062005b67565b50604051806104200160405280602761ffff168152602001604e61ffff168152602001607861ffff16815260200160a061ffff16815260200160c861ffff168152602001610a2861ffff16815260200161010e61ffff168152602001610e1061ffff16815260200161015e61ffff16815260200161125c61ffff1681526020016101ae61ffff1681526020016101d661ffff1681526020016101fe61ffff16815260200161022661ffff16815260200161024e61ffff16815260200161213461ffff16815260200161245461ffff16815260200161271061ffff168152602001612af861ffff168152602001612ee061ffff16815260200161033461ffff16815260200161035c61ffff16815260200161038461ffff1681526020016103ac61ffff1681526020016103d461ffff1681526020016103e861ffff16815260200161044c61ffff16815260200161044c61ffff16815260200161044c61ffff1681526020016104b061ffff1681526020016104b061ffff1681526020016104b061ffff16815260200161051461ffff168152506003600c6021811062005571576200557062005d67565b5b602102019060216200558592919062005b67565b50604051806104200160405280602a61ffff168152602001605461ffff168152602001608261ffff16815260200160aa61ffff16815260200160d261ffff168152602001610af061ffff168152602001610d4861ffff168152602001610f3c61ffff16815260200161119461ffff1681526020016113ec61ffff1681526020016101cc61ffff1681526020016101f461ffff16815260200161022661ffff16815260200161024e61ffff16815260200161027661ffff16815260200161029e61ffff1681526020016102c661ffff1681526020016102f861ffff16815260200161032061ffff16815260200161034861ffff16815260200161037061ffff16815260200161039861ffff1681526020016103ca61ffff1681526020016103e861ffff16815260200161044c61ffff16815260200161044c61ffff16815260200161044c61ffff1681526020016104b061ffff1681526020016104b061ffff16815260200161051461ffff16815260200161051461ffff16815260200161051461ffff16815260200161057861ffff168152506003600d602181106200572f576200572e62005d67565b5b602102019060216200574392919062005b67565b50604051806104200160405280602d61ffff168152602001605a61ffff168152602001608c61ffff16815260200160b461ffff16815260200160dc61ffff16815260200161010e61ffff168152602001610e7461ffff1681526020016110cc61ffff16815260200161132461ffff1681526020016115e061ffff1681526020016101ea61ffff16815260200161021c61ffff16815260200161024e61ffff16815260200161027661ffff16815260200161029e61ffff1681526020016102d061ffff16815260200161030261ffff16815260200161032a61ffff16815260200161035c61ffff16815260200161038461ffff1681526020016103b661ffff1681526020016103de61ffff1681526020016103e861ffff16815260200161044c61ffff16815260200161044c61ffff1681526020016104b061ffff1681526020016104b061ffff16815260200161051461ffff16815260200161051461ffff16815260200161051461ffff16815260200161057861ffff16815260200161057861ffff1681526020016105dc61ffff168152506003600e60218110620058ed57620058ec62005d67565b5b602102019060216200590192919062005b67565b50604051806104200160405280603061ffff168152602001606061ffff168152602001608c61ffff16815260200160be61ffff16815260200160f061ffff16815260200161012261ffff16815260200161015461ffff16815260200161017c61ffff1681526020016101ae61ffff1681526020016101e061ffff16815260200161021261ffff16815260200161024461ffff16815260200161026c61ffff16815260200161029e61ffff1681526020016102d061ffff16815260200161030261ffff16815260200161033461ffff16815260200161035c61ffff16815260200161038e61ffff1681526020016103c061ffff1681526020016103e861ffff16815260200161044c61ffff16815260200161044c61ffff1681526020016104b061ffff1681526020016104b061ffff1681526020016104b061ffff16815260200161051461ffff16815260200161051461ffff16815260200161057861ffff16815260200161057861ffff1681526020016105dc61ffff1681526020016105dc61ffff16815260200161064061ffff168152506003600f6021811062005aab5762005aaa62005d67565b5b6021020190602162005abf92919062005b67565b5062005dfa565b8260218002810192821562005b0a579160200282015b8281111562005b095782518290602162005af892919062005bb2565b509160200191906021019062005adc565b5b50905062005b19919062005c0c565b5090565b826021810192821562005b54579160200282015b8281111562005b53578251829060ff1690559160200191906001019062005b31565b5b50905062005b63919062005c34565b5090565b826021810192821562005b9f579160200282015b8281111562005b9e578251829061ffff1690559160200191906001019062005b7b565b5b50905062005bae919062005c34565b5090565b826021810192821562005bf9579160200282015b8281111562005bf857825182908051906020019062005be792919062005c53565b509160200191906001019062005bc6565b5b50905062005c08919062005ce4565b5090565b5b8082111562005c30576000818162005c26919062005d0c565b5060210162005c0d565b5090565b5b8082111562005c4f57600081600090555060010162005c35565b5090565b82805462005c619062005dc5565b90600052602060002090601f01602090048101928262005c85576000855562005cd1565b82601f1062005ca057805160ff191683800117855562005cd1565b8280016001018555821562005cd1579182015b8281111562005cd057825182559160200191906001019062005cb3565b5b50905062005ce0919062005c34565b5090565b5b8082111562005d08576000818162005cfe919062005d21565b5060010162005ce5565b5090565b50806021019062005d1e919062005ce4565b50565b50805462005d2f9062005dc5565b6000825580601f1062005d43575062005d64565b601f01602090049060005260206000209081019062005d63919062005c34565b5b50565b7f4e487b7100000000000000000000000000000000000000000000000000000000600052603260045260246000fd5b7f4e487b7100000000000000000000000000000000000000000000000000000000600052602260045260246000fd5b6000600282049050600182168062005dde57607f821691505b60208210810362005df45762005df362005d96565b5b50919050565b61358a8062005e0a6000396000f3fe6080604052600436106100f35760003560e01c8063819aca1d1161008a578063ad9591e711610059578063ad9591e7146102fd578063b0e987db1461033c578063eca83a6914610379578063f9cebc2614610395576100f3565b8063819aca1d1461023e5780638da5cb5b1461027c5780639d602d2d146102a7578063a06101d0146102d2576100f3565b806317ba786f116100c657806317ba786f146101a857806324600fc3146101d1578063367545e2146101e857806338b145df14610213576100f3565b80630c081500146100f85780630ce9befa14610124578063108c5e1414610140578063146008e31461016b575b600080fd5b34801561010457600080fd5b5061010d6103d2565b60405161011b9291906126dc565b60405180910390f35b61013e60048036038101906101399190612892565b610676565b005b34801561014c57600080fd5b50610155610765565b6040516101629190612910565b60405180910390f35b34801561017757600080fd5b50610192600480360381019061018d919061292b565b61076a565b60405161019f9190612910565b60405180910390f35b3480156101b457600080fd5b506101cf60048036038101906101ca919061296b565b610795565b005b3480156101dd57600080fd5b506101e66109b5565b005b3480156101f457600080fd5b506101fd610af5565b60405161020a9190612cbd565b60405180910390f35b34801561021f57600080fd5b50610228610f37565b6040516102359190612910565b60405180910390f35b34801561024a57600080fd5b506102656004803603810190610260919061292b565b610f3c565b604051610273929190612d38565b60405180910390f35b34801561028857600080fd5b50610291611236565b60405161029e9190612d89565b60405180910390f35b3480156102b357600080fd5b506102bc61125a565b6040516102c99190612dbf565b60405180910390f35b3480156102de57600080fd5b506102e7611263565b6040516102f49190612910565b60405180910390f35b34801561030957600080fd5b50610324600480360381019061031f919061292b565b611476565b60405161033393929190612dda565b60405180910390f35b34801561034857600080fd5b50610363600480360381019061035e919061292b565b611769565b6040516103709190612910565b60405180910390f35b610393600480360381019061038e919061296b565b611797565b005b3480156103a157600080fd5b506103bc60048036038101906103b7919061292b565b611c54565b6040516103c99190612e18565b60405180910390f35b6060806103dd61125a565b61041c576040517f08c379a000000000000000000000000000000000000000000000000000000000815260040161041390612e86565b60405180910390fd5b6000610426611d0b565b90506000610432611d14565b905060008167ffffffffffffffff8111156104505761044f612767565b5b60405190808252806020026020018201604052801561048357816020015b606081526020019060019003908161046e5790505b50905060008267ffffffffffffffff8111156104a2576104a1612767565b5b6040519080825280602002602001820160405280156104d557816020015b60608152602001906001900390816104c05790505b50905060005b838110156106675760008567ffffffffffffffff8111156104ff576104fe612767565b5b60405190808252806020026020018201604052801561052d5781602001602082028036833780820191505090505b50905060008667ffffffffffffffff81111561054c5761054b612767565b5b60405190808252806020026020018201604052801561057f57816020015b606081526020019060019003908161056a5790505b50905060005b87811015610613576105978185610f3c565b8483815181106105aa576105a9612ea6565b5b602002602001018484815181106105c4576105c3612ea6565b5b602002602001018290528273ffffffffffffffffffffffffffffffffffffffff1673ffffffffffffffffffffffffffffffffffffffff168152505050808061060b90612f04565b915050610585565b508185848151811061062857610627612ea6565b5b60200260200101819052508084848151811061064757610646612ea6565b5b60200260200101819052505050808061065f90612f04565b9150506104db565b50818195509550505050509091565b61067e61125a565b6106bd576040517f08c379a00000000000000000000000000000000000000000000000000000000081526004016106b490612e86565b60405180910390fd5b82826106c7611d0b565b8210610708576040517f08c379a00000000000000000000000000000000000000000000000000000000081526004016106ff90612f98565b60405180910390fd5b610710611d14565b8110610751576040517f08c379a000000000000000000000000000000000000000000000000000000000815260040161074890613004565b60405180910390fd5b61075e8585600186611797565b5050505050565b601081565b6001602052816000526040600020602052806000526040600020600091509150508060000154905081565b61079d61125a565b6107dc576040517f08c379a00000000000000000000000000000000000000000000000000000000081526004016107d390612e86565b60405180910390fd5b83836107e6611d0b565b8210610827576040517f08c379a000000000000000000000000000000000000000000000000000000000815260040161081e90612f98565b60405180910390fd5b61082f611d14565b8110610870576040517f08c379a000000000000000000000000000000000000000000000000000000000815260040161086790613004565b60405180910390fd5b8585853373ffffffffffffffffffffffffffffffffffffffff1660016000848152602001908152602001600020600085815260200190815260200160002060010182815481106108c3576108c2612ea6565b5b906000526020600020906002020160000160009054906101000a900473ffffffffffffffffffffffffffffffffffffffff1673ffffffffffffffffffffffffffffffffffffffff161461094b576040517f08c379a000000000000000000000000000000000000000000000000000000000815260040161094290613070565b60405180910390fd5b85600160008a815260200190815260200160002060008b8152602001908152602001600020600101888154811061098557610984612ea6565b5b906000526020600020906002020160010190805190602001906109a9929190612220565b50505050505050505050565b60008054906101000a900473ffffffffffffffffffffffffffffffffffffffff1673ffffffffffffffffffffffffffffffffffffffff163373ffffffffffffffffffffffffffffffffffffffff1614610a43576040517f08c379a0000000000000000000000000000000000000000000000000000000008152600401610a3a90613102565b60405180910390fd5b600047905060008111610a8b576040517f08c379a0000000000000000000000000000000000000000000000000000000008152600401610a829061316e565b60405180910390fd5b60008054906101000a900473ffffffffffffffffffffffffffffffffffffffff1673ffffffffffffffffffffffffffffffffffffffff166108fc829081150290604051600060405180830381858888f19350505050158015610af1573d6000803e3d6000fd5b5050565b6060610aff61125a565b610b3e576040517f08c379a0000000000000000000000000000000000000000000000000000000008152600401610b3590612e86565b60405180910390fd5b6000610b48611d0b565b90506000610b54611d14565b905060008167ffffffffffffffff811115610b7257610b71612767565b5b604051908082528060200260200182016040528015610ba557816020015b6060815260200190600190039081610b905790505b50905060005b82811015610f2d5760008467ffffffffffffffff811115610bcf57610bce612767565b5b604051908082528060200260200182016040528015610c0857816020015b610bf56122a6565b815260200190600190039081610bed5790505b50905060005b85811015610ef9576000806000610c258487611476565b92509250925082858581518110610c3f57610c3e612ea6565b5b6020026020010151600001818152505060008103610d5b57600167ffffffffffffffff811115610c7257610c71612767565b5b604051908082528060200260200182016040528015610cab57816020015b610c986122c0565b815260200190600190039081610c905790505b50858581518110610cbf57610cbe612ea6565b5b602002602001015160200181905250604051806040016040528060008054906101000a900473ffffffffffffffffffffffffffffffffffffffff1673ffffffffffffffffffffffffffffffffffffffff16815260200183815250858581518110610d2c57610d2b612ea6565b5b602002602001015160200151600081518110610d4b57610d4a612ea6565b5b6020026020010181905250610ee3565b600160008781526020019081526020016000206000858152602001908152602001600020600101805480602002602001604051908101604052809291908181526020016000905b82821015610ebc57838290600052602060002090600202016040518060400160405290816000820160009054906101000a900473ffffffffffffffffffffffffffffffffffffffff1673ffffffffffffffffffffffffffffffffffffffff1673ffffffffffffffffffffffffffffffffffffffff168152602001600182018054610e2b906131bd565b80601f0160208091040260200160405190810160405280929190818152602001828054610e57906131bd565b8015610ea45780601f10610e7957610100808354040283529160200191610ea4565b820191906000526020600020905b815481529060010190602001808311610e8757829003601f168201915b50505050508152505081526020019060010190610da2565b50505050858581518110610ed357610ed2612ea6565b5b6020026020010151602001819052505b5050508080610ef190612f04565b915050610c0e565b5080838381518110610f0e57610f0d612ea6565b5b6020026020010181905250508080610f2590612f04565b915050610bab565b5080935050505090565b602181565b60006060610f4861125a565b610f87576040517f08c379a0000000000000000000000000000000000000000000000000000000008152600401610f7e90612e86565b60405180910390fd5b8383610f91611d0b565b8210610fd2576040517f08c379a0000000000000000000000000000000000000000000000000000000008152600401610fc990612f98565b60405180910390fd5b610fda611d14565b811061101b576040517f08c379a000000000000000000000000000000000000000000000000000000000815260040161101290613004565b60405180910390fd5b60006001600087815260200190815260200160002060008881526020019081526020016000206040518060400160405290816000820154815260200160018201805480602002602001604051908101604052809291908181526020016000905b8282101561119557838290600052602060002090600202016040518060400160405290816000820160009054906101000a900473ffffffffffffffffffffffffffffffffffffffff1673ffffffffffffffffffffffffffffffffffffffff1673ffffffffffffffffffffffffffffffffffffffff168152602001600182018054611104906131bd565b80601f0160208091040260200160405190810160405280929190818152602001828054611130906131bd565b801561117d5780601f106111525761010080835404028352916020019161117d565b820191906000526020600020905b81548152906001019060200180831161116057829003601f168201915b5050505050815250508152602001906001019061107b565b505050508152505090506000816020015151036111e85760006111b88888611d1d565b91505060008054906101000a900473ffffffffffffffffffffffffffffffffffffffff168195509550505061122d565b60008160200151600183602001515161120191906131ee565b8151811061121257611211612ea6565b5b60200260200101519050806000015181602001519550955050505b50509250929050565b60008054906101000a900473ffffffffffffffffffffffffffffffffffffffff1681565b60006001905090565b600080600090506000611274611d0b565b90506000611280611d14565b905060005b8181101561146c5760005b838110156114585760006001600084815260200190815260200160002060008381526020019081526020016000206040518060400160405290816000820154815260200160018201805480602002602001604051908101604052809291908181526020016000905b8282101561141257838290600052602060002090600202016040518060400160405290816000820160009054906101000a900473ffffffffffffffffffffffffffffffffffffffff1673ffffffffffffffffffffffffffffffffffffffff1673ffffffffffffffffffffffffffffffffffffffff168152602001600182018054611381906131bd565b80601f01602080910402602001604051908101604052809291908181526020018280546113ad906131bd565b80156113fa5780601f106113cf576101008083540402835291602001916113fa565b820191906000526020600020905b8154815290600101906020018083116113dd57829003601f168201915b505050505081525050815260200190600101906112f8565b50505050815250509050600081602001515182600001516114339190613222565b90508087611441919061327c565b96505050808061145090612f04565b915050611290565b50808061146490612f04565b915050611285565b5082935050505090565b60006060600061148461125a565b6114c3576040517f08c379a00000000000000000000000000000000000000000000000000000000081526004016114ba90612e86565b60405180910390fd5b84846114cd611d0b565b821061150e576040517f08c379a000000000000000000000000000000000000000000000000000000000815260040161150590612f98565b60405180910390fd5b611516611d14565b8110611557576040517f08c379a000000000000000000000000000000000000000000000000000000000815260040161154e90613004565b60405180910390fd5b60006001600088815260200190815260200160002060008981526020019081526020016000206040518060400160405290816000820154815260200160018201805480602002602001604051908101604052809291908181526020016000905b828210156116d157838290600052602060002090600202016040518060400160405290816000820160009054906101000a900473ffffffffffffffffffffffffffffffffffffffff1673ffffffffffffffffffffffffffffffffffffffff1673ffffffffffffffffffffffffffffffffffffffff168152602001600182018054611640906131bd565b80601f016020809104026020016040519081016040528092919081815260200182805461166c906131bd565b80156116b95780601f1061168e576101008083540402835291602001916116b9565b820191906000526020600020905b81548152906001019060200180831161169c57829003601f168201915b505050505081525050815260200190600101906115b7565b50505050815250509050600081602001515103611719576000806116f58a8a611d1d565b91509150620f4240826117089190613222565b816000975097509750505050611760565b80600001518160200151600183602001515161173591906131ee565b8151811061174657611745612ea6565b5b602002602001015160200151826020015151955095509550505b50509250925092565b6003826021811061177957600080fd5b60210201816021811061178b57600080fd5b01600091509150505481565b61179f61125a565b6117de576040517f08c379a00000000000000000000000000000000000000000000000000000000081526004016117d590612e86565b60405180910390fd5b83836117e8611d0b565b8210611829576040517f08c379a000000000000000000000000000000000000000000000000000000000815260040161182090612f98565b60405180910390fd5b611831611d14565b8110611872576040517f08c379a000000000000000000000000000000000000000000000000000000000815260040161186990613004565b60405180910390fd5b600a8411156118b6576040517f08c379a00000000000000000000000000000000000000000000000000000000081526004016118ad90613344565b60405180910390fd5b6118c08686611e96565b6000633b9aca00600160008881526020019081526020016000206000898152602001908152602001600020600001546118f99190613222565b905060006001600088815260200190815260200160002060008981526020019081526020016000206001018054905090506000600260018884600261193e9190613222565b611948919061327c565b61195291906131ee565b8861195d9190613222565b6119679190613393565b90506000600260018961197a91906131ee565b896119859190613222565b61198f9190613393565b8461199a9190613222565b905060008183866119ab9190613222565b6119b591906131ee565b90508034146119f9576040517f08c379a00000000000000000000000000000000000000000000000000000000081526004016119f090613410565b60405180910390fd5b60005b84811015611ae8576000600160008d815260200190815260200160002060008e81526020019081526020016000206001018281548110611a3f57611a3e612ea6565b5b906000526020600020906002020160000160009054906101000a900473ffffffffffffffffffffffffffffffffffffffff1690508a87611a7f9190613222565b600260008373ffffffffffffffffffffffffffffffffffffffff1673ffffffffffffffffffffffffffffffffffffffff1681526020019081526020016000206000828254611acd919061327c565b92505081905550508080611ae090612f04565b9150506119fc565b50611af38b8b61204f565b60005b89811015611bf257600160008c815260200190815260200160002060008d815260200190815260200160002060010160405180604001604052803373ffffffffffffffffffffffffffffffffffffffff1681526020018b815250908060018154018082558091505060019003906000526020600020906002020160009091909190915060008201518160000160006101000a81548173ffffffffffffffffffffffffffffffffffffffff021916908373ffffffffffffffffffffffffffffffffffffffff1602179055506020820151816001019080519060200190611bdc929190612220565b5050508080611bea90612f04565b915050611af6565b503373ffffffffffffffffffffffffffffffffffffffff167fe658510eab96e65991bb68ee771137bf387eaa3dc4a16189ea0f525766e76b2a8c8c8c8c604051611c3f9493929190613430565b60405180910390a25050505050505050505050565b6104448260218110611c6557600080fd5b602102018160218110611c7757600080fd5b01600091509150508054611c8a906131bd565b80601f0160208091040260200160405190810160405280929190818152602001828054611cb6906131bd565b8015611d035780601f10611cd857610100808354040283529160200191611d03565b820191906000526020600020905b815481529060010190602001808311611ce657829003601f168201915b505050505081565b60006021905090565b60006010905090565b6000606060218410611d64576040517f08c379a0000000000000000000000000000000000000000000000000000000008152600401611d5b906134c8565b60405180910390fd5b60108310611da7576040517f08c379a0000000000000000000000000000000000000000000000000000000008152600401611d9e90613534565b60405180910390fd5b60038360218110611dbb57611dba612ea6565b5b602102018460218110611dd157611dd0612ea6565b5b01546104448460218110611de857611de7612ea6565b5b602102018560218110611dfe57611dfd612ea6565b5b01808054611e0b906131bd565b80601f0160208091040260200160405190810160405280929190818152602001828054611e37906131bd565b8015611e845780601f10611e5957610100808354040283529160200191611e84565b820191906000526020600020905b815481529060010190602001808311611e6757829003601f168201915b50505050509050915091509250929050565b600060016000838152602001908152602001600020600084815260200190815260200160002060000154148015611ef75750600060016000838152602001908152602001600020600084815260200190815260200160002060010180549050145b1561204b57600080611f098484611d1d565b91509150620f424082611f1c9190613222565b60016000858152602001908152602001600020600086815260200190815260200160002060000181905550600160008481526020019081526020016000206000858152602001908152602001600020600101604051806040016040528060008054906101000a900473ffffffffffffffffffffffffffffffffffffffff1673ffffffffffffffffffffffffffffffffffffffff16815260200183815250908060018154018082558091505060019003906000526020600020906002020160009091909190915060008201518160000160006101000a81548173ffffffffffffffffffffffffffffffffffffffff021916908373ffffffffffffffffffffffffffffffffffffffff1602179055506020820151816001019080519060200190612045929190612220565b50505050505b5050565b60005b6001600083815260200190815260200160002060008481526020019081526020016000206001018054905081101561221b57600060016000848152602001908152602001600020600085815260200190815260200160002060010182815481106120bf576120be612ea6565b5b906000526020600020906002020160000160009054906101000a900473ffffffffffffffffffffffffffffffffffffffff1690506000600260008373ffffffffffffffffffffffffffffffffffffffff1673ffffffffffffffffffffffffffffffffffffffff168152602001908152602001600020541115612207578073ffffffffffffffffffffffffffffffffffffffff166108fc600260008473ffffffffffffffffffffffffffffffffffffffff1673ffffffffffffffffffffffffffffffffffffffff168152602001908152602001600020549081150290604051600060405180830381858888f193505050501580156121c0573d6000803e3d6000fd5b506000600260008373ffffffffffffffffffffffffffffffffffffffff1673ffffffffffffffffffffffffffffffffffffffff168152602001908152602001600020819055505b50808061221390612f04565b915050612052565b505050565b82805461222c906131bd565b90600052602060002090601f01602090048101928261224e5760008555612295565b82601f1061226757805160ff1916838001178555612295565b82800160010185558215612295579182015b82811115612294578251825591602001919060010190612279565b5b5090506122a291906122f0565b5090565b604051806040016040528060008152602001606081525090565b6040518060400160405280600073ffffffffffffffffffffffffffffffffffffffff168152602001606081525090565b5b808211156123095760008160009055506001016122f1565b5090565b600081519050919050565b600082825260208201905092915050565b6000819050602082019050919050565b600081519050919050565b600082825260208201905092915050565b6000819050602082019050919050565b600073ffffffffffffffffffffffffffffffffffffffff82169050919050565b600061239082612365565b9050919050565b6123a081612385565b82525050565b60006123b28383612397565b60208301905092915050565b6000602082019050919050565b60006123d682612339565b6123e08185612344565b93506123eb83612355565b8060005b8381101561241c57815161240388826123a6565b975061240e836123be565b9250506001810190506123ef565b5085935050505092915050565b600061243583836123cb565b905092915050565b6000602082019050919050565b60006124558261230d565b61245f8185612318565b93508360208202850161247185612329565b8060005b858110156124ad578484038952815161248e8582612429565b94506124998361243d565b925060208a01995050600181019050612475565b50829750879550505050505092915050565b600081519050919050565b600082825260208201905092915050565b6000819050602082019050919050565b600081519050919050565b600082825260208201905092915050565b6000819050602082019050919050565b600081519050919050565b600082825260208201905092915050565b60005b83811015612551578082015181840152602081019050612536565b83811115612560576000848401525b50505050565b6000601f19601f8301169050919050565b600061258282612517565b61258c8185612522565b935061259c818560208601612533565b6125a581612566565b840191505092915050565b60006125bc8383612577565b905092915050565b6000602082019050919050565b60006125dc826124eb565b6125e681856124f6565b9350836020820285016125f885612507565b8060005b85811015612634578484038952815161261585826125b0565b9450612620836125c4565b925060208a019950506001810190506125fc565b50829750879550505050505092915050565b600061265283836125d1565b905092915050565b6000602082019050919050565b6000612672826124bf565b61267c81856124ca565b93508360208202850161268e856124db565b8060005b858110156126ca57848403895281516126ab8582612646565b94506126b68361265a565b925060208a01995050600181019050612692565b50829750879550505050505092915050565b600060408201905081810360008301526126f6818561244a565b9050818103602083015261270a8184612667565b90509392505050565b6000604051905090565b600080fd5b600080fd5b6000819050919050565b61273a81612727565b811461274557600080fd5b50565b60008135905061275781612731565b92915050565b600080fd5b600080fd5b7f4e487b7100000000000000000000000000000000000000000000000000000000600052604160045260246000fd5b61279f82612566565b810181811067ffffffffffffffff821117156127be576127bd612767565b5b80604052505050565b60006127d1612713565b90506127dd8282612796565b919050565b600067ffffffffffffffff8211156127fd576127fc612767565b5b61280682612566565b9050602081019050919050565b82818337600083830152505050565b6000612835612830846127e2565b6127c7565b90508281526020810184848401111561285157612850612762565b5b61285c848285612813565b509392505050565b600082601f8301126128795761287861275d565b5b8135612889848260208601612822565b91505092915050565b6000806000606084860312156128ab576128aa61271d565b5b60006128b986828701612748565b93505060206128ca86828701612748565b925050604084013567ffffffffffffffff8111156128eb576128ea612722565b5b6128f786828701612864565b9150509250925092565b61290a81612727565b82525050565b60006020820190506129256000830184612901565b92915050565b600080604083850312156129425761294161271d565b5b600061295085828601612748565b925050602061296185828601612748565b9150509250929050565b600080600080608085870312156129855761298461271d565b5b600061299387828801612748565b94505060206129a487828801612748565b93505060406129b587828801612748565b925050606085013567ffffffffffffffff8111156129d6576129d5612722565b5b6129e287828801612864565b91505092959194509250565b600081519050919050565b600082825260208201905092915050565b6000819050602082019050919050565b600081519050919050565b600082825260208201905092915050565b6000819050602082019050919050565b612a4f81612727565b82525050565b600081519050919050565b600082825260208201905092915050565b6000819050602082019050919050565b6000604083016000830151612a996000860182612397565b5060208301518482036020860152612ab18282612577565b9150508091505092915050565b6000612aca8383612a81565b905092915050565b6000602082019050919050565b6000612aea82612a55565b612af48185612a60565b935083602082028501612b0685612a71565b8060005b85811015612b425784840389528151612b238582612abe565b9450612b2e83612ad2565b925060208a01995050600181019050612b0a565b50829750879550505050505092915050565b6000604083016000830151612b6c6000860182612a46565b5060208301518482036020860152612b848282612adf565b9150508091505092915050565b6000612b9d8383612b54565b905092915050565b6000602082019050919050565b6000612bbd82612a1a565b612bc78185612a25565b935083602082028501612bd985612a36565b8060005b85811015612c155784840389528151612bf68582612b91565b9450612c0183612ba5565b925060208a01995050600181019050612bdd565b50829750879550505050505092915050565b6000612c338383612bb2565b905092915050565b6000602082019050919050565b6000612c53826129ee565b612c5d81856129f9565b935083602082028501612c6f85612a0a565b8060005b85811015612cab5784840389528151612c8c8582612c27565b9450612c9783612c3b565b925060208a01995050600181019050612c73565b50829750879550505050505092915050565b60006020820190508181036000830152612cd78184612c48565b905092915050565b612ce881612385565b82525050565b600082825260208201905092915050565b6000612d0a82612517565b612d148185612cee565b9350612d24818560208601612533565b612d2d81612566565b840191505092915050565b6000604082019050612d4d6000830185612cdf565b8181036020830152612d5f8184612cff565b90509392505050565b6000612d7382612365565b9050919050565b612d8381612d68565b82525050565b6000602082019050612d9e6000830184612d7a565b92915050565b60008115159050919050565b612db981612da4565b82525050565b6000602082019050612dd46000830184612db0565b92915050565b6000606082019050612def6000830186612901565b8181036020830152612e018185612cff565b9050612e106040830184612901565b949350505050565b60006020820190508181036000830152612e328184612cff565b905092915050565b7f436f6e7472616374206973206e6f7420656e61626c6564000000000000000000600082015250565b6000612e70601783612cee565b9150612e7b82612e3a565b602082019050919050565b60006020820190508181036000830152612e9f81612e63565b9050919050565b7f4e487b7100000000000000000000000000000000000000000000000000000000600052603260045260246000fd5b7f4e487b7100000000000000000000000000000000000000000000000000000000600052601160045260246000fd5b6000612f0f82612727565b91507fffffffffffffffffffffffffffffffffffffffffffffffffffffffffffffffff8203612f4157612f40612ed5565b5b600182019050919050565b7f496e76616c6964207820636f6f7264696e617465000000000000000000000000600082015250565b6000612f82601483612cee565b9150612f8d82612f4c565b602082019050919050565b60006020820190508181036000830152612fb181612f75565b9050919050565b7f496e76616c6964207920636f6f7264696e617465000000000000000000000000600082015250565b6000612fee601483612cee565b9150612ff982612fb8565b602082019050919050565b6000602082019050818103600083015261301d81612fe1565b9050919050565b7f4e6f7420746865206f776e6572206f662074686973206c617965720000000000600082015250565b600061305a601b83612cee565b915061306582613024565b602082019050919050565b600060208201905081810360008301526130898161304d565b9050919050565b7f4f6e6c7920746865206f776e65722063616e2063616c6c20746869732066756e60008201527f6374696f6e000000000000000000000000000000000000000000000000000000602082015250565b60006130ec602583612cee565b91506130f782613090565b604082019050919050565b6000602082019050818103600083015261311b816130df565b9050919050565b7f4e6f2066756e647320746f207769746864726177000000000000000000000000600082015250565b6000613158601483612cee565b915061316382613122565b602082019050919050565b600060208201905081810360008301526131878161314b565b9050919050565b7f4e487b7100000000000000000000000000000000000000000000000000000000600052602260045260246000fd5b600060028204905060018216806131d557607f821691505b6020821081036131e8576131e761318e565b5b50919050565b60006131f982612727565b915061320483612727565b92508282101561321757613216612ed5565b5b828203905092915050565b600061322d82612727565b915061323883612727565b9250817fffffffffffffffffffffffffffffffffffffffffffffffffffffffffffffffff048311821515161561327157613270612ed5565b5b828202905092915050565b600061328782612727565b915061329283612727565b9250827fffffffffffffffffffffffffffffffffffffffffffffffffffffffffffffffff038211156132c7576132c6612ed5565b5b828201905092915050565b7f43616e6e6f7420627579206d6f7265207468616e203130206c6179657273206160008201527f74206f6e63650000000000000000000000000000000000000000000000000000602082015250565b600061332e602683612cee565b9150613339826132d2565b604082019050919050565b6000602082019050818103600083015261335d81613321565b9050919050565b7f4e487b7100000000000000000000000000000000000000000000000000000000600052601260045260246000fd5b600061339e82612727565b91506133a983612727565b9250826133b9576133b8613364565b5b828204905092915050565b7f496e636f727265637420504f4c2073656e740000000000000000000000000000600082015250565b60006133fa601283612cee565b9150613405826133c4565b602082019050919050565b60006020820190508181036000830152613429816133ed565b9050919050565b60006080820190506134456000830187612901565b6134526020830186612901565b61345f6040830185612901565b81810360608301526134718184612cff565b905095945050505050565b7f496e76616c696420782d636f6f7264696e617465000000000000000000000000600082015250565b60006134b2601483612cee565b91506134bd8261347c565b602082019050919050565b600060208201905081810360008301526134e1816134a5565b9050919050565b7f496e76616c696420792d636f6f7264696e617465000000000000000000000000600082015250565b600061351e601483612cee565b9150613529826134e8565b602082019050919050565b6000602082019050818103600083015261354d81613511565b905091905056fea26469706673582212203d6c789b0693c74ff8fd64086e47e3ec7b1eba692ea599a6e7188bcbc8ff52c664736f6c634300080d0033",
  "immutableReferences": {},
  "source": "// SPDX-License-Identifier: MIT\npragma solidity >=0.4.22 <0.9.0;\n\nimport \"./BaseContract.sol\";\nimport \"./DataStorage1.sol\";\n\ncontract Pixelflux1 is BaseContract, DataStorage1 {\n    function isContractEnabled() public override view returns(bool) {\n        return true;\n    }\n    \n    function getInitialValue(uint x, uint y) internal override view returns (uint256, string memory) {\n        require(x < gridWidth, \"Invalid x-coordinate\");\n        require(y < gridHeight, \"Invalid y-coordinate\");\n        return (initialValues[y][x], colorValues[y][x]);\n    }\n\n    function getGridWidth() internal override pure returns (uint256) {\n        return gridWidth;\n    }\n\n    function getGridHeight() internal override pure returns (uint256) {\n        return gridHeight;\n    }\n}\n",
  "sourcePath": "/home/wao/Meteor/Workspace/Sao/pixelflux/contracts/Pixelflux1.sol",
  "compiler": {
    "name": "solc",
    "version": "0.8.13+commit.abaa5c0e.Emscripten.clang"
  },
  "schemaVersion": "3.4.13",
  "updatedAt": "2024-02-04T08:19:10.432Z",
  "devdoc": {
    "kind": "dev",
    "methods": {},
    "version": 1
  },
  "userdoc": {
    "kind": "user",
    "methods": {},
    "version": 1
  }
}