{
  "contractName": "Pixelflux3",
  "abi": [
    {
      "inputs": [
        {
          "internalType": "address",
          "name": "_baseContractAddress1",
          "type": "address"
        },
        {
          "internalType": "address",
          "name": "_baseContractAddress2",
          "type": "address"
        }
      ],
      "stateMutability": "nonpayable",
      "type": "constructor"
    },
    {
      "anonymous": false,
      "inputs": [],
      "name": "ContractEnabled",
      "type": "event"
    },
    {
      "anonymous": false,
      "inputs": [
        {
          "indexed": true,
          "internalType": "address",
          "name": "buyer",
          "type": "address"
        },
        {
          "indexed": false,
          "internalType": "uint256",
          "name": "x",
          "type": "uint256"
        },
        {
          "indexed": false,
          "internalType": "uint256",
          "name": "y",
          "type": "uint256"
        },
        {
          "indexed": false,
          "internalType": "uint256",
          "name": "numLayers",
          "type": "uint256"
        },
        {
          "indexed": false,
          "internalType": "string",
          "name": "color",
          "type": "string"
        }
      ],
      "name": "LayerPurchased",
      "type": "event"
    },
    {
      "inputs": [],
      "name": "baseContract1",
      "outputs": [
        {
          "internalType": "contract BaseContract",
          "name": "",
          "type": "address"
        }
      ],
      "stateMutability": "view",
      "type": "function"
    },
    {
      "inputs": [],
      "name": "baseContract2",
      "outputs": [
        {
          "internalType": "contract BaseContract",
          "name": "",
          "type": "address"
        }
      ],
      "stateMutability": "view",
      "type": "function"
    },
    {
      "inputs": [
        {
          "internalType": "uint256",
          "name": "x",
          "type": "uint256"
        },
        {
          "internalType": "uint256",
          "name": "y",
          "type": "uint256"
        },
        {
          "internalType": "string",
          "name": "color",
          "type": "string"
        }
      ],
      "name": "buyLayer",
      "outputs": [],
      "stateMutability": "payable",
      "type": "function"
    },
    {
      "inputs": [
        {
          "internalType": "uint256",
          "name": "x",
          "type": "uint256"
        },
        {
          "internalType": "uint256",
          "name": "y",
          "type": "uint256"
        },
        {
          "internalType": "uint256",
          "name": "numLayersToAdd",
          "type": "uint256"
        },
        {
          "internalType": "string",
          "name": "color",
          "type": "string"
        }
      ],
      "name": "buyMultipleLayers",
      "outputs": [],
      "stateMutability": "payable",
      "type": "function"
    },
    {
      "inputs": [],
      "name": "calculateTotalValue",
      "outputs": [
        {
          "internalType": "uint256",
          "name": "",
          "type": "uint256"
        }
      ],
      "stateMutability": "view",
      "type": "function"
    },
    {
      "inputs": [
        {
          "internalType": "uint256",
          "name": "",
          "type": "uint256"
        },
        {
          "internalType": "uint256",
          "name": "",
          "type": "uint256"
        }
      ],
      "name": "colorValues",
      "outputs": [
        {
          "internalType": "string",
          "name": "",
          "type": "string"
        }
      ],
      "stateMutability": "view",
      "type": "function"
    },
    {
      "inputs": [],
      "name": "getAllCellStates",
      "outputs": [
        {
          "components": [
            {
              "internalType": "uint256",
              "name": "baseValue",
              "type": "uint256"
            },
            {
              "components": [
                {
                  "internalType": "address payable",
                  "name": "owner",
                  "type": "address"
                },
                {
                  "internalType": "string",
                  "name": "color",
                  "type": "string"
                }
              ],
              "internalType": "struct BaseContract.Layer[]",
              "name": "layers",
              "type": "tuple[]"
            }
          ],
          "internalType": "struct BaseContract.Cell[][]",
          "name": "",
          "type": "tuple[][]"
        }
      ],
      "stateMutability": "view",
      "type": "function"
    },
    {
      "inputs": [],
      "name": "getAllTopLayers",
      "outputs": [
        {
          "internalType": "address payable[][]",
          "name": "",
          "type": "address[][]"
        },
        {
          "internalType": "string[][]",
          "name": "",
          "type": "string[][]"
        }
      ],
      "stateMutability": "view",
      "type": "function"
    },
    {
      "inputs": [
        {
          "internalType": "uint256",
          "name": "x",
          "type": "uint256"
        },
        {
          "internalType": "uint256",
          "name": "y",
          "type": "uint256"
        }
      ],
      "name": "getCellState",
      "outputs": [
        {
          "internalType": "uint256",
          "name": "",
          "type": "uint256"
        },
        {
          "internalType": "string",
          "name": "",
          "type": "string"
        },
        {
          "internalType": "uint256",
          "name": "",
          "type": "uint256"
        }
      ],
      "stateMutability": "view",
      "type": "function"
    },
    {
      "inputs": [
        {
          "internalType": "uint256",
          "name": "x",
          "type": "uint256"
        },
        {
          "internalType": "uint256",
          "name": "y",
          "type": "uint256"
        }
      ],
      "name": "getTopLayerOfCell",
      "outputs": [
        {
          "internalType": "address payable",
          "name": "",
          "type": "address"
        },
        {
          "internalType": "string",
          "name": "",
          "type": "string"
        }
      ],
      "stateMutability": "view",
      "type": "function"
    },
    {
      "inputs": [
        {
          "internalType": "uint256",
          "name": "",
          "type": "uint256"
        },
        {
          "internalType": "uint256",
          "name": "",
          "type": "uint256"
        }
      ],
      "name": "grid",
      "outputs": [
        {
          "internalType": "uint256",
          "name": "baseValue",
          "type": "uint256"
        }
      ],
      "stateMutability": "view",
      "type": "function"
    },
    {
      "inputs": [],
      "name": "gridHeight",
      "outputs": [
        {
          "internalType": "uint256",
          "name": "",
          "type": "uint256"
        }
      ],
      "stateMutability": "view",
      "type": "function"
    },
    {
      "inputs": [],
      "name": "gridWidth",
      "outputs": [
        {
          "internalType": "uint256",
          "name": "",
          "type": "uint256"
        }
      ],
      "stateMutability": "view",
      "type": "function"
    },
    {
      "inputs": [
        {
          "internalType": "uint256",
          "name": "",
          "type": "uint256"
        },
        {
          "internalType": "uint256",
          "name": "",
          "type": "uint256"
        }
      ],
      "name": "initialValues",
      "outputs": [
        {
          "internalType": "uint256",
          "name": "",
          "type": "uint256"
        }
      ],
      "stateMutability": "view",
      "type": "function"
    },
    {
      "inputs": [],
      "name": "isEnabled",
      "outputs": [
        {
          "internalType": "bool",
          "name": "",
          "type": "bool"
        }
      ],
      "stateMutability": "view",
      "type": "function"
    },
    {
      "inputs": [],
      "name": "owner",
      "outputs": [
        {
          "internalType": "address",
          "name": "",
          "type": "address"
        }
      ],
      "stateMutability": "view",
      "type": "function"
    },
    {
      "inputs": [
        {
          "internalType": "uint256",
          "name": "x",
          "type": "uint256"
        },
        {
          "internalType": "uint256",
          "name": "y",
          "type": "uint256"
        },
        {
          "internalType": "uint256",
          "name": "layerIndex",
          "type": "uint256"
        },
        {
          "internalType": "string",
          "name": "newColor",
          "type": "string"
        }
      ],
      "name": "setLayerColor",
      "outputs": [],
      "stateMutability": "nonpayable",
      "type": "function"
    },
    {
      "inputs": [],
      "name": "withdrawFunds",
      "outputs": [],
      "stateMutability": "nonpayable",
      "type": "function"
    },
    {
      "inputs": [],
      "name": "isContractEnabled",
      "outputs": [
        {
          "internalType": "bool",
          "name": "",
          "type": "bool"
        }
      ],
      "stateMutability": "view",
      "type": "function"
    },
    {
      "inputs": [],
      "name": "enableContract",
      "outputs": [],
      "stateMutability": "nonpayable",
      "type": "function"
    }
  ],
  "bytecode": "0x60806040526040518061022001604052806040518061042001604052806040518060200160405280600081525081526020016040518060200160405280600081525081526020016040518060200160405280600081525081526020016040518060200160405280600081525081526020016040518060200160405280600081525081526020016040518060200160405280600081525081526020016040518060200160405280600081525081526020016040518060200160405280600081525081526020016040518060200160405280600081525081526020016040518060200160405280600081525081526020016040518060200160405280600081525081526020016040518060200160405280600081525081526020016040518060200160405280600081525081526020016040518060200160405280600081525081526020016040518060200160405280600081525081526020016040518060200160405280600081525081526020016040518060200160405280600081525081526020016040518060200160405280600081525081526020016040518060200160405280600081525081526020016040518060200160405280600081525081526020016040518060200160405280600081525081526020016040518060200160405280600081525081526020016040518060200160405280600081525081526020016040518060200160405280600081525081526020016040518060200160405280600081525081526020016040518060200160405280600081525081526020016040518060200160405280600081525081526020016040518060200160405280600081525081526020016040518060200160405280600081525081526020016040518060200160405280600081525081526020016040518060200160405280600081525081526020016040518060200160405280600081525081526020016040518060200160405280600081525081525081526020016040518061042001604052806040518060200160405280600081525081526020016040518060200160405280600081525081526020016040518060200160405280600081525081526020016040518060200160405280600081525081526020016040518060200160405280600081525081526020016040518060200160405280600081525081526020016040518060200160405280600081525081526020016040518060200160405280600081525081526020016040518060200160405280600081525081526020016040518060200160405280600081525081526020016040518060200160405280600081525081526020016040518060200160405280600081525081526020016040518060200160405280600081525081526020016040518060200160405280600081525081526020016040518060200160405280600081525081526020016040518060200160405280600081525081526020016040518060200160405280600081525081526020016040518060200160405280600081525081526020016040518060200160405280600081525081526020016040518060200160405280600081525081526020016040518060200160405280600081525081526020016040518060200160405280600081525081526020016040518060200160405280600081525081526020016040518060200160405280600081525081526020016040518060200160405280600081525081526020016040518060200160405280600081525081526020016040518060200160405280600081525081526020016040518060200160405280600081525081526020016040518060200160405280600081525081526020016040518060400160405280600781526020017f233962363565350000000000000000000000000000000000000000000000000081525081526020016040518060400160405280600781526020017f233939363265350000000000000000000000000000000000000000000000000081525081526020016040518060200160405280600081525081526020016040518060200160405280600081525081525081526020016040518061042001604052806040518060200160405280600081525081526020016040518060200160405280600081525081526020016040518060200160405280600081525081526020016040518060200160405280600081525081526020016040518060200160405280600081525081526020016040518060200160405280600081525081526020016040518060200160405280600081525081526020016040518060200160405280600081525081526020016040518060200160405280600081525081526020016040518060200160405280600081525081526020016040518060200160405280600081525081526020016040518060200160405280600081525081526020016040518060200160405280600081525081526020016040518060200160405280600081525081526020016040518060200160405280600081525081526020016040518060400160405280600781526020017f236235386465630000000000000000000000000000000000000000000000000081525081526020016040518060400160405280600781526020017f236233386165620000000000000000000000000000000000000000000000000081525081526020016040518060400160405280600781526020017f236231383765620000000000000000000000000000000000000000000000000081525081526020016040518060400160405280600781526020017f236166383465610000000000000000000000000000000000000000000000000081525081526020016040518060400160405280600781526020017f236164383065610000000000000000000000000000000000000000000000000081525081526020016040518060200160405280600081525081526020016040518060200160405280600081525081526020016040518060200160405280600081525081526020016040518060200160405280600081525081526020016040518060200160405280600081525081526020016040518060200160405280600081525081526020016040518060200160405280600081525081526020016040518060200160405280600081525081526020016040518060400160405280600781526020017f233962363665360000000000000000000000000000000000000000000000000081525081526020016040518060400160405280600781526020017f233939363265350000000000000000000000000000000000000000000000000081525081526020016040518060400160405280600781526020017f233938363065350000000000000000000000000000000000000000000000000081525081526020016040518060200160405280600081525081526020016040518060200160405280600081525081525081526020016040518061042001604052806040518060200160405280600081525081526020016040518060200160405280600081525081526020016040518060200160405280600081525081526020016040518060200160405280600081525081526020016040518060200160405280600081525081526020016040518060400160405280600781526020017f236337613866300000000000000000000000000000000000000000000000000081525081526020016040518060400160405280600781526020017f236335613566300000000000000000000000000000000000000000000000000081525081526020016040518060400160405280600781526020017f236333613265660000000000000000000000000000000000000000000000000081525081526020016040518060400160405280600781526020017f236331396665660000000000000000000000000000000000000000000000000081525081526020016040518060200160405280600081525081526020016040518060200160405280600081525081526020016040518060200160405280600081525081526020016040518060200160405280600081525081526020016040518060200160405280600081525081526020016040518060400160405280600781526020017f236235386565630000000000000000000000000000000000000000000000000081525081526020016040518060200160405280600081525081526020016040518060400160405280600781526020017f236231383765620000000000000000000000000000000000000000000000000081525081526020016040518060200160405280600081525081526020016040518060200160405280600081525081526020016040518060200160405280600081525081526020016040518060400160405280600781526020017f236161376365390000000000000000000000000000000000000000000000000081525081526020016040518060200160405280600081525081526020016040518060200160405280600081525081526020016040518060200160405280600081525081526020016040518060400160405280600781526020017f236132373065370000000000000000000000000000000000000000000000000081525081526020016040518060400160405280600781526020017f236130366365370000000000000000000000000000000000000000000000000081525081526020016040518060400160405280600781526020017f233965366165360000000000000000000000000000000000000000000000000081525081526020016040518060200160405280600081525081526020016040518060400160405280600781526020017f233961363465350000000000000000000000000000000000000000000000000081525081526020016040518060200160405280600081525081526020016040518060400160405280600781526020017f233936356565340000000000000000000000000000000000000000000000000081525081526020016040518060200160405280600081525081526020016040518060200160405280600081525081525081526020016040518061042001604052806040518060200160405280600081525081526020016040518060200160405280600081525081526020016040518060200160405280600081525081526020016040518060200160405280600081525081526020016040518060400160405280600781526020017f236337613966310000000000000000000000000000000000000000000000000081525081526020016040518060400160405280600781526020017f236335613666300000000000000000000000000000000000000000000000000081525081526020016040518060400160405280600781526020017f236333613366300000000000000000000000000000000000000000000000000081525081526020016040518060400160405280600781526020017f236331613065660000000000000000000000000000000000000000000000000081525081526020016040518060400160405280600781526020017f236330396565660000000000000000000000000000000000000000000000000081525081526020016040518060400160405280600781526020017f236265396265650000000000000000000000000000000000000000000000000081525081526020016040518060200160405280600081525081526020016040518060200160405280600081525081526020016040518060200160405280600081525081526020016040518060400160405280600781526020017f236236386565630000000000000000000000000000000000000000000000000081525081526020016040518060200160405280600081525081526020016040518060400160405280600781526020017f236232383965620000000000000000000000000000000000000000000000000081525081526020016040518060200160405280600081525081526020016040518060400160405280600781526020017f236165383365610000000000000000000000000000000000000000000000000081525081526020016040518060400160405280600781526020017f236163383065610000000000000000000000000000000000000000000000000081525081526020016040518060200160405280600081525081526020016040518060200160405280600081525081526020016040518060400160405280600781526020017f236136373665380000000000000000000000000000000000000000000000000081525081526020016040518060400160405280600781526020017f236135373465380000000000000000000000000000000000000000000000000081525081526020016040518060400160405280600781526020017f236133373165370000000000000000000000000000000000000000000000000081525081526020016040518060400160405280600781526020017f236131366565370000000000000000000000000000000000000000000000000081525081526020016040518060400160405280600781526020017f233966366265360000000000000000000000000000000000000000000000000081525081526020016040518060400160405280600781526020017f233964363865360000000000000000000000000000000000000000000000000081525081526020016040518060200160405280600081525081526020016040518060400160405280600781526020017f233939363265350000000000000000000000000000000000000000000000000081525081526020016040518060200160405280600081525081526020016040518060400160405280600781526020017f233935356365340000000000000000000000000000000000000000000000000081525081526020016040518060200160405280600081525081526020016040518060200160405280600081525081525081526020016040518061042001604052806040518060200160405280600081525081526020016040518060200160405280600081525081526020016040518060400160405280600781526020017f236361616466310000000000000000000000000000000000000000000000000081525081526020016040518060400160405280600781526020017f236338616166310000000000000000000000000000000000000000000000000081525081526020016040518060400160405280600781526020017f236336613866300000000000000000000000000000000000000000000000000081525081526020016040518060200160405280600081525081526020016040518060200160405280600081525081526020016040518060200160405280600081525081526020016040518060200160405280600081525081526020016040518060200160405280600081525081526020016040518060400160405280600781526020017f236261393565640000000000000000000000000000000000000000000000000081525081526020016040518060200160405280600081525081526020016040518060400160405280600781526020017f236237393065630000000000000000000000000000000000000000000000000081525081526020016040518060200160405280600081525081526020016040518060400160405280600781526020017f236233386165620000000000000000000000000000000000000000000000000081525081526020016040518060200160405280600081525081526020016040518060400160405280600781526020017f236166383465610000000000000000000000000000000000000000000000000081525081526020016040518060200160405280600081525081526020016040518060200160405280600081525081526020016040518060400160405280600781526020017f236139376265390000000000000000000000000000000000000000000000000081525081526020016040518060200160405280600081525081526020016040518060400160405280600781526020017f236135373565380000000000000000000000000000000000000000000000000081525081526020016040518060400160405280600781526020017f236133373265380000000000000000000000000000000000000000000000000081525081526020016040518060200160405280600081525081526020016040518060400160405280600781526020017f233966366365370000000000000000000000000000000000000000000000000081525081526020016040518060200160405280600081525081526020016040518060400160405280600781526020017f233963363665360000000000000000000000000000000000000000000000000081525081526020016040518060200160405280600081525081526020016040518060400160405280600781526020017f233938363065350000000000000000000000000000000000000000000000000081525081526020016040518060200160405280600081525081526020016040518060400160405280600781526020017f233934356165340000000000000000000000000000000000000000000000000081525081526020016040518060200160405280600081525081526020016040518060200160405280600081525081525081526020016040518061042001604052806040518060200160405280600081525081526020016040518060200160405280600081525081526020016040518060400160405280600781526020017f236339616266310000000000000000000000000000000000000000000000000081525081526020016040518060200160405280600081525081526020016040518060400160405280600781526020017f236335613566300000000000000000000000000000000000000000000000000081525081526020016040518060200160405280600081525081526020016040518060400160405280600781526020017f236331396665660000000000000000000000000000000000000000000000000081525081526020016040518060400160405280600781526020017f236266396365650000000000000000000000000000000000000000000000000081525081526020016040518060400160405280600781526020017f236264396165650000000000000000000000000000000000000000000000000081525081526020016040518060400160405280600781526020017f236262393765650000000000000000000000000000000000000000000000000081525081526020016040518060200160405280600081525081526020016040518060200160405280600081525081526020016040518060400160405280600781526020017f236235386565630000000000000000000000000000000000000000000000000081525081526020016040518060200160405280600081525081526020016040518060400160405280600781526020017f236231383765620000000000000000000000000000000000000000000000000081525081526020016040518060200160405280600081525081526020016040518060400160405280600781526020017f236165383265610000000000000000000000000000000000000000000000000081525081526020016040518060200160405280600081525081526020016040518060200160405280600081525081526020016040518060400160405280600781526020017f236138373965390000000000000000000000000000000000000000000000000081525081526020016040518060200160405280600081525081526020016040518060400160405280600781526020017f236134373365380000000000000000000000000000000000000000000000000081525081526020016040518060200160405280600081525081526020016040518060400160405280600781526020017f236130366465370000000000000000000000000000000000000000000000000081525081526020016040518060200160405280600081525081526020016040518060200160405280600081525081526020016040518060400160405280600781526020017f233961363465350000000000000000000000000000000000000000000000000081525081526020016040518060200160405280600081525081526020016040518060400160405280600781526020017f233936356565340000000000000000000000000000000000000000000000000081525081526020016040518060200160405280600081525081526020016040518060400160405280600781526020017f233933353865330000000000000000000000000000000000000000000000000081525081526020016040518060200160405280600081525081526020016040518060200160405280600081525081525081526020016040518061042001604052806040518060200160405280600081525081526020016040518060200160405280600081525081526020016040518060400160405280600781526020017f236337613966310000000000000000000000000000000000000000000000000081525081526020016040518060200160405280600081525081526020016040518060400160405280600781526020017f236334613466300000000000000000000000000000000000000000000000000081525081526020016040518060200160405280600081525081526020016040518060400160405280600781526020017f236330396565660000000000000000000000000000000000000000000000000081525081526020016040518060200160405280600081525081526020016040518060200160405280600081525081526020016040518060400160405280600781526020017f236261393465640000000000000000000000000000000000000000000000000081525081526020016040518060400160405280600781526020017f236238393165640000000000000000000000000000000000000000000000000081525081526020016040518060200160405280600081525081526020016040518060400160405280600781526020017f236234386365630000000000000000000000000000000000000000000000000081525081526020016040518060200160405280600081525081526020016040518060400160405280600781526020017f236230383665620000000000000000000000000000000000000000000000000081525081526020016040518060200160405280600081525081526020016040518060400160405280600781526020017f236163383065610000000000000000000000000000000000000000000000000081525081526020016040518060200160405280600081525081526020016040518060200160405280600081525081526020016040518060400160405280600781526020017f236137373765380000000000000000000000000000000000000000000000000081525081526020016040518060200160405280600081525081526020016040518060400160405280600781526020017f236133373165370000000000000000000000000000000000000000000000000081525081526020016040518060200160405280600081525081526020016040518060400160405280600781526020017f233966366265360000000000000000000000000000000000000000000000000081525081526020016040518060200160405280600081525081526020016040518060400160405280600781526020017f233962363565350000000000000000000000000000000000000000000000000081525081526020016040518060200160405280600081525081526020016040518060400160405280600781526020017f233937356665350000000000000000000000000000000000000000000000000081525081526020016040518060400160405280600781526020017f233935356365340000000000000000000000000000000000000000000000000081525081526020016040518060200160405280600081525081526020016040518060400160405280600781526020017f233931353665330000000000000000000000000000000000000000000000000081525081526020016040518060200160405280600081525081526020016040518060200160405280600081525081525081526020016040518061042001604052806040518060200160405280600081525081526020016040518060200160405280600081525081526020016040518060400160405280600781526020017f236336613866300000000000000000000000000000000000000000000000000081525081526020016040518060200160405280600081525081526020016040518060400160405280600781526020017f236332613165660000000000000000000000000000000000000000000000000081525081526020016040518060200160405280600081525081526020016040518060400160405280600781526020017f236265396265650000000000000000000000000000000000000000000000000081525081526020016040518060400160405280600781526020017f236263393865650000000000000000000000000000000000000000000000000081525081526020016040518060400160405280600781526020017f236262393665640000000000000000000000000000000000000000000000000081525081526020016040518060200160405280600081525081526020016040518060400160405280600781526020017f236237393065630000000000000000000000000000000000000000000000000081525081526020016040518060400160405280600781526020017f236235386465630000000000000000000000000000000000000000000000000081525081526020016040518060400160405280600781526020017f236233386165620000000000000000000000000000000000000000000000000081525081526020016040518060200160405280600081525081526020016040518060400160405280600781526020017f236166383465610000000000000000000000000000000000000000000000000081525081526020016040518060200160405280600081525081526020016040518060400160405280600781526020017f236162376565610000000000000000000000000000000000000000000000000081525081526020016040518060200160405280600081525081526020016040518060200160405280600081525081526020016040518060400160405280600781526020017f236135373565380000000000000000000000000000000000000000000000000081525081526020016040518060200160405280600081525081526020016040518060400160405280600781526020017f236131366665370000000000000000000000000000000000000000000000000081525081526020016040518060200160405280600081525081526020016040518060400160405280600781526020017f233965363965360000000000000000000000000000000000000000000000000081525081526020016040518060200160405280600081525081526020016040518060400160405280600781526020017f233961363365350000000000000000000000000000000000000000000000000081525081526020016040518060400160405280600781526020017f233938363065350000000000000000000000000000000000000000000000000081525081526020016040518060200160405280600081525081526020016040518060200160405280600081525081526020016040518060200160405280600081525081526020016040518060400160405280600781526020017f233930353565330000000000000000000000000000000000000000000000000081525081526020016040518060200160405280600081525081526020016040518060200160405280600081525081525081526020016040518061042001604052806040518060200160405280600081525081526020016040518060200160405280600081525081526020016040518060400160405280600781526020017f236335613566300000000000000000000000000000000000000000000000000081525081526020016040518060200160405280600081525081526020016040518060400160405280600781526020017f236331613065660000000000000000000000000000000000000000000000000081525081526020016040518060200160405280600081525081526020016040518060400160405280600781526020017f236264396165650000000000000000000000000000000000000000000000000081525081526020016040518060200160405280600081525081526020016040518060400160405280600781526020017f236239393465640000000000000000000000000000000000000000000000000081525081526020016040518060400160405280600781526020017f236237393165640000000000000000000000000000000000000000000000000081525081526020016040518060200160405280600081525081526020016040518060400160405280600781526020017f236234386265630000000000000000000000000000000000000000000000000081525081526020016040518060400160405280600781526020017f236232383865620000000000000000000000000000000000000000000000000081525081526020016040518060200160405280600081525081526020016040518060400160405280600781526020017f236165383265610000000000000000000000000000000000000000000000000081525081526020016040518060200160405280600081525081526020016040518060200160405280600081525081526020016040518060400160405280600781526020017f236138373965390000000000000000000000000000000000000000000000000081525081526020016040518060400160405280600781526020017f236136373665380000000000000000000000000000000000000000000000000081525081526020016040518060200160405280600081525081526020016040518060200160405280600081525081526020016040518060400160405280600781526020017f236130366465370000000000000000000000000000000000000000000000000081525081526020016040518060200160405280600081525081526020016040518060400160405280600781526020017f233963363765360000000000000000000000000000000000000000000000000081525081526020016040518060200160405280600081525081526020016040518060400160405280600781526020017f233938363165350000000000000000000000000000000000000000000000000081525081526020016040518060200160405280600081525081526020016040518060400160405280600781526020017f233935356365340000000000000000000000000000000000000000000000000081525081526020016040518060200160405280600081525081526020016040518060200160405280600081525081526020016040518060400160405280600781526020017f233866353265320000000000000000000000000000000000000000000000000081525081526020016040518060200160405280600081525081526020016040518060200160405280600081525081525081526020016040518061042001604052806040518060200160405280600081525081526020016040518060200160405280600081525081526020016040518060400160405280600781526020017f236334613466300000000000000000000000000000000000000000000000000081525081526020016040518060200160405280600081525081526020016040518060400160405280600781526020017f236330396565660000000000000000000000000000000000000000000000000081525081526020016040518060200160405280600081525081526020016040518060400160405280600781526020017f236263393865650000000000000000000000000000000000000000000000000081525081526020016040518060200160405280600081525081526020016040518060400160405280600781526020017f236238393265640000000000000000000000000000000000000000000000000081525081526020016040518060200160405280600081525081526020016040518060200160405280600081525081526020016040518060400160405280600781526020017f236232383965620000000000000000000000000000000000000000000000000081525081526020016040518060200160405280600081525081526020016040518060400160405280600781526020017f236165383365610000000000000000000000000000000000000000000000000081525081526020016040518060200160405280600081525081526020016040518060400160405280600781526020017f236162376465390000000000000000000000000000000000000000000000000081525081526020016040518060200160405280600081525081526020016040518060200160405280600081525081526020016040518060200160405280600081525081526020016040518060200160405280600081525081526020016040518060200160405280600081525081526020016040518060400160405280600781526020017f233966366265360000000000000000000000000000000000000000000000000081525081526020016040518060200160405280600081525081526020016040518060400160405280600781526020017f233962363665360000000000000000000000000000000000000000000000000081525081526020016040518060200160405280600081525081526020016040518060400160405280600781526020017f233937356665350000000000000000000000000000000000000000000000000081525081526020016040518060200160405280600081525081526020016040518060400160405280600781526020017f233933353965340000000000000000000000000000000000000000000000000081525081526020016040518060200160405280600081525081526020016040518060400160405280600781526020017f233866353365330000000000000000000000000000000000000000000000000081525081526020016040518060400160405280600781526020017f233865353165320000000000000000000000000000000000000000000000000081525081526020016040518060200160405280600081525081526020016040518060200160405280600081525081525081526020016040518061042001604052806040518060200160405280600081525081526020016040518060200160405280600081525081526020016040518060400160405280600781526020017f236332613165660000000000000000000000000000000000000000000000000081525081526020016040518060200160405280600081525081526020016040518060400160405280600781526020017f236266396365650000000000000000000000000000000000000000000000000081525081526020016040518060200160405280600081525081526020016040518060400160405280600781526020017f236262393665640000000000000000000000000000000000000000000000000081525081526020016040518060400160405280600781526020017f236239393365640000000000000000000000000000000000000000000000000081525081526020016040518060200160405280600081525081526020016040518060200160405280600081525081526020016040518060400160405280600781526020017f236233386165620000000000000000000000000000000000000000000000000081525081526020016040518060400160405280600781526020017f236231383765620000000000000000000000000000000000000000000000000081525081526020016040518060200160405280600081525081526020016040518060200160405280600081525081526020016040518060400160405280600781526020017f236162376565610000000000000000000000000000000000000000000000000081525081526020016040518060200160405280600081525081526020016040518060400160405280600781526020017f236137373865390000000000000000000000000000000000000000000000000081525081526020016040518060200160405280600081525081526020016040518060200160405280600081525081526020016040518060400160405280600781526020017f236132373065370000000000000000000000000000000000000000000000000081525081526020016040518060400160405280600781526020017f236130366365370000000000000000000000000000000000000000000000000081525081526020016040518060400160405280600781526020017f233965363965360000000000000000000000000000000000000000000000000081525081526020016040518060200160405280600081525081526020016040518060400160405280600781526020017f233961363365350000000000000000000000000000000000000000000000000081525081526020016040518060200160405280600081525081526020016040518060400160405280600781526020017f233936356465340000000000000000000000000000000000000000000000000081525081526020016040518060200160405280600081525081526020016040518060400160405280600781526020017f233932353865330000000000000000000000000000000000000000000000000081525081526020016040518060400160405280600781526020017f233930353565330000000000000000000000000000000000000000000000000081525081526020016040518060400160405280600781526020017f233865353265320000000000000000000000000000000000000000000000000081525081526020016040518060400160405280600781526020017f233863346565320000000000000000000000000000000000000000000000000081525081526020016040518060200160405280600081525081526020016040518060200160405280600081525081525081526020016040518061042001604052806040518060200160405280600081525081526020016040518060200160405280600081525081526020016040518060400160405280600781526020017f236331613065660000000000000000000000000000000000000000000000000081525081526020016040518060200160405280600081525081526020016040518060400160405280600781526020017f236264396165650000000000000000000000000000000000000000000000000081525081526020016040518060200160405280600081525081526020016040518060200160405280600081525081526020016040518060200160405280600081525081526020016040518060200160405280600081525081526020016040518060400160405280600781526020017f236234386265630000000000000000000000000000000000000000000000000081525081526020016040518060200160405280600081525081526020016040518060200160405280600081525081526020016040518060200160405280600081525081526020016040518060200160405280600081525081526020016040518060200160405280600081525081526020016040518060400160405280600781526020017f236138376165390000000000000000000000000000000000000000000000000081525081526020016040518060400160405280600781526020017f236136373665380000000000000000000000000000000000000000000000000081525081526020016040518060400160405280600781526020017f236134373365380000000000000000000000000000000000000000000000000081525081526020016040518060400160405280600781526020017f236132373065370000000000000000000000000000000000000000000000000081525081526020016040518060400160405280600781526020017f236130366465370000000000000000000000000000000000000000000000000081525081526020016040518060200160405280600081525081526020016040518060400160405280600781526020017f233963363765360000000000000000000000000000000000000000000000000081525081526020016040518060200160405280600081525081526020016040518060400160405280600781526020017f233939363265350000000000000000000000000000000000000000000000000081525081526020016040518060200160405280600081525081526020016040518060400160405280600781526020017f233935356365340000000000000000000000000000000000000000000000000081525081526020016040518060200160405280600081525081526020016040518060200160405280600081525081526020016040518060200160405280600081525081526020016040518060200160405280600081525081526020016040518060200160405280600081525081526020016040518060200160405280600081525081526020016040518060200160405280600081525081525081526020016040518061042001604052806040518060200160405280600081525081526020016040518060200160405280600081525081526020016040518060400160405280600781526020017f236330396565660000000000000000000000000000000000000000000000000081525081526020016040518060200160405280600081525081526020016040518060400160405280600781526020017f236263393865650000000000000000000000000000000000000000000000000081525081526020016040518060200160405280600081525081526020016040518060400160405280600781526020017f236238393265640000000000000000000000000000000000000000000000000081525081526020016040518060400160405280600781526020017f236236386665630000000000000000000000000000000000000000000000000081525081526020016040518060400160405280600781526020017f236234386365630000000000000000000000000000000000000000000000000081525081526020016040518060200160405280600081525081526020016040518060200160405280600081525081526020016040518060200160405280600081525081526020016040518060200160405280600081525081526020016040518060200160405280600081525081526020016040518060200160405280600081525081526020016040518060200160405280600081525081526020016040518060200160405280600081525081526020016040518060200160405280600081525081526020016040518060200160405280600081525081526020016040518060200160405280600081525081526020016040518060200160405280600081525081526020016040518060400160405280600781526020017f233962363665360000000000000000000000000000000000000000000000000081525081526020016040518060200160405280600081525081526020016040518060400160405280600781526020017f233937356665350000000000000000000000000000000000000000000000000081525081526020016040518060200160405280600081525081526020016040518060400160405280600781526020017f233933353965340000000000000000000000000000000000000000000000000081525081526020016040518060200160405280600081525081526020016040518060200160405280600081525081526020016040518060200160405280600081525081526020016040518060200160405280600081525081526020016040518060200160405280600081525081526020016040518060200160405280600081525081526020016040518060200160405280600081525081525081526020016040518061042001604052806040518060200160405280600081525081526020016040518060200160405280600081525081526020016040518060200160405280600081525081526020016040518060400160405280600781526020017f236264393965650000000000000000000000000000000000000000000000000081525081526020016040518060400160405280600781526020017f236262393665640000000000000000000000000000000000000000000000000081525081526020016040518060400160405280600781526020017f236239393365640000000000000000000000000000000000000000000000000081525081526020016040518060400160405280600781526020017f236237393065630000000000000000000000000000000000000000000000000081525081526020016040518060400160405280600781526020017f236235386465630000000000000000000000000000000000000000000000000081525081526020016040518060200160405280600081525081526020016040518060200160405280600081525081526020016040518060200160405280600081525081526020016040518060200160405280600081525081526020016040518060200160405280600081525081526020016040518060200160405280600081525081526020016040518060200160405280600081525081526020016040518060200160405280600081525081526020016040518060200160405280600081525081526020016040518060200160405280600081525081526020016040518060200160405280600081525081526020016040518060200160405280600081525081526020016040518060200160405280600081525081526020016040518060400160405280600781526020017f233961363365350000000000000000000000000000000000000000000000000081525081526020016040518060400160405280600781526020017f233938363065350000000000000000000000000000000000000000000000000081525081526020016040518060400160405280600781526020017f233936356565340000000000000000000000000000000000000000000000000081525081526020016040518060400160405280600781526020017f233934356265340000000000000000000000000000000000000000000000000081525081526020016040518060400160405280600781526020017f2339323538653300000000000000000000000000000000000000000000000000815250815260200160405180602001604052806000815250815260200160405180602001604052806000815250815260200160405180602001604052806000815250815260200160405180602001604052806000815250815260200160405180602001604052806000815250815260200160405180602001604052806000815250815260200160405180602001604052806000815250815250815260200160405180610420016040528060405180602001604052806000815250815260200160405180602001604052806000815250815260200160405180602001604052806000815250815260200160405180602001604052806000815250815260200160405180602001604052806000815250815260200160405180602001604052806000815250815260200160405180602001604052806000815250815260200160405180602001604052806000815250815260200160405180602001604052806000815250815260200160405180602001604052806000815250815260200160405180602001604052806000815250815260200160405180602001604052806000815250815260200160405180602001604052806000815250815260200160405180602001604052806000815250815260200160405180602001604052806000815250815260200160405180602001604052806000815250815260200160405180602001604052806000815250815260200160405180602001604052806000815250815260200160405180602001604052806000815250815260200160405180602001604052806000815250815260200160405180602001604052806000815250815260200160405180602001604052806000815250815260200160405180602001604052806000815250815260200160405180602001604052806000815250815260200160405180602001604052806000815250815260200160405180602001604052806000815250815260200160405180602001604052806000815250815260200160405180602001604052806000815250815260200160405180602001604052806000815250815260200160405180602001604052806000815250815260200160405180602001604052806000815250815260200160405180602001604052806000815250815260200160405180602001604052806000815250815250815260200160405180610420016040528060405180602001604052806000815250815260200160405180602001604052806000815250815260200160405180602001604052806000815250815260200160405180602001604052806000815250815260200160405180602001604052806000815250815260200160405180602001604052806000815250815260200160405180602001604052806000815250815260200160405180602001604052806000815250815260200160405180602001604052806000815250815260200160405180602001604052806000815250815260200160405180602001604052806000815250815260200160405180602001604052806000815250815260200160405180602001604052806000815250815260200160405180602001604052806000815250815260200160405180602001604052806000815250815260200160405180602001604052806000815250815260200160405180602001604052806000815250815260200160405180602001604052806000815250815260200160405180602001604052806000815250815260200160405180602001604052806000815250815260200160405180602001604052806000815250815260200160405180602001604052806000815250815260200160405180602001604052806000815250815260200160405180602001604052806000815250815260200160405180602001604052806000815250815260200160405180602001604052806000815250815260200160405180602001604052806000815250815260200160405180602001604052806000815250815260200160405180602001604052806000815250815260200160405180602001604052806000815250815260200160405180602001604052806000815250815260200160405180602001604052806000815250815260200160405180602001604052806000815250815250815250610444906011620048f992919062006a0d565b50600061088560006101000a81548160ff0219169083151502179055503480156200492357600080fd5b506040516200a93b3803806200a93b833981810160405281019062004949919062006d1a565b336000806101000a81548173ffffffffffffffffffffffffffffffffffffffff021916908373ffffffffffffffffffffffffffffffffffffffff160217905550604051806104200160405280606e61ffff16815260200160d261ffff16815260200161014061ffff1681526020016101a461ffff16815260200161021261ffff16815260200161027661ffff1681526020016102e461ffff16815260200161034861ffff1681526020016103b661ffff16815260200161044c61ffff1681526020016104b061ffff16815260200161051461ffff16815260200161057861ffff1681526020016105dc61ffff16815260200161064061ffff1681526020016106a461ffff16815260200161070861ffff16815260200161076c61ffff1681526020016107d061ffff16815260200161083461ffff16815260200161089861ffff1681526020016108fc61ffff16815260200161096061ffff1681526020016109c461ffff168152602001610a2861ffff168152602001610a8c61ffff168152602001610af061ffff168152602001610b5461ffff168152602001610bb861ffff168152602001610c8061ffff168152602001610ce461ffff168152602001610d4861ffff168152602001610dac61ffff16815250600360006021811062004b355762004b3462006d61565b5b6021020190602162004b4992919062006a64565b50604051806104200160405280606e62ffffff16815260200160dc62ffffff16815260200161014062ffffff1681526020016101ae62ffffff16815260200161021c62ffffff16815260200161028a62ffffff1681526020016102f862ffffff16815260200161035c62ffffff1681526020016103ca62ffffff16815260200161044c62ffffff1681526020016104b062ffffff16815260200161051462ffffff16815260200161057862ffffff1681526020016105dc62ffffff16815260200161064062ffffff1681526020016106a462ffffff16815260200161070862ffffff16815260200161076c62ffffff16815260200161083462ffffff16815260200161089862ffffff1681526020016108fc62ffffff16815260200161096062ffffff1681526020016109c462ffffff168152602001610a2862ffffff168152602001610a8c62ffffff168152602001610af062ffffff168152602001610b5462ffffff168152602001610bb862ffffff168152602001610c1c62ffffff1681526020016201fbd062ffffff168152602001620249f062ffffff168152602001610dac62ffffff168152602001610e1062ffffff16815250600360016021811062004d195762004d1862006d61565b5b6021020190602162004d2d92919062006aaf565b50604051806104200160405280606e62ffffff16815260200160dc62ffffff16815260200161014a62ffffff1681526020016101b862ffffff16815260200161022662ffffff16815260200161029e62ffffff16815260200161030c62ffffff16815260200161037a62ffffff1681526020016103e862ffffff16815260200161044c62ffffff1681526020016104b062ffffff16815260200161051462ffffff16815260200161057862ffffff16815260200161064062ffffff1681526020016106a462ffffff16815260200161947062ffffff16815260200161a41062ffffff16815260200161b3b062ffffff16815260200161c35062ffffff16815260200161d6d862ffffff1681526020016108fc62ffffff16815260200161096062ffffff168152602001610a2862ffffff168152602001610a8c62ffffff168152602001610af062ffffff168152602001610b5462ffffff168152602001610bb862ffffff168152602001610c1c62ffffff1681526020016201fbd062ffffff168152602001620222e062ffffff1681526020016202710062ffffff168152602001610e1062ffffff168152602001610e7462ffffff16815250600360026021811062004efe5762004efd62006d61565b5b6021020190602162004f1292919062006aaf565b50604051806104200160405280606e62ffffff16815260200160e662ffffff16815260200161015462ffffff1681526020016101cc62ffffff16815260200161023a62ffffff168152602001612af862ffffff1681526020016132c862ffffff168152602001613a9862ffffff16815260200161465062ffffff16815260200161044c62ffffff16815260200161051462ffffff16815260200161057862ffffff1681526020016105dc62ffffff16815260200161064062ffffff168152602001618ca062ffffff16815260200161070862ffffff16815260200161abe062ffffff16815260200161083462ffffff16815260200161089862ffffff1681526020016108fc62ffffff16815260200161fa0062ffffff1681526020016109c462ffffff168152602001610a2862ffffff168152602001610a8c62ffffff16815260200162016b4862ffffff168152602001620186a062ffffff1681526020016201adb062ffffff168152602001610c8062ffffff168152602001620222e062ffffff168152602001610d4862ffffff1681526020016202981062ffffff168152602001610e1062ffffff168152602001610ed862ffffff1681525060038060218110620050e457620050e362006d61565b5b60210201906021620050f892919062006aaf565b50604051806104200160405280607862ffffff16815260200160e662ffffff16815260200161015e62ffffff1681526020016101d662ffffff16815260200161245462ffffff168152602001612af862ffffff1681526020016136b062ffffff168152602001613e8062ffffff168152602001614a3862ffffff16815260200161520862ffffff16815260200161051462ffffff16815260200161057862ffffff1681526020016105dc62ffffff1681526020016184d062ffffff16815260200161070862ffffff16815260200161a41062ffffff1681526020016107d062ffffff16815260200161c73862ffffff16815260200161dac062ffffff1681526020016108fc62ffffff1681526020016109c462ffffff168152602001620124f862ffffff16815260200162013c6862ffffff16815260200162015f9062ffffff168152602001620182b862ffffff1681526020016201adb062ffffff1681526020016201d4c062ffffff168152602001610ce462ffffff168152602001620249f062ffffff168152602001610dac62ffffff1681526020016202bf2062ffffff168152602001610e7462ffffff168152602001610f3c62ffffff168152506003600460218110620052ce57620052cd62006d61565b5b60210201906021620052e292919062006aaf565b50604051806104200160405280607862ffffff16815260200160f062ffffff16815260200161157c62ffffff168152602001611d4c62ffffff16815260200161258062ffffff1681526020016102d062ffffff16815260200161034862ffffff1681526020016103c062ffffff16815260200161044c62ffffff1681526020016104b062ffffff1681526020016161a862ffffff16815260200161057862ffffff168152602001617d0062ffffff1681526020016106a462ffffff168152602001619c4062ffffff16815260200161076c62ffffff16815260200161bf6862ffffff16815260200161089862ffffff1681526020016108fc62ffffff16815260200161fde862ffffff1681526020016109c462ffffff1681526020016201349862ffffff168152602001620153d862ffffff168152602001610b5462ffffff1681526020016201adb062ffffff168152602001610c1c62ffffff1681526020016201fbd062ffffff168152602001610d4862ffffff1681526020016202710062ffffff168152602001610e1062ffffff16815260200162030d4062ffffff168152602001610ed862ffffff168152602001610fa062ffffff168152506003600560218110620054b657620054b562006d61565b5b60210201906021620054ca92919062006aaf565b50604051806104200160405280607862ffffff16815260200160fa62ffffff16815260200161164462ffffff1681526020016101ea62ffffff16815260200161271062ffffff1681526020016102e462ffffff168152602001613a9862ffffff16815260200161465062ffffff168152602001614e2062ffffff1681526020016159d862ffffff16815260200161057862ffffff1681526020016105dc62ffffff1681526020016184d062ffffff1681526020016106a462ffffff16815260200161a41062ffffff1681526020016107d062ffffff16815260200161c73862ffffff16815260200161089862ffffff1681526020016108fc62ffffff16815260200162010d8862ffffff168152602001610a2862ffffff1681526020016201482062ffffff168152602001610af062ffffff168152602001620186a062ffffff168152602001610c1c62ffffff168152602001610c8062ffffff168152602001620222e062ffffff168152602001610d4862ffffff1681526020016202981062ffffff168152602001610e7462ffffff16815260200162035b6062ffffff168152602001610f3c62ffffff16815260200161100462ffffff1681525060036006602181106200569e576200569d62006d61565b5b60210201906021620056b292919062006aaf565b50604051806104200160405280608262ffffff16815260200160fa62ffffff16815260200161177062ffffff1681526020016101f462ffffff16815260200161271062ffffff1681526020016102f862ffffff168152602001613e8062ffffff1681526020016103e862ffffff16815260200161044c62ffffff1681526020016161a862ffffff168152602001616d6062ffffff1681526020016105dc62ffffff1681526020016188b862ffffff16815260200161070862ffffff16815260200161abe062ffffff1681526020016107d062ffffff16815260200161d2f062ffffff1681526020016108fc62ffffff16815260200161096062ffffff1681526020016201194062ffffff168152602001610a2862ffffff168152602001620157c062ffffff168152602001610b5462ffffff1681526020016201adb062ffffff168152602001610c8062ffffff1681526020016201fbd062ffffff168152602001610d4862ffffff1681526020016202981062ffffff1681526020016202e63062ffffff168152602001610ed862ffffff1681526020016203a98062ffffff168152602001610fa062ffffff16815260200161106862ffffff16815250600360076021811062005887576200588662006d61565b5b602102019060216200589b92919062006aaf565b50604051806104200160405280608262ffffff16815260200161010462ffffff16815260200161183862ffffff16815260200161020862ffffff168152602001612af862ffffff16815260200161030262ffffff168152602001613e8062ffffff168152602001614a3862ffffff1681526020016155f062ffffff16815260200161051462ffffff16815260200161714862ffffff1681526020016180e862ffffff16815260200161908862ffffff16815260200161070862ffffff16815260200161b3b062ffffff16815260200161083462ffffff16815260200161dea862ffffff1681526020016108fc62ffffff1681526020016109c462ffffff16815260200162012cc862ffffff168152602001610a8c62ffffff16815260200162016f3062ffffff168152602001610bb862ffffff1681526020016201adb062ffffff168152602001610c8062ffffff168152602001620222e062ffffff1681526020016202710062ffffff168152602001610e1062ffffff168152602001610e7462ffffff168152602001610f3c62ffffff1681526020016203f7a062ffffff16815260200161100462ffffff1681526020016110cc62ffffff16815250600360086021811062005a705762005a6f62006d61565b5b6021020190602162005a8492919062006aaf565b50604051806104200160405280608262ffffff16815260200161010462ffffff16815260200161196462ffffff16815260200161021262ffffff168152602001612af862ffffff16815260200161031662ffffff16815260200161426862ffffff16815260200161044c62ffffff1681526020016159d862ffffff16815260200161697862ffffff1681526020016105dc62ffffff1681526020016184d062ffffff16815260200161985862ffffff16815260200161070862ffffff16815260200161bb8062ffffff16815260200161083462ffffff16815260200161089862ffffff168152602001620101d062ffffff1681526020016201211062ffffff168152602001610a2862ffffff168152602001610af062ffffff168152602001620182b862ffffff168152602001610bb862ffffff1681526020016201d4c062ffffff168152602001610ce462ffffff168152602001620249f062ffffff168152602001610e1062ffffff1681526020016202e63062ffffff168152602001610ed862ffffff168152602001610fa062ffffff16815260200162046cd062ffffff16815260200161106862ffffff16815260200161113062ffffff16815250600360096021811062005c5a5762005c5962006d61565b5b6021020190602162005c6e92919062006aaf565b50604051806104200160405280608c62ffffff16815260200161010e62ffffff168152602001611a2c62ffffff16815260200161021c62ffffff168152602001612ee062ffffff16815260200161032a62ffffff16815260200161465062ffffff16815260200161044c62ffffff168152602001615dc062ffffff16815260200161051462ffffff1681526020016105dc62ffffff168152602001618ca062ffffff16815260200161070862ffffff16815260200161b3b062ffffff1681526020016107d062ffffff16815260200161dac062ffffff1681526020016108fc62ffffff16815260200161096062ffffff168152602001610a2862ffffff168152602001610a8c62ffffff168152602001610af062ffffff1681526020016201adb062ffffff168152602001610c1c62ffffff1681526020016201fbd062ffffff168152602001610d4862ffffff1681526020016202710062ffffff168152602001610e1062ffffff1681526020016203345062ffffff168152602001610f3c62ffffff168152602001620445c062ffffff1681526020016204e20062ffffff1681526020016110cc62ffffff16815260200161119462ffffff168152506003600a6021811062005e435762005e4262006d61565b5b6021020190602162005e5792919062006aaf565b50604051806104200160405280608c62ffffff16815260200161011862ffffff168152602001611b5862ffffff16815260200161022662ffffff168152602001612ee062ffffff16815260200161033e62ffffff16815260200161465062ffffff1681526020016155f062ffffff1681526020016104b062ffffff16815260200161057862ffffff1681526020016180e862ffffff16815260200161947062ffffff16815260200161070862ffffff16815260200161076c62ffffff16815260200161cf0862ffffff16815260200161089862ffffff168152602001620101d062ffffff1681526020016109c462ffffff168152602001610a2862ffffff16815260200162015f9062ffffff168152602001620186a062ffffff1681526020016201adb062ffffff168152602001610c8062ffffff168152602001620222e062ffffff168152602001610d4862ffffff1681526020016202bf2062ffffff168152602001610e7462ffffff1681526020016203827062ffffff1681526020016203f7a062ffffff1681526020016204baf062ffffff16815260200162057e4062ffffff16815260200161113062ffffff1681526020016111f862ffffff168152506003600b6021811062006030576200602f62006d61565b5b602102019060216200604492919062006aaf565b50604051806104200160405280608c62ffffff16815260200161011862ffffff168152602001611c8462ffffff16815260200161023062ffffff1681526020016132c862ffffff16815260200161035262ffffff1681526020016103de62ffffff16815260200161044c62ffffff16815260200161051462ffffff16815260200161791862ffffff16815260200161064062ffffff1681526020016106a462ffffff16815260200161070862ffffff1681526020016107d062ffffff16815260200161083462ffffff16815260200161f23062ffffff1681526020016201117062ffffff168152602001620130b062ffffff168152602001620153d862ffffff16815260200162017ae862ffffff168152602001610bb862ffffff1681526020016201d4c062ffffff168152602001610c8062ffffff168152602001620249f062ffffff168152602001610dac62ffffff1681526020016202e63062ffffff168152602001610ed862ffffff168152602001610f3c62ffffff16815260200161100462ffffff16815260200161106862ffffff16815260200161113062ffffff16815260200161119462ffffff16815260200161125c62ffffff168152506003600c602181106200621a576200621962006d61565b5b602102019060216200622e92919062006aaf565b50604051806104200160405280608c62ffffff16815260200161012262ffffff168152602001611db062ffffff16815260200161024462ffffff1681526020016132c862ffffff16815260200161035c62ffffff168152602001614e2062ffffff168152602001615dc062ffffff168152602001616d6062ffffff16815260200161057862ffffff16815260200161064062ffffff1681526020016106a462ffffff16815260200161076c62ffffff1681526020016107d062ffffff16815260200161089862ffffff1681526020016108fc62ffffff16815260200161096062ffffff168152602001610a2862ffffff168152602001610a8c62ffffff168152602001610b5462ffffff168152602001610bb862ffffff1681526020016201fbd062ffffff168152602001610ce462ffffff1681526020016202710062ffffff168152602001610e1062ffffff1681526020016203345062ffffff168152602001610f3c62ffffff168152602001610fa062ffffff16815260200161106862ffffff1681526020016110cc62ffffff16815260200161119462ffffff1681526020016111f862ffffff1681526020016112c062ffffff168152506003600d602181106200640057620063ff62006d61565b5b602102019060216200641492919062006aaf565b50604051806104200160405280609662ffffff16815260200161012262ffffff1681526020016101b862ffffff168152602001612af862ffffff1681526020016136b062ffffff16815260200161426862ffffff16815260200161520862ffffff1681526020016161a862ffffff16815260200161051462ffffff1681526020016105dc62ffffff16815260200161064062ffffff16815260200161070862ffffff16815260200161076c62ffffff16815260200161083462ffffff16815260200161089862ffffff16815260200161096062ffffff1681526020016109c462ffffff168152602001610a2862ffffff168152602001610af062ffffff168152602001610b5462ffffff168152602001610c1c62ffffff168152602001620222e062ffffff1681526020016202710062ffffff1681526020016202981062ffffff16815260200162030d4062ffffff16815260200162035b6062ffffff168152602001610fa062ffffff16815260200161100462ffffff1681526020016110cc62ffffff16815260200161113062ffffff1681526020016111f862ffffff16815260200161125c62ffffff16815260200161132462ffffff168152506003600e60218110620065e857620065e762006d61565b5b60210201906021620065fc92919062006aaf565b50604051806104200160405280609661ffff16815260200161012c61ffff1681526020016101c261ffff16815260200161025861ffff1681526020016102ee61ffff16815260200161038461ffff16815260200161044c61ffff1681526020016104b061ffff16815260200161057861ffff1681526020016105dc61ffff1681526020016106a461ffff16815260200161070861ffff1681526020016107d061ffff16815260200161083461ffff1681526020016108fc61ffff16815260200161096061ffff168152602001610a2861ffff168152602001610a8c61ffff168152602001610b5461ffff168152602001610bb861ffff168152602001610c8061ffff168152602001610ce461ffff168152602001610dac61ffff168152602001610e1061ffff168152602001610ed861ffff168152602001610f3c61ffff16815260200161100461ffff16815260200161106861ffff16815260200161113061ffff16815260200161119461ffff16815260200161125c61ffff1681526020016112c061ffff16815260200161138861ffff168152506003600f60218110620067aa57620067a962006d61565b5b60210201906021620067be92919062006a64565b50604051806104200160405280609661ffff16815260200161013661ffff1681526020016101cc61ffff16815260200161026261ffff16815260200161030261ffff16815260200161039861ffff16815260200161044c61ffff1681526020016104b061ffff16815260200161057861ffff1681526020016105dc61ffff1681526020016106a461ffff16815260200161070861ffff1681526020016107d061ffff16815260200161083461ffff1681526020016108fc61ffff16815260200161096061ffff168152602001610a2861ffff168152602001610af061ffff168152602001610b5461ffff168152602001610c1c61ffff168152602001610c8061ffff168152602001610d4861ffff168152602001610dac61ffff168152602001610e7461ffff168152602001610ed861ffff168152602001610fa061ffff16815260200161100461ffff1681526020016110cc61ffff16815260200161113061ffff1681526020016111f861ffff16815260200161125c61ffff16815260200161132461ffff16815260200161138861ffff1681525060036010602181106200696c576200696b62006d61565b5b602102019060216200698092919062006a64565b508161088560016101000a81548173ffffffffffffffffffffffffffffffffffffffff021916908373ffffffffffffffffffffffffffffffffffffffff1602179055508061088660006101000a81548173ffffffffffffffffffffffffffffffffffffffff021916908373ffffffffffffffffffffffffffffffffffffffff160217905550505062006df4565b8260218002810192821562006a51579160200282015b8281111562006a505782518290602162006a3f92919062006afb565b509160200191906021019062006a23565b5b50905062006a60919062006b55565b5090565b826021810192821562006a9c579160200282015b8281111562006a9b578251829061ffff1690559160200191906001019062006a78565b5b50905062006aab919062006b7d565b5090565b826021810192821562006ae8579160200282015b8281111562006ae7578251829062ffffff1690559160200191906001019062006ac3565b5b50905062006af7919062006b7d565b5090565b826021810192821562006b42579160200282015b8281111562006b4157825182908051906020019062006b3092919062006b9c565b509160200191906001019062006b0f565b5b50905062006b51919062006c2d565b5090565b5b8082111562006b79576000818162006b6f919062006c55565b5060210162006b56565b5090565b5b8082111562006b9857600081600090555060010162006b7e565b5090565b82805462006baa9062006dbf565b90600052602060002090601f01602090048101928262006bce576000855562006c1a565b82601f1062006be957805160ff191683800117855562006c1a565b8280016001018555821562006c1a579182015b8281111562006c1957825182559160200191906001019062006bfc565b5b50905062006c29919062006b7d565b5090565b5b8082111562006c51576000818162006c47919062006c6a565b5060010162006c2e565b5090565b50806021019062006c67919062006c2d565b50565b50805462006c789062006dbf565b6000825580601f1062006c8c575062006cad565b601f01602090049060005260206000209081019062006cac919062006b7d565b5b50565b600080fd5b600073ffffffffffffffffffffffffffffffffffffffff82169050919050565b600062006ce28262006cb5565b9050919050565b62006cf48162006cd5565b811462006d0057600080fd5b50565b60008151905062006d148162006ce9565b92915050565b6000806040838503121562006d345762006d3362006cb0565b5b600062006d448582860162006d03565b925050602062006d578582860162006d03565b9150509250929050565b7f4e487b7100000000000000000000000000000000000000000000000000000000600052603260045260246000fd5b7f4e487b7100000000000000000000000000000000000000000000000000000000600052602260045260246000fd5b6000600282049050600182168062006dd857607f821691505b60208210810362006dee5762006ded62006d90565b5b50919050565b613b378062006e046000396000f3fe60806040526004361061011f5760003560e01c80636aa633b6116100a0578063a06101d011610064578063a06101d014610396578063ad9591e7146103c1578063b0e987db14610400578063eca83a691461043d578063f9cebc26146104595761011f565b80636aa633b6146102ac5780637d63215c146102d7578063819aca1d146103025780638da5cb5b146103405780639d602d2d1461036b5761011f565b806324600fc3116100e757806324600fc3146101fd57806325247c0114610214578063367545e21461023f578063367edd321461026a57806338b145df146102815761011f565b80630c081500146101245780630ce9befa14610150578063108c5e141461016c578063146008e31461019757806317ba786f146101d4575b600080fd5b34801561013057600080fd5b50610139610496565b604051610147929190612aa9565b60405180910390f35b61016a60048036038101906101659190612c5f565b61073a565b005b34801561017857600080fd5b50610181610829565b60405161018e9190612cdd565b60405180910390f35b3480156101a357600080fd5b506101be60048036038101906101b99190612cf8565b61082e565b6040516101cb9190612cdd565b60405180910390f35b3480156101e057600080fd5b506101fb60048036038101906101f69190612d38565b610859565b005b34801561020957600080fd5b50610212610a79565b005b34801561022057600080fd5b50610229610bb9565b6040516102369190612e1a565b60405180910390f35b34801561024b57600080fd5b50610254610be0565b6040516102619190613104565b60405180910390f35b34801561027657600080fd5b5061027f611022565b005b34801561028d57600080fd5b506102966112ba565b6040516102a39190612cdd565b60405180910390f35b3480156102b857600080fd5b506102c16112bf565b6040516102ce9190613141565b60405180910390f35b3480156102e357600080fd5b506102ec6112d3565b6040516102f99190612e1a565b60405180910390f35b34801561030e57600080fd5b5061032960048036038101906103249190612cf8565b6112fa565b6040516103379291906131b5565b60405180910390f35b34801561034c57600080fd5b506103556115f4565b6040516103629190613206565b60405180910390f35b34801561037757600080fd5b50610380611618565b60405161038d9190613141565b60405180910390f35b3480156103a257600080fd5b506103ab611630565b6040516103b89190612cdd565b60405180910390f35b3480156103cd57600080fd5b506103e860048036038101906103e39190612cf8565b611843565b6040516103f793929190613221565b60405180910390f35b34801561040c57600080fd5b5061042760048036038101906104229190612cf8565b611b36565b6040516104349190612cdd565b60405180910390f35b61045760048036038101906104529190612d38565b611b64565b005b34801561046557600080fd5b50610480600480360381019061047b9190612cf8565b612021565b60405161048d919061325f565b60405180910390f35b6060806104a1611618565b6104e0576040517f08c379a00000000000000000000000000000000000000000000000000000000081526004016104d7906132cd565b60405180910390fd5b60006104ea6120d8565b905060006104f66120e1565b905060008167ffffffffffffffff81111561051457610513612b34565b5b60405190808252806020026020018201604052801561054757816020015b60608152602001906001900390816105325790505b50905060008267ffffffffffffffff81111561056657610565612b34565b5b60405190808252806020026020018201604052801561059957816020015b60608152602001906001900390816105845790505b50905060005b8381101561072b5760008567ffffffffffffffff8111156105c3576105c2612b34565b5b6040519080825280602002602001820160405280156105f15781602001602082028036833780820191505090505b50905060008667ffffffffffffffff8111156106105761060f612b34565b5b60405190808252806020026020018201604052801561064357816020015b606081526020019060019003908161062e5790505b50905060005b878110156106d75761065b81856112fa565b84838151811061066e5761066d6132ed565b5b60200260200101848481518110610688576106876132ed565b5b602002602001018290528273ffffffffffffffffffffffffffffffffffffffff1673ffffffffffffffffffffffffffffffffffffffff16815250505080806106cf9061334b565b915050610649565b50818584815181106106ec576106eb6132ed565b5b60200260200101819052508084848151811061070b5761070a6132ed565b5b6020026020010181905250505080806107239061334b565b91505061059f565b50818195509550505050509091565b610742611618565b610781576040517f08c379a0000000000000000000000000000000000000000000000000000000008152600401610778906132cd565b60405180910390fd5b828261078b6120d8565b82106107cc576040517f08c379a00000000000000000000000000000000000000000000000000000000081526004016107c3906133df565b60405180910390fd5b6107d46120e1565b8110610815576040517f08c379a000000000000000000000000000000000000000000000000000000000815260040161080c9061344b565b60405180910390fd5b6108228585600186611b64565b5050505050565b601181565b6001602052816000526040600020602052806000526040600020600091509150508060000154905081565b610861611618565b6108a0576040517f08c379a0000000000000000000000000000000000000000000000000000000008152600401610897906132cd565b60405180910390fd5b83836108aa6120d8565b82106108eb576040517f08c379a00000000000000000000000000000000000000000000000000000000081526004016108e2906133df565b60405180910390fd5b6108f36120e1565b8110610934576040517f08c379a000000000000000000000000000000000000000000000000000000000815260040161092b9061344b565b60405180910390fd5b8585853373ffffffffffffffffffffffffffffffffffffffff166001600084815260200190815260200160002060008581526020019081526020016000206001018281548110610987576109866132ed565b5b906000526020600020906002020160000160009054906101000a900473ffffffffffffffffffffffffffffffffffffffff1673ffffffffffffffffffffffffffffffffffffffff1614610a0f576040517f08c379a0000000000000000000000000000000000000000000000000000000008152600401610a06906134b7565b60405180910390fd5b85600160008a815260200190815260200160002060008b81526020019081526020016000206001018881548110610a4957610a486132ed565b5b90600052602060002090600202016001019080519060200190610a6d9291906125ed565b50505050505050505050565b60008054906101000a900473ffffffffffffffffffffffffffffffffffffffff1673ffffffffffffffffffffffffffffffffffffffff163373ffffffffffffffffffffffffffffffffffffffff1614610b07576040517f08c379a0000000000000000000000000000000000000000000000000000000008152600401610afe90613549565b60405180910390fd5b600047905060008111610b4f576040517f08c379a0000000000000000000000000000000000000000000000000000000008152600401610b46906135b5565b60405180910390fd5b60008054906101000a900473ffffffffffffffffffffffffffffffffffffffff1673ffffffffffffffffffffffffffffffffffffffff166108fc829081150290604051600060405180830381858888f19350505050158015610bb5573d6000803e3d6000fd5b5050565b61088560019054906101000a900473ffffffffffffffffffffffffffffffffffffffff1681565b6060610bea611618565b610c29576040517f08c379a0000000000000000000000000000000000000000000000000000000008152600401610c20906132cd565b60405180910390fd5b6000610c336120d8565b90506000610c3f6120e1565b905060008167ffffffffffffffff811115610c5d57610c5c612b34565b5b604051908082528060200260200182016040528015610c9057816020015b6060815260200190600190039081610c7b5790505b50905060005b828110156110185760008467ffffffffffffffff811115610cba57610cb9612b34565b5b604051908082528060200260200182016040528015610cf357816020015b610ce0612673565b815260200190600190039081610cd85790505b50905060005b85811015610fe4576000806000610d108487611843565b92509250925082858581518110610d2a57610d296132ed565b5b6020026020010151600001818152505060008103610e4657600167ffffffffffffffff811115610d5d57610d5c612b34565b5b604051908082528060200260200182016040528015610d9657816020015b610d8361268d565b815260200190600190039081610d7b5790505b50858581518110610daa57610da96132ed565b5b602002602001015160200181905250604051806040016040528060008054906101000a900473ffffffffffffffffffffffffffffffffffffffff1673ffffffffffffffffffffffffffffffffffffffff16815260200183815250858581518110610e1757610e166132ed565b5b602002602001015160200151600081518110610e3657610e356132ed565b5b6020026020010181905250610fce565b600160008781526020019081526020016000206000858152602001908152602001600020600101805480602002602001604051908101604052809291908181526020016000905b82821015610fa757838290600052602060002090600202016040518060400160405290816000820160009054906101000a900473ffffffffffffffffffffffffffffffffffffffff1673ffffffffffffffffffffffffffffffffffffffff1673ffffffffffffffffffffffffffffffffffffffff168152602001600182018054610f1690613604565b80601f0160208091040260200160405190810160405280929190818152602001828054610f4290613604565b8015610f8f5780601f10610f6457610100808354040283529160200191610f8f565b820191906000526020600020905b815481529060010190602001808311610f7257829003601f168201915b50505050508152505081526020019060010190610e8d565b50505050858581518110610fbe57610fbd6132ed565b5b6020026020010151602001819052505b5050508080610fdc9061334b565b915050610cf9565b5080838381518110610ff957610ff86132ed565b5b60200260200101819052505080806110109061334b565b915050610c96565b5080935050505090565b60008054906101000a900473ffffffffffffffffffffffffffffffffffffffff1673ffffffffffffffffffffffffffffffffffffffff163373ffffffffffffffffffffffffffffffffffffffff16146110b0576040517f08c379a00000000000000000000000000000000000000000000000000000000081526004016110a790613549565b60405180910390fd5b600061088560019054906101000a900473ffffffffffffffffffffffffffffffffffffffff1673ffffffffffffffffffffffffffffffffffffffff1663a06101d06040518163ffffffff1660e01b8152600401602060405180830381865afa158015611120573d6000803e3d6000fd5b505050506040513d601f19601f82011682018060405250810190611144919061364a565b9050600061088660009054906101000a900473ffffffffffffffffffffffffffffffffffffffff1673ffffffffffffffffffffffffffffffffffffffff1663a06101d06040518163ffffffff1660e01b8152600401602060405180830381865afa1580156111b6573d6000803e3d6000fd5b505050506040513d601f19601f820116820180604052508101906111da919061364a565b905065082f79cd9000821015611225576040517f08c379a000000000000000000000000000000000000000000000000000000000815260040161121c906136e9565b60405180910390fd5b6516bcc41e900081101561126e576040517f08c379a00000000000000000000000000000000000000000000000000000000081526004016112659061377b565b60405180910390fd5b600161088560006101000a81548160ff0219169083151502179055507f961479333f7baab3eea2ead54f4113612e06058e0f3cdd932672aa14bcd831c260405160405180910390a15050565b602181565b61088560009054906101000a900460ff1681565b61088660009054906101000a900473ffffffffffffffffffffffffffffffffffffffff1681565b60006060611306611618565b611345576040517f08c379a000000000000000000000000000000000000000000000000000000000815260040161133c906132cd565b60405180910390fd5b838361134f6120d8565b8210611390576040517f08c379a0000000000000000000000000000000000000000000000000000000008152600401611387906133df565b60405180910390fd5b6113986120e1565b81106113d9576040517f08c379a00000000000000000000000000000000000000000000000000000000081526004016113d09061344b565b60405180910390fd5b60006001600087815260200190815260200160002060008881526020019081526020016000206040518060400160405290816000820154815260200160018201805480602002602001604051908101604052809291908181526020016000905b8282101561155357838290600052602060002090600202016040518060400160405290816000820160009054906101000a900473ffffffffffffffffffffffffffffffffffffffff1673ffffffffffffffffffffffffffffffffffffffff1673ffffffffffffffffffffffffffffffffffffffff1681526020016001820180546114c290613604565b80601f01602080910402602001604051908101604052809291908181526020018280546114ee90613604565b801561153b5780601f106115105761010080835404028352916020019161153b565b820191906000526020600020905b81548152906001019060200180831161151e57829003601f168201915b50505050508152505081526020019060010190611439565b505050508152505090506000816020015151036115a657600061157688886120ea565b91505060008054906101000a900473ffffffffffffffffffffffffffffffffffffffff16819550955050506115eb565b6000816020015160018360200151516115bf919061379b565b815181106115d0576115cf6132ed565b5b60200260200101519050806000015181602001519550955050505b50509250929050565b60008054906101000a900473ffffffffffffffffffffffffffffffffffffffff1681565b600061088560009054906101000a900460ff16905090565b6000806000905060006116416120d8565b9050600061164d6120e1565b905060005b818110156118395760005b838110156118255760006001600084815260200190815260200160002060008381526020019081526020016000206040518060400160405290816000820154815260200160018201805480602002602001604051908101604052809291908181526020016000905b828210156117df57838290600052602060002090600202016040518060400160405290816000820160009054906101000a900473ffffffffffffffffffffffffffffffffffffffff1673ffffffffffffffffffffffffffffffffffffffff1673ffffffffffffffffffffffffffffffffffffffff16815260200160018201805461174e90613604565b80601f016020809104026020016040519081016040528092919081815260200182805461177a90613604565b80156117c75780601f1061179c576101008083540402835291602001916117c7565b820191906000526020600020905b8154815290600101906020018083116117aa57829003601f168201915b505050505081525050815260200190600101906116c5565b505050508152505090506000816020015151826000015161180091906137cf565b9050808761180e9190613829565b96505050808061181d9061334b565b91505061165d565b5080806118319061334b565b915050611652565b5082935050505090565b600060606000611851611618565b611890576040517f08c379a0000000000000000000000000000000000000000000000000000000008152600401611887906132cd565b60405180910390fd5b848461189a6120d8565b82106118db576040517f08c379a00000000000000000000000000000000000000000000000000000000081526004016118d2906133df565b60405180910390fd5b6118e36120e1565b8110611924576040517f08c379a000000000000000000000000000000000000000000000000000000000815260040161191b9061344b565b60405180910390fd5b60006001600088815260200190815260200160002060008981526020019081526020016000206040518060400160405290816000820154815260200160018201805480602002602001604051908101604052809291908181526020016000905b82821015611a9e57838290600052602060002090600202016040518060400160405290816000820160009054906101000a900473ffffffffffffffffffffffffffffffffffffffff1673ffffffffffffffffffffffffffffffffffffffff1673ffffffffffffffffffffffffffffffffffffffff168152602001600182018054611a0d90613604565b80601f0160208091040260200160405190810160405280929190818152602001828054611a3990613604565b8015611a865780601f10611a5b57610100808354040283529160200191611a86565b820191906000526020600020905b815481529060010190602001808311611a6957829003601f168201915b50505050508152505081526020019060010190611984565b50505050815250509050600081602001515103611ae657600080611ac28a8a6120ea565b91509150620f424082611ad591906137cf565b816000975097509750505050611b2d565b806000015181602001516001836020015151611b02919061379b565b81518110611b1357611b126132ed565b5b602002602001015160200151826020015151955095509550505b50509250925092565b60038260218110611b4657600080fd5b602102018160218110611b5857600080fd5b01600091509150505481565b611b6c611618565b611bab576040517f08c379a0000000000000000000000000000000000000000000000000000000008152600401611ba2906132cd565b60405180910390fd5b8383611bb56120d8565b8210611bf6576040517f08c379a0000000000000000000000000000000000000000000000000000000008152600401611bed906133df565b60405180910390fd5b611bfe6120e1565b8110611c3f576040517f08c379a0000000000000000000000000000000000000000000000000000000008152600401611c369061344b565b60405180910390fd5b600a841115611c83576040517f08c379a0000000000000000000000000000000000000000000000000000000008152600401611c7a906138f1565b60405180910390fd5b611c8d8686612263565b6000633b9aca0060016000888152602001908152602001600020600089815260200190815260200160002060000154611cc691906137cf565b9050600060016000888152602001908152602001600020600089815260200190815260200160002060010180549050905060006002600188846002611d0b91906137cf565b611d159190613829565b611d1f919061379b565b88611d2a91906137cf565b611d349190613940565b905060006002600189611d47919061379b565b89611d5291906137cf565b611d5c9190613940565b84611d6791906137cf565b90506000818386611d7891906137cf565b611d82919061379b565b9050803414611dc6576040517f08c379a0000000000000000000000000000000000000000000000000000000008152600401611dbd906139bd565b60405180910390fd5b60005b84811015611eb5576000600160008d815260200190815260200160002060008e81526020019081526020016000206001018281548110611e0c57611e0b6132ed565b5b906000526020600020906002020160000160009054906101000a900473ffffffffffffffffffffffffffffffffffffffff1690508a87611e4c91906137cf565b600260008373ffffffffffffffffffffffffffffffffffffffff1673ffffffffffffffffffffffffffffffffffffffff1681526020019081526020016000206000828254611e9a9190613829565b92505081905550508080611ead9061334b565b915050611dc9565b50611ec08b8b61241c565b60005b89811015611fbf57600160008c815260200190815260200160002060008d815260200190815260200160002060010160405180604001604052803373ffffffffffffffffffffffffffffffffffffffff1681526020018b815250908060018154018082558091505060019003906000526020600020906002020160009091909190915060008201518160000160006101000a81548173ffffffffffffffffffffffffffffffffffffffff021916908373ffffffffffffffffffffffffffffffffffffffff1602179055506020820151816001019080519060200190611fa99291906125ed565b5050508080611fb79061334b565b915050611ec3565b503373ffffffffffffffffffffffffffffffffffffffff167fe658510eab96e65991bb68ee771137bf387eaa3dc4a16189ea0f525766e76b2a8c8c8c8c60405161200c94939291906139dd565b60405180910390a25050505050505050505050565b610444826021811061203257600080fd5b60210201816021811061204457600080fd5b0160009150915050805461205790613604565b80601f016020809104026020016040519081016040528092919081815260200182805461208390613604565b80156120d05780601f106120a5576101008083540402835291602001916120d0565b820191906000526020600020905b8154815290600101906020018083116120b357829003601f168201915b505050505081565b60006021905090565b60006011905090565b6000606060218410612131576040517f08c379a000000000000000000000000000000000000000000000000000000000815260040161212890613a75565b60405180910390fd5b60118310612174576040517f08c379a000000000000000000000000000000000000000000000000000000000815260040161216b90613ae1565b60405180910390fd5b60038360218110612188576121876132ed565b5b60210201846021811061219e5761219d6132ed565b5b015461044484602181106121b5576121b46132ed565b5b6021020185602181106121cb576121ca6132ed565b5b018080546121d890613604565b80601f016020809104026020016040519081016040528092919081815260200182805461220490613604565b80156122515780601f1061222657610100808354040283529160200191612251565b820191906000526020600020905b81548152906001019060200180831161223457829003601f168201915b50505050509050915091509250929050565b6000600160008381526020019081526020016000206000848152602001908152602001600020600001541480156122c45750600060016000838152602001908152602001600020600084815260200190815260200160002060010180549050145b15612418576000806122d684846120ea565b91509150620f4240826122e991906137cf565b60016000858152602001908152602001600020600086815260200190815260200160002060000181905550600160008481526020019081526020016000206000858152602001908152602001600020600101604051806040016040528060008054906101000a900473ffffffffffffffffffffffffffffffffffffffff1673ffffffffffffffffffffffffffffffffffffffff16815260200183815250908060018154018082558091505060019003906000526020600020906002020160009091909190915060008201518160000160006101000a81548173ffffffffffffffffffffffffffffffffffffffff021916908373ffffffffffffffffffffffffffffffffffffffff16021790555060208201518160010190805190602001906124129291906125ed565b50505050505b5050565b60005b600160008381526020019081526020016000206000848152602001908152602001600020600101805490508110156125e8576000600160008481526020019081526020016000206000858152602001908152602001600020600101828154811061248c5761248b6132ed565b5b906000526020600020906002020160000160009054906101000a900473ffffffffffffffffffffffffffffffffffffffff1690506000600260008373ffffffffffffffffffffffffffffffffffffffff1673ffffffffffffffffffffffffffffffffffffffff1681526020019081526020016000205411156125d4578073ffffffffffffffffffffffffffffffffffffffff166108fc600260008473ffffffffffffffffffffffffffffffffffffffff1673ffffffffffffffffffffffffffffffffffffffff168152602001908152602001600020549081150290604051600060405180830381858888f1935050505015801561258d573d6000803e3d6000fd5b506000600260008373ffffffffffffffffffffffffffffffffffffffff1673ffffffffffffffffffffffffffffffffffffffff168152602001908152602001600020819055505b5080806125e09061334b565b91505061241f565b505050565b8280546125f990613604565b90600052602060002090601f01602090048101928261261b5760008555612662565b82601f1061263457805160ff1916838001178555612662565b82800160010185558215612662579182015b82811115612661578251825591602001919060010190612646565b5b50905061266f91906126bd565b5090565b604051806040016040528060008152602001606081525090565b6040518060400160405280600073ffffffffffffffffffffffffffffffffffffffff168152602001606081525090565b5b808211156126d65760008160009055506001016126be565b5090565b600081519050919050565b600082825260208201905092915050565b6000819050602082019050919050565b600081519050919050565b600082825260208201905092915050565b6000819050602082019050919050565b600073ffffffffffffffffffffffffffffffffffffffff82169050919050565b600061275d82612732565b9050919050565b61276d81612752565b82525050565b600061277f8383612764565b60208301905092915050565b6000602082019050919050565b60006127a382612706565b6127ad8185612711565b93506127b883612722565b8060005b838110156127e95781516127d08882612773565b97506127db8361278b565b9250506001810190506127bc565b5085935050505092915050565b60006128028383612798565b905092915050565b6000602082019050919050565b6000612822826126da565b61282c81856126e5565b93508360208202850161283e856126f6565b8060005b8581101561287a578484038952815161285b85826127f6565b94506128668361280a565b925060208a01995050600181019050612842565b50829750879550505050505092915050565b600081519050919050565b600082825260208201905092915050565b6000819050602082019050919050565b600081519050919050565b600082825260208201905092915050565b6000819050602082019050919050565b600081519050919050565b600082825260208201905092915050565b60005b8381101561291e578082015181840152602081019050612903565b8381111561292d576000848401525b50505050565b6000601f19601f8301169050919050565b600061294f826128e4565b61295981856128ef565b9350612969818560208601612900565b61297281612933565b840191505092915050565b60006129898383612944565b905092915050565b6000602082019050919050565b60006129a9826128b8565b6129b381856128c3565b9350836020820285016129c5856128d4565b8060005b85811015612a0157848403895281516129e2858261297d565b94506129ed83612991565b925060208a019950506001810190506129c9565b50829750879550505050505092915050565b6000612a1f838361299e565b905092915050565b6000602082019050919050565b6000612a3f8261288c565b612a498185612897565b935083602082028501612a5b856128a8565b8060005b85811015612a975784840389528151612a788582612a13565b9450612a8383612a27565b925060208a01995050600181019050612a5f565b50829750879550505050505092915050565b60006040820190508181036000830152612ac38185612817565b90508181036020830152612ad78184612a34565b90509392505050565b6000604051905090565b600080fd5b600080fd5b6000819050919050565b612b0781612af4565b8114612b1257600080fd5b50565b600081359050612b2481612afe565b92915050565b600080fd5b600080fd5b7f4e487b7100000000000000000000000000000000000000000000000000000000600052604160045260246000fd5b612b6c82612933565b810181811067ffffffffffffffff82111715612b8b57612b8a612b34565b5b80604052505050565b6000612b9e612ae0565b9050612baa8282612b63565b919050565b600067ffffffffffffffff821115612bca57612bc9612b34565b5b612bd382612933565b9050602081019050919050565b82818337600083830152505050565b6000612c02612bfd84612baf565b612b94565b905082815260208101848484011115612c1e57612c1d612b2f565b5b612c29848285612be0565b509392505050565b600082601f830112612c4657612c45612b2a565b5b8135612c56848260208601612bef565b91505092915050565b600080600060608486031215612c7857612c77612aea565b5b6000612c8686828701612b15565b9350506020612c9786828701612b15565b925050604084013567ffffffffffffffff811115612cb857612cb7612aef565b5b612cc486828701612c31565b9150509250925092565b612cd781612af4565b82525050565b6000602082019050612cf26000830184612cce565b92915050565b60008060408385031215612d0f57612d0e612aea565b5b6000612d1d85828601612b15565b9250506020612d2e85828601612b15565b9150509250929050565b60008060008060808587031215612d5257612d51612aea565b5b6000612d6087828801612b15565b9450506020612d7187828801612b15565b9350506040612d8287828801612b15565b925050606085013567ffffffffffffffff811115612da357612da2612aef565b5b612daf87828801612c31565b91505092959194509250565b6000819050919050565b6000612de0612ddb612dd684612732565b612dbb565b612732565b9050919050565b6000612df282612dc5565b9050919050565b6000612e0482612de7565b9050919050565b612e1481612df9565b82525050565b6000602082019050612e2f6000830184612e0b565b92915050565b600081519050919050565b600082825260208201905092915050565b6000819050602082019050919050565b600081519050919050565b600082825260208201905092915050565b6000819050602082019050919050565b612e9681612af4565b82525050565b600081519050919050565b600082825260208201905092915050565b6000819050602082019050919050565b6000604083016000830151612ee06000860182612764565b5060208301518482036020860152612ef88282612944565b9150508091505092915050565b6000612f118383612ec8565b905092915050565b6000602082019050919050565b6000612f3182612e9c565b612f3b8185612ea7565b935083602082028501612f4d85612eb8565b8060005b85811015612f895784840389528151612f6a8582612f05565b9450612f7583612f19565b925060208a01995050600181019050612f51565b50829750879550505050505092915050565b6000604083016000830151612fb36000860182612e8d565b5060208301518482036020860152612fcb8282612f26565b9150508091505092915050565b6000612fe48383612f9b565b905092915050565b6000602082019050919050565b600061300482612e61565b61300e8185612e6c565b93508360208202850161302085612e7d565b8060005b8581101561305c578484038952815161303d8582612fd8565b945061304883612fec565b925060208a01995050600181019050613024565b50829750879550505050505092915050565b600061307a8383612ff9565b905092915050565b6000602082019050919050565b600061309a82612e35565b6130a48185612e40565b9350836020820285016130b685612e51565b8060005b858110156130f257848403895281516130d3858261306e565b94506130de83613082565b925060208a019950506001810190506130ba565b50829750879550505050505092915050565b6000602082019050818103600083015261311e818461308f565b905092915050565b60008115159050919050565b61313b81613126565b82525050565b60006020820190506131566000830184613132565b92915050565b61316581612752565b82525050565b600082825260208201905092915050565b6000613187826128e4565b613191818561316b565b93506131a1818560208601612900565b6131aa81612933565b840191505092915050565b60006040820190506131ca600083018561315c565b81810360208301526131dc818461317c565b90509392505050565b60006131f082612732565b9050919050565b613200816131e5565b82525050565b600060208201905061321b60008301846131f7565b92915050565b60006060820190506132366000830186612cce565b8181036020830152613248818561317c565b90506132576040830184612cce565b949350505050565b60006020820190508181036000830152613279818461317c565b905092915050565b7f436f6e7472616374206973206e6f7420656e61626c6564000000000000000000600082015250565b60006132b760178361316b565b91506132c282613281565b602082019050919050565b600060208201905081810360008301526132e6816132aa565b9050919050565b7f4e487b7100000000000000000000000000000000000000000000000000000000600052603260045260246000fd5b7f4e487b7100000000000000000000000000000000000000000000000000000000600052601160045260246000fd5b600061335682612af4565b91507fffffffffffffffffffffffffffffffffffffffffffffffffffffffffffffffff82036133885761338761331c565b5b600182019050919050565b7f496e76616c6964207820636f6f7264696e617465000000000000000000000000600082015250565b60006133c960148361316b565b91506133d482613393565b602082019050919050565b600060208201905081810360008301526133f8816133bc565b9050919050565b7f496e76616c6964207920636f6f7264696e617465000000000000000000000000600082015250565b600061343560148361316b565b9150613440826133ff565b602082019050919050565b6000602082019050818103600083015261346481613428565b9050919050565b7f4e6f7420746865206f776e6572206f662074686973206c617965720000000000600082015250565b60006134a1601b8361316b565b91506134ac8261346b565b602082019050919050565b600060208201905081810360008301526134d081613494565b9050919050565b7f4f6e6c7920746865206f776e65722063616e2063616c6c20746869732066756e60008201527f6374696f6e000000000000000000000000000000000000000000000000000000602082015250565b600061353360258361316b565b915061353e826134d7565b604082019050919050565b6000602082019050818103600083015261356281613526565b9050919050565b7f4e6f2066756e647320746f207769746864726177000000000000000000000000600082015250565b600061359f60148361316b565b91506135aa82613569565b602082019050919050565b600060208201905081810360008301526135ce81613592565b9050919050565b7f4e487b7100000000000000000000000000000000000000000000000000000000600052602260045260246000fd5b6000600282049050600182168061361c57607f821691505b60208210810361362f5761362e6135d5565b5b50919050565b60008151905061364481612afe565b92915050565b6000602082840312156136605761365f612aea565b5b600061366e84828501613635565b91505092915050565b7f4e6f7420656e6f75676820746f74616c2076616c756520696e2053746167652060008201527f3100000000000000000000000000000000000000000000000000000000000000602082015250565b60006136d360218361316b565b91506136de82613677565b604082019050919050565b60006020820190508181036000830152613702816136c6565b9050919050565b7f4e6f7420656e6f75676820746f74616c2076616c756520696e2053746167652060008201527f3200000000000000000000000000000000000000000000000000000000000000602082015250565b600061376560218361316b565b915061377082613709565b604082019050919050565b6000602082019050818103600083015261379481613758565b9050919050565b60006137a682612af4565b91506137b183612af4565b9250828210156137c4576137c361331c565b5b828203905092915050565b60006137da82612af4565b91506137e583612af4565b9250817fffffffffffffffffffffffffffffffffffffffffffffffffffffffffffffffff048311821515161561381e5761381d61331c565b5b828202905092915050565b600061383482612af4565b915061383f83612af4565b9250827fffffffffffffffffffffffffffffffffffffffffffffffffffffffffffffffff038211156138745761387361331c565b5b828201905092915050565b7f43616e6e6f7420627579206d6f7265207468616e203130206c6179657273206160008201527f74206f6e63650000000000000000000000000000000000000000000000000000602082015250565b60006138db60268361316b565b91506138e68261387f565b604082019050919050565b6000602082019050818103600083015261390a816138ce565b9050919050565b7f4e487b7100000000000000000000000000000000000000000000000000000000600052601260045260246000fd5b600061394b82612af4565b915061395683612af4565b92508261396657613965613911565b5b828204905092915050565b7f496e636f727265637420504f4c2073656e740000000000000000000000000000600082015250565b60006139a760128361316b565b91506139b282613971565b602082019050919050565b600060208201905081810360008301526139d68161399a565b9050919050565b60006080820190506139f26000830187612cce565b6139ff6020830186612cce565b613a0c6040830185612cce565b8181036060830152613a1e818461317c565b905095945050505050565b7f496e76616c696420782d636f6f7264696e617465000000000000000000000000600082015250565b6000613a5f60148361316b565b9150613a6a82613a29565b602082019050919050565b60006020820190508181036000830152613a8e81613a52565b9050919050565b7f496e76616c696420792d636f6f7264696e617465000000000000000000000000600082015250565b6000613acb60148361316b565b9150613ad682613a95565b602082019050919050565b60006020820190508181036000830152613afa81613abe565b905091905056fea2646970667358221220faf92066596f40c8deba25b78dfe5a2d2c222279bd6b3377284ca7dd4a51e27d64736f6c634300080d0033",
  "immutableReferences": {},
  "source": "// SPDX-License-Identifier: MIT\npragma solidity >=0.4.22 <0.9.0;\n\nimport \"./BaseContract.sol\";\nimport \"./DataStorage3.sol\";\n\ncontract Pixelflux3 is BaseContract, DataStorage3 {\n    bool public isEnabled = false;\n    BaseContract public baseContract1;\n    BaseContract public baseContract2;\n\n    event ContractEnabled();\n\n    function isContractEnabled() public override view returns(bool) {\n        return isEnabled;\n    }\n\n    constructor(address _baseContractAddress1, address _baseContractAddress2) {\n        baseContract1 = BaseContract(_baseContractAddress1);\n        baseContract2 = BaseContract(_baseContractAddress2);\n    }\n\n    function enableContract() public onlyOwner {\n        uint256 totalValue1 = baseContract1.calculateTotalValue();\n        uint256 totalValue2 = baseContract2.calculateTotalValue();\n        require(totalValue1 >= 9000 * 10**9, \"Not enough total value in Stage 1\");\n        require(totalValue2 >= 25000 * 10**9, \"Not enough total value in Stage 2\");\n        isEnabled = true;\n        \n        emit ContractEnabled();\n    }\n\n    function getInitialValue(uint x, uint y) internal override view returns (uint256, string memory) {\n        require(x < gridWidth, \"Invalid x-coordinate\");\n        require(y < gridHeight, \"Invalid y-coordinate\");\n        return (initialValues[y][x], colorValues[y][x]);\n    }\n\n    function getGridWidth() internal override pure returns (uint256) {\n        return gridWidth;\n    }\n\n    function getGridHeight() internal override pure returns (uint256) {\n        return gridHeight;\n    }\n}\n",
  "sourcePath": "/home/wao/Meteor/Workspace/Sao/pixelflux/contracts/Pixelflux3.sol",
  "compiler": {
    "name": "solc",
    "version": "0.8.13+commit.abaa5c0e.Emscripten.clang"
  },
  "schemaVersion": "3.4.13",
  "updatedAt": "2024-02-04T08:19:10.469Z",
  "devdoc": {
    "kind": "dev",
    "methods": {},
    "version": 1
  },
  "userdoc": {
    "kind": "user",
    "methods": {},
    "version": 1
  }
}